{
	"Homework2.sol": {
		"toDoList": {
			"abi": [
				{
					"inputs": [
						{
							"internalType": "uint256",
							"name": "index",
							"type": "uint256"
						}
					],
					"name": "completed",
					"outputs": [],
					"stateMutability": "nonpayable",
					"type": "function"
				},
				{
					"inputs": [
						{
							"internalType": "string",
							"name": "text",
							"type": "string"
						}
					],
					"name": "create",
					"outputs": [],
					"stateMutability": "nonpayable",
					"type": "function"
				},
				{
					"inputs": [
						{
							"internalType": "uint256",
							"name": "index",
							"type": "uint256"
						}
					],
					"name": "getToDo",
					"outputs": [
						{
							"internalType": "string",
							"name": "",
							"type": "string"
						},
						{
							"internalType": "bool",
							"name": "",
							"type": "bool"
						}
					],
					"stateMutability": "view",
					"type": "function"
				},
				{
					"inputs": [
						{
							"internalType": "uint256",
							"name": "",
							"type": "uint256"
						}
					],
					"name": "toDoArr",
					"outputs": [
						{
							"internalType": "bool",
							"name": "hasDone",
							"type": "bool"
						},
						{
							"internalType": "string",
							"name": "job",
							"type": "string"
						}
					],
					"stateMutability": "view",
					"type": "function"
				},
				{
					"inputs": [
						{
							"internalType": "uint256",
							"name": "index",
							"type": "uint256"
						},
						{
							"internalType": "string",
							"name": "newText",
							"type": "string"
						}
					],
					"name": "updateToDo",
					"outputs": [],
					"stateMutability": "nonpayable",
					"type": "function"
				}
			],
			"devdoc": {
				"kind": "dev",
				"methods": {},
				"version": 1
			},
			"evm": {
				"assembly": "    /* \"Homework2.sol\":57:735  contract toDoList{... */\n  mstore(0x40, 0x80)\n  callvalue\n  dup1\n  iszero\n  tag_1\n  jumpi\n  0x00\n  dup1\n  revert\ntag_1:\n  pop\n  dataSize(sub_0)\n  dup1\n  dataOffset(sub_0)\n  0x00\n  codecopy\n  0x00\n  return\nstop\n\nsub_0: assembly {\n        /* \"Homework2.sol\":57:735  contract toDoList{... */\n      mstore(0x40, 0x80)\n      callvalue\n      dup1\n      iszero\n      tag_1\n      jumpi\n      0x00\n      dup1\n      revert\n    tag_1:\n      pop\n      jumpi(tag_2, lt(calldatasize, 0x04))\n      shr(0xe0, calldataload(0x00))\n      dup1\n      0x2c857508\n      eq\n      tag_3\n      jumpi\n      dup1\n      0xb6a46b3b\n      eq\n      tag_4\n      jumpi\n      dup1\n      0xc0cca5ef\n      eq\n      tag_5\n      jumpi\n      dup1\n      0xd1323ed0\n      eq\n      tag_6\n      jumpi\n      dup1\n      0xd27723fe\n      eq\n      tag_7\n      jumpi\n    tag_2:\n      0x00\n      dup1\n      revert\n        /* \"Homework2.sol\":146:167  toDo[] public toDoArr */\n    tag_3:\n      tag_8\n      0x04\n      dup1\n      calldatasize\n      sub\n      dup2\n      add\n      swap1\n      tag_9\n      swap2\n      swap1\n      tag_10\n      jump\t// in\n    tag_9:\n      tag_11\n      jump\t// in\n    tag_8:\n      mload(0x40)\n      tag_12\n      swap3\n      swap2\n      swap1\n      tag_13\n      jump\t// in\n    tag_12:\n      mload(0x40)\n      dup1\n      swap2\n      sub\n      swap1\n      return\n        /* \"Homework2.sol\":174:318  function create(string calldata text) external{... */\n    tag_4:\n      tag_14\n      0x04\n      dup1\n      calldatasize\n      sub\n      dup2\n      add\n      swap1\n      tag_15\n      swap2\n      swap1\n      tag_16\n      jump\t// in\n    tag_15:\n      tag_17\n      jump\t// in\n    tag_14:\n      stop\n        /* \"Homework2.sol\":585:733  function completed(uint index) external  {... */\n    tag_5:\n      tag_18\n      0x04\n      dup1\n      calldatasize\n      sub\n      dup2\n      add\n      swap1\n      tag_19\n      swap2\n      swap1\n      tag_10\n      jump\t// in\n    tag_19:\n      tag_20\n      jump\t// in\n    tag_18:\n      stop\n        /* \"Homework2.sol\":441:579  function getToDo(uint index) external view returns (string memory,bool){... */\n    tag_6:\n      tag_21\n      0x04\n      dup1\n      calldatasize\n      sub\n      dup2\n      add\n      swap1\n      tag_22\n      swap2\n      swap1\n      tag_10\n      jump\t// in\n    tag_22:\n      tag_23\n      jump\t// in\n    tag_21:\n      mload(0x40)\n      tag_24\n      swap3\n      swap2\n      swap1\n      tag_25\n      jump\t// in\n    tag_24:\n      mload(0x40)\n      dup1\n      swap2\n      sub\n      swap1\n      return\n        /* \"Homework2.sol\":324:435  function updateToDo(uint index, string calldata newText) external {... */\n    tag_7:\n      tag_26\n      0x04\n      dup1\n      calldatasize\n      sub\n      dup2\n      add\n      swap1\n      tag_27\n      swap2\n      swap1\n      tag_28\n      jump\t// in\n    tag_27:\n      tag_29\n      jump\t// in\n    tag_26:\n      stop\n        /* \"Homework2.sol\":146:167  toDo[] public toDoArr */\n    tag_11:\n      0x00\n      dup2\n      dup2\n      sload\n      dup2\n      lt\n      tag_30\n      jumpi\n      0x00\n      dup1\n      revert\n    tag_30:\n      swap1\n      0x00\n      mstore\n      keccak256(0x00, 0x20)\n      swap1\n      0x02\n      mul\n      add\n      0x00\n      swap2\n      pop\n      swap1\n      pop\n      dup1\n      0x00\n      add\n      0x00\n      swap1\n      sload\n      swap1\n      0x0100\n      exp\n      swap1\n      div\n      0xff\n      and\n      swap1\n      dup1\n      0x01\n      add\n      dup1\n      sload\n      tag_32\n      swap1\n      tag_33\n      jump\t// in\n    tag_32:\n      dup1\n      0x1f\n      add\n      0x20\n      dup1\n      swap2\n      div\n      mul\n      0x20\n      add\n      mload(0x40)\n      swap1\n      dup2\n      add\n      0x40\n      mstore\n      dup1\n      swap3\n      swap2\n      swap1\n      dup2\n      dup2\n      mstore\n      0x20\n      add\n      dup3\n      dup1\n      sload\n      tag_34\n      swap1\n      tag_33\n      jump\t// in\n    tag_34:\n      dup1\n      iszero\n      tag_35\n      jumpi\n      dup1\n      0x1f\n      lt\n      tag_36\n      jumpi\n      0x0100\n      dup1\n      dup4\n      sload\n      div\n      mul\n      dup4\n      mstore\n      swap2\n      0x20\n      add\n      swap2\n      jump(tag_35)\n    tag_36:\n      dup3\n      add\n      swap2\n      swap1\n      0x00\n      mstore\n      keccak256(0x00, 0x20)\n      swap1\n    tag_37:\n      dup2\n      sload\n      dup2\n      mstore\n      swap1\n      0x01\n      add\n      swap1\n      0x20\n      add\n      dup1\n      dup4\n      gt\n      tag_37\n      jumpi\n      dup3\n      swap1\n      sub\n      0x1f\n      and\n      dup3\n      add\n      swap2\n    tag_35:\n      pop\n      pop\n      pop\n      pop\n      pop\n      swap1\n      pop\n      dup3\n      jump\t// out\n        /* \"Homework2.sol\":174:318  function create(string calldata text) external{... */\n    tag_17:\n        /* \"Homework2.sol\":230:237  toDoArr */\n      0x00\n        /* \"Homework2.sol\":243:310  toDo({... */\n      mload(0x40)\n      dup1\n      0x40\n      add\n      0x40\n      mstore\n      dup1\n        /* \"Homework2.sol\":294:299  false */\n      0x00\n        /* \"Homework2.sol\":243:310  toDo({... */\n      iszero\n      iszero\n      dup2\n      mstore\n      0x20\n      add\n        /* \"Homework2.sol\":268:272  text */\n      dup5\n      dup5\n        /* \"Homework2.sol\":243:310  toDo({... */\n      dup1\n      dup1\n      0x1f\n      add\n      0x20\n      dup1\n      swap2\n      div\n      mul\n      0x20\n      add\n      mload(0x40)\n      swap1\n      dup2\n      add\n      0x40\n      mstore\n      dup1\n      swap4\n      swap3\n      swap2\n      swap1\n      dup2\n      dup2\n      mstore\n      0x20\n      add\n      dup4\n      dup4\n      dup1\n      dup3\n      dup5\n      calldatacopy\n      0x00\n      dup2\n      dup5\n      add\n      mstore\n      not(0x1f)\n      0x1f\n      dup3\n      add\n      and\n      swap1\n      pop\n      dup1\n      dup4\n      add\n      swap3\n      pop\n      pop\n      pop\n      pop\n      pop\n      pop\n      pop\n      dup2\n      mstore\n      pop\n        /* \"Homework2.sol\":230:311  toDoArr.push(toDo({... */\n      swap1\n      dup1\n      0x01\n      dup2\n      sload\n      add\n      dup1\n      dup3\n      sstore\n      dup1\n      swap2\n      pop\n      pop\n      0x01\n      swap1\n      sub\n      swap1\n      0x00\n      mstore\n      keccak256(0x00, 0x20)\n      swap1\n      0x02\n      mul\n      add\n      0x00\n      swap1\n      swap2\n      swap1\n      swap2\n      swap1\n      swap2\n      pop\n      0x00\n      dup3\n      add\n      mload\n      dup2\n      0x00\n      add\n      exp(0x0100, 0x00)\n      dup2\n      sload\n      dup2\n      0xff\n      mul\n      not\n      and\n      swap1\n      dup4\n      iszero\n      iszero\n      mul\n      or\n      swap1\n      sstore\n      pop\n      0x20\n      dup3\n      add\n      mload\n      dup2\n      0x01\n      add\n      swap1\n      dup1\n      mload\n      swap1\n      0x20\n      add\n      swap1\n      tag_40\n      swap3\n      swap2\n      swap1\n      tag_41\n      jump\t// in\n    tag_40:\n      pop\n      pop\n      pop\n        /* \"Homework2.sol\":174:318  function create(string calldata text) external{... */\n      pop\n      pop\n      jump\t// out\n        /* \"Homework2.sol\":585:733  function completed(uint index) external  {... */\n    tag_20:\n        /* \"Homework2.sol\":721:726  false */\n      0x00\n        /* \"Homework2.sol\":696:703  toDoArr */\n      dup1\n        /* \"Homework2.sol\":704:709  index */\n      dup3\n        /* \"Homework2.sol\":696:710  toDoArr[index] */\n      dup2\n      sload\n      dup2\n      lt\n      tag_43\n      jumpi\n      tag_44\n      tag_45\n      jump\t// in\n    tag_44:\n    tag_43:\n      swap1\n      0x00\n      mstore\n      keccak256(0x00, 0x20)\n      swap1\n      0x02\n      mul\n      add\n        /* \"Homework2.sol\":696:718  toDoArr[index].hasDone */\n      0x00\n      add\n      0x00\n        /* \"Homework2.sol\":696:726  toDoArr[index].hasDone = false */\n      0x0100\n      exp\n      dup2\n      sload\n      dup2\n      0xff\n      mul\n      not\n      and\n      swap1\n      dup4\n      iszero\n      iszero\n      mul\n      or\n      swap1\n      sstore\n      pop\n        /* \"Homework2.sol\":585:733  function completed(uint index) external  {... */\n      pop\n      jump\t// out\n        /* \"Homework2.sol\":441:579  function getToDo(uint index) external view returns (string memory,bool){... */\n    tag_23:\n        /* \"Homework2.sol\":493:506  string memory */\n      0x60\n        /* \"Homework2.sol\":507:511  bool */\n      0x00\n        /* \"Homework2.sol\":530:537  toDoArr */\n      dup1\n        /* \"Homework2.sol\":538:543  index */\n      dup4\n        /* \"Homework2.sol\":530:544  toDoArr[index] */\n      dup2\n      sload\n      dup2\n      lt\n      tag_48\n      jumpi\n      tag_49\n      tag_45\n      jump\t// in\n    tag_49:\n    tag_48:\n      swap1\n      0x00\n      mstore\n      keccak256(0x00, 0x20)\n      swap1\n      0x02\n      mul\n      add\n        /* \"Homework2.sol\":530:548  toDoArr[index].job */\n      0x01\n      add\n        /* \"Homework2.sol\":549:556  toDoArr */\n      0x00\n        /* \"Homework2.sol\":557:562  index */\n      dup5\n        /* \"Homework2.sol\":549:563  toDoArr[index] */\n      dup2\n      sload\n      dup2\n      lt\n      tag_51\n      jumpi\n      tag_52\n      tag_45\n      jump\t// in\n    tag_52:\n    tag_51:\n      swap1\n      0x00\n      mstore\n      keccak256(0x00, 0x20)\n      swap1\n      0x02\n      mul\n      add\n        /* \"Homework2.sol\":549:571  toDoArr[index].hasDone */\n      0x00\n      add\n      0x00\n      swap1\n      sload\n      swap1\n      0x0100\n      exp\n      swap1\n      div\n      0xff\n      and\n        /* \"Homework2.sol\":522:572  return (toDoArr[index].job,toDoArr[index].hasDone) */\n      dup2\n      dup1\n      sload\n      tag_54\n      swap1\n      tag_33\n      jump\t// in\n    tag_54:\n      dup1\n      0x1f\n      add\n      0x20\n      dup1\n      swap2\n      div\n      mul\n      0x20\n      add\n      mload(0x40)\n      swap1\n      dup2\n      add\n      0x40\n      mstore\n      dup1\n      swap3\n      swap2\n      swap1\n      dup2\n      dup2\n      mstore\n      0x20\n      add\n      dup3\n      dup1\n      sload\n      tag_55\n      swap1\n      tag_33\n      jump\t// in\n    tag_55:\n      dup1\n      iszero\n      tag_56\n      jumpi\n      dup1\n      0x1f\n      lt\n      tag_57\n      jumpi\n      0x0100\n      dup1\n      dup4\n      sload\n      div\n      mul\n      dup4\n      mstore\n      swap2\n      0x20\n      add\n      swap2\n      jump(tag_56)\n    tag_57:\n      dup3\n      add\n      swap2\n      swap1\n      0x00\n      mstore\n      keccak256(0x00, 0x20)\n      swap1\n    tag_58:\n      dup2\n      sload\n      dup2\n      mstore\n      swap1\n      0x01\n      add\n      swap1\n      0x20\n      add\n      dup1\n      dup4\n      gt\n      tag_58\n      jumpi\n      dup3\n      swap1\n      sub\n      0x1f\n      and\n      dup3\n      add\n      swap2\n    tag_56:\n      pop\n      pop\n      pop\n      pop\n      pop\n      swap2\n      pop\n      swap2\n      pop\n      swap2\n      pop\n        /* \"Homework2.sol\":441:579  function getToDo(uint index) external view returns (string memory,bool){... */\n      swap2\n      pop\n      swap2\n      jump\t// out\n        /* \"Homework2.sol\":324:435  function updateToDo(uint index, string calldata newText) external {... */\n    tag_29:\n        /* \"Homework2.sol\":421:428  newText */\n      dup2\n      dup2\n        /* \"Homework2.sol\":400:407  toDoArr */\n      0x00\n        /* \"Homework2.sol\":408:413  index */\n      dup6\n        /* \"Homework2.sol\":400:414  toDoArr[index] */\n      dup2\n      sload\n      dup2\n      lt\n      tag_60\n      jumpi\n      tag_61\n      tag_45\n      jump\t// in\n    tag_61:\n    tag_60:\n      swap1\n      0x00\n      mstore\n      keccak256(0x00, 0x20)\n      swap1\n      0x02\n      mul\n      add\n        /* \"Homework2.sol\":400:418  toDoArr[index].job */\n      0x01\n      add\n        /* \"Homework2.sol\":400:428  toDoArr[index].job = newText */\n      swap2\n      swap1\n      tag_63\n      swap3\n      swap2\n      swap1\n      tag_64\n      jump\t// in\n    tag_63:\n      pop\n        /* \"Homework2.sol\":324:435  function updateToDo(uint index, string calldata newText) external {... */\n      pop\n      pop\n      pop\n      jump\t// out\n    tag_41:\n      dup3\n      dup1\n      sload\n      tag_65\n      swap1\n      tag_33\n      jump\t// in\n    tag_65:\n      swap1\n      0x00\n      mstore\n      keccak256(0x00, 0x20)\n      swap1\n      0x1f\n      add\n      0x20\n      swap1\n      div\n      dup2\n      add\n      swap3\n      dup3\n      tag_67\n      jumpi\n      0x00\n      dup6\n      sstore\n      jump(tag_66)\n    tag_67:\n      dup3\n      0x1f\n      lt\n      tag_68\n      jumpi\n      dup1\n      mload\n      not(0xff)\n      and\n      dup4\n      dup1\n      add\n      or\n      dup6\n      sstore\n      jump(tag_66)\n    tag_68:\n      dup3\n      dup1\n      add\n      0x01\n      add\n      dup6\n      sstore\n      dup3\n      iszero\n      tag_66\n      jumpi\n      swap2\n      dup3\n      add\n    tag_69:\n      dup3\n      dup2\n      gt\n      iszero\n      tag_70\n      jumpi\n      dup3\n      mload\n      dup3\n      sstore\n      swap2\n      0x20\n      add\n      swap2\n      swap1\n      0x01\n      add\n      swap1\n      jump(tag_69)\n    tag_70:\n    tag_66:\n      pop\n      swap1\n      pop\n      tag_71\n      swap2\n      swap1\n      tag_72\n      jump\t// in\n    tag_71:\n      pop\n      swap1\n      jump\t// out\n    tag_64:\n      dup3\n      dup1\n      sload\n      tag_73\n      swap1\n      tag_33\n      jump\t// in\n    tag_73:\n      swap1\n      0x00\n      mstore\n      keccak256(0x00, 0x20)\n      swap1\n      0x1f\n      add\n      0x20\n      swap1\n      div\n      dup2\n      add\n      swap3\n      dup3\n      tag_75\n      jumpi\n      0x00\n      dup6\n      sstore\n      jump(tag_74)\n    tag_75:\n      dup3\n      0x1f\n      lt\n      tag_76\n      jumpi\n      dup1\n      calldataload\n      not(0xff)\n      and\n      dup4\n      dup1\n      add\n      or\n      dup6\n      sstore\n      jump(tag_74)\n    tag_76:\n      dup3\n      dup1\n      add\n      0x01\n      add\n      dup6\n      sstore\n      dup3\n      iszero\n      tag_74\n      jumpi\n      swap2\n      dup3\n      add\n    tag_77:\n      dup3\n      dup2\n      gt\n      iszero\n      tag_78\n      jumpi\n      dup3\n      calldataload\n      dup3\n      sstore\n      swap2\n      0x20\n      add\n      swap2\n      swap1\n      0x01\n      add\n      swap1\n      jump(tag_77)\n    tag_78:\n    tag_74:\n      pop\n      swap1\n      pop\n      tag_79\n      swap2\n      swap1\n      tag_72\n      jump\t// in\n    tag_79:\n      pop\n      swap1\n      jump\t// out\n    tag_72:\n    tag_80:\n      dup1\n      dup3\n      gt\n      iszero\n      tag_81\n      jumpi\n      0x00\n      dup2\n      0x00\n      swap1\n      sstore\n      pop\n      0x01\n      add\n      jump(tag_80)\n    tag_81:\n      pop\n      swap1\n      jump\t// out\n        /* \"#utility.yul\":21:574   */\n    tag_83:\n        /* \"#utility.yul\":79:87   */\n      0x00\n        /* \"#utility.yul\":89:95   */\n      dup1\n        /* \"#utility.yul\":139:142   */\n      dup4\n        /* \"#utility.yul\":132:136   */\n      0x1f\n        /* \"#utility.yul\":124:130   */\n      dup5\n        /* \"#utility.yul\":120:137   */\n      add\n        /* \"#utility.yul\":116:143   */\n      slt\n        /* \"#utility.yul\":106:228   */\n      tag_85\n      jumpi\n        /* \"#utility.yul\":147:226   */\n      tag_86\n      tag_87\n      jump\t// in\n    tag_86:\n        /* \"#utility.yul\":106:228   */\n    tag_85:\n        /* \"#utility.yul\":260:266   */\n      dup3\n        /* \"#utility.yul\":247:267   */\n      calldataload\n        /* \"#utility.yul\":237:267   */\n      swap1\n      pop\n        /* \"#utility.yul\":290:308   */\n      0xffffffffffffffff\n        /* \"#utility.yul\":282:288   */\n      dup2\n        /* \"#utility.yul\":279:309   */\n      gt\n        /* \"#utility.yul\":276:393   */\n      iszero\n      tag_88\n      jumpi\n        /* \"#utility.yul\":312:391   */\n      tag_89\n      tag_90\n      jump\t// in\n    tag_89:\n        /* \"#utility.yul\":276:393   */\n    tag_88:\n        /* \"#utility.yul\":426:430   */\n      0x20\n        /* \"#utility.yul\":418:424   */\n      dup4\n        /* \"#utility.yul\":414:431   */\n      add\n        /* \"#utility.yul\":402:431   */\n      swap2\n      pop\n        /* \"#utility.yul\":480:483   */\n      dup4\n        /* \"#utility.yul\":472:476   */\n      0x01\n        /* \"#utility.yul\":464:470   */\n      dup3\n        /* \"#utility.yul\":460:477   */\n      mul\n        /* \"#utility.yul\":450:458   */\n      dup4\n        /* \"#utility.yul\":446:478   */\n      add\n        /* \"#utility.yul\":443:484   */\n      gt\n        /* \"#utility.yul\":440:568   */\n      iszero\n      tag_91\n      jumpi\n        /* \"#utility.yul\":487:566   */\n      tag_92\n      tag_93\n      jump\t// in\n    tag_92:\n        /* \"#utility.yul\":440:568   */\n    tag_91:\n        /* \"#utility.yul\":21:574   */\n      swap3\n      pop\n      swap3\n      swap1\n      pop\n      jump\t// out\n        /* \"#utility.yul\":580:719   */\n    tag_94:\n        /* \"#utility.yul\":626:631   */\n      0x00\n        /* \"#utility.yul\":664:670   */\n      dup2\n        /* \"#utility.yul\":651:671   */\n      calldataload\n        /* \"#utility.yul\":642:671   */\n      swap1\n      pop\n        /* \"#utility.yul\":680:713   */\n      tag_96\n        /* \"#utility.yul\":707:712   */\n      dup2\n        /* \"#utility.yul\":680:713   */\n      tag_97\n      jump\t// in\n    tag_96:\n        /* \"#utility.yul\":580:719   */\n      swap3\n      swap2\n      pop\n      pop\n      jump\t// out\n        /* \"#utility.yul\":725:1254   */\n    tag_16:\n        /* \"#utility.yul\":796:802   */\n      0x00\n        /* \"#utility.yul\":804:810   */\n      dup1\n        /* \"#utility.yul\":853:855   */\n      0x20\n        /* \"#utility.yul\":841:850   */\n      dup4\n        /* \"#utility.yul\":832:839   */\n      dup6\n        /* \"#utility.yul\":828:851   */\n      sub\n        /* \"#utility.yul\":824:856   */\n      slt\n        /* \"#utility.yul\":821:940   */\n      iszero\n      tag_99\n      jumpi\n        /* \"#utility.yul\":859:938   */\n      tag_100\n      tag_101\n      jump\t// in\n    tag_100:\n        /* \"#utility.yul\":821:940   */\n    tag_99:\n        /* \"#utility.yul\":1007:1008   */\n      0x00\n        /* \"#utility.yul\":996:1005   */\n      dup4\n        /* \"#utility.yul\":992:1009   */\n      add\n        /* \"#utility.yul\":979:1010   */\n      calldataload\n        /* \"#utility.yul\":1037:1055   */\n      0xffffffffffffffff\n        /* \"#utility.yul\":1029:1035   */\n      dup2\n        /* \"#utility.yul\":1026:1056   */\n      gt\n        /* \"#utility.yul\":1023:1140   */\n      iszero\n      tag_102\n      jumpi\n        /* \"#utility.yul\":1059:1138   */\n      tag_103\n      tag_104\n      jump\t// in\n    tag_103:\n        /* \"#utility.yul\":1023:1140   */\n    tag_102:\n        /* \"#utility.yul\":1172:1237   */\n      tag_105\n        /* \"#utility.yul\":1229:1236   */\n      dup6\n        /* \"#utility.yul\":1220:1226   */\n      dup3\n        /* \"#utility.yul\":1209:1218   */\n      dup7\n        /* \"#utility.yul\":1205:1227   */\n      add\n        /* \"#utility.yul\":1172:1237   */\n      tag_83\n      jump\t// in\n    tag_105:\n        /* \"#utility.yul\":1154:1237   */\n      swap3\n      pop\n      swap3\n      pop\n        /* \"#utility.yul\":950:1247   */\n      pop\n        /* \"#utility.yul\":725:1254   */\n      swap3\n      pop\n      swap3\n      swap1\n      pop\n      jump\t// out\n        /* \"#utility.yul\":1260:1589   */\n    tag_10:\n        /* \"#utility.yul\":1319:1325   */\n      0x00\n        /* \"#utility.yul\":1368:1370   */\n      0x20\n        /* \"#utility.yul\":1356:1365   */\n      dup3\n        /* \"#utility.yul\":1347:1354   */\n      dup5\n        /* \"#utility.yul\":1343:1366   */\n      sub\n        /* \"#utility.yul\":1339:1371   */\n      slt\n        /* \"#utility.yul\":1336:1455   */\n      iszero\n      tag_107\n      jumpi\n        /* \"#utility.yul\":1374:1453   */\n      tag_108\n      tag_101\n      jump\t// in\n    tag_108:\n        /* \"#utility.yul\":1336:1455   */\n    tag_107:\n        /* \"#utility.yul\":1494:1495   */\n      0x00\n        /* \"#utility.yul\":1519:1572   */\n      tag_109\n        /* \"#utility.yul\":1564:1571   */\n      dup5\n        /* \"#utility.yul\":1555:1561   */\n      dup3\n        /* \"#utility.yul\":1544:1553   */\n      dup6\n        /* \"#utility.yul\":1540:1562   */\n      add\n        /* \"#utility.yul\":1519:1572   */\n      tag_94\n      jump\t// in\n    tag_109:\n        /* \"#utility.yul\":1509:1572   */\n      swap2\n      pop\n        /* \"#utility.yul\":1465:1582   */\n      pop\n        /* \"#utility.yul\":1260:1589   */\n      swap3\n      swap2\n      pop\n      pop\n      jump\t// out\n        /* \"#utility.yul\":1595:2269   */\n    tag_28:\n        /* \"#utility.yul\":1675:1681   */\n      0x00\n        /* \"#utility.yul\":1683:1689   */\n      dup1\n        /* \"#utility.yul\":1691:1697   */\n      0x00\n        /* \"#utility.yul\":1740:1742   */\n      0x40\n        /* \"#utility.yul\":1728:1737   */\n      dup5\n        /* \"#utility.yul\":1719:1726   */\n      dup7\n        /* \"#utility.yul\":1715:1738   */\n      sub\n        /* \"#utility.yul\":1711:1743   */\n      slt\n        /* \"#utility.yul\":1708:1827   */\n      iszero\n      tag_111\n      jumpi\n        /* \"#utility.yul\":1746:1825   */\n      tag_112\n      tag_101\n      jump\t// in\n    tag_112:\n        /* \"#utility.yul\":1708:1827   */\n    tag_111:\n        /* \"#utility.yul\":1866:1867   */\n      0x00\n        /* \"#utility.yul\":1891:1944   */\n      tag_113\n        /* \"#utility.yul\":1936:1943   */\n      dup7\n        /* \"#utility.yul\":1927:1933   */\n      dup3\n        /* \"#utility.yul\":1916:1925   */\n      dup8\n        /* \"#utility.yul\":1912:1934   */\n      add\n        /* \"#utility.yul\":1891:1944   */\n      tag_94\n      jump\t// in\n    tag_113:\n        /* \"#utility.yul\":1881:1944   */\n      swap4\n      pop\n        /* \"#utility.yul\":1837:1954   */\n      pop\n        /* \"#utility.yul\":2021:2023   */\n      0x20\n        /* \"#utility.yul\":2010:2019   */\n      dup5\n        /* \"#utility.yul\":2006:2024   */\n      add\n        /* \"#utility.yul\":1993:2025   */\n      calldataload\n        /* \"#utility.yul\":2052:2070   */\n      0xffffffffffffffff\n        /* \"#utility.yul\":2044:2050   */\n      dup2\n        /* \"#utility.yul\":2041:2071   */\n      gt\n        /* \"#utility.yul\":2038:2155   */\n      iszero\n      tag_114\n      jumpi\n        /* \"#utility.yul\":2074:2153   */\n      tag_115\n      tag_104\n      jump\t// in\n    tag_115:\n        /* \"#utility.yul\":2038:2155   */\n    tag_114:\n        /* \"#utility.yul\":2187:2252   */\n      tag_116\n        /* \"#utility.yul\":2244:2251   */\n      dup7\n        /* \"#utility.yul\":2235:2241   */\n      dup3\n        /* \"#utility.yul\":2224:2233   */\n      dup8\n        /* \"#utility.yul\":2220:2242   */\n      add\n        /* \"#utility.yul\":2187:2252   */\n      tag_83\n      jump\t// in\n    tag_116:\n        /* \"#utility.yul\":2169:2252   */\n      swap3\n      pop\n      swap3\n      pop\n        /* \"#utility.yul\":1964:2262   */\n      pop\n        /* \"#utility.yul\":1595:2269   */\n      swap3\n      pop\n      swap3\n      pop\n      swap3\n      jump\t// out\n        /* \"#utility.yul\":2275:2384   */\n    tag_117:\n        /* \"#utility.yul\":2356:2377   */\n      tag_119\n        /* \"#utility.yul\":2371:2376   */\n      dup2\n        /* \"#utility.yul\":2356:2377   */\n      tag_120\n      jump\t// in\n    tag_119:\n        /* \"#utility.yul\":2351:2354   */\n      dup3\n        /* \"#utility.yul\":2344:2378   */\n      mstore\n        /* \"#utility.yul\":2275:2384   */\n      pop\n      pop\n      jump\t// out\n        /* \"#utility.yul\":2390:2754   */\n    tag_121:\n        /* \"#utility.yul\":2478:2481   */\n      0x00\n        /* \"#utility.yul\":2506:2545   */\n      tag_123\n        /* \"#utility.yul\":2539:2544   */\n      dup3\n        /* \"#utility.yul\":2506:2545   */\n      tag_124\n      jump\t// in\n    tag_123:\n        /* \"#utility.yul\":2561:2632   */\n      tag_125\n        /* \"#utility.yul\":2625:2631   */\n      dup2\n        /* \"#utility.yul\":2620:2623   */\n      dup6\n        /* \"#utility.yul\":2561:2632   */\n      tag_126\n      jump\t// in\n    tag_125:\n        /* \"#utility.yul\":2554:2632   */\n      swap4\n      pop\n        /* \"#utility.yul\":2641:2693   */\n      tag_127\n        /* \"#utility.yul\":2686:2692   */\n      dup2\n        /* \"#utility.yul\":2681:2684   */\n      dup6\n        /* \"#utility.yul\":2674:2678   */\n      0x20\n        /* \"#utility.yul\":2667:2672   */\n      dup7\n        /* \"#utility.yul\":2663:2679   */\n      add\n        /* \"#utility.yul\":2641:2693   */\n      tag_128\n      jump\t// in\n    tag_127:\n        /* \"#utility.yul\":2718:2747   */\n      tag_129\n        /* \"#utility.yul\":2740:2746   */\n      dup2\n        /* \"#utility.yul\":2718:2747   */\n      tag_130\n      jump\t// in\n    tag_129:\n        /* \"#utility.yul\":2713:2716   */\n      dup5\n        /* \"#utility.yul\":2709:2748   */\n      add\n        /* \"#utility.yul\":2702:2748   */\n      swap2\n      pop\n        /* \"#utility.yul\":2482:2754   */\n      pop\n        /* \"#utility.yul\":2390:2754   */\n      swap3\n      swap2\n      pop\n      pop\n      jump\t// out\n        /* \"#utility.yul\":2760:3171   */\n    tag_13:\n        /* \"#utility.yul\":2895:2899   */\n      0x00\n        /* \"#utility.yul\":2933:2935   */\n      0x40\n        /* \"#utility.yul\":2922:2931   */\n      dup3\n        /* \"#utility.yul\":2918:2936   */\n      add\n        /* \"#utility.yul\":2910:2936   */\n      swap1\n      pop\n        /* \"#utility.yul\":2946:3011   */\n      tag_132\n        /* \"#utility.yul\":3008:3009   */\n      0x00\n        /* \"#utility.yul\":2997:3006   */\n      dup4\n        /* \"#utility.yul\":2993:3010   */\n      add\n        /* \"#utility.yul\":2984:2990   */\n      dup6\n        /* \"#utility.yul\":2946:3011   */\n      tag_117\n      jump\t// in\n    tag_132:\n        /* \"#utility.yul\":3058:3067   */\n      dup2\n        /* \"#utility.yul\":3052:3056   */\n      dup2\n        /* \"#utility.yul\":3048:3068   */\n      sub\n        /* \"#utility.yul\":3043:3045   */\n      0x20\n        /* \"#utility.yul\":3032:3041   */\n      dup4\n        /* \"#utility.yul\":3028:3046   */\n      add\n        /* \"#utility.yul\":3021:3069   */\n      mstore\n        /* \"#utility.yul\":3086:3164   */\n      tag_133\n        /* \"#utility.yul\":3159:3163   */\n      dup2\n        /* \"#utility.yul\":3150:3156   */\n      dup5\n        /* \"#utility.yul\":3086:3164   */\n      tag_121\n      jump\t// in\n    tag_133:\n        /* \"#utility.yul\":3078:3164   */\n      swap1\n      pop\n        /* \"#utility.yul\":2760:3171   */\n      swap4\n      swap3\n      pop\n      pop\n      pop\n      jump\t// out\n        /* \"#utility.yul\":3177:3588   */\n    tag_25:\n        /* \"#utility.yul\":3312:3316   */\n      0x00\n        /* \"#utility.yul\":3350:3352   */\n      0x40\n        /* \"#utility.yul\":3339:3348   */\n      dup3\n        /* \"#utility.yul\":3335:3353   */\n      add\n        /* \"#utility.yul\":3327:3353   */\n      swap1\n      pop\n        /* \"#utility.yul\":3399:3408   */\n      dup2\n        /* \"#utility.yul\":3393:3397   */\n      dup2\n        /* \"#utility.yul\":3389:3409   */\n      sub\n        /* \"#utility.yul\":3385:3386   */\n      0x00\n        /* \"#utility.yul\":3374:3383   */\n      dup4\n        /* \"#utility.yul\":3370:3387   */\n      add\n        /* \"#utility.yul\":3363:3410   */\n      mstore\n        /* \"#utility.yul\":3427:3505   */\n      tag_135\n        /* \"#utility.yul\":3500:3504   */\n      dup2\n        /* \"#utility.yul\":3491:3497   */\n      dup6\n        /* \"#utility.yul\":3427:3505   */\n      tag_121\n      jump\t// in\n    tag_135:\n        /* \"#utility.yul\":3419:3505   */\n      swap1\n      pop\n        /* \"#utility.yul\":3515:3581   */\n      tag_136\n        /* \"#utility.yul\":3577:3579   */\n      0x20\n        /* \"#utility.yul\":3566:3575   */\n      dup4\n        /* \"#utility.yul\":3562:3580   */\n      add\n        /* \"#utility.yul\":3553:3559   */\n      dup5\n        /* \"#utility.yul\":3515:3581   */\n      tag_117\n      jump\t// in\n    tag_136:\n        /* \"#utility.yul\":3177:3588   */\n      swap4\n      swap3\n      pop\n      pop\n      pop\n      jump\t// out\n        /* \"#utility.yul\":3675:3774   */\n    tag_124:\n        /* \"#utility.yul\":3727:3733   */\n      0x00\n        /* \"#utility.yul\":3761:3766   */\n      dup2\n        /* \"#utility.yul\":3755:3767   */\n      mload\n        /* \"#utility.yul\":3745:3767   */\n      swap1\n      pop\n        /* \"#utility.yul\":3675:3774   */\n      swap2\n      swap1\n      pop\n      jump\t// out\n        /* \"#utility.yul\":3780:3949   */\n    tag_126:\n        /* \"#utility.yul\":3864:3875   */\n      0x00\n        /* \"#utility.yul\":3898:3904   */\n      dup3\n        /* \"#utility.yul\":3893:3896   */\n      dup3\n        /* \"#utility.yul\":3886:3905   */\n      mstore\n        /* \"#utility.yul\":3938:3942   */\n      0x20\n        /* \"#utility.yul\":3933:3936   */\n      dup3\n        /* \"#utility.yul\":3929:3943   */\n      add\n        /* \"#utility.yul\":3914:3943   */\n      swap1\n      pop\n        /* \"#utility.yul\":3780:3949   */\n      swap3\n      swap2\n      pop\n      pop\n      jump\t// out\n        /* \"#utility.yul\":3955:4045   */\n    tag_120:\n        /* \"#utility.yul\":3989:3996   */\n      0x00\n        /* \"#utility.yul\":4032:4037   */\n      dup2\n        /* \"#utility.yul\":4025:4038   */\n      iszero\n        /* \"#utility.yul\":4018:4039   */\n      iszero\n        /* \"#utility.yul\":4007:4039   */\n      swap1\n      pop\n        /* \"#utility.yul\":3955:4045   */\n      swap2\n      swap1\n      pop\n      jump\t// out\n        /* \"#utility.yul\":4051:4128   */\n    tag_142:\n        /* \"#utility.yul\":4088:4095   */\n      0x00\n        /* \"#utility.yul\":4117:4122   */\n      dup2\n        /* \"#utility.yul\":4106:4122   */\n      swap1\n      pop\n        /* \"#utility.yul\":4051:4128   */\n      swap2\n      swap1\n      pop\n      jump\t// out\n        /* \"#utility.yul\":4134:4441   */\n    tag_128:\n        /* \"#utility.yul\":4202:4203   */\n      0x00\n        /* \"#utility.yul\":4212:4325   */\n    tag_145:\n        /* \"#utility.yul\":4226:4232   */\n      dup4\n        /* \"#utility.yul\":4223:4224   */\n      dup2\n        /* \"#utility.yul\":4220:4233   */\n      lt\n        /* \"#utility.yul\":4212:4325   */\n      iszero\n      tag_147\n      jumpi\n        /* \"#utility.yul\":4311:4312   */\n      dup1\n        /* \"#utility.yul\":4306:4309   */\n      dup3\n        /* \"#utility.yul\":4302:4313   */\n      add\n        /* \"#utility.yul\":4296:4314   */\n      mload\n        /* \"#utility.yul\":4292:4293   */\n      dup2\n        /* \"#utility.yul\":4287:4290   */\n      dup5\n        /* \"#utility.yul\":4283:4294   */\n      add\n        /* \"#utility.yul\":4276:4315   */\n      mstore\n        /* \"#utility.yul\":4248:4250   */\n      0x20\n        /* \"#utility.yul\":4245:4246   */\n      dup2\n        /* \"#utility.yul\":4241:4251   */\n      add\n        /* \"#utility.yul\":4236:4251   */\n      swap1\n      pop\n        /* \"#utility.yul\":4212:4325   */\n      jump(tag_145)\n    tag_147:\n        /* \"#utility.yul\":4343:4349   */\n      dup4\n        /* \"#utility.yul\":4340:4341   */\n      dup2\n        /* \"#utility.yul\":4337:4350   */\n      gt\n        /* \"#utility.yul\":4334:4435   */\n      iszero\n      tag_148\n      jumpi\n        /* \"#utility.yul\":4423:4424   */\n      0x00\n        /* \"#utility.yul\":4414:4420   */\n      dup5\n        /* \"#utility.yul\":4409:4412   */\n      dup5\n        /* \"#utility.yul\":4405:4421   */\n      add\n        /* \"#utility.yul\":4398:4425   */\n      mstore\n        /* \"#utility.yul\":4334:4435   */\n    tag_148:\n        /* \"#utility.yul\":4183:4441   */\n      pop\n        /* \"#utility.yul\":4134:4441   */\n      pop\n      pop\n      pop\n      jump\t// out\n        /* \"#utility.yul\":4447:4767   */\n    tag_33:\n        /* \"#utility.yul\":4491:4497   */\n      0x00\n        /* \"#utility.yul\":4528:4529   */\n      0x02\n        /* \"#utility.yul\":4522:4526   */\n      dup3\n        /* \"#utility.yul\":4518:4530   */\n      div\n        /* \"#utility.yul\":4508:4530   */\n      swap1\n      pop\n        /* \"#utility.yul\":4575:4576   */\n      0x01\n        /* \"#utility.yul\":4569:4573   */\n      dup3\n        /* \"#utility.yul\":4565:4577   */\n      and\n        /* \"#utility.yul\":4596:4614   */\n      dup1\n        /* \"#utility.yul\":4586:4667   */\n      tag_150\n      jumpi\n        /* \"#utility.yul\":4652:4656   */\n      0x7f\n        /* \"#utility.yul\":4644:4650   */\n      dup3\n        /* \"#utility.yul\":4640:4657   */\n      and\n        /* \"#utility.yul\":4630:4657   */\n      swap2\n      pop\n        /* \"#utility.yul\":4586:4667   */\n    tag_150:\n        /* \"#utility.yul\":4714:4716   */\n      0x20\n        /* \"#utility.yul\":4706:4712   */\n      dup3\n        /* \"#utility.yul\":4703:4717   */\n      lt\n        /* \"#utility.yul\":4683:4701   */\n      dup2\n        /* \"#utility.yul\":4680:4718   */\n      eq\n        /* \"#utility.yul\":4677:4761   */\n      iszero\n      tag_151\n      jumpi\n        /* \"#utility.yul\":4733:4751   */\n      tag_152\n      tag_153\n      jump\t// in\n    tag_152:\n        /* \"#utility.yul\":4677:4761   */\n    tag_151:\n        /* \"#utility.yul\":4498:4767   */\n      pop\n        /* \"#utility.yul\":4447:4767   */\n      swap2\n      swap1\n      pop\n      jump\t// out\n        /* \"#utility.yul\":4773:4953   */\n    tag_153:\n        /* \"#utility.yul\":4821:4898   */\n      0x4e487b7100000000000000000000000000000000000000000000000000000000\n        /* \"#utility.yul\":4818:4819   */\n      0x00\n        /* \"#utility.yul\":4811:4899   */\n      mstore\n        /* \"#utility.yul\":4918:4922   */\n      0x22\n        /* \"#utility.yul\":4915:4916   */\n      0x04\n        /* \"#utility.yul\":4908:4923   */\n      mstore\n        /* \"#utility.yul\":4942:4946   */\n      0x24\n        /* \"#utility.yul\":4939:4940   */\n      0x00\n        /* \"#utility.yul\":4932:4947   */\n      revert\n        /* \"#utility.yul\":4959:5139   */\n    tag_45:\n        /* \"#utility.yul\":5007:5084   */\n      0x4e487b7100000000000000000000000000000000000000000000000000000000\n        /* \"#utility.yul\":5004:5005   */\n      0x00\n        /* \"#utility.yul\":4997:5085   */\n      mstore\n        /* \"#utility.yul\":5104:5108   */\n      0x32\n        /* \"#utility.yul\":5101:5102   */\n      0x04\n        /* \"#utility.yul\":5094:5109   */\n      mstore\n        /* \"#utility.yul\":5128:5132   */\n      0x24\n        /* \"#utility.yul\":5125:5126   */\n      0x00\n        /* \"#utility.yul\":5118:5133   */\n      revert\n        /* \"#utility.yul\":5145:5262   */\n    tag_90:\n        /* \"#utility.yul\":5254:5255   */\n      0x00\n        /* \"#utility.yul\":5251:5252   */\n      dup1\n        /* \"#utility.yul\":5244:5256   */\n      revert\n        /* \"#utility.yul\":5268:5385   */\n    tag_87:\n        /* \"#utility.yul\":5377:5378   */\n      0x00\n        /* \"#utility.yul\":5374:5375   */\n      dup1\n        /* \"#utility.yul\":5367:5379   */\n      revert\n        /* \"#utility.yul\":5391:5508   */\n    tag_93:\n        /* \"#utility.yul\":5500:5501   */\n      0x00\n        /* \"#utility.yul\":5497:5498   */\n      dup1\n        /* \"#utility.yul\":5490:5502   */\n      revert\n        /* \"#utility.yul\":5514:5631   */\n    tag_104:\n        /* \"#utility.yul\":5623:5624   */\n      0x00\n        /* \"#utility.yul\":5620:5621   */\n      dup1\n        /* \"#utility.yul\":5613:5625   */\n      revert\n        /* \"#utility.yul\":5637:5754   */\n    tag_101:\n        /* \"#utility.yul\":5746:5747   */\n      0x00\n        /* \"#utility.yul\":5743:5744   */\n      dup1\n        /* \"#utility.yul\":5736:5748   */\n      revert\n        /* \"#utility.yul\":5760:5862   */\n    tag_130:\n        /* \"#utility.yul\":5801:5807   */\n      0x00\n        /* \"#utility.yul\":5852:5854   */\n      0x1f\n        /* \"#utility.yul\":5848:5855   */\n      not\n        /* \"#utility.yul\":5843:5845   */\n      0x1f\n        /* \"#utility.yul\":5836:5841   */\n      dup4\n        /* \"#utility.yul\":5832:5846   */\n      add\n        /* \"#utility.yul\":5828:5856   */\n      and\n        /* \"#utility.yul\":5818:5856   */\n      swap1\n      pop\n        /* \"#utility.yul\":5760:5862   */\n      swap2\n      swap1\n      pop\n      jump\t// out\n        /* \"#utility.yul\":5868:5990   */\n    tag_97:\n        /* \"#utility.yul\":5941:5965   */\n      tag_163\n        /* \"#utility.yul\":5959:5964   */\n      dup2\n        /* \"#utility.yul\":5941:5965   */\n      tag_142\n      jump\t// in\n    tag_163:\n        /* \"#utility.yul\":5934:5939   */\n      dup2\n        /* \"#utility.yul\":5931:5966   */\n      eq\n        /* \"#utility.yul\":5921:5984   */\n      tag_164\n      jumpi\n        /* \"#utility.yul\":5980:5981   */\n      0x00\n        /* \"#utility.yul\":5977:5978   */\n      dup1\n        /* \"#utility.yul\":5970:5982   */\n      revert\n        /* \"#utility.yul\":5921:5984   */\n    tag_164:\n        /* \"#utility.yul\":5868:5990   */\n      pop\n      jump\t// out\n\n    auxdata: 0xa26469706673582212201cbefaae0506354bdf65f8e1dcfe3fa56b441ae7a11d4b84b9bd4bb7c7583f0464736f6c63430008070033\n}\n",
				"bytecode": {
					"linkReferences": {},
					"object": "608060405234801561001057600080fd5b50610891806100206000396000f3fe608060405234801561001057600080fd5b50600436106100575760003560e01c80632c8575081461005c578063b6a46b3b1461008d578063c0cca5ef146100a9578063d1323ed0146100c5578063d27723fe146100f6575b600080fd5b610076600480360381019061007191906105f0565b610112565b6040516100849291906106c5565b60405180910390f35b6100a760048036038101906100a291906105a3565b6101db565b005b6100c360048036038101906100be91906105f0565b6102a5565b005b6100df60048036038101906100da91906105f0565b6102e5565b6040516100ed9291906106f5565b60405180910390f35b610110600480360381019061010b919061061d565b6103d5565b005b6000818154811061012257600080fd5b90600052602060002090600202016000915090508060000160009054906101000a900460ff16908060010180546101589061078a565b80601f01602080910402602001604051908101604052809291908181526020018280546101849061078a565b80156101d15780601f106101a6576101008083540402835291602001916101d1565b820191906000526020600020905b8154815290600101906020018083116101b457829003601f168201915b5050505050905082565b6000604051806040016040528060001515815260200184848080601f016020809104026020016040519081016040528093929190818152602001838380828437600081840152601f19601f82011690508083019250505050505050815250908060018154018082558091505060019003906000526020600020906002020160009091909190915060008201518160000160006101000a81548160ff021916908315150217905550602082015181600101908051906020019061029e92919061040f565b5050505050565b60008082815481106102ba576102b96107eb565b5b906000526020600020906002020160000160006101000a81548160ff02191690831515021790555050565b606060008083815481106102fc576102fb6107eb565b5b906000526020600020906002020160010160008481548110610321576103206107eb565b5b906000526020600020906002020160000160009054906101000a900460ff1681805461034c9061078a565b80601f01602080910402602001604051908101604052809291908181526020018280546103789061078a565b80156103c55780601f1061039a576101008083540402835291602001916103c5565b820191906000526020600020905b8154815290600101906020018083116103a857829003601f168201915b5050505050915091509150915091565b8181600085815481106103eb576103ea6107eb565b5b90600052602060002090600202016001019190610409929190610495565b50505050565b82805461041b9061078a565b90600052602060002090601f01602090048101928261043d5760008555610484565b82601f1061045657805160ff1916838001178555610484565b82800160010185558215610484579182015b82811115610483578251825591602001919060010190610468565b5b509050610491919061051b565b5090565b8280546104a19061078a565b90600052602060002090601f0160209004810192826104c3576000855561050a565b82601f106104dc57803560ff191683800117855561050a565b8280016001018555821561050a579182015b828111156105095782358255916020019190600101906104ee565b5b509050610517919061051b565b5090565b5b8082111561053457600081600090555060010161051c565b5090565b60008083601f84011261054e5761054d61081f565b5b8235905067ffffffffffffffff81111561056b5761056a61081a565b5b60208301915083600182028301111561058757610586610824565b5b9250929050565b60008135905061059d81610844565b92915050565b600080602083850312156105ba576105b961082e565b5b600083013567ffffffffffffffff8111156105d8576105d7610829565b5b6105e485828601610538565b92509250509250929050565b6000602082840312156106065761060561082e565b5b60006106148482850161058e565b91505092915050565b6000806000604084860312156106365761063561082e565b5b60006106448682870161058e565b935050602084013567ffffffffffffffff81111561066557610664610829565b5b61067186828701610538565b92509250509250925092565b61068681610741565b82525050565b600061069782610725565b6106a18185610730565b93506106b1818560208601610757565b6106ba81610833565b840191505092915050565b60006040820190506106da600083018561067d565b81810360208301526106ec818461068c565b90509392505050565b6000604082019050818103600083015261070f818561068c565b905061071e602083018461067d565b9392505050565b600081519050919050565b600082825260208201905092915050565b60008115159050919050565b6000819050919050565b60005b8381101561077557808201518184015260208101905061075a565b83811115610784576000848401525b50505050565b600060028204905060018216806107a257607f821691505b602082108114156107b6576107b56107bc565b5b50919050565b7f4e487b7100000000000000000000000000000000000000000000000000000000600052602260045260246000fd5b7f4e487b7100000000000000000000000000000000000000000000000000000000600052603260045260246000fd5b600080fd5b600080fd5b600080fd5b600080fd5b600080fd5b6000601f19601f8301169050919050565b61084d8161074d565b811461085857600080fd5b5056fea26469706673582212201cbefaae0506354bdf65f8e1dcfe3fa56b441ae7a11d4b84b9bd4bb7c7583f0464736f6c63430008070033",
					"opcodes": "PUSH1 0x80 PUSH1 0x40 MSTORE CALLVALUE DUP1 ISZERO PUSH2 0x10 JUMPI PUSH1 0x0 DUP1 REVERT JUMPDEST POP PUSH2 0x891 DUP1 PUSH2 0x20 PUSH1 0x0 CODECOPY PUSH1 0x0 RETURN INVALID PUSH1 0x80 PUSH1 0x40 MSTORE CALLVALUE DUP1 ISZERO PUSH2 0x10 JUMPI PUSH1 0x0 DUP1 REVERT JUMPDEST POP PUSH1 0x4 CALLDATASIZE LT PUSH2 0x57 JUMPI PUSH1 0x0 CALLDATALOAD PUSH1 0xE0 SHR DUP1 PUSH4 0x2C857508 EQ PUSH2 0x5C JUMPI DUP1 PUSH4 0xB6A46B3B EQ PUSH2 0x8D JUMPI DUP1 PUSH4 0xC0CCA5EF EQ PUSH2 0xA9 JUMPI DUP1 PUSH4 0xD1323ED0 EQ PUSH2 0xC5 JUMPI DUP1 PUSH4 0xD27723FE EQ PUSH2 0xF6 JUMPI JUMPDEST PUSH1 0x0 DUP1 REVERT JUMPDEST PUSH2 0x76 PUSH1 0x4 DUP1 CALLDATASIZE SUB DUP2 ADD SWAP1 PUSH2 0x71 SWAP2 SWAP1 PUSH2 0x5F0 JUMP JUMPDEST PUSH2 0x112 JUMP JUMPDEST PUSH1 0x40 MLOAD PUSH2 0x84 SWAP3 SWAP2 SWAP1 PUSH2 0x6C5 JUMP JUMPDEST PUSH1 0x40 MLOAD DUP1 SWAP2 SUB SWAP1 RETURN JUMPDEST PUSH2 0xA7 PUSH1 0x4 DUP1 CALLDATASIZE SUB DUP2 ADD SWAP1 PUSH2 0xA2 SWAP2 SWAP1 PUSH2 0x5A3 JUMP JUMPDEST PUSH2 0x1DB JUMP JUMPDEST STOP JUMPDEST PUSH2 0xC3 PUSH1 0x4 DUP1 CALLDATASIZE SUB DUP2 ADD SWAP1 PUSH2 0xBE SWAP2 SWAP1 PUSH2 0x5F0 JUMP JUMPDEST PUSH2 0x2A5 JUMP JUMPDEST STOP JUMPDEST PUSH2 0xDF PUSH1 0x4 DUP1 CALLDATASIZE SUB DUP2 ADD SWAP1 PUSH2 0xDA SWAP2 SWAP1 PUSH2 0x5F0 JUMP JUMPDEST PUSH2 0x2E5 JUMP JUMPDEST PUSH1 0x40 MLOAD PUSH2 0xED SWAP3 SWAP2 SWAP1 PUSH2 0x6F5 JUMP JUMPDEST PUSH1 0x40 MLOAD DUP1 SWAP2 SUB SWAP1 RETURN JUMPDEST PUSH2 0x110 PUSH1 0x4 DUP1 CALLDATASIZE SUB DUP2 ADD SWAP1 PUSH2 0x10B SWAP2 SWAP1 PUSH2 0x61D JUMP JUMPDEST PUSH2 0x3D5 JUMP JUMPDEST STOP JUMPDEST PUSH1 0x0 DUP2 DUP2 SLOAD DUP2 LT PUSH2 0x122 JUMPI PUSH1 0x0 DUP1 REVERT JUMPDEST SWAP1 PUSH1 0x0 MSTORE PUSH1 0x20 PUSH1 0x0 KECCAK256 SWAP1 PUSH1 0x2 MUL ADD PUSH1 0x0 SWAP2 POP SWAP1 POP DUP1 PUSH1 0x0 ADD PUSH1 0x0 SWAP1 SLOAD SWAP1 PUSH2 0x100 EXP SWAP1 DIV PUSH1 0xFF AND SWAP1 DUP1 PUSH1 0x1 ADD DUP1 SLOAD PUSH2 0x158 SWAP1 PUSH2 0x78A JUMP JUMPDEST DUP1 PUSH1 0x1F ADD PUSH1 0x20 DUP1 SWAP2 DIV MUL PUSH1 0x20 ADD PUSH1 0x40 MLOAD SWAP1 DUP2 ADD PUSH1 0x40 MSTORE DUP1 SWAP3 SWAP2 SWAP1 DUP2 DUP2 MSTORE PUSH1 0x20 ADD DUP3 DUP1 SLOAD PUSH2 0x184 SWAP1 PUSH2 0x78A JUMP JUMPDEST DUP1 ISZERO PUSH2 0x1D1 JUMPI DUP1 PUSH1 0x1F LT PUSH2 0x1A6 JUMPI PUSH2 0x100 DUP1 DUP4 SLOAD DIV MUL DUP4 MSTORE SWAP2 PUSH1 0x20 ADD SWAP2 PUSH2 0x1D1 JUMP JUMPDEST DUP3 ADD SWAP2 SWAP1 PUSH1 0x0 MSTORE PUSH1 0x20 PUSH1 0x0 KECCAK256 SWAP1 JUMPDEST DUP2 SLOAD DUP2 MSTORE SWAP1 PUSH1 0x1 ADD SWAP1 PUSH1 0x20 ADD DUP1 DUP4 GT PUSH2 0x1B4 JUMPI DUP3 SWAP1 SUB PUSH1 0x1F AND DUP3 ADD SWAP2 JUMPDEST POP POP POP POP POP SWAP1 POP DUP3 JUMP JUMPDEST PUSH1 0x0 PUSH1 0x40 MLOAD DUP1 PUSH1 0x40 ADD PUSH1 0x40 MSTORE DUP1 PUSH1 0x0 ISZERO ISZERO DUP2 MSTORE PUSH1 0x20 ADD DUP5 DUP5 DUP1 DUP1 PUSH1 0x1F ADD PUSH1 0x20 DUP1 SWAP2 DIV MUL PUSH1 0x20 ADD PUSH1 0x40 MLOAD SWAP1 DUP2 ADD PUSH1 0x40 MSTORE DUP1 SWAP4 SWAP3 SWAP2 SWAP1 DUP2 DUP2 MSTORE PUSH1 0x20 ADD DUP4 DUP4 DUP1 DUP3 DUP5 CALLDATACOPY PUSH1 0x0 DUP2 DUP5 ADD MSTORE PUSH1 0x1F NOT PUSH1 0x1F DUP3 ADD AND SWAP1 POP DUP1 DUP4 ADD SWAP3 POP POP POP POP POP POP POP DUP2 MSTORE POP SWAP1 DUP1 PUSH1 0x1 DUP2 SLOAD ADD DUP1 DUP3 SSTORE DUP1 SWAP2 POP POP PUSH1 0x1 SWAP1 SUB SWAP1 PUSH1 0x0 MSTORE PUSH1 0x20 PUSH1 0x0 KECCAK256 SWAP1 PUSH1 0x2 MUL ADD PUSH1 0x0 SWAP1 SWAP2 SWAP1 SWAP2 SWAP1 SWAP2 POP PUSH1 0x0 DUP3 ADD MLOAD DUP2 PUSH1 0x0 ADD PUSH1 0x0 PUSH2 0x100 EXP DUP2 SLOAD DUP2 PUSH1 0xFF MUL NOT AND SWAP1 DUP4 ISZERO ISZERO MUL OR SWAP1 SSTORE POP PUSH1 0x20 DUP3 ADD MLOAD DUP2 PUSH1 0x1 ADD SWAP1 DUP1 MLOAD SWAP1 PUSH1 0x20 ADD SWAP1 PUSH2 0x29E SWAP3 SWAP2 SWAP1 PUSH2 0x40F JUMP JUMPDEST POP POP POP POP POP JUMP JUMPDEST PUSH1 0x0 DUP1 DUP3 DUP2 SLOAD DUP2 LT PUSH2 0x2BA JUMPI PUSH2 0x2B9 PUSH2 0x7EB JUMP JUMPDEST JUMPDEST SWAP1 PUSH1 0x0 MSTORE PUSH1 0x20 PUSH1 0x0 KECCAK256 SWAP1 PUSH1 0x2 MUL ADD PUSH1 0x0 ADD PUSH1 0x0 PUSH2 0x100 EXP DUP2 SLOAD DUP2 PUSH1 0xFF MUL NOT AND SWAP1 DUP4 ISZERO ISZERO MUL OR SWAP1 SSTORE POP POP JUMP JUMPDEST PUSH1 0x60 PUSH1 0x0 DUP1 DUP4 DUP2 SLOAD DUP2 LT PUSH2 0x2FC JUMPI PUSH2 0x2FB PUSH2 0x7EB JUMP JUMPDEST JUMPDEST SWAP1 PUSH1 0x0 MSTORE PUSH1 0x20 PUSH1 0x0 KECCAK256 SWAP1 PUSH1 0x2 MUL ADD PUSH1 0x1 ADD PUSH1 0x0 DUP5 DUP2 SLOAD DUP2 LT PUSH2 0x321 JUMPI PUSH2 0x320 PUSH2 0x7EB JUMP JUMPDEST JUMPDEST SWAP1 PUSH1 0x0 MSTORE PUSH1 0x20 PUSH1 0x0 KECCAK256 SWAP1 PUSH1 0x2 MUL ADD PUSH1 0x0 ADD PUSH1 0x0 SWAP1 SLOAD SWAP1 PUSH2 0x100 EXP SWAP1 DIV PUSH1 0xFF AND DUP2 DUP1 SLOAD PUSH2 0x34C SWAP1 PUSH2 0x78A JUMP JUMPDEST DUP1 PUSH1 0x1F ADD PUSH1 0x20 DUP1 SWAP2 DIV MUL PUSH1 0x20 ADD PUSH1 0x40 MLOAD SWAP1 DUP2 ADD PUSH1 0x40 MSTORE DUP1 SWAP3 SWAP2 SWAP1 DUP2 DUP2 MSTORE PUSH1 0x20 ADD DUP3 DUP1 SLOAD PUSH2 0x378 SWAP1 PUSH2 0x78A JUMP JUMPDEST DUP1 ISZERO PUSH2 0x3C5 JUMPI DUP1 PUSH1 0x1F LT PUSH2 0x39A JUMPI PUSH2 0x100 DUP1 DUP4 SLOAD DIV MUL DUP4 MSTORE SWAP2 PUSH1 0x20 ADD SWAP2 PUSH2 0x3C5 JUMP JUMPDEST DUP3 ADD SWAP2 SWAP1 PUSH1 0x0 MSTORE PUSH1 0x20 PUSH1 0x0 KECCAK256 SWAP1 JUMPDEST DUP2 SLOAD DUP2 MSTORE SWAP1 PUSH1 0x1 ADD SWAP1 PUSH1 0x20 ADD DUP1 DUP4 GT PUSH2 0x3A8 JUMPI DUP3 SWAP1 SUB PUSH1 0x1F AND DUP3 ADD SWAP2 JUMPDEST POP POP POP POP POP SWAP2 POP SWAP2 POP SWAP2 POP SWAP2 POP SWAP2 JUMP JUMPDEST DUP2 DUP2 PUSH1 0x0 DUP6 DUP2 SLOAD DUP2 LT PUSH2 0x3EB JUMPI PUSH2 0x3EA PUSH2 0x7EB JUMP JUMPDEST JUMPDEST SWAP1 PUSH1 0x0 MSTORE PUSH1 0x20 PUSH1 0x0 KECCAK256 SWAP1 PUSH1 0x2 MUL ADD PUSH1 0x1 ADD SWAP2 SWAP1 PUSH2 0x409 SWAP3 SWAP2 SWAP1 PUSH2 0x495 JUMP JUMPDEST POP POP POP POP JUMP JUMPDEST DUP3 DUP1 SLOAD PUSH2 0x41B SWAP1 PUSH2 0x78A JUMP JUMPDEST SWAP1 PUSH1 0x0 MSTORE PUSH1 0x20 PUSH1 0x0 KECCAK256 SWAP1 PUSH1 0x1F ADD PUSH1 0x20 SWAP1 DIV DUP2 ADD SWAP3 DUP3 PUSH2 0x43D JUMPI PUSH1 0x0 DUP6 SSTORE PUSH2 0x484 JUMP JUMPDEST DUP3 PUSH1 0x1F LT PUSH2 0x456 JUMPI DUP1 MLOAD PUSH1 0xFF NOT AND DUP4 DUP1 ADD OR DUP6 SSTORE PUSH2 0x484 JUMP JUMPDEST DUP3 DUP1 ADD PUSH1 0x1 ADD DUP6 SSTORE DUP3 ISZERO PUSH2 0x484 JUMPI SWAP2 DUP3 ADD JUMPDEST DUP3 DUP2 GT ISZERO PUSH2 0x483 JUMPI DUP3 MLOAD DUP3 SSTORE SWAP2 PUSH1 0x20 ADD SWAP2 SWAP1 PUSH1 0x1 ADD SWAP1 PUSH2 0x468 JUMP JUMPDEST JUMPDEST POP SWAP1 POP PUSH2 0x491 SWAP2 SWAP1 PUSH2 0x51B JUMP JUMPDEST POP SWAP1 JUMP JUMPDEST DUP3 DUP1 SLOAD PUSH2 0x4A1 SWAP1 PUSH2 0x78A JUMP JUMPDEST SWAP1 PUSH1 0x0 MSTORE PUSH1 0x20 PUSH1 0x0 KECCAK256 SWAP1 PUSH1 0x1F ADD PUSH1 0x20 SWAP1 DIV DUP2 ADD SWAP3 DUP3 PUSH2 0x4C3 JUMPI PUSH1 0x0 DUP6 SSTORE PUSH2 0x50A JUMP JUMPDEST DUP3 PUSH1 0x1F LT PUSH2 0x4DC JUMPI DUP1 CALLDATALOAD PUSH1 0xFF NOT AND DUP4 DUP1 ADD OR DUP6 SSTORE PUSH2 0x50A JUMP JUMPDEST DUP3 DUP1 ADD PUSH1 0x1 ADD DUP6 SSTORE DUP3 ISZERO PUSH2 0x50A JUMPI SWAP2 DUP3 ADD JUMPDEST DUP3 DUP2 GT ISZERO PUSH2 0x509 JUMPI DUP3 CALLDATALOAD DUP3 SSTORE SWAP2 PUSH1 0x20 ADD SWAP2 SWAP1 PUSH1 0x1 ADD SWAP1 PUSH2 0x4EE JUMP JUMPDEST JUMPDEST POP SWAP1 POP PUSH2 0x517 SWAP2 SWAP1 PUSH2 0x51B JUMP JUMPDEST POP SWAP1 JUMP JUMPDEST JUMPDEST DUP1 DUP3 GT ISZERO PUSH2 0x534 JUMPI PUSH1 0x0 DUP2 PUSH1 0x0 SWAP1 SSTORE POP PUSH1 0x1 ADD PUSH2 0x51C JUMP JUMPDEST POP SWAP1 JUMP JUMPDEST PUSH1 0x0 DUP1 DUP4 PUSH1 0x1F DUP5 ADD SLT PUSH2 0x54E JUMPI PUSH2 0x54D PUSH2 0x81F JUMP JUMPDEST JUMPDEST DUP3 CALLDATALOAD SWAP1 POP PUSH8 0xFFFFFFFFFFFFFFFF DUP2 GT ISZERO PUSH2 0x56B JUMPI PUSH2 0x56A PUSH2 0x81A JUMP JUMPDEST JUMPDEST PUSH1 0x20 DUP4 ADD SWAP2 POP DUP4 PUSH1 0x1 DUP3 MUL DUP4 ADD GT ISZERO PUSH2 0x587 JUMPI PUSH2 0x586 PUSH2 0x824 JUMP JUMPDEST JUMPDEST SWAP3 POP SWAP3 SWAP1 POP JUMP JUMPDEST PUSH1 0x0 DUP2 CALLDATALOAD SWAP1 POP PUSH2 0x59D DUP2 PUSH2 0x844 JUMP JUMPDEST SWAP3 SWAP2 POP POP JUMP JUMPDEST PUSH1 0x0 DUP1 PUSH1 0x20 DUP4 DUP6 SUB SLT ISZERO PUSH2 0x5BA JUMPI PUSH2 0x5B9 PUSH2 0x82E JUMP JUMPDEST JUMPDEST PUSH1 0x0 DUP4 ADD CALLDATALOAD PUSH8 0xFFFFFFFFFFFFFFFF DUP2 GT ISZERO PUSH2 0x5D8 JUMPI PUSH2 0x5D7 PUSH2 0x829 JUMP JUMPDEST JUMPDEST PUSH2 0x5E4 DUP6 DUP3 DUP7 ADD PUSH2 0x538 JUMP JUMPDEST SWAP3 POP SWAP3 POP POP SWAP3 POP SWAP3 SWAP1 POP JUMP JUMPDEST PUSH1 0x0 PUSH1 0x20 DUP3 DUP5 SUB SLT ISZERO PUSH2 0x606 JUMPI PUSH2 0x605 PUSH2 0x82E JUMP JUMPDEST JUMPDEST PUSH1 0x0 PUSH2 0x614 DUP5 DUP3 DUP6 ADD PUSH2 0x58E JUMP JUMPDEST SWAP2 POP POP SWAP3 SWAP2 POP POP JUMP JUMPDEST PUSH1 0x0 DUP1 PUSH1 0x0 PUSH1 0x40 DUP5 DUP7 SUB SLT ISZERO PUSH2 0x636 JUMPI PUSH2 0x635 PUSH2 0x82E JUMP JUMPDEST JUMPDEST PUSH1 0x0 PUSH2 0x644 DUP7 DUP3 DUP8 ADD PUSH2 0x58E JUMP JUMPDEST SWAP4 POP POP PUSH1 0x20 DUP5 ADD CALLDATALOAD PUSH8 0xFFFFFFFFFFFFFFFF DUP2 GT ISZERO PUSH2 0x665 JUMPI PUSH2 0x664 PUSH2 0x829 JUMP JUMPDEST JUMPDEST PUSH2 0x671 DUP7 DUP3 DUP8 ADD PUSH2 0x538 JUMP JUMPDEST SWAP3 POP SWAP3 POP POP SWAP3 POP SWAP3 POP SWAP3 JUMP JUMPDEST PUSH2 0x686 DUP2 PUSH2 0x741 JUMP JUMPDEST DUP3 MSTORE POP POP JUMP JUMPDEST PUSH1 0x0 PUSH2 0x697 DUP3 PUSH2 0x725 JUMP JUMPDEST PUSH2 0x6A1 DUP2 DUP6 PUSH2 0x730 JUMP JUMPDEST SWAP4 POP PUSH2 0x6B1 DUP2 DUP6 PUSH1 0x20 DUP7 ADD PUSH2 0x757 JUMP JUMPDEST PUSH2 0x6BA DUP2 PUSH2 0x833 JUMP JUMPDEST DUP5 ADD SWAP2 POP POP SWAP3 SWAP2 POP POP JUMP JUMPDEST PUSH1 0x0 PUSH1 0x40 DUP3 ADD SWAP1 POP PUSH2 0x6DA PUSH1 0x0 DUP4 ADD DUP6 PUSH2 0x67D JUMP JUMPDEST DUP2 DUP2 SUB PUSH1 0x20 DUP4 ADD MSTORE PUSH2 0x6EC DUP2 DUP5 PUSH2 0x68C JUMP JUMPDEST SWAP1 POP SWAP4 SWAP3 POP POP POP JUMP JUMPDEST PUSH1 0x0 PUSH1 0x40 DUP3 ADD SWAP1 POP DUP2 DUP2 SUB PUSH1 0x0 DUP4 ADD MSTORE PUSH2 0x70F DUP2 DUP6 PUSH2 0x68C JUMP JUMPDEST SWAP1 POP PUSH2 0x71E PUSH1 0x20 DUP4 ADD DUP5 PUSH2 0x67D JUMP JUMPDEST SWAP4 SWAP3 POP POP POP JUMP JUMPDEST PUSH1 0x0 DUP2 MLOAD SWAP1 POP SWAP2 SWAP1 POP JUMP JUMPDEST PUSH1 0x0 DUP3 DUP3 MSTORE PUSH1 0x20 DUP3 ADD SWAP1 POP SWAP3 SWAP2 POP POP JUMP JUMPDEST PUSH1 0x0 DUP2 ISZERO ISZERO SWAP1 POP SWAP2 SWAP1 POP JUMP JUMPDEST PUSH1 0x0 DUP2 SWAP1 POP SWAP2 SWAP1 POP JUMP JUMPDEST PUSH1 0x0 JUMPDEST DUP4 DUP2 LT ISZERO PUSH2 0x775 JUMPI DUP1 DUP3 ADD MLOAD DUP2 DUP5 ADD MSTORE PUSH1 0x20 DUP2 ADD SWAP1 POP PUSH2 0x75A JUMP JUMPDEST DUP4 DUP2 GT ISZERO PUSH2 0x784 JUMPI PUSH1 0x0 DUP5 DUP5 ADD MSTORE JUMPDEST POP POP POP POP JUMP JUMPDEST PUSH1 0x0 PUSH1 0x2 DUP3 DIV SWAP1 POP PUSH1 0x1 DUP3 AND DUP1 PUSH2 0x7A2 JUMPI PUSH1 0x7F DUP3 AND SWAP2 POP JUMPDEST PUSH1 0x20 DUP3 LT DUP2 EQ ISZERO PUSH2 0x7B6 JUMPI PUSH2 0x7B5 PUSH2 0x7BC JUMP JUMPDEST JUMPDEST POP SWAP2 SWAP1 POP JUMP JUMPDEST PUSH32 0x4E487B7100000000000000000000000000000000000000000000000000000000 PUSH1 0x0 MSTORE PUSH1 0x22 PUSH1 0x4 MSTORE PUSH1 0x24 PUSH1 0x0 REVERT JUMPDEST PUSH32 0x4E487B7100000000000000000000000000000000000000000000000000000000 PUSH1 0x0 MSTORE PUSH1 0x32 PUSH1 0x4 MSTORE PUSH1 0x24 PUSH1 0x0 REVERT JUMPDEST PUSH1 0x0 DUP1 REVERT JUMPDEST PUSH1 0x0 DUP1 REVERT JUMPDEST PUSH1 0x0 DUP1 REVERT JUMPDEST PUSH1 0x0 DUP1 REVERT JUMPDEST PUSH1 0x0 DUP1 REVERT JUMPDEST PUSH1 0x0 PUSH1 0x1F NOT PUSH1 0x1F DUP4 ADD AND SWAP1 POP SWAP2 SWAP1 POP JUMP JUMPDEST PUSH2 0x84D DUP2 PUSH2 0x74D JUMP JUMPDEST DUP2 EQ PUSH2 0x858 JUMPI PUSH1 0x0 DUP1 REVERT JUMPDEST POP JUMP INVALID LOG2 PUSH5 0x6970667358 0x22 SLT KECCAK256 SHR 0xBE STATICCALL 0xAE SDIV MOD CALLDATALOAD 0x4B 0xDF PUSH6 0xF8E1DCFE3FA5 PUSH12 0x441AE7A11D4B84B9BD4BB7C7 PC EXTCODEHASH DIV PUSH5 0x736F6C6343 STOP ADDMOD SMOD STOP CALLER "
				},
				"gasEstimates": {
					"creation": {
						"codeDepositCost": "438600",
						"executionCost": "474",
						"totalCost": "439074"
					},
					"external": {
						"completed(uint256)": "26892",
						"create(string)": "infinite",
						"getToDo(uint256)": "infinite",
						"toDoArr(uint256)": "infinite",
						"updateToDo(uint256,string)": "infinite"
					}
				},
				"methodIdentifiers": {
					"completed(uint256)": "c0cca5ef",
					"create(string)": "b6a46b3b",
					"getToDo(uint256)": "d1323ed0",
					"toDoArr(uint256)": "2c857508",
					"updateToDo(uint256,string)": "d27723fe"
				}
			},
			"storageLayout": {
				"storage": [
					{
						"astId": 10,
						"contract": "Homework2.sol:toDoList",
						"label": "toDoArr",
						"offset": 0,
						"slot": "0",
						"type": "t_array(t_struct(toDo)6_storage)dyn_storage"
					}
				],
				"types": {
					"t_array(t_struct(toDo)6_storage)dyn_storage": {
						"base": "t_struct(toDo)6_storage",
						"encoding": "dynamic_array",
						"label": "struct toDoList.toDo[]",
						"numberOfBytes": "32"
					},
					"t_bool": {
						"encoding": "inplace",
						"label": "bool",
						"numberOfBytes": "1"
					},
					"t_string_storage": {
						"encoding": "bytes",
						"label": "string",
						"numberOfBytes": "32"
					},
					"t_struct(toDo)6_storage": {
						"encoding": "inplace",
						"label": "struct toDoList.toDo",
						"members": [
							{
								"astId": 3,
								"contract": "Homework2.sol:toDoList",
								"label": "hasDone",
								"offset": 0,
								"slot": "0",
								"type": "t_bool"
							},
							{
								"astId": 5,
								"contract": "Homework2.sol:toDoList",
								"label": "job",
								"offset": 0,
								"slot": "1",
								"type": "t_string_storage"
							}
						],
						"numberOfBytes": "64"
					}
				}
			},
			"userdoc": {
				"kind": "user",
				"methods": {},
				"version": 1
			}
		}
	}
}