{
	"Homework3.sol": {
		"fund": {
			"abi": [
				{
					"inputs": [
						{
							"internalType": "address",
							"name": "_token",
							"type": "address"
						}
					],
					"stateMutability": "nonpayable",
					"type": "constructor"
				},
				{
					"anonymous": false,
					"inputs": [
						{
							"indexed": false,
							"internalType": "uint256",
							"name": "id",
							"type": "uint256"
						}
					],
					"name": "Claim",
					"type": "event"
				},
				{
					"anonymous": false,
					"inputs": [
						{
							"indexed": false,
							"internalType": "uint256",
							"name": "_id",
							"type": "uint256"
						}
					],
					"name": "Delete",
					"type": "event"
				},
				{
					"anonymous": false,
					"inputs": [
						{
							"indexed": false,
							"internalType": "uint256",
							"name": "id",
							"type": "uint256"
						},
						{
							"indexed": true,
							"internalType": "address",
							"name": "owner",
							"type": "address"
						},
						{
							"indexed": false,
							"internalType": "uint256",
							"name": "goal",
							"type": "uint256"
						},
						{
							"indexed": false,
							"internalType": "uint32",
							"name": "start",
							"type": "uint32"
						},
						{
							"indexed": false,
							"internalType": "uint32",
							"name": "end",
							"type": "uint32"
						}
					],
					"name": "Launch",
					"type": "event"
				},
				{
					"anonymous": false,
					"inputs": [
						{
							"indexed": true,
							"internalType": "uint256",
							"name": "id",
							"type": "uint256"
						},
						{
							"indexed": false,
							"internalType": "address",
							"name": "user",
							"type": "address"
						},
						{
							"indexed": false,
							"internalType": "uint256",
							"name": "amount",
							"type": "uint256"
						}
					],
					"name": "Pledge",
					"type": "event"
				},
				{
					"anonymous": false,
					"inputs": [
						{
							"indexed": false,
							"internalType": "uint256",
							"name": "id",
							"type": "uint256"
						},
						{
							"indexed": true,
							"internalType": "address",
							"name": "user",
							"type": "address"
						},
						{
							"indexed": false,
							"internalType": "uint256",
							"name": "amount",
							"type": "uint256"
						}
					],
					"name": "Refund",
					"type": "event"
				},
				{
					"anonymous": false,
					"inputs": [
						{
							"indexed": true,
							"internalType": "uint256",
							"name": "id",
							"type": "uint256"
						},
						{
							"indexed": false,
							"internalType": "address",
							"name": "user",
							"type": "address"
						},
						{
							"indexed": false,
							"internalType": "uint256",
							"name": "amount",
							"type": "uint256"
						}
					],
					"name": "Unpledge",
					"type": "event"
				},
				{
					"inputs": [
						{
							"internalType": "uint256",
							"name": "",
							"type": "uint256"
						}
					],
					"name": "campaigns",
					"outputs": [
						{
							"internalType": "address",
							"name": "creator",
							"type": "address"
						},
						{
							"internalType": "uint256",
							"name": "goal",
							"type": "uint256"
						},
						{
							"internalType": "uint32",
							"name": "start",
							"type": "uint32"
						},
						{
							"internalType": "uint32",
							"name": "end",
							"type": "uint32"
						},
						{
							"internalType": "uint256",
							"name": "pledged",
							"type": "uint256"
						},
						{
							"internalType": "bool",
							"name": "claimed",
							"type": "bool"
						}
					],
					"stateMutability": "view",
					"type": "function"
				},
				{
					"inputs": [
						{
							"internalType": "uint256",
							"name": "_id",
							"type": "uint256"
						}
					],
					"name": "claim",
					"outputs": [],
					"stateMutability": "nonpayable",
					"type": "function"
				},
				{
					"inputs": [
						{
							"internalType": "uint256",
							"name": "id",
							"type": "uint256"
						}
					],
					"name": "close",
					"outputs": [],
					"stateMutability": "nonpayable",
					"type": "function"
				},
				{
					"inputs": [],
					"name": "count",
					"outputs": [
						{
							"internalType": "uint256",
							"name": "",
							"type": "uint256"
						}
					],
					"stateMutability": "view",
					"type": "function"
				},
				{
					"inputs": [
						{
							"internalType": "uint256",
							"name": "_goal",
							"type": "uint256"
						},
						{
							"internalType": "uint32",
							"name": "_start",
							"type": "uint32"
						},
						{
							"internalType": "uint32",
							"name": "_end",
							"type": "uint32"
						}
					],
					"name": "launch",
					"outputs": [],
					"stateMutability": "nonpayable",
					"type": "function"
				},
				{
					"inputs": [
						{
							"internalType": "uint256",
							"name": "_id",
							"type": "uint256"
						},
						{
							"internalType": "uint256",
							"name": "_amount",
							"type": "uint256"
						}
					],
					"name": "pledge",
					"outputs": [],
					"stateMutability": "payable",
					"type": "function"
				},
				{
					"inputs": [
						{
							"internalType": "uint256",
							"name": "",
							"type": "uint256"
						},
						{
							"internalType": "address",
							"name": "",
							"type": "address"
						}
					],
					"name": "pledgedAmount",
					"outputs": [
						{
							"internalType": "uint256",
							"name": "",
							"type": "uint256"
						}
					],
					"stateMutability": "view",
					"type": "function"
				},
				{
					"inputs": [
						{
							"internalType": "uint256",
							"name": "id",
							"type": "uint256"
						}
					],
					"name": "refund",
					"outputs": [],
					"stateMutability": "nonpayable",
					"type": "function"
				},
				{
					"inputs": [],
					"name": "time",
					"outputs": [
						{
							"internalType": "uint256",
							"name": "",
							"type": "uint256"
						}
					],
					"stateMutability": "view",
					"type": "function"
				},
				{
					"inputs": [],
					"name": "token",
					"outputs": [
						{
							"internalType": "contract IERC20",
							"name": "",
							"type": "address"
						}
					],
					"stateMutability": "view",
					"type": "function"
				},
				{
					"inputs": [
						{
							"internalType": "uint256",
							"name": "_id",
							"type": "uint256"
						},
						{
							"internalType": "uint256",
							"name": "_amount",
							"type": "uint256"
						}
					],
					"name": "unpledge",
					"outputs": [],
					"stateMutability": "nonpayable",
					"type": "function"
				}
			],
			"devdoc": {
				"kind": "dev",
				"methods": {},
				"version": 1
			},
			"evm": {
				"assembly": "    /* \"Homework3.sol\":247:3672  contract fund{... */\n  mstore(0x40, 0xa0)\n    /* \"Homework3.sol\":908:909  0 */\n  0x00\n    /* \"Homework3.sol\":888:909  uint public count = 0 */\n  dup1\n  sstore\n    /* \"Homework3.sol\":1064:1131  constructor(address _token) {... */\n  callvalue\n  dup1\n  iszero\n  tag_1\n  jumpi\n  0x00\n  dup1\n  revert\ntag_1:\n  pop\n  mload(0x40)\n  sub(codesize, bytecodeSize)\n  dup1\n  bytecodeSize\n  dup4\n  codecopy\n  dup2\n  dup2\n  add\n  0x40\n  mstore\n  dup2\n  add\n  swap1\n  tag_2\n  swap2\n  swap1\n  tag_3\n  jump\t// in\ntag_2:\n    /* \"Homework3.sol\":1117:1123  _token */\n  dup1\n    /* \"Homework3.sol\":1102:1124  token = IERC20(_token) */\n  0xffffffffffffffffffffffffffffffffffffffff\n  and\n  0x80\n  dup2\n  0xffffffffffffffffffffffffffffffffffffffff\n  and\n  dup2\n  mstore\n  pop\n  pop\n    /* \"Homework3.sol\":1064:1131  constructor(address _token) {... */\n  pop\n    /* \"Homework3.sol\":247:3672  contract fund{... */\n  jump(tag_6)\n    /* \"#utility.yul\":88:205   */\ntag_8:\n    /* \"#utility.yul\":197:198   */\n  0x00\n    /* \"#utility.yul\":194:195   */\n  dup1\n    /* \"#utility.yul\":187:199   */\n  revert\n    /* \"#utility.yul\":334:460   */\ntag_10:\n    /* \"#utility.yul\":371:378   */\n  0x00\n    /* \"#utility.yul\":411:453   */\n  0xffffffffffffffffffffffffffffffffffffffff\n    /* \"#utility.yul\":404:409   */\n  dup3\n    /* \"#utility.yul\":400:454   */\n  and\n    /* \"#utility.yul\":389:454   */\n  swap1\n  pop\n    /* \"#utility.yul\":334:460   */\n  swap2\n  swap1\n  pop\n  jump\t// out\n    /* \"#utility.yul\":466:562   */\ntag_11:\n    /* \"#utility.yul\":503:510   */\n  0x00\n    /* \"#utility.yul\":532:556   */\n  tag_20\n    /* \"#utility.yul\":550:555   */\n  dup3\n    /* \"#utility.yul\":532:556   */\n  tag_10\n  jump\t// in\ntag_20:\n    /* \"#utility.yul\":521:556   */\n  swap1\n  pop\n    /* \"#utility.yul\":466:562   */\n  swap2\n  swap1\n  pop\n  jump\t// out\n    /* \"#utility.yul\":568:690   */\ntag_12:\n    /* \"#utility.yul\":641:665   */\n  tag_22\n    /* \"#utility.yul\":659:664   */\n  dup2\n    /* \"#utility.yul\":641:665   */\n  tag_11\n  jump\t// in\ntag_22:\n    /* \"#utility.yul\":634:639   */\n  dup2\n    /* \"#utility.yul\":631:666   */\n  eq\n    /* \"#utility.yul\":621:684   */\n  tag_23\n  jumpi\n    /* \"#utility.yul\":680:681   */\n  0x00\n    /* \"#utility.yul\":677:678   */\n  dup1\n    /* \"#utility.yul\":670:682   */\n  revert\n    /* \"#utility.yul\":621:684   */\ntag_23:\n    /* \"#utility.yul\":568:690   */\n  pop\n  jump\t// out\n    /* \"#utility.yul\":696:839   */\ntag_13:\n    /* \"#utility.yul\":753:758   */\n  0x00\n    /* \"#utility.yul\":784:790   */\n  dup2\n    /* \"#utility.yul\":778:791   */\n  mload\n    /* \"#utility.yul\":769:791   */\n  swap1\n  pop\n    /* \"#utility.yul\":800:833   */\n  tag_25\n    /* \"#utility.yul\":827:832   */\n  dup2\n    /* \"#utility.yul\":800:833   */\n  tag_12\n  jump\t// in\ntag_25:\n    /* \"#utility.yul\":696:839   */\n  swap3\n  swap2\n  pop\n  pop\n  jump\t// out\n    /* \"#utility.yul\":845:1196   */\ntag_3:\n    /* \"#utility.yul\":915:921   */\n  0x00\n    /* \"#utility.yul\":964:966   */\n  0x20\n    /* \"#utility.yul\":952:961   */\n  dup3\n    /* \"#utility.yul\":943:950   */\n  dup5\n    /* \"#utility.yul\":939:962   */\n  sub\n    /* \"#utility.yul\":935:967   */\n  slt\n    /* \"#utility.yul\":932:1051   */\n  iszero\n  tag_27\n  jumpi\n    /* \"#utility.yul\":970:1049   */\n  tag_28\n  tag_8\n  jump\t// in\ntag_28:\n    /* \"#utility.yul\":932:1051   */\ntag_27:\n    /* \"#utility.yul\":1090:1091   */\n  0x00\n    /* \"#utility.yul\":1115:1179   */\n  tag_29\n    /* \"#utility.yul\":1171:1178   */\n  dup5\n    /* \"#utility.yul\":1162:1168   */\n  dup3\n    /* \"#utility.yul\":1151:1160   */\n  dup6\n    /* \"#utility.yul\":1147:1169   */\n  add\n    /* \"#utility.yul\":1115:1179   */\n  tag_13\n  jump\t// in\ntag_29:\n    /* \"#utility.yul\":1105:1179   */\n  swap2\n  pop\n    /* \"#utility.yul\":1061:1189   */\n  pop\n    /* \"#utility.yul\":845:1196   */\n  swap3\n  swap2\n  pop\n  pop\n  jump\t// out\n    /* \"Homework3.sol\":247:3672  contract fund{... */\ntag_6:\n  mload(0x80)\n  codecopy(0x00, dataOffset(sub_0), dataSize(sub_0))\n  0x00\n  assignImmutable(\"0x037d752242ae8d900ca1c2dba9512ed3f691680bee2a7d598ed49320619901d7\")\n  return(0x00, dataSize(sub_0))\nstop\n\nsub_0: assembly {\n        /* \"Homework3.sol\":247:3672  contract fund{... */\n      mstore(0x40, 0x80)\n      jumpi(tag_1, lt(calldatasize, 0x04))\n      shr(0xe0, calldataload(0x00))\n      dup1\n      0x2c63f146\n      gt\n      tag_13\n      jumpi\n      dup1\n      0x2c63f146\n      eq\n      tag_7\n      jumpi\n      dup1\n      0x379607f5\n      eq\n      tag_8\n      jumpi\n      dup1\n      0x711853ab\n      eq\n      tag_9\n      jumpi\n      dup1\n      0xaa4fb63a\n      eq\n      tag_10\n      jumpi\n      dup1\n      0xfc0c546a\n      eq\n      tag_11\n      jumpi\n      dup1\n      0xfde327be\n      eq\n      tag_12\n      jumpi\n      jump(tag_1)\n    tag_13:\n      dup1\n      0x06661abd\n      eq\n      tag_2\n      jumpi\n      dup1\n      0x0aebeb4e\n      eq\n      tag_3\n      jumpi\n      dup1\n      0x141961bc\n      eq\n      tag_4\n      jumpi\n      dup1\n      0x16ada547\n      eq\n      tag_5\n      jumpi\n      dup1\n      0x278ecde1\n      eq\n      tag_6\n      jumpi\n    tag_1:\n      0x00\n      dup1\n      revert\n        /* \"Homework3.sol\":888:909  uint public count = 0 */\n    tag_2:\n      callvalue\n      dup1\n      iszero\n      tag_14\n      jumpi\n      0x00\n      dup1\n      revert\n    tag_14:\n      pop\n      tag_15\n      tag_16\n      jump\t// in\n    tag_15:\n      mload(0x40)\n      tag_17\n      swap2\n      swap1\n      tag_18\n      jump\t// in\n    tag_17:\n      mload(0x40)\n      dup1\n      swap2\n      sub\n      swap1\n      return\n        /* \"Homework3.sol\":1687:2037  function close(uint id) external{... */\n    tag_3:\n      callvalue\n      dup1\n      iszero\n      tag_19\n      jumpi\n      0x00\n      dup1\n      revert\n    tag_19:\n      pop\n      tag_20\n      0x04\n      dup1\n      calldatasize\n      sub\n      dup2\n      add\n      swap1\n      tag_21\n      swap2\n      swap1\n      tag_22\n      jump\t// in\n    tag_21:\n      tag_23\n      jump\t// in\n    tag_20:\n      stop\n        /* \"Homework3.sol\":950:991  mapping (uint=>Campaign) public campaigns */\n    tag_4:\n      callvalue\n      dup1\n      iszero\n      tag_24\n      jumpi\n      0x00\n      dup1\n      revert\n    tag_24:\n      pop\n      tag_25\n      0x04\n      dup1\n      calldatasize\n      sub\n      dup2\n      add\n      swap1\n      tag_26\n      swap2\n      swap1\n      tag_22\n      jump\t// in\n    tag_26:\n      tag_27\n      jump\t// in\n    tag_25:\n      mload(0x40)\n      tag_28\n      swap7\n      swap6\n      swap5\n      swap4\n      swap3\n      swap2\n      swap1\n      tag_29\n      jump\t// in\n    tag_28:\n      mload(0x40)\n      dup1\n      swap2\n      sub\n      swap1\n      return\n        /* \"Homework3.sol\":400:483  function time() external view returns (uint){... */\n    tag_5:\n      callvalue\n      dup1\n      iszero\n      tag_30\n      jumpi\n      0x00\n      dup1\n      revert\n    tag_30:\n      pop\n      tag_31\n      tag_32\n      jump\t// in\n    tag_31:\n      mload(0x40)\n      tag_33\n      swap2\n      swap1\n      tag_18\n      jump\t// in\n    tag_33:\n      mload(0x40)\n      dup1\n      swap2\n      sub\n      swap1\n      return\n        /* \"Homework3.sol\":3314:3669  function refund(uint id) external{... */\n    tag_6:\n      callvalue\n      dup1\n      iszero\n      tag_34\n      jumpi\n      0x00\n      dup1\n      revert\n    tag_34:\n      pop\n      tag_35\n      0x04\n      dup1\n      calldatasize\n      sub\n      dup2\n      add\n      swap1\n      tag_36\n      swap2\n      swap1\n      tag_22\n      jump\t// in\n    tag_36:\n      tag_37\n      jump\t// in\n    tag_35:\n      stop\n        /* \"Homework3.sol\":1137:1681  function launch(... */\n    tag_7:\n      callvalue\n      dup1\n      iszero\n      tag_38\n      jumpi\n      0x00\n      dup1\n      revert\n    tag_38:\n      pop\n      tag_39\n      0x04\n      dup1\n      calldatasize\n      sub\n      dup2\n      add\n      swap1\n      tag_40\n      swap2\n      swap1\n      tag_41\n      jump\t// in\n    tag_40:\n      tag_42\n      jump\t// in\n    tag_39:\n      stop\n        /* \"Homework3.sol\":2852:3308  function claim(uint _id) external {... */\n    tag_8:\n      callvalue\n      dup1\n      iszero\n      tag_43\n      jumpi\n      0x00\n      dup1\n      revert\n    tag_43:\n      pop\n      tag_44\n      0x04\n      dup1\n      calldatasize\n      sub\n      dup2\n      add\n      swap1\n      tag_45\n      swap2\n      swap1\n      tag_22\n      jump\t// in\n    tag_45:\n      tag_46\n      jump\t// in\n    tag_44:\n      stop\n        /* \"Homework3.sol\":2493:2846  function unpledge(uint _id, uint _amount) external {... */\n    tag_9:\n      callvalue\n      dup1\n      iszero\n      tag_47\n      jumpi\n      0x00\n      dup1\n      revert\n    tag_47:\n      pop\n      tag_48\n      0x04\n      dup1\n      calldatasize\n      sub\n      dup2\n      add\n      swap1\n      tag_49\n      swap2\n      swap1\n      tag_50\n      jump\t// in\n    tag_49:\n      tag_51\n      jump\t// in\n    tag_48:\n      stop\n        /* \"Homework3.sol\":997:1056  mapping (uint=>mapping(address=>uint)) public pledgedAmount */\n    tag_10:\n      callvalue\n      dup1\n      iszero\n      tag_52\n      jumpi\n      0x00\n      dup1\n      revert\n    tag_52:\n      pop\n      tag_53\n      0x04\n      dup1\n      calldatasize\n      sub\n      dup2\n      add\n      swap1\n      tag_54\n      swap2\n      swap1\n      tag_55\n      jump\t// in\n    tag_54:\n      tag_56\n      jump\t// in\n    tag_53:\n      mload(0x40)\n      tag_57\n      swap2\n      swap1\n      tag_18\n      jump\t// in\n    tag_57:\n      mload(0x40)\n      dup1\n      swap2\n      sub\n      swap1\n      return\n        /* \"Homework3.sol\":915:944  IERC20 public immutable token */\n    tag_11:\n      callvalue\n      dup1\n      iszero\n      tag_58\n      jumpi\n      0x00\n      dup1\n      revert\n    tag_58:\n      pop\n      tag_59\n      tag_60\n      jump\t// in\n    tag_59:\n      mload(0x40)\n      tag_61\n      swap2\n      swap1\n      tag_62\n      jump\t// in\n    tag_61:\n      mload(0x40)\n      dup1\n      swap2\n      sub\n      swap1\n      return\n        /* \"Homework3.sol\":2043:2487  function pledge(uint _id, uint _amount) payable external  {... */\n    tag_12:\n      tag_63\n      0x04\n      dup1\n      calldatasize\n      sub\n      dup2\n      add\n      swap1\n      tag_64\n      swap2\n      swap1\n      tag_50\n      jump\t// in\n    tag_64:\n      tag_65\n      jump\t// in\n    tag_63:\n      stop\n        /* \"Homework3.sol\":888:909  uint public count = 0 */\n    tag_16:\n      sload(0x00)\n      dup2\n      jump\t// out\n        /* \"Homework3.sol\":1687:2037  function close(uint id) external{... */\n    tag_23:\n        /* \"Homework3.sol\":1729:1749  Campaign memory cmpn */\n      0x00\n        /* \"Homework3.sol\":1752:1761  campaigns */\n      0x01\n        /* \"Homework3.sol\":1752:1765  campaigns[id] */\n      0x00\n        /* \"Homework3.sol\":1762:1764  id */\n      dup4\n        /* \"Homework3.sol\":1752:1765  campaigns[id] */\n      dup2\n      mstore\n      0x20\n      add\n      swap1\n      dup2\n      mstore\n      0x20\n      add\n      0x00\n      keccak256\n        /* \"Homework3.sol\":1729:1765  Campaign memory cmpn = campaigns[id] */\n      mload(0x40)\n      dup1\n      0xc0\n      add\n      0x40\n      mstore\n      swap1\n      dup2\n      0x00\n      dup3\n      add\n      0x00\n      swap1\n      sload\n      swap1\n      0x0100\n      exp\n      swap1\n      div\n      0xffffffffffffffffffffffffffffffffffffffff\n      and\n      0xffffffffffffffffffffffffffffffffffffffff\n      and\n      0xffffffffffffffffffffffffffffffffffffffff\n      and\n      dup2\n      mstore\n      0x20\n      add\n      0x01\n      dup3\n      add\n      sload\n      dup2\n      mstore\n      0x20\n      add\n      0x02\n      dup3\n      add\n      0x00\n      swap1\n      sload\n      swap1\n      0x0100\n      exp\n      swap1\n      div\n      0xffffffff\n      and\n      0xffffffff\n      and\n      0xffffffff\n      and\n      dup2\n      mstore\n      0x20\n      add\n      0x02\n      dup3\n      add\n      0x04\n      swap1\n      sload\n      swap1\n      0x0100\n      exp\n      swap1\n      div\n      0xffffffff\n      and\n      0xffffffff\n      and\n      0xffffffff\n      and\n      dup2\n      mstore\n      0x20\n      add\n      0x03\n      dup3\n      add\n      sload\n      dup2\n      mstore\n      0x20\n      add\n      0x04\n      dup3\n      add\n      0x00\n      swap1\n      sload\n      swap1\n      0x0100\n      exp\n      swap1\n      div\n      0xff\n      and\n      iszero\n      iszero\n      iszero\n      iszero\n      dup2\n      mstore\n      pop\n      pop\n      swap1\n      pop\n        /* \"Homework3.sol\":1799:1809  msg.sender */\n      caller\n        /* \"Homework3.sol\":1783:1809  cmpn.creator == msg.sender */\n      0xffffffffffffffffffffffffffffffffffffffff\n      and\n        /* \"Homework3.sol\":1783:1787  cmpn */\n      dup2\n        /* \"Homework3.sol\":1783:1795  cmpn.creator */\n      0x00\n      add\n      mload\n        /* \"Homework3.sol\":1783:1809  cmpn.creator == msg.sender */\n      0xffffffffffffffffffffffffffffffffffffffff\n      and\n      eq\n        /* \"Homework3.sol\":1775:1819  require(cmpn.creator == msg.sender,\"Denied\") */\n      tag_67\n      jumpi\n      mload(0x40)\n      0x08c379a000000000000000000000000000000000000000000000000000000000\n      dup2\n      mstore\n      0x04\n      add\n      tag_68\n      swap1\n      tag_69\n      jump\t// in\n    tag_68:\n      mload(0x40)\n      dup1\n      swap2\n      sub\n      swap1\n      revert\n    tag_67:\n        /* \"Homework3.sol\":1960:1961  0 */\n      0x00\n        /* \"Homework3.sol\":1944:1948  cmpn */\n      dup2\n        /* \"Homework3.sol\":1944:1956  cmpn.pledged */\n      0x80\n      add\n      mload\n        /* \"Homework3.sol\":1944:1961  cmpn.pledged == 0 */\n      eq\n        /* \"Homework3.sol\":1935:1974  require (cmpn.pledged == 0, \"Bal != 0\") */\n      tag_70\n      jumpi\n      mload(0x40)\n      0x08c379a000000000000000000000000000000000000000000000000000000000\n      dup2\n      mstore\n      0x04\n      add\n      tag_71\n      swap1\n      tag_72\n      jump\t// in\n    tag_71:\n      mload(0x40)\n      dup1\n      swap2\n      sub\n      swap1\n      revert\n    tag_70:\n        /* \"Homework3.sol\":1991:2000  campaigns */\n      0x01\n        /* \"Homework3.sol\":1991:2004  campaigns[id] */\n      0x00\n        /* \"Homework3.sol\":2001:2003  id */\n      dup4\n        /* \"Homework3.sol\":1991:2004  campaigns[id] */\n      dup2\n      mstore\n      0x20\n      add\n      swap1\n      dup2\n      mstore\n      0x20\n      add\n      0x00\n      keccak256\n      0x00\n        /* \"Homework3.sol\":1984:2004  delete campaigns[id] */\n      dup1\n      dup3\n      add\n      exp(0x0100, 0x00)\n      dup2\n      sload\n      swap1\n      0xffffffffffffffffffffffffffffffffffffffff\n      mul\n      not\n      and\n      swap1\n      sstore\n      0x01\n      dup3\n      add\n      0x00\n      swap1\n      sstore\n      0x02\n      dup3\n      add\n      exp(0x0100, 0x00)\n      dup2\n      sload\n      swap1\n      0xffffffff\n      mul\n      not\n      and\n      swap1\n      sstore\n      0x02\n      dup3\n      add\n      exp(0x0100, 0x04)\n      dup2\n      sload\n      swap1\n      0xffffffff\n      mul\n      not\n      and\n      swap1\n      sstore\n      0x03\n      dup3\n      add\n      0x00\n      swap1\n      sstore\n      0x04\n      dup3\n      add\n      exp(0x0100, 0x00)\n      dup2\n      sload\n      swap1\n      0xff\n      mul\n      not\n      and\n      swap1\n      sstore\n      pop\n      pop\n        /* \"Homework3.sol\":2019:2029  Delete(id) */\n      0x7d815d575a49d6d9a069482c25b0fdb39914ccf1bba8aaea4cfe20322f8f6877\n        /* \"Homework3.sol\":2026:2028  id */\n      dup3\n        /* \"Homework3.sol\":2019:2029  Delete(id) */\n      mload(0x40)\n      tag_73\n      swap2\n      swap1\n      tag_18\n      jump\t// in\n    tag_73:\n      mload(0x40)\n      dup1\n      swap2\n      sub\n      swap1\n      log1\n        /* \"Homework3.sol\":1719:2037  {... */\n      pop\n        /* \"Homework3.sol\":1687:2037  function close(uint id) external{... */\n      pop\n      jump\t// out\n        /* \"Homework3.sol\":950:991  mapping (uint=>Campaign) public campaigns */\n    tag_27:\n      mstore(0x20, 0x01)\n      dup1\n      0x00\n      mstore\n      keccak256(0x00, 0x40)\n      0x00\n      swap2\n      pop\n      swap1\n      pop\n      dup1\n      0x00\n      add\n      0x00\n      swap1\n      sload\n      swap1\n      0x0100\n      exp\n      swap1\n      div\n      0xffffffffffffffffffffffffffffffffffffffff\n      and\n      swap1\n      dup1\n      0x01\n      add\n      sload\n      swap1\n      dup1\n      0x02\n      add\n      0x00\n      swap1\n      sload\n      swap1\n      0x0100\n      exp\n      swap1\n      div\n      0xffffffff\n      and\n      swap1\n      dup1\n      0x02\n      add\n      0x04\n      swap1\n      sload\n      swap1\n      0x0100\n      exp\n      swap1\n      div\n      0xffffffff\n      and\n      swap1\n      dup1\n      0x03\n      add\n      sload\n      swap1\n      dup1\n      0x04\n      add\n      0x00\n      swap1\n      sload\n      swap1\n      0x0100\n      exp\n      swap1\n      div\n      0xff\n      and\n      swap1\n      pop\n      dup7\n      jump\t// out\n        /* \"Homework3.sol\":400:483  function time() external view returns (uint){... */\n    tag_32:\n        /* \"Homework3.sol\":439:443  uint */\n      0x00\n        /* \"Homework3.sol\":461:476  block.timestamp */\n      timestamp\n        /* \"Homework3.sol\":454:476  return block.timestamp */\n      swap1\n      pop\n        /* \"Homework3.sol\":400:483  function time() external view returns (uint){... */\n      swap1\n      jump\t// out\n        /* \"Homework3.sol\":3314:3669  function refund(uint id) external{... */\n    tag_37:\n        /* \"Homework3.sol\":3357:3381  Campaign memory campaign */\n      0x00\n        /* \"Homework3.sol\":3384:3393  campaigns */\n      0x01\n        /* \"Homework3.sol\":3384:3397  campaigns[id] */\n      0x00\n        /* \"Homework3.sol\":3394:3396  id */\n      dup4\n        /* \"Homework3.sol\":3384:3397  campaigns[id] */\n      dup2\n      mstore\n      0x20\n      add\n      swap1\n      dup2\n      mstore\n      0x20\n      add\n      0x00\n      keccak256\n        /* \"Homework3.sol\":3357:3397  Campaign memory campaign = campaigns[id] */\n      mload(0x40)\n      dup1\n      0xc0\n      add\n      0x40\n      mstore\n      swap1\n      dup2\n      0x00\n      dup3\n      add\n      0x00\n      swap1\n      sload\n      swap1\n      0x0100\n      exp\n      swap1\n      div\n      0xffffffffffffffffffffffffffffffffffffffff\n      and\n      0xffffffffffffffffffffffffffffffffffffffff\n      and\n      0xffffffffffffffffffffffffffffffffffffffff\n      and\n      dup2\n      mstore\n      0x20\n      add\n      0x01\n      dup3\n      add\n      sload\n      dup2\n      mstore\n      0x20\n      add\n      0x02\n      dup3\n      add\n      0x00\n      swap1\n      sload\n      swap1\n      0x0100\n      exp\n      swap1\n      div\n      0xffffffff\n      and\n      0xffffffff\n      and\n      0xffffffff\n      and\n      dup2\n      mstore\n      0x20\n      add\n      0x02\n      dup3\n      add\n      0x04\n      swap1\n      sload\n      swap1\n      0x0100\n      exp\n      swap1\n      div\n      0xffffffff\n      and\n      0xffffffff\n      and\n      0xffffffff\n      and\n      dup2\n      mstore\n      0x20\n      add\n      0x03\n      dup3\n      add\n      sload\n      dup2\n      mstore\n      0x20\n      add\n      0x04\n      dup3\n      add\n      0x00\n      swap1\n      sload\n      swap1\n      0x0100\n      exp\n      swap1\n      div\n      0xff\n      and\n      iszero\n      iszero\n      iszero\n      iszero\n      dup2\n      mstore\n      pop\n      pop\n      swap1\n      pop\n        /* \"Homework3.sol\":3434:3442  campaign */\n      dup1\n        /* \"Homework3.sol\":3434:3447  campaign.goal */\n      0x20\n      add\n      mload\n        /* \"Homework3.sol\":3415:3423  campaign */\n      dup2\n        /* \"Homework3.sol\":3415:3431  campaign.pledged */\n      0x80\n      add\n      mload\n        /* \"Homework3.sol\":3415:3447  campaign.pledged < campaign.goal */\n      lt\n        /* \"Homework3.sol\":3407:3467  require(campaign.pledged < campaign.goal, \"Pledged >= Goal\") */\n      tag_76\n      jumpi\n      mload(0x40)\n      0x08c379a000000000000000000000000000000000000000000000000000000000\n      dup2\n      mstore\n      0x04\n      add\n      tag_77\n      swap1\n      tag_78\n      jump\t// in\n    tag_77:\n      mload(0x40)\n      dup1\n      swap2\n      sub\n      swap1\n      revert\n    tag_76:\n        /* \"Homework3.sol\":3486:3494  uint bal */\n      0x00\n        /* \"Homework3.sol\":3497:3510  pledgedAmount */\n      0x02\n        /* \"Homework3.sol\":3497:3514  pledgedAmount[id] */\n      0x00\n        /* \"Homework3.sol\":3511:3513  id */\n      dup5\n        /* \"Homework3.sol\":3497:3514  pledgedAmount[id] */\n      dup2\n      mstore\n      0x20\n      add\n      swap1\n      dup2\n      mstore\n      0x20\n      add\n      0x00\n      keccak256\n        /* \"Homework3.sol\":3497:3526  pledgedAmount[id][msg.sender] */\n      0x00\n        /* \"Homework3.sol\":3515:3525  msg.sender */\n      caller\n        /* \"Homework3.sol\":3497:3526  pledgedAmount[id][msg.sender] */\n      0xffffffffffffffffffffffffffffffffffffffff\n      and\n      0xffffffffffffffffffffffffffffffffffffffff\n      and\n      dup2\n      mstore\n      0x20\n      add\n      swap1\n      dup2\n      mstore\n      0x20\n      add\n      0x00\n      keccak256\n      sload\n        /* \"Homework3.sol\":3486:3526  uint bal = pledgedAmount[id][msg.sender] */\n      swap1\n      pop\n        /* \"Homework3.sol\":3568:3569  0 */\n      0x00\n        /* \"Homework3.sol\":3536:3549  pledgedAmount */\n      0x02\n        /* \"Homework3.sol\":3536:3553  pledgedAmount[id] */\n      0x00\n        /* \"Homework3.sol\":3550:3552  id */\n      dup6\n        /* \"Homework3.sol\":3536:3553  pledgedAmount[id] */\n      dup2\n      mstore\n      0x20\n      add\n      swap1\n      dup2\n      mstore\n      0x20\n      add\n      0x00\n      keccak256\n        /* \"Homework3.sol\":3536:3565  pledgedAmount[id][msg.sender] */\n      0x00\n        /* \"Homework3.sol\":3554:3564  msg.sender */\n      caller\n        /* \"Homework3.sol\":3536:3565  pledgedAmount[id][msg.sender] */\n      0xffffffffffffffffffffffffffffffffffffffff\n      and\n      0xffffffffffffffffffffffffffffffffffffffff\n      and\n      dup2\n      mstore\n      0x20\n      add\n      swap1\n      dup2\n      mstore\n      0x20\n      add\n      0x00\n      keccak256\n        /* \"Homework3.sol\":3536:3569  pledgedAmount[id][msg.sender] = 0 */\n      dup2\n      swap1\n      sstore\n      pop\n        /* \"Homework3.sol\":3579:3584  token */\n      immutable(\"0x037d752242ae8d900ca1c2dba9512ed3f691680bee2a7d598ed49320619901d7\")\n        /* \"Homework3.sol\":3579:3593  token.transfer */\n      0xffffffffffffffffffffffffffffffffffffffff\n      and\n      0xa9059cbb\n        /* \"Homework3.sol\":3594:3604  msg.sender */\n      caller\n        /* \"Homework3.sol\":3606:3609  bal */\n      dup4\n        /* \"Homework3.sol\":3579:3610  token.transfer(msg.sender, bal) */\n      mload(0x40)\n      dup4\n      0xffffffff\n      and\n      0xe0\n      shl\n      dup2\n      mstore\n      0x04\n      add\n      tag_79\n      swap3\n      swap2\n      swap1\n      tag_80\n      jump\t// in\n    tag_79:\n      0x20\n      mload(0x40)\n      dup1\n      dup4\n      sub\n      dup2\n      0x00\n      dup8\n      gas\n      call\n      iszero\n      dup1\n      iszero\n      tag_82\n      jumpi\n      returndatasize\n      0x00\n      dup1\n      returndatacopy\n      revert(0x00, returndatasize)\n    tag_82:\n      pop\n      pop\n      pop\n      pop\n      mload(0x40)\n      returndatasize\n      not(0x1f)\n      0x1f\n      dup3\n      add\n      and\n      dup3\n      add\n      dup1\n      0x40\n      mstore\n      pop\n      dup2\n      add\n      swap1\n      tag_83\n      swap2\n      swap1\n      tag_84\n      jump\t// in\n    tag_83:\n      pop\n        /* \"Homework3.sol\":3637:3647  msg.sender */\n      caller\n        /* \"Homework3.sol\":3626:3653  Refund(id, msg.sender, bal) */\n      0xffffffffffffffffffffffffffffffffffffffff\n      and\n      0x21e12a7cad0da5928167e1084ea4d5fdf8d9af66657a2543a9ac76a0ca081477\n        /* \"Homework3.sol\":3633:3635  id */\n      dup5\n        /* \"Homework3.sol\":3649:3652  bal */\n      dup4\n        /* \"Homework3.sol\":3626:3653  Refund(id, msg.sender, bal) */\n      mload(0x40)\n      tag_85\n      swap3\n      swap2\n      swap1\n      tag_86\n      jump\t// in\n    tag_85:\n      mload(0x40)\n      dup1\n      swap2\n      sub\n      swap1\n      log2\n        /* \"Homework3.sol\":3347:3669  {... */\n      pop\n      pop\n        /* \"Homework3.sol\":3314:3669  function refund(uint id) external{... */\n      pop\n      jump\t// out\n        /* \"Homework3.sol\":1137:1681  function launch(... */\n    tag_42:\n        /* \"Homework3.sol\":1258:1273  block.timestamp */\n      timestamp\n        /* \"Homework3.sol\":1250:1256  _start */\n      dup3\n        /* \"Homework3.sol\":1250:1273  _start>=block.timestamp */\n      0xffffffff\n      and\n      lt\n      iszero\n        /* \"Homework3.sol\":1242:1286  require(_start>=block.timestamp,\"start<now\") */\n      tag_88\n      jumpi\n      mload(0x40)\n      0x08c379a000000000000000000000000000000000000000000000000000000000\n      dup2\n      mstore\n      0x04\n      add\n      tag_89\n      swap1\n      tag_90\n      jump\t// in\n    tag_89:\n      mload(0x40)\n      dup1\n      swap2\n      sub\n      swap1\n      revert\n    tag_88:\n        /* \"Homework3.sol\":1309:1315  _start */\n      dup2\n        /* \"Homework3.sol\":1304:1315  _end>_start */\n      0xffffffff\n      and\n        /* \"Homework3.sol\":1304:1308  _end */\n      dup2\n        /* \"Homework3.sol\":1304:1315  _end>_start */\n      0xffffffff\n      and\n      gt\n        /* \"Homework3.sol\":1296:1329  require(_end>_start ,\"start<end\") */\n      tag_91\n      jumpi\n      mload(0x40)\n      0x08c379a000000000000000000000000000000000000000000000000000000000\n      dup2\n      mstore\n      0x04\n      add\n      tag_92\n      swap1\n      tag_93\n      jump\t// in\n    tag_92:\n      mload(0x40)\n      dup1\n      swap2\n      sub\n      swap1\n      revert\n    tag_91:\n        /* \"Homework3.sol\":1371:1378  90 days */\n      0x76a700\n        /* \"Homework3.sol\":1353:1368  block.timestamp */\n      timestamp\n        /* \"Homework3.sol\":1353:1378  block.timestamp + 90 days */\n      tag_94\n      swap2\n      swap1\n      tag_95\n      jump\t// in\n    tag_94:\n        /* \"Homework3.sol\":1347:1351  _end */\n      dup2\n        /* \"Homework3.sol\":1347:1378  _end<=block.timestamp + 90 days */\n      0xffffffff\n      and\n      gt\n      iszero\n        /* \"Homework3.sol\":1339:1393  require(_end<=block.timestamp + 90 days,\"dur<max_dur\") */\n      tag_96\n      jumpi\n      mload(0x40)\n      0x08c379a000000000000000000000000000000000000000000000000000000000\n      dup2\n      mstore\n      0x04\n      add\n      tag_97\n      swap1\n      tag_98\n      jump\t// in\n    tag_97:\n      mload(0x40)\n      dup1\n      swap2\n      sub\n      swap1\n      revert\n    tag_96:\n        /* \"Homework3.sol\":1422:1597  Campaign({... */\n      mload(0x40)\n      dup1\n      0xc0\n      add\n      0x40\n      mstore\n      dup1\n        /* \"Homework3.sol\":1454:1464  msg.sender */\n      caller\n        /* \"Homework3.sol\":1422:1597  Campaign({... */\n      0xffffffffffffffffffffffffffffffffffffffff\n      and\n      dup2\n      mstore\n      0x20\n      add\n        /* \"Homework3.sol\":1483:1488  _goal */\n      dup5\n        /* \"Homework3.sol\":1422:1597  Campaign({... */\n      dup2\n      mstore\n      0x20\n      add\n        /* \"Homework3.sol\":1508:1514  _start */\n      dup4\n        /* \"Homework3.sol\":1422:1597  Campaign({... */\n      0xffffffff\n      and\n      dup2\n      mstore\n      0x20\n      add\n        /* \"Homework3.sol\":1532:1536  _end */\n      dup3\n        /* \"Homework3.sol\":1422:1597  Campaign({... */\n      0xffffffff\n      and\n      dup2\n      mstore\n      0x20\n      add\n        /* \"Homework3.sol\":1558:1559  0 */\n      0x00\n        /* \"Homework3.sol\":1422:1597  Campaign({... */\n      dup2\n      mstore\n      0x20\n      add\n        /* \"Homework3.sol\":1581:1586  false */\n      0x00\n        /* \"Homework3.sol\":1422:1597  Campaign({... */\n      iszero\n      iszero\n      dup2\n      mstore\n      pop\n        /* \"Homework3.sol\":1403:1412  campaigns */\n      0x01\n        /* \"Homework3.sol\":1403:1419  campaigns[count] */\n      0x00\n        /* \"Homework3.sol\":1413:1418  count */\n      dup1\n      sload\n        /* \"Homework3.sol\":1403:1419  campaigns[count] */\n      dup2\n      mstore\n      0x20\n      add\n      swap1\n      dup2\n      mstore\n      0x20\n      add\n      0x00\n      keccak256\n        /* \"Homework3.sol\":1403:1597  campaigns[count] = Campaign({... */\n      0x00\n      dup3\n      add\n      mload\n      dup2\n      0x00\n      add\n      exp(0x0100, 0x00)\n      dup2\n      sload\n      dup2\n      0xffffffffffffffffffffffffffffffffffffffff\n      mul\n      not\n      and\n      swap1\n      dup4\n      0xffffffffffffffffffffffffffffffffffffffff\n      and\n      mul\n      or\n      swap1\n      sstore\n      pop\n      0x20\n      dup3\n      add\n      mload\n      dup2\n      0x01\n      add\n      sstore\n      0x40\n      dup3\n      add\n      mload\n      dup2\n      0x02\n      add\n      exp(0x0100, 0x00)\n      dup2\n      sload\n      dup2\n      0xffffffff\n      mul\n      not\n      and\n      swap1\n      dup4\n      0xffffffff\n      and\n      mul\n      or\n      swap1\n      sstore\n      pop\n      0x60\n      dup3\n      add\n      mload\n      dup2\n      0x02\n      add\n      exp(0x0100, 0x04)\n      dup2\n      sload\n      dup2\n      0xffffffff\n      mul\n      not\n      and\n      swap1\n      dup4\n      0xffffffff\n      and\n      mul\n      or\n      swap1\n      sstore\n      pop\n      0x80\n      dup3\n      add\n      mload\n      dup2\n      0x03\n      add\n      sstore\n      0xa0\n      dup3\n      add\n      mload\n      dup2\n      0x04\n      add\n      exp(0x0100, 0x00)\n      dup2\n      sload\n      dup2\n      0xff\n      mul\n      not\n      and\n      swap1\n      dup4\n      iszero\n      iszero\n      mul\n      or\n      swap1\n      sstore\n      pop\n      swap1\n      pop\n      pop\n        /* \"Homework3.sol\":1626:1636  msg.sender */\n      caller\n        /* \"Homework3.sol\":1613:1655  Launch(count,msg.sender,_goal,_start,_end) */\n      0xffffffffffffffffffffffffffffffffffffffff\n      and\n      0x0601cd0d650b473037e838a2696d41e654433d065b3f56b28d1d3302e44a304f\n        /* \"Homework3.sol\":1620:1625  count */\n      sload(0x00)\n        /* \"Homework3.sol\":1637:1642  _goal */\n      dup6\n        /* \"Homework3.sol\":1643:1649  _start */\n      dup6\n        /* \"Homework3.sol\":1650:1654  _end */\n      dup6\n        /* \"Homework3.sol\":1613:1655  Launch(count,msg.sender,_goal,_start,_end) */\n      mload(0x40)\n      tag_99\n      swap5\n      swap4\n      swap3\n      swap2\n      swap1\n      tag_100\n      jump\t// in\n    tag_99:\n      mload(0x40)\n      dup1\n      swap2\n      sub\n      swap1\n      log2\n        /* \"Homework3.sol\":1665:1670  count */\n      0x00\n      dup1\n        /* \"Homework3.sol\":1665:1672  count++ */\n      dup2\n      sload\n      dup1\n      swap3\n      swap2\n      swap1\n      tag_101\n      swap1\n      tag_102\n      jump\t// in\n    tag_101:\n      swap2\n      swap1\n      pop\n      sstore\n      pop\n        /* \"Homework3.sol\":1137:1681  function launch(... */\n      pop\n      pop\n      pop\n      jump\t// out\n        /* \"Homework3.sol\":2852:3308  function claim(uint _id) external {... */\n    tag_46:\n        /* \"Homework3.sol\":2896:2921  Campaign storage campaign */\n      0x00\n        /* \"Homework3.sol\":2924:2933  campaigns */\n      0x01\n        /* \"Homework3.sol\":2924:2938  campaigns[_id] */\n      0x00\n        /* \"Homework3.sol\":2934:2937  _id */\n      dup4\n        /* \"Homework3.sol\":2924:2938  campaigns[_id] */\n      dup2\n      mstore\n      0x20\n      add\n      swap1\n      dup2\n      mstore\n      0x20\n      add\n      0x00\n      keccak256\n        /* \"Homework3.sol\":2896:2938  Campaign storage campaign = campaigns[_id] */\n      swap1\n      pop\n        /* \"Homework3.sol\":2976:2986  msg.sender */\n      caller\n        /* \"Homework3.sol\":2956:2986  campaign.creator == msg.sender */\n      0xffffffffffffffffffffffffffffffffffffffff\n      and\n        /* \"Homework3.sol\":2956:2964  campaign */\n      dup2\n        /* \"Homework3.sol\":2956:2972  campaign.creator */\n      0x00\n      add\n      0x00\n      swap1\n      sload\n      swap1\n      0x0100\n      exp\n      swap1\n      div\n      0xffffffffffffffffffffffffffffffffffffffff\n      and\n        /* \"Homework3.sol\":2956:2986  campaign.creator == msg.sender */\n      0xffffffffffffffffffffffffffffffffffffffff\n      and\n      eq\n        /* \"Homework3.sol\":2948:3002  require(campaign.creator == msg.sender, \"not creator\") */\n      tag_104\n      jumpi\n      mload(0x40)\n      0x08c379a000000000000000000000000000000000000000000000000000000000\n      dup2\n      mstore\n      0x04\n      add\n      tag_105\n      swap1\n      tag_106\n      jump\t// in\n    tag_105:\n      mload(0x40)\n      dup1\n      swap2\n      sub\n      swap1\n      revert\n    tag_104:\n        /* \"Homework3.sol\":3038:3046  campaign */\n      dup1\n        /* \"Homework3.sol\":3038:3050  campaign.end */\n      0x02\n      add\n      0x04\n      swap1\n      sload\n      swap1\n      0x0100\n      exp\n      swap1\n      div\n      0xffffffff\n      and\n        /* \"Homework3.sol\":3020:3050  block.timestamp > campaign.end */\n      0xffffffff\n      and\n        /* \"Homework3.sol\":3020:3035  block.timestamp */\n      timestamp\n        /* \"Homework3.sol\":3020:3050  block.timestamp > campaign.end */\n      gt\n        /* \"Homework3.sol\":3012:3064  require(block.timestamp > campaign.end, \"not ended\") */\n      tag_107\n      jumpi\n      mload(0x40)\n      0x08c379a000000000000000000000000000000000000000000000000000000000\n      dup2\n      mstore\n      0x04\n      add\n      tag_108\n      swap1\n      tag_109\n      jump\t// in\n    tag_108:\n      mload(0x40)\n      dup1\n      swap2\n      sub\n      swap1\n      revert\n    tag_107:\n        /* \"Homework3.sol\":3102:3110  campaign */\n      dup1\n        /* \"Homework3.sol\":3102:3115  campaign.goal */\n      0x01\n      add\n      sload\n        /* \"Homework3.sol\":3082:3090  campaign */\n      dup2\n        /* \"Homework3.sol\":3082:3098  campaign.pledged */\n      0x03\n      add\n      sload\n        /* \"Homework3.sol\":3082:3115  campaign.pledged >= campaign.goal */\n      lt\n      iszero\n        /* \"Homework3.sol\":3074:3134  require(campaign.pledged >= campaign.goal, \"pledged < goal\") */\n      tag_110\n      jumpi\n      mload(0x40)\n      0x08c379a000000000000000000000000000000000000000000000000000000000\n      dup2\n      mstore\n      0x04\n      add\n      tag_111\n      swap1\n      tag_112\n      jump\t// in\n    tag_111:\n      mload(0x40)\n      dup1\n      swap2\n      sub\n      swap1\n      revert\n    tag_110:\n        /* \"Homework3.sol\":3153:3161  campaign */\n      dup1\n        /* \"Homework3.sol\":3153:3169  campaign.claimed */\n      0x04\n      add\n      0x00\n      swap1\n      sload\n      swap1\n      0x0100\n      exp\n      swap1\n      div\n      0xff\n      and\n        /* \"Homework3.sol\":3152:3169  !campaign.claimed */\n      iszero\n        /* \"Homework3.sol\":3144:3181  require(!campaign.claimed, \"claimed\") */\n      tag_113\n      jumpi\n      mload(0x40)\n      0x08c379a000000000000000000000000000000000000000000000000000000000\n      dup2\n      mstore\n      0x04\n      add\n      tag_114\n      swap1\n      tag_115\n      jump\t// in\n    tag_114:\n      mload(0x40)\n      dup1\n      swap2\n      sub\n      swap1\n      revert\n    tag_113:\n        /* \"Homework3.sol\":3211:3215  true */\n      0x01\n        /* \"Homework3.sol\":3192:3200  campaign */\n      dup2\n        /* \"Homework3.sol\":3192:3208  campaign.claimed */\n      0x04\n      add\n      0x00\n        /* \"Homework3.sol\":3192:3215  campaign.claimed = true */\n      0x0100\n      exp\n      dup2\n      sload\n      dup2\n      0xff\n      mul\n      not\n      and\n      swap1\n      dup4\n      iszero\n      iszero\n      mul\n      or\n      swap1\n      sstore\n      pop\n        /* \"Homework3.sol\":3225:3230  token */\n      immutable(\"0x037d752242ae8d900ca1c2dba9512ed3f691680bee2a7d598ed49320619901d7\")\n        /* \"Homework3.sol\":3225:3239  token.transfer */\n      0xffffffffffffffffffffffffffffffffffffffff\n      and\n      0xa9059cbb\n        /* \"Homework3.sol\":3240:3248  campaign */\n      dup3\n        /* \"Homework3.sol\":3240:3256  campaign.creator */\n      0x00\n      add\n      0x00\n      swap1\n      sload\n      swap1\n      0x0100\n      exp\n      swap1\n      div\n      0xffffffffffffffffffffffffffffffffffffffff\n      and\n        /* \"Homework3.sol\":3258:3266  campaign */\n      dup4\n        /* \"Homework3.sol\":3258:3274  campaign.pledged */\n      0x03\n      add\n      sload\n        /* \"Homework3.sol\":3225:3275  token.transfer(campaign.creator, campaign.pledged) */\n      mload(0x40)\n      dup4\n      0xffffffff\n      and\n      0xe0\n      shl\n      dup2\n      mstore\n      0x04\n      add\n      tag_116\n      swap3\n      swap2\n      swap1\n      tag_80\n      jump\t// in\n    tag_116:\n      0x20\n      mload(0x40)\n      dup1\n      dup4\n      sub\n      dup2\n      0x00\n      dup8\n      gas\n      call\n      iszero\n      dup1\n      iszero\n      tag_118\n      jumpi\n      returndatasize\n      0x00\n      dup1\n      returndatacopy\n      revert(0x00, returndatasize)\n    tag_118:\n      pop\n      pop\n      pop\n      pop\n      mload(0x40)\n      returndatasize\n      not(0x1f)\n      0x1f\n      dup3\n      add\n      and\n      dup3\n      add\n      dup1\n      0x40\n      mstore\n      pop\n      dup2\n      add\n      swap1\n      tag_119\n      swap2\n      swap1\n      tag_84\n      jump\t// in\n    tag_119:\n      pop\n        /* \"Homework3.sol\":3291:3301  Claim(_id) */\n      0x7bb2b3c10797baccb6f8c4791f1edd6ca2f0d028ee0eda64b01a9a57e3a653f7\n        /* \"Homework3.sol\":3297:3300  _id */\n      dup3\n        /* \"Homework3.sol\":3291:3301  Claim(_id) */\n      mload(0x40)\n      tag_120\n      swap2\n      swap1\n      tag_18\n      jump\t// in\n    tag_120:\n      mload(0x40)\n      dup1\n      swap2\n      sub\n      swap1\n      log1\n        /* \"Homework3.sol\":2886:3308  {... */\n      pop\n        /* \"Homework3.sol\":2852:3308  function claim(uint _id) external {... */\n      pop\n      jump\t// out\n        /* \"Homework3.sol\":2493:2846  function unpledge(uint _id, uint _amount) external {... */\n    tag_51:\n        /* \"Homework3.sol\":2554:2579  Campaign storage campaign */\n      0x00\n        /* \"Homework3.sol\":2582:2591  campaigns */\n      0x01\n        /* \"Homework3.sol\":2582:2596  campaigns[_id] */\n      0x00\n        /* \"Homework3.sol\":2592:2595  _id */\n      dup5\n        /* \"Homework3.sol\":2582:2596  campaigns[_id] */\n      dup2\n      mstore\n      0x20\n      add\n      swap1\n      dup2\n      mstore\n      0x20\n      add\n      0x00\n      keccak256\n        /* \"Homework3.sol\":2554:2596  Campaign storage campaign = campaigns[_id] */\n      swap1\n      pop\n        /* \"Homework3.sol\":2633:2641  campaign */\n      dup1\n        /* \"Homework3.sol\":2633:2645  campaign.end */\n      0x02\n      add\n      0x04\n      swap1\n      sload\n      swap1\n      0x0100\n      exp\n      swap1\n      div\n      0xffffffff\n      and\n        /* \"Homework3.sol\":2614:2645  block.timestamp <= campaign.end */\n      0xffffffff\n      and\n        /* \"Homework3.sol\":2614:2629  block.timestamp */\n      timestamp\n        /* \"Homework3.sol\":2614:2645  block.timestamp <= campaign.end */\n      gt\n      iszero\n        /* \"Homework3.sol\":2606:2655  require(block.timestamp <= campaign.end, \"ended\") */\n      tag_122\n      jumpi\n      mload(0x40)\n      0x08c379a000000000000000000000000000000000000000000000000000000000\n      dup2\n      mstore\n      0x04\n      add\n      tag_123\n      swap1\n      tag_124\n      jump\t// in\n    tag_123:\n      mload(0x40)\n      dup1\n      swap2\n      sub\n      swap1\n      revert\n    tag_122:\n        /* \"Homework3.sol\":2686:2693  _amount */\n      dup2\n        /* \"Homework3.sol\":2666:2674  campaign */\n      dup2\n        /* \"Homework3.sol\":2666:2682  campaign.pledged */\n      0x03\n      add\n      0x00\n        /* \"Homework3.sol\":2666:2693  campaign.pledged -= _amount */\n      dup3\n      dup3\n      sload\n      tag_125\n      swap2\n      swap1\n      tag_126\n      jump\t// in\n    tag_125:\n      swap3\n      pop\n      pop\n      dup2\n      swap1\n      sstore\n      pop\n        /* \"Homework3.sol\":2737:2744  _amount */\n      dup2\n        /* \"Homework3.sol\":2703:2716  pledgedAmount */\n      0x02\n        /* \"Homework3.sol\":2703:2721  pledgedAmount[_id] */\n      0x00\n        /* \"Homework3.sol\":2717:2720  _id */\n      dup6\n        /* \"Homework3.sol\":2703:2721  pledgedAmount[_id] */\n      dup2\n      mstore\n      0x20\n      add\n      swap1\n      dup2\n      mstore\n      0x20\n      add\n      0x00\n      keccak256\n        /* \"Homework3.sol\":2703:2733  pledgedAmount[_id][msg.sender] */\n      0x00\n        /* \"Homework3.sol\":2722:2732  msg.sender */\n      caller\n        /* \"Homework3.sol\":2703:2733  pledgedAmount[_id][msg.sender] */\n      0xffffffffffffffffffffffffffffffffffffffff\n      and\n      0xffffffffffffffffffffffffffffffffffffffff\n      and\n      dup2\n      mstore\n      0x20\n      add\n      swap1\n      dup2\n      mstore\n      0x20\n      add\n      0x00\n      keccak256\n      0x00\n        /* \"Homework3.sol\":2703:2744  pledgedAmount[_id][msg.sender] -= _amount */\n      dup3\n      dup3\n      sload\n      tag_127\n      swap2\n      swap1\n      tag_126\n      jump\t// in\n    tag_127:\n      swap3\n      pop\n      pop\n      dup2\n      swap1\n      sstore\n      pop\n        /* \"Homework3.sol\":2754:2759  token */\n      immutable(\"0x037d752242ae8d900ca1c2dba9512ed3f691680bee2a7d598ed49320619901d7\")\n        /* \"Homework3.sol\":2754:2768  token.transfer */\n      0xffffffffffffffffffffffffffffffffffffffff\n      and\n      0xa9059cbb\n        /* \"Homework3.sol\":2769:2779  msg.sender */\n      caller\n        /* \"Homework3.sol\":2781:2788  _amount */\n      dup5\n        /* \"Homework3.sol\":2754:2789  token.transfer(msg.sender, _amount) */\n      mload(0x40)\n      dup4\n      0xffffffff\n      and\n      0xe0\n      shl\n      dup2\n      mstore\n      0x04\n      add\n      tag_128\n      swap3\n      swap2\n      swap1\n      tag_80\n      jump\t// in\n    tag_128:\n      0x20\n      mload(0x40)\n      dup1\n      dup4\n      sub\n      dup2\n      0x00\n      dup8\n      gas\n      call\n      iszero\n      dup1\n      iszero\n      tag_130\n      jumpi\n      returndatasize\n      0x00\n      dup1\n      returndatacopy\n      revert(0x00, returndatasize)\n    tag_130:\n      pop\n      pop\n      pop\n      pop\n      mload(0x40)\n      returndatasize\n      not(0x1f)\n      0x1f\n      dup3\n      add\n      and\n      dup3\n      add\n      dup1\n      0x40\n      mstore\n      pop\n      dup2\n      add\n      swap1\n      tag_131\n      swap2\n      swap1\n      tag_84\n      jump\t// in\n    tag_131:\n      pop\n        /* \"Homework3.sol\":2814:2817  _id */\n      dup3\n        /* \"Homework3.sol\":2805:2839  Unpledge(_id, msg.sender, _amount) */\n      0x2eeeab891b26a214d1b25749f88a406bdea852bd8c9bfda977e0ef8114c180ba\n        /* \"Homework3.sol\":2819:2829  msg.sender */\n      caller\n        /* \"Homework3.sol\":2831:2838  _amount */\n      dup5\n        /* \"Homework3.sol\":2805:2839  Unpledge(_id, msg.sender, _amount) */\n      mload(0x40)\n      tag_132\n      swap3\n      swap2\n      swap1\n      tag_80\n      jump\t// in\n    tag_132:\n      mload(0x40)\n      dup1\n      swap2\n      sub\n      swap1\n      log2\n        /* \"Homework3.sol\":2544:2846  {... */\n      pop\n        /* \"Homework3.sol\":2493:2846  function unpledge(uint _id, uint _amount) external {... */\n      pop\n      pop\n      jump\t// out\n        /* \"Homework3.sol\":997:1056  mapping (uint=>mapping(address=>uint)) public pledgedAmount */\n    tag_56:\n      mstore(0x20, 0x02)\n      dup2\n      0x00\n      mstore\n      mstore(0x20, keccak256(0x00, 0x40))\n      dup1\n      0x00\n      mstore\n      keccak256(0x00, 0x40)\n      0x00\n      swap2\n      pop\n      swap2\n      pop\n      pop\n      sload\n      dup2\n      jump\t// out\n        /* \"Homework3.sol\":915:944  IERC20 public immutable token */\n    tag_60:\n      immutable(\"0x037d752242ae8d900ca1c2dba9512ed3f691680bee2a7d598ed49320619901d7\")\n      dup2\n      jump\t// out\n        /* \"Homework3.sol\":2043:2487  function pledge(uint _id, uint _amount) payable external  {... */\n    tag_65:\n        /* \"Homework3.sol\":2111:2136  Campaign storage campaign */\n      0x00\n        /* \"Homework3.sol\":2139:2148  campaigns */\n      0x01\n        /* \"Homework3.sol\":2139:2153  campaigns[_id] */\n      0x00\n        /* \"Homework3.sol\":2149:2152  _id */\n      dup5\n        /* \"Homework3.sol\":2139:2153  campaigns[_id] */\n      dup2\n      mstore\n      0x20\n      add\n      swap1\n      dup2\n      mstore\n      0x20\n      add\n      0x00\n      keccak256\n        /* \"Homework3.sol\":2111:2153  Campaign storage campaign = campaigns[_id] */\n      swap1\n      pop\n        /* \"Homework3.sol\":2190:2198  campaign */\n      dup1\n        /* \"Homework3.sol\":2190:2204  campaign.start */\n      0x02\n      add\n      0x00\n      swap1\n      sload\n      swap1\n      0x0100\n      exp\n      swap1\n      div\n      0xffffffff\n      and\n        /* \"Homework3.sol\":2171:2204  block.timestamp >= campaign.start */\n      0xffffffff\n      and\n        /* \"Homework3.sol\":2171:2186  block.timestamp */\n      timestamp\n        /* \"Homework3.sol\":2171:2204  block.timestamp >= campaign.start */\n      lt\n      iszero\n        /* \"Homework3.sol\":2163:2220  require(block.timestamp >= campaign.start, \"not started\") */\n      tag_134\n      jumpi\n      mload(0x40)\n      0x08c379a000000000000000000000000000000000000000000000000000000000\n      dup2\n      mstore\n      0x04\n      add\n      tag_135\n      swap1\n      tag_136\n      jump\t// in\n    tag_135:\n      mload(0x40)\n      dup1\n      swap2\n      sub\n      swap1\n      revert\n    tag_134:\n        /* \"Homework3.sol\":2257:2265  campaign */\n      dup1\n        /* \"Homework3.sol\":2257:2269  campaign.end */\n      0x02\n      add\n      0x04\n      swap1\n      sload\n      swap1\n      0x0100\n      exp\n      swap1\n      div\n      0xffffffff\n      and\n        /* \"Homework3.sol\":2238:2269  block.timestamp <= campaign.end */\n      0xffffffff\n      and\n        /* \"Homework3.sol\":2238:2253  block.timestamp */\n      timestamp\n        /* \"Homework3.sol\":2238:2269  block.timestamp <= campaign.end */\n      gt\n      iszero\n        /* \"Homework3.sol\":2230:2279  require(block.timestamp <= campaign.end, \"ended\") */\n      tag_137\n      jumpi\n      mload(0x40)\n      0x08c379a000000000000000000000000000000000000000000000000000000000\n      dup2\n      mstore\n      0x04\n      add\n      tag_138\n      swap1\n      tag_124\n      jump\t// in\n    tag_138:\n      mload(0x40)\n      dup1\n      swap2\n      sub\n      swap1\n      revert\n    tag_137:\n        /* \"Homework3.sol\":2310:2317  _amount */\n      dup2\n        /* \"Homework3.sol\":2290:2298  campaign */\n      dup2\n        /* \"Homework3.sol\":2290:2306  campaign.pledged */\n      0x03\n      add\n      0x00\n        /* \"Homework3.sol\":2290:2317  campaign.pledged += _amount */\n      dup3\n      dup3\n      sload\n      tag_139\n      swap2\n      swap1\n      tag_95\n      jump\t// in\n    tag_139:\n      swap3\n      pop\n      pop\n      dup2\n      swap1\n      sstore\n      pop\n        /* \"Homework3.sol\":2361:2368  _amount */\n      dup2\n        /* \"Homework3.sol\":2327:2340  pledgedAmount */\n      0x02\n        /* \"Homework3.sol\":2327:2345  pledgedAmount[_id] */\n      0x00\n        /* \"Homework3.sol\":2341:2344  _id */\n      dup6\n        /* \"Homework3.sol\":2327:2345  pledgedAmount[_id] */\n      dup2\n      mstore\n      0x20\n      add\n      swap1\n      dup2\n      mstore\n      0x20\n      add\n      0x00\n      keccak256\n        /* \"Homework3.sol\":2327:2357  pledgedAmount[_id][msg.sender] */\n      0x00\n        /* \"Homework3.sol\":2346:2356  msg.sender */\n      caller\n        /* \"Homework3.sol\":2327:2357  pledgedAmount[_id][msg.sender] */\n      0xffffffffffffffffffffffffffffffffffffffff\n      and\n      0xffffffffffffffffffffffffffffffffffffffff\n      and\n      dup2\n      mstore\n      0x20\n      add\n      swap1\n      dup2\n      mstore\n      0x20\n      add\n      0x00\n      keccak256\n      0x00\n        /* \"Homework3.sol\":2327:2368  pledgedAmount[_id][msg.sender] += _amount */\n      dup3\n      dup3\n      sload\n      tag_140\n      swap2\n      swap1\n      tag_95\n      jump\t// in\n    tag_140:\n      swap3\n      pop\n      pop\n      dup2\n      swap1\n      sstore\n      pop\n        /* \"Homework3.sol\":2378:2383  token */\n      immutable(\"0x037d752242ae8d900ca1c2dba9512ed3f691680bee2a7d598ed49320619901d7\")\n        /* \"Homework3.sol\":2378:2396  token.transferFrom */\n      0xffffffffffffffffffffffffffffffffffffffff\n      and\n      0x23b872dd\n        /* \"Homework3.sol\":2397:2407  msg.sender */\n      caller\n        /* \"Homework3.sol\":2417:2421  this */\n      address\n        /* \"Homework3.sol\":2424:2431  _amount */\n      dup6\n        /* \"Homework3.sol\":2378:2432  token.transferFrom(msg.sender, address(this), _amount) */\n      mload(0x40)\n      dup5\n      0xffffffff\n      and\n      0xe0\n      shl\n      dup2\n      mstore\n      0x04\n      add\n      tag_141\n      swap4\n      swap3\n      swap2\n      swap1\n      tag_142\n      jump\t// in\n    tag_141:\n      0x20\n      mload(0x40)\n      dup1\n      dup4\n      sub\n      dup2\n      0x00\n      dup8\n      gas\n      call\n      iszero\n      dup1\n      iszero\n      tag_144\n      jumpi\n      returndatasize\n      0x00\n      dup1\n      returndatacopy\n      revert(0x00, returndatasize)\n    tag_144:\n      pop\n      pop\n      pop\n      pop\n      mload(0x40)\n      returndatasize\n      not(0x1f)\n      0x1f\n      dup3\n      add\n      and\n      dup3\n      add\n      dup1\n      0x40\n      mstore\n      pop\n      dup2\n      add\n      swap1\n      tag_145\n      swap2\n      swap1\n      tag_84\n      jump\t// in\n    tag_145:\n      pop\n        /* \"Homework3.sol\":2455:2458  _id */\n      dup3\n        /* \"Homework3.sol\":2448:2480  Pledge(_id, msg.sender, _amount) */\n      0x06bdb975df800a73232998e71ed585d536222f1dfeaa622d7f62a23ada686c82\n        /* \"Homework3.sol\":2460:2470  msg.sender */\n      caller\n        /* \"Homework3.sol\":2472:2479  _amount */\n      dup5\n        /* \"Homework3.sol\":2448:2480  Pledge(_id, msg.sender, _amount) */\n      mload(0x40)\n      tag_146\n      swap3\n      swap2\n      swap1\n      tag_80\n      jump\t// in\n    tag_146:\n      mload(0x40)\n      dup1\n      swap2\n      sub\n      swap1\n      log2\n        /* \"Homework3.sol\":2101:2487  {... */\n      pop\n        /* \"Homework3.sol\":2043:2487  function pledge(uint _id, uint _amount) payable external  {... */\n      pop\n      pop\n      jump\t// out\n        /* \"#utility.yul\":7:84   */\n    tag_147:\n        /* \"#utility.yul\":44:51   */\n      0x00\n        /* \"#utility.yul\":73:78   */\n      dup2\n        /* \"#utility.yul\":62:78   */\n      swap1\n      pop\n        /* \"#utility.yul\":7:84   */\n      swap2\n      swap1\n      pop\n      jump\t// out\n        /* \"#utility.yul\":90:208   */\n    tag_148:\n        /* \"#utility.yul\":177:201   */\n      tag_201\n        /* \"#utility.yul\":195:200   */\n      dup2\n        /* \"#utility.yul\":177:201   */\n      tag_147\n      jump\t// in\n    tag_201:\n        /* \"#utility.yul\":172:175   */\n      dup3\n        /* \"#utility.yul\":165:202   */\n      mstore\n        /* \"#utility.yul\":90:208   */\n      pop\n      pop\n      jump\t// out\n        /* \"#utility.yul\":214:436   */\n    tag_18:\n        /* \"#utility.yul\":307:311   */\n      0x00\n        /* \"#utility.yul\":345:347   */\n      0x20\n        /* \"#utility.yul\":334:343   */\n      dup3\n        /* \"#utility.yul\":330:348   */\n      add\n        /* \"#utility.yul\":322:348   */\n      swap1\n      pop\n        /* \"#utility.yul\":358:429   */\n      tag_203\n        /* \"#utility.yul\":426:427   */\n      0x00\n        /* \"#utility.yul\":415:424   */\n      dup4\n        /* \"#utility.yul\":411:428   */\n      add\n        /* \"#utility.yul\":402:408   */\n      dup5\n        /* \"#utility.yul\":358:429   */\n      tag_148\n      jump\t// in\n    tag_203:\n        /* \"#utility.yul\":214:436   */\n      swap3\n      swap2\n      pop\n      pop\n      jump\t// out\n        /* \"#utility.yul\":523:640   */\n    tag_150:\n        /* \"#utility.yul\":632:633   */\n      0x00\n        /* \"#utility.yul\":629:630   */\n      dup1\n        /* \"#utility.yul\":622:634   */\n      revert\n        /* \"#utility.yul\":769:891   */\n    tag_152:\n        /* \"#utility.yul\":842:866   */\n      tag_208\n        /* \"#utility.yul\":860:865   */\n      dup2\n        /* \"#utility.yul\":842:866   */\n      tag_147\n      jump\t// in\n    tag_208:\n        /* \"#utility.yul\":835:840   */\n      dup2\n        /* \"#utility.yul\":832:867   */\n      eq\n        /* \"#utility.yul\":822:885   */\n      tag_209\n      jumpi\n        /* \"#utility.yul\":881:882   */\n      0x00\n        /* \"#utility.yul\":878:879   */\n      dup1\n        /* \"#utility.yul\":871:883   */\n      revert\n        /* \"#utility.yul\":822:885   */\n    tag_209:\n        /* \"#utility.yul\":769:891   */\n      pop\n      jump\t// out\n        /* \"#utility.yul\":897:1036   */\n    tag_153:\n        /* \"#utility.yul\":943:948   */\n      0x00\n        /* \"#utility.yul\":981:987   */\n      dup2\n        /* \"#utility.yul\":968:988   */\n      calldataload\n        /* \"#utility.yul\":959:988   */\n      swap1\n      pop\n        /* \"#utility.yul\":997:1030   */\n      tag_211\n        /* \"#utility.yul\":1024:1029   */\n      dup2\n        /* \"#utility.yul\":997:1030   */\n      tag_152\n      jump\t// in\n    tag_211:\n        /* \"#utility.yul\":897:1036   */\n      swap3\n      swap2\n      pop\n      pop\n      jump\t// out\n        /* \"#utility.yul\":1042:1371   */\n    tag_22:\n        /* \"#utility.yul\":1101:1107   */\n      0x00\n        /* \"#utility.yul\":1150:1152   */\n      0x20\n        /* \"#utility.yul\":1138:1147   */\n      dup3\n        /* \"#utility.yul\":1129:1136   */\n      dup5\n        /* \"#utility.yul\":1125:1148   */\n      sub\n        /* \"#utility.yul\":1121:1153   */\n      slt\n        /* \"#utility.yul\":1118:1237   */\n      iszero\n      tag_213\n      jumpi\n        /* \"#utility.yul\":1156:1235   */\n      tag_214\n      tag_150\n      jump\t// in\n    tag_214:\n        /* \"#utility.yul\":1118:1237   */\n    tag_213:\n        /* \"#utility.yul\":1276:1277   */\n      0x00\n        /* \"#utility.yul\":1301:1354   */\n      tag_215\n        /* \"#utility.yul\":1346:1353   */\n      dup5\n        /* \"#utility.yul\":1337:1343   */\n      dup3\n        /* \"#utility.yul\":1326:1335   */\n      dup6\n        /* \"#utility.yul\":1322:1344   */\n      add\n        /* \"#utility.yul\":1301:1354   */\n      tag_153\n      jump\t// in\n    tag_215:\n        /* \"#utility.yul\":1291:1354   */\n      swap2\n      pop\n        /* \"#utility.yul\":1247:1364   */\n      pop\n        /* \"#utility.yul\":1042:1371   */\n      swap3\n      swap2\n      pop\n      pop\n      jump\t// out\n        /* \"#utility.yul\":1377:1503   */\n    tag_154:\n        /* \"#utility.yul\":1414:1421   */\n      0x00\n        /* \"#utility.yul\":1454:1496   */\n      0xffffffffffffffffffffffffffffffffffffffff\n        /* \"#utility.yul\":1447:1452   */\n      dup3\n        /* \"#utility.yul\":1443:1497   */\n      and\n        /* \"#utility.yul\":1432:1497   */\n      swap1\n      pop\n        /* \"#utility.yul\":1377:1503   */\n      swap2\n      swap1\n      pop\n      jump\t// out\n        /* \"#utility.yul\":1509:1605   */\n    tag_155:\n        /* \"#utility.yul\":1546:1553   */\n      0x00\n        /* \"#utility.yul\":1575:1599   */\n      tag_218\n        /* \"#utility.yul\":1593:1598   */\n      dup3\n        /* \"#utility.yul\":1575:1599   */\n      tag_154\n      jump\t// in\n    tag_218:\n        /* \"#utility.yul\":1564:1599   */\n      swap1\n      pop\n        /* \"#utility.yul\":1509:1605   */\n      swap2\n      swap1\n      pop\n      jump\t// out\n        /* \"#utility.yul\":1611:1729   */\n    tag_156:\n        /* \"#utility.yul\":1698:1722   */\n      tag_220\n        /* \"#utility.yul\":1716:1721   */\n      dup2\n        /* \"#utility.yul\":1698:1722   */\n      tag_155\n      jump\t// in\n    tag_220:\n        /* \"#utility.yul\":1693:1696   */\n      dup3\n        /* \"#utility.yul\":1686:1723   */\n      mstore\n        /* \"#utility.yul\":1611:1729   */\n      pop\n      pop\n      jump\t// out\n        /* \"#utility.yul\":1735:1828   */\n    tag_157:\n        /* \"#utility.yul\":1771:1778   */\n      0x00\n        /* \"#utility.yul\":1811:1821   */\n      0xffffffff\n        /* \"#utility.yul\":1804:1809   */\n      dup3\n        /* \"#utility.yul\":1800:1822   */\n      and\n        /* \"#utility.yul\":1789:1822   */\n      swap1\n      pop\n        /* \"#utility.yul\":1735:1828   */\n      swap2\n      swap1\n      pop\n      jump\t// out\n        /* \"#utility.yul\":1834:1949   */\n    tag_158:\n        /* \"#utility.yul\":1919:1942   */\n      tag_223\n        /* \"#utility.yul\":1936:1941   */\n      dup2\n        /* \"#utility.yul\":1919:1942   */\n      tag_157\n      jump\t// in\n    tag_223:\n        /* \"#utility.yul\":1914:1917   */\n      dup3\n        /* \"#utility.yul\":1907:1943   */\n      mstore\n        /* \"#utility.yul\":1834:1949   */\n      pop\n      pop\n      jump\t// out\n        /* \"#utility.yul\":1955:2045   */\n    tag_159:\n        /* \"#utility.yul\":1989:1996   */\n      0x00\n        /* \"#utility.yul\":2032:2037   */\n      dup2\n        /* \"#utility.yul\":2025:2038   */\n      iszero\n        /* \"#utility.yul\":2018:2039   */\n      iszero\n        /* \"#utility.yul\":2007:2039   */\n      swap1\n      pop\n        /* \"#utility.yul\":1955:2045   */\n      swap2\n      swap1\n      pop\n      jump\t// out\n        /* \"#utility.yul\":2051:2160   */\n    tag_160:\n        /* \"#utility.yul\":2132:2153   */\n      tag_226\n        /* \"#utility.yul\":2147:2152   */\n      dup2\n        /* \"#utility.yul\":2132:2153   */\n      tag_159\n      jump\t// in\n    tag_226:\n        /* \"#utility.yul\":2127:2130   */\n      dup3\n        /* \"#utility.yul\":2120:2154   */\n      mstore\n        /* \"#utility.yul\":2051:2160   */\n      pop\n      pop\n      jump\t// out\n        /* \"#utility.yul\":2166:2921   */\n    tag_29:\n        /* \"#utility.yul\":2389:2393   */\n      0x00\n        /* \"#utility.yul\":2427:2430   */\n      0xc0\n        /* \"#utility.yul\":2416:2425   */\n      dup3\n        /* \"#utility.yul\":2412:2431   */\n      add\n        /* \"#utility.yul\":2404:2431   */\n      swap1\n      pop\n        /* \"#utility.yul\":2441:2512   */\n      tag_228\n        /* \"#utility.yul\":2509:2510   */\n      0x00\n        /* \"#utility.yul\":2498:2507   */\n      dup4\n        /* \"#utility.yul\":2494:2511   */\n      add\n        /* \"#utility.yul\":2485:2491   */\n      dup10\n        /* \"#utility.yul\":2441:2512   */\n      tag_156\n      jump\t// in\n    tag_228:\n        /* \"#utility.yul\":2522:2594   */\n      tag_229\n        /* \"#utility.yul\":2590:2592   */\n      0x20\n        /* \"#utility.yul\":2579:2588   */\n      dup4\n        /* \"#utility.yul\":2575:2593   */\n      add\n        /* \"#utility.yul\":2566:2572   */\n      dup9\n        /* \"#utility.yul\":2522:2594   */\n      tag_148\n      jump\t// in\n    tag_229:\n        /* \"#utility.yul\":2604:2674   */\n      tag_230\n        /* \"#utility.yul\":2670:2672   */\n      0x40\n        /* \"#utility.yul\":2659:2668   */\n      dup4\n        /* \"#utility.yul\":2655:2673   */\n      add\n        /* \"#utility.yul\":2646:2652   */\n      dup8\n        /* \"#utility.yul\":2604:2674   */\n      tag_158\n      jump\t// in\n    tag_230:\n        /* \"#utility.yul\":2684:2754   */\n      tag_231\n        /* \"#utility.yul\":2750:2752   */\n      0x60\n        /* \"#utility.yul\":2739:2748   */\n      dup4\n        /* \"#utility.yul\":2735:2753   */\n      add\n        /* \"#utility.yul\":2726:2732   */\n      dup7\n        /* \"#utility.yul\":2684:2754   */\n      tag_158\n      jump\t// in\n    tag_231:\n        /* \"#utility.yul\":2764:2837   */\n      tag_232\n        /* \"#utility.yul\":2832:2835   */\n      0x80\n        /* \"#utility.yul\":2821:2830   */\n      dup4\n        /* \"#utility.yul\":2817:2836   */\n      add\n        /* \"#utility.yul\":2808:2814   */\n      dup6\n        /* \"#utility.yul\":2764:2837   */\n      tag_148\n      jump\t// in\n    tag_232:\n        /* \"#utility.yul\":2847:2914   */\n      tag_233\n        /* \"#utility.yul\":2909:2912   */\n      0xa0\n        /* \"#utility.yul\":2898:2907   */\n      dup4\n        /* \"#utility.yul\":2894:2913   */\n      add\n        /* \"#utility.yul\":2885:2891   */\n      dup5\n        /* \"#utility.yul\":2847:2914   */\n      tag_160\n      jump\t// in\n    tag_233:\n        /* \"#utility.yul\":2166:2921   */\n      swap8\n      swap7\n      pop\n      pop\n      pop\n      pop\n      pop\n      pop\n      pop\n      jump\t// out\n        /* \"#utility.yul\":2927:3047   */\n    tag_161:\n        /* \"#utility.yul\":2999:3022   */\n      tag_235\n        /* \"#utility.yul\":3016:3021   */\n      dup2\n        /* \"#utility.yul\":2999:3022   */\n      tag_157\n      jump\t// in\n    tag_235:\n        /* \"#utility.yul\":2992:2997   */\n      dup2\n        /* \"#utility.yul\":2989:3023   */\n      eq\n        /* \"#utility.yul\":2979:3041   */\n      tag_236\n      jumpi\n        /* \"#utility.yul\":3037:3038   */\n      0x00\n        /* \"#utility.yul\":3034:3035   */\n      dup1\n        /* \"#utility.yul\":3027:3039   */\n      revert\n        /* \"#utility.yul\":2979:3041   */\n    tag_236:\n        /* \"#utility.yul\":2927:3047   */\n      pop\n      jump\t// out\n        /* \"#utility.yul\":3053:3190   */\n    tag_162:\n        /* \"#utility.yul\":3098:3103   */\n      0x00\n        /* \"#utility.yul\":3136:3142   */\n      dup2\n        /* \"#utility.yul\":3123:3143   */\n      calldataload\n        /* \"#utility.yul\":3114:3143   */\n      swap1\n      pop\n        /* \"#utility.yul\":3152:3184   */\n      tag_238\n        /* \"#utility.yul\":3178:3183   */\n      dup2\n        /* \"#utility.yul\":3152:3184   */\n      tag_161\n      jump\t// in\n    tag_238:\n        /* \"#utility.yul\":3053:3190   */\n      swap3\n      swap2\n      pop\n      pop\n      jump\t// out\n        /* \"#utility.yul\":3196:3811   */\n    tag_41:\n        /* \"#utility.yul\":3271:3277   */\n      0x00\n        /* \"#utility.yul\":3279:3285   */\n      dup1\n        /* \"#utility.yul\":3287:3293   */\n      0x00\n        /* \"#utility.yul\":3336:3338   */\n      0x60\n        /* \"#utility.yul\":3324:3333   */\n      dup5\n        /* \"#utility.yul\":3315:3322   */\n      dup7\n        /* \"#utility.yul\":3311:3334   */\n      sub\n        /* \"#utility.yul\":3307:3339   */\n      slt\n        /* \"#utility.yul\":3304:3423   */\n      iszero\n      tag_240\n      jumpi\n        /* \"#utility.yul\":3342:3421   */\n      tag_241\n      tag_150\n      jump\t// in\n    tag_241:\n        /* \"#utility.yul\":3304:3423   */\n    tag_240:\n        /* \"#utility.yul\":3462:3463   */\n      0x00\n        /* \"#utility.yul\":3487:3540   */\n      tag_242\n        /* \"#utility.yul\":3532:3539   */\n      dup7\n        /* \"#utility.yul\":3523:3529   */\n      dup3\n        /* \"#utility.yul\":3512:3521   */\n      dup8\n        /* \"#utility.yul\":3508:3530   */\n      add\n        /* \"#utility.yul\":3487:3540   */\n      tag_153\n      jump\t// in\n    tag_242:\n        /* \"#utility.yul\":3477:3540   */\n      swap4\n      pop\n        /* \"#utility.yul\":3433:3550   */\n      pop\n        /* \"#utility.yul\":3589:3591   */\n      0x20\n        /* \"#utility.yul\":3615:3667   */\n      tag_243\n        /* \"#utility.yul\":3659:3666   */\n      dup7\n        /* \"#utility.yul\":3650:3656   */\n      dup3\n        /* \"#utility.yul\":3639:3648   */\n      dup8\n        /* \"#utility.yul\":3635:3657   */\n      add\n        /* \"#utility.yul\":3615:3667   */\n      tag_162\n      jump\t// in\n    tag_243:\n        /* \"#utility.yul\":3605:3667   */\n      swap3\n      pop\n        /* \"#utility.yul\":3560:3677   */\n      pop\n        /* \"#utility.yul\":3716:3718   */\n      0x40\n        /* \"#utility.yul\":3742:3794   */\n      tag_244\n        /* \"#utility.yul\":3786:3793   */\n      dup7\n        /* \"#utility.yul\":3777:3783   */\n      dup3\n        /* \"#utility.yul\":3766:3775   */\n      dup8\n        /* \"#utility.yul\":3762:3784   */\n      add\n        /* \"#utility.yul\":3742:3794   */\n      tag_162\n      jump\t// in\n    tag_244:\n        /* \"#utility.yul\":3732:3794   */\n      swap2\n      pop\n        /* \"#utility.yul\":3687:3804   */\n      pop\n        /* \"#utility.yul\":3196:3811   */\n      swap3\n      pop\n      swap3\n      pop\n      swap3\n      jump\t// out\n        /* \"#utility.yul\":3817:4291   */\n    tag_50:\n        /* \"#utility.yul\":3885:3891   */\n      0x00\n        /* \"#utility.yul\":3893:3899   */\n      dup1\n        /* \"#utility.yul\":3942:3944   */\n      0x40\n        /* \"#utility.yul\":3930:3939   */\n      dup4\n        /* \"#utility.yul\":3921:3928   */\n      dup6\n        /* \"#utility.yul\":3917:3940   */\n      sub\n        /* \"#utility.yul\":3913:3945   */\n      slt\n        /* \"#utility.yul\":3910:4029   */\n      iszero\n      tag_246\n      jumpi\n        /* \"#utility.yul\":3948:4027   */\n      tag_247\n      tag_150\n      jump\t// in\n    tag_247:\n        /* \"#utility.yul\":3910:4029   */\n    tag_246:\n        /* \"#utility.yul\":4068:4069   */\n      0x00\n        /* \"#utility.yul\":4093:4146   */\n      tag_248\n        /* \"#utility.yul\":4138:4145   */\n      dup6\n        /* \"#utility.yul\":4129:4135   */\n      dup3\n        /* \"#utility.yul\":4118:4127   */\n      dup7\n        /* \"#utility.yul\":4114:4136   */\n      add\n        /* \"#utility.yul\":4093:4146   */\n      tag_153\n      jump\t// in\n    tag_248:\n        /* \"#utility.yul\":4083:4146   */\n      swap3\n      pop\n        /* \"#utility.yul\":4039:4156   */\n      pop\n        /* \"#utility.yul\":4195:4197   */\n      0x20\n        /* \"#utility.yul\":4221:4274   */\n      tag_249\n        /* \"#utility.yul\":4266:4273   */\n      dup6\n        /* \"#utility.yul\":4257:4263   */\n      dup3\n        /* \"#utility.yul\":4246:4255   */\n      dup7\n        /* \"#utility.yul\":4242:4264   */\n      add\n        /* \"#utility.yul\":4221:4274   */\n      tag_153\n      jump\t// in\n    tag_249:\n        /* \"#utility.yul\":4211:4274   */\n      swap2\n      pop\n        /* \"#utility.yul\":4166:4284   */\n      pop\n        /* \"#utility.yul\":3817:4291   */\n      swap3\n      pop\n      swap3\n      swap1\n      pop\n      jump\t// out\n        /* \"#utility.yul\":4297:4419   */\n    tag_163:\n        /* \"#utility.yul\":4370:4394   */\n      tag_251\n        /* \"#utility.yul\":4388:4393   */\n      dup2\n        /* \"#utility.yul\":4370:4394   */\n      tag_155\n      jump\t// in\n    tag_251:\n        /* \"#utility.yul\":4363:4368   */\n      dup2\n        /* \"#utility.yul\":4360:4395   */\n      eq\n        /* \"#utility.yul\":4350:4413   */\n      tag_252\n      jumpi\n        /* \"#utility.yul\":4409:4410   */\n      0x00\n        /* \"#utility.yul\":4406:4407   */\n      dup1\n        /* \"#utility.yul\":4399:4411   */\n      revert\n        /* \"#utility.yul\":4350:4413   */\n    tag_252:\n        /* \"#utility.yul\":4297:4419   */\n      pop\n      jump\t// out\n        /* \"#utility.yul\":4425:4564   */\n    tag_164:\n        /* \"#utility.yul\":4471:4476   */\n      0x00\n        /* \"#utility.yul\":4509:4515   */\n      dup2\n        /* \"#utility.yul\":4496:4516   */\n      calldataload\n        /* \"#utility.yul\":4487:4516   */\n      swap1\n      pop\n        /* \"#utility.yul\":4525:4558   */\n      tag_254\n        /* \"#utility.yul\":4552:4557   */\n      dup2\n        /* \"#utility.yul\":4525:4558   */\n      tag_163\n      jump\t// in\n    tag_254:\n        /* \"#utility.yul\":4425:4564   */\n      swap3\n      swap2\n      pop\n      pop\n      jump\t// out\n        /* \"#utility.yul\":4570:5044   */\n    tag_55:\n        /* \"#utility.yul\":4638:4644   */\n      0x00\n        /* \"#utility.yul\":4646:4652   */\n      dup1\n        /* \"#utility.yul\":4695:4697   */\n      0x40\n        /* \"#utility.yul\":4683:4692   */\n      dup4\n        /* \"#utility.yul\":4674:4681   */\n      dup6\n        /* \"#utility.yul\":4670:4693   */\n      sub\n        /* \"#utility.yul\":4666:4698   */\n      slt\n        /* \"#utility.yul\":4663:4782   */\n      iszero\n      tag_256\n      jumpi\n        /* \"#utility.yul\":4701:4780   */\n      tag_257\n      tag_150\n      jump\t// in\n    tag_257:\n        /* \"#utility.yul\":4663:4782   */\n    tag_256:\n        /* \"#utility.yul\":4821:4822   */\n      0x00\n        /* \"#utility.yul\":4846:4899   */\n      tag_258\n        /* \"#utility.yul\":4891:4898   */\n      dup6\n        /* \"#utility.yul\":4882:4888   */\n      dup3\n        /* \"#utility.yul\":4871:4880   */\n      dup7\n        /* \"#utility.yul\":4867:4889   */\n      add\n        /* \"#utility.yul\":4846:4899   */\n      tag_153\n      jump\t// in\n    tag_258:\n        /* \"#utility.yul\":4836:4899   */\n      swap3\n      pop\n        /* \"#utility.yul\":4792:4909   */\n      pop\n        /* \"#utility.yul\":4948:4950   */\n      0x20\n        /* \"#utility.yul\":4974:5027   */\n      tag_259\n        /* \"#utility.yul\":5019:5026   */\n      dup6\n        /* \"#utility.yul\":5010:5016   */\n      dup3\n        /* \"#utility.yul\":4999:5008   */\n      dup7\n        /* \"#utility.yul\":4995:5017   */\n      add\n        /* \"#utility.yul\":4974:5027   */\n      tag_164\n      jump\t// in\n    tag_259:\n        /* \"#utility.yul\":4964:5027   */\n      swap2\n      pop\n        /* \"#utility.yul\":4919:5037   */\n      pop\n        /* \"#utility.yul\":4570:5044   */\n      swap3\n      pop\n      swap3\n      swap1\n      pop\n      jump\t// out\n        /* \"#utility.yul\":5050:5110   */\n    tag_165:\n        /* \"#utility.yul\":5078:5081   */\n      0x00\n        /* \"#utility.yul\":5099:5104   */\n      dup2\n        /* \"#utility.yul\":5092:5104   */\n      swap1\n      pop\n        /* \"#utility.yul\":5050:5110   */\n      swap2\n      swap1\n      pop\n      jump\t// out\n        /* \"#utility.yul\":5116:5258   */\n    tag_166:\n        /* \"#utility.yul\":5166:5175   */\n      0x00\n        /* \"#utility.yul\":5199:5252   */\n      tag_262\n        /* \"#utility.yul\":5217:5251   */\n      tag_263\n        /* \"#utility.yul\":5226:5250   */\n      tag_264\n        /* \"#utility.yul\":5244:5249   */\n      dup5\n        /* \"#utility.yul\":5226:5250   */\n      tag_154\n      jump\t// in\n    tag_264:\n        /* \"#utility.yul\":5217:5251   */\n      tag_165\n      jump\t// in\n    tag_263:\n        /* \"#utility.yul\":5199:5252   */\n      tag_154\n      jump\t// in\n    tag_262:\n        /* \"#utility.yul\":5186:5252   */\n      swap1\n      pop\n        /* \"#utility.yul\":5116:5258   */\n      swap2\n      swap1\n      pop\n      jump\t// out\n        /* \"#utility.yul\":5264:5390   */\n    tag_167:\n        /* \"#utility.yul\":5314:5323   */\n      0x00\n        /* \"#utility.yul\":5347:5384   */\n      tag_266\n        /* \"#utility.yul\":5378:5383   */\n      dup3\n        /* \"#utility.yul\":5347:5384   */\n      tag_166\n      jump\t// in\n    tag_266:\n        /* \"#utility.yul\":5334:5384   */\n      swap1\n      pop\n        /* \"#utility.yul\":5264:5390   */\n      swap2\n      swap1\n      pop\n      jump\t// out\n        /* \"#utility.yul\":5396:5535   */\n    tag_168:\n        /* \"#utility.yul\":5459:5468   */\n      0x00\n        /* \"#utility.yul\":5492:5529   */\n      tag_268\n        /* \"#utility.yul\":5523:5528   */\n      dup3\n        /* \"#utility.yul\":5492:5529   */\n      tag_167\n      jump\t// in\n    tag_268:\n        /* \"#utility.yul\":5479:5529   */\n      swap1\n      pop\n        /* \"#utility.yul\":5396:5535   */\n      swap2\n      swap1\n      pop\n      jump\t// out\n        /* \"#utility.yul\":5541:5698   */\n    tag_169:\n        /* \"#utility.yul\":5641:5691   */\n      tag_270\n        /* \"#utility.yul\":5685:5690   */\n      dup2\n        /* \"#utility.yul\":5641:5691   */\n      tag_168\n      jump\t// in\n    tag_270:\n        /* \"#utility.yul\":5636:5639   */\n      dup3\n        /* \"#utility.yul\":5629:5692   */\n      mstore\n        /* \"#utility.yul\":5541:5698   */\n      pop\n      pop\n      jump\t// out\n        /* \"#utility.yul\":5704:5952   */\n    tag_62:\n        /* \"#utility.yul\":5810:5814   */\n      0x00\n        /* \"#utility.yul\":5848:5850   */\n      0x20\n        /* \"#utility.yul\":5837:5846   */\n      dup3\n        /* \"#utility.yul\":5833:5851   */\n      add\n        /* \"#utility.yul\":5825:5851   */\n      swap1\n      pop\n        /* \"#utility.yul\":5861:5945   */\n      tag_272\n        /* \"#utility.yul\":5942:5943   */\n      0x00\n        /* \"#utility.yul\":5931:5940   */\n      dup4\n        /* \"#utility.yul\":5927:5944   */\n      add\n        /* \"#utility.yul\":5918:5924   */\n      dup5\n        /* \"#utility.yul\":5861:5945   */\n      tag_169\n      jump\t// in\n    tag_272:\n        /* \"#utility.yul\":5704:5952   */\n      swap3\n      swap2\n      pop\n      pop\n      jump\t// out\n        /* \"#utility.yul\":5958:6127   */\n    tag_170:\n        /* \"#utility.yul\":6042:6053   */\n      0x00\n        /* \"#utility.yul\":6076:6082   */\n      dup3\n        /* \"#utility.yul\":6071:6074   */\n      dup3\n        /* \"#utility.yul\":6064:6083   */\n      mstore\n        /* \"#utility.yul\":6116:6120   */\n      0x20\n        /* \"#utility.yul\":6111:6114   */\n      dup3\n        /* \"#utility.yul\":6107:6121   */\n      add\n        /* \"#utility.yul\":6092:6121   */\n      swap1\n      pop\n        /* \"#utility.yul\":5958:6127   */\n      swap3\n      swap2\n      pop\n      pop\n      jump\t// out\n        /* \"#utility.yul\":6133:6289   */\n    tag_171:\n        /* \"#utility.yul\":6273:6281   */\n      0x44656e6965640000000000000000000000000000000000000000000000000000\n        /* \"#utility.yul\":6269:6270   */\n      0x00\n        /* \"#utility.yul\":6261:6267   */\n      dup3\n        /* \"#utility.yul\":6257:6271   */\n      add\n        /* \"#utility.yul\":6250:6282   */\n      mstore\n        /* \"#utility.yul\":6133:6289   */\n      pop\n      jump\t// out\n        /* \"#utility.yul\":6295:6660   */\n    tag_172:\n        /* \"#utility.yul\":6437:6440   */\n      0x00\n        /* \"#utility.yul\":6458:6524   */\n      tag_276\n        /* \"#utility.yul\":6522:6523   */\n      0x06\n        /* \"#utility.yul\":6517:6520   */\n      dup4\n        /* \"#utility.yul\":6458:6524   */\n      tag_170\n      jump\t// in\n    tag_276:\n        /* \"#utility.yul\":6451:6524   */\n      swap2\n      pop\n        /* \"#utility.yul\":6533:6626   */\n      tag_277\n        /* \"#utility.yul\":6622:6625   */\n      dup3\n        /* \"#utility.yul\":6533:6626   */\n      tag_171\n      jump\t// in\n    tag_277:\n        /* \"#utility.yul\":6651:6653   */\n      0x20\n        /* \"#utility.yul\":6646:6649   */\n      dup3\n        /* \"#utility.yul\":6642:6654   */\n      add\n        /* \"#utility.yul\":6635:6654   */\n      swap1\n      pop\n        /* \"#utility.yul\":6295:6660   */\n      swap2\n      swap1\n      pop\n      jump\t// out\n        /* \"#utility.yul\":6666:7085   */\n    tag_69:\n        /* \"#utility.yul\":6832:6836   */\n      0x00\n        /* \"#utility.yul\":6870:6872   */\n      0x20\n        /* \"#utility.yul\":6859:6868   */\n      dup3\n        /* \"#utility.yul\":6855:6873   */\n      add\n        /* \"#utility.yul\":6847:6873   */\n      swap1\n      pop\n        /* \"#utility.yul\":6919:6928   */\n      dup2\n        /* \"#utility.yul\":6913:6917   */\n      dup2\n        /* \"#utility.yul\":6909:6929   */\n      sub\n        /* \"#utility.yul\":6905:6906   */\n      0x00\n        /* \"#utility.yul\":6894:6903   */\n      dup4\n        /* \"#utility.yul\":6890:6907   */\n      add\n        /* \"#utility.yul\":6883:6930   */\n      mstore\n        /* \"#utility.yul\":6947:7078   */\n      tag_279\n        /* \"#utility.yul\":7073:7077   */\n      dup2\n        /* \"#utility.yul\":6947:7078   */\n      tag_172\n      jump\t// in\n    tag_279:\n        /* \"#utility.yul\":6939:7078   */\n      swap1\n      pop\n        /* \"#utility.yul\":6666:7085   */\n      swap2\n      swap1\n      pop\n      jump\t// out\n        /* \"#utility.yul\":7091:7249   */\n    tag_173:\n        /* \"#utility.yul\":7231:7241   */\n      0x42616c20213d2030000000000000000000000000000000000000000000000000\n        /* \"#utility.yul\":7227:7228   */\n      0x00\n        /* \"#utility.yul\":7219:7225   */\n      dup3\n        /* \"#utility.yul\":7215:7229   */\n      add\n        /* \"#utility.yul\":7208:7242   */\n      mstore\n        /* \"#utility.yul\":7091:7249   */\n      pop\n      jump\t// out\n        /* \"#utility.yul\":7255:7620   */\n    tag_174:\n        /* \"#utility.yul\":7397:7400   */\n      0x00\n        /* \"#utility.yul\":7418:7484   */\n      tag_282\n        /* \"#utility.yul\":7482:7483   */\n      0x08\n        /* \"#utility.yul\":7477:7480   */\n      dup4\n        /* \"#utility.yul\":7418:7484   */\n      tag_170\n      jump\t// in\n    tag_282:\n        /* \"#utility.yul\":7411:7484   */\n      swap2\n      pop\n        /* \"#utility.yul\":7493:7586   */\n      tag_283\n        /* \"#utility.yul\":7582:7585   */\n      dup3\n        /* \"#utility.yul\":7493:7586   */\n      tag_173\n      jump\t// in\n    tag_283:\n        /* \"#utility.yul\":7611:7613   */\n      0x20\n        /* \"#utility.yul\":7606:7609   */\n      dup3\n        /* \"#utility.yul\":7602:7614   */\n      add\n        /* \"#utility.yul\":7595:7614   */\n      swap1\n      pop\n        /* \"#utility.yul\":7255:7620   */\n      swap2\n      swap1\n      pop\n      jump\t// out\n        /* \"#utility.yul\":7626:8045   */\n    tag_72:\n        /* \"#utility.yul\":7792:7796   */\n      0x00\n        /* \"#utility.yul\":7830:7832   */\n      0x20\n        /* \"#utility.yul\":7819:7828   */\n      dup3\n        /* \"#utility.yul\":7815:7833   */\n      add\n        /* \"#utility.yul\":7807:7833   */\n      swap1\n      pop\n        /* \"#utility.yul\":7879:7888   */\n      dup2\n        /* \"#utility.yul\":7873:7877   */\n      dup2\n        /* \"#utility.yul\":7869:7889   */\n      sub\n        /* \"#utility.yul\":7865:7866   */\n      0x00\n        /* \"#utility.yul\":7854:7863   */\n      dup4\n        /* \"#utility.yul\":7850:7867   */\n      add\n        /* \"#utility.yul\":7843:7890   */\n      mstore\n        /* \"#utility.yul\":7907:8038   */\n      tag_285\n        /* \"#utility.yul\":8033:8037   */\n      dup2\n        /* \"#utility.yul\":7907:8038   */\n      tag_174\n      jump\t// in\n    tag_285:\n        /* \"#utility.yul\":7899:8038   */\n      swap1\n      pop\n        /* \"#utility.yul\":7626:8045   */\n      swap2\n      swap1\n      pop\n      jump\t// out\n        /* \"#utility.yul\":8051:8216   */\n    tag_175:\n        /* \"#utility.yul\":8191:8208   */\n      0x506c6564676564203e3d20476f616c0000000000000000000000000000000000\n        /* \"#utility.yul\":8187:8188   */\n      0x00\n        /* \"#utility.yul\":8179:8185   */\n      dup3\n        /* \"#utility.yul\":8175:8189   */\n      add\n        /* \"#utility.yul\":8168:8209   */\n      mstore\n        /* \"#utility.yul\":8051:8216   */\n      pop\n      jump\t// out\n        /* \"#utility.yul\":8222:8588   */\n    tag_176:\n        /* \"#utility.yul\":8364:8367   */\n      0x00\n        /* \"#utility.yul\":8385:8452   */\n      tag_288\n        /* \"#utility.yul\":8449:8451   */\n      0x0f\n        /* \"#utility.yul\":8444:8447   */\n      dup4\n        /* \"#utility.yul\":8385:8452   */\n      tag_170\n      jump\t// in\n    tag_288:\n        /* \"#utility.yul\":8378:8452   */\n      swap2\n      pop\n        /* \"#utility.yul\":8461:8554   */\n      tag_289\n        /* \"#utility.yul\":8550:8553   */\n      dup3\n        /* \"#utility.yul\":8461:8554   */\n      tag_175\n      jump\t// in\n    tag_289:\n        /* \"#utility.yul\":8579:8581   */\n      0x20\n        /* \"#utility.yul\":8574:8577   */\n      dup3\n        /* \"#utility.yul\":8570:8582   */\n      add\n        /* \"#utility.yul\":8563:8582   */\n      swap1\n      pop\n        /* \"#utility.yul\":8222:8588   */\n      swap2\n      swap1\n      pop\n      jump\t// out\n        /* \"#utility.yul\":8594:9013   */\n    tag_78:\n        /* \"#utility.yul\":8760:8764   */\n      0x00\n        /* \"#utility.yul\":8798:8800   */\n      0x20\n        /* \"#utility.yul\":8787:8796   */\n      dup3\n        /* \"#utility.yul\":8783:8801   */\n      add\n        /* \"#utility.yul\":8775:8801   */\n      swap1\n      pop\n        /* \"#utility.yul\":8847:8856   */\n      dup2\n        /* \"#utility.yul\":8841:8845   */\n      dup2\n        /* \"#utility.yul\":8837:8857   */\n      sub\n        /* \"#utility.yul\":8833:8834   */\n      0x00\n        /* \"#utility.yul\":8822:8831   */\n      dup4\n        /* \"#utility.yul\":8818:8835   */\n      add\n        /* \"#utility.yul\":8811:8858   */\n      mstore\n        /* \"#utility.yul\":8875:9006   */\n      tag_291\n        /* \"#utility.yul\":9001:9005   */\n      dup2\n        /* \"#utility.yul\":8875:9006   */\n      tag_176\n      jump\t// in\n    tag_291:\n        /* \"#utility.yul\":8867:9006   */\n      swap1\n      pop\n        /* \"#utility.yul\":8594:9013   */\n      swap2\n      swap1\n      pop\n      jump\t// out\n        /* \"#utility.yul\":9019:9351   */\n    tag_80:\n        /* \"#utility.yul\":9140:9144   */\n      0x00\n        /* \"#utility.yul\":9178:9180   */\n      0x40\n        /* \"#utility.yul\":9167:9176   */\n      dup3\n        /* \"#utility.yul\":9163:9181   */\n      add\n        /* \"#utility.yul\":9155:9181   */\n      swap1\n      pop\n        /* \"#utility.yul\":9191:9262   */\n      tag_293\n        /* \"#utility.yul\":9259:9260   */\n      0x00\n        /* \"#utility.yul\":9248:9257   */\n      dup4\n        /* \"#utility.yul\":9244:9261   */\n      add\n        /* \"#utility.yul\":9235:9241   */\n      dup6\n        /* \"#utility.yul\":9191:9262   */\n      tag_156\n      jump\t// in\n    tag_293:\n        /* \"#utility.yul\":9272:9344   */\n      tag_294\n        /* \"#utility.yul\":9340:9342   */\n      0x20\n        /* \"#utility.yul\":9329:9338   */\n      dup4\n        /* \"#utility.yul\":9325:9343   */\n      add\n        /* \"#utility.yul\":9316:9322   */\n      dup5\n        /* \"#utility.yul\":9272:9344   */\n      tag_148\n      jump\t// in\n    tag_294:\n        /* \"#utility.yul\":9019:9351   */\n      swap4\n      swap3\n      pop\n      pop\n      pop\n      jump\t// out\n        /* \"#utility.yul\":9357:9473   */\n    tag_177:\n        /* \"#utility.yul\":9427:9448   */\n      tag_296\n        /* \"#utility.yul\":9442:9447   */\n      dup2\n        /* \"#utility.yul\":9427:9448   */\n      tag_159\n      jump\t// in\n    tag_296:\n        /* \"#utility.yul\":9420:9425   */\n      dup2\n        /* \"#utility.yul\":9417:9449   */\n      eq\n        /* \"#utility.yul\":9407:9467   */\n      tag_297\n      jumpi\n        /* \"#utility.yul\":9463:9464   */\n      0x00\n        /* \"#utility.yul\":9460:9461   */\n      dup1\n        /* \"#utility.yul\":9453:9465   */\n      revert\n        /* \"#utility.yul\":9407:9467   */\n    tag_297:\n        /* \"#utility.yul\":9357:9473   */\n      pop\n      jump\t// out\n        /* \"#utility.yul\":9479:9616   */\n    tag_178:\n        /* \"#utility.yul\":9533:9538   */\n      0x00\n        /* \"#utility.yul\":9564:9570   */\n      dup2\n        /* \"#utility.yul\":9558:9571   */\n      mload\n        /* \"#utility.yul\":9549:9571   */\n      swap1\n      pop\n        /* \"#utility.yul\":9580:9610   */\n      tag_299\n        /* \"#utility.yul\":9604:9609   */\n      dup2\n        /* \"#utility.yul\":9580:9610   */\n      tag_177\n      jump\t// in\n    tag_299:\n        /* \"#utility.yul\":9479:9616   */\n      swap3\n      swap2\n      pop\n      pop\n      jump\t// out\n        /* \"#utility.yul\":9622:9967   */\n    tag_84:\n        /* \"#utility.yul\":9689:9695   */\n      0x00\n        /* \"#utility.yul\":9738:9740   */\n      0x20\n        /* \"#utility.yul\":9726:9735   */\n      dup3\n        /* \"#utility.yul\":9717:9724   */\n      dup5\n        /* \"#utility.yul\":9713:9736   */\n      sub\n        /* \"#utility.yul\":9709:9741   */\n      slt\n        /* \"#utility.yul\":9706:9825   */\n      iszero\n      tag_301\n      jumpi\n        /* \"#utility.yul\":9744:9823   */\n      tag_302\n      tag_150\n      jump\t// in\n    tag_302:\n        /* \"#utility.yul\":9706:9825   */\n    tag_301:\n        /* \"#utility.yul\":9864:9865   */\n      0x00\n        /* \"#utility.yul\":9889:9950   */\n      tag_303\n        /* \"#utility.yul\":9942:9949   */\n      dup5\n        /* \"#utility.yul\":9933:9939   */\n      dup3\n        /* \"#utility.yul\":9922:9931   */\n      dup6\n        /* \"#utility.yul\":9918:9940   */\n      add\n        /* \"#utility.yul\":9889:9950   */\n      tag_178\n      jump\t// in\n    tag_303:\n        /* \"#utility.yul\":9879:9950   */\n      swap2\n      pop\n        /* \"#utility.yul\":9835:9960   */\n      pop\n        /* \"#utility.yul\":9622:9967   */\n      swap3\n      swap2\n      pop\n      pop\n      jump\t// out\n        /* \"#utility.yul\":9973:10305   */\n    tag_86:\n        /* \"#utility.yul\":10094:10098   */\n      0x00\n        /* \"#utility.yul\":10132:10134   */\n      0x40\n        /* \"#utility.yul\":10121:10130   */\n      dup3\n        /* \"#utility.yul\":10117:10135   */\n      add\n        /* \"#utility.yul\":10109:10135   */\n      swap1\n      pop\n        /* \"#utility.yul\":10145:10216   */\n      tag_305\n        /* \"#utility.yul\":10213:10214   */\n      0x00\n        /* \"#utility.yul\":10202:10211   */\n      dup4\n        /* \"#utility.yul\":10198:10215   */\n      add\n        /* \"#utility.yul\":10189:10195   */\n      dup6\n        /* \"#utility.yul\":10145:10216   */\n      tag_148\n      jump\t// in\n    tag_305:\n        /* \"#utility.yul\":10226:10298   */\n      tag_306\n        /* \"#utility.yul\":10294:10296   */\n      0x20\n        /* \"#utility.yul\":10283:10292   */\n      dup4\n        /* \"#utility.yul\":10279:10297   */\n      add\n        /* \"#utility.yul\":10270:10276   */\n      dup5\n        /* \"#utility.yul\":10226:10298   */\n      tag_148\n      jump\t// in\n    tag_306:\n        /* \"#utility.yul\":9973:10305   */\n      swap4\n      swap3\n      pop\n      pop\n      pop\n      jump\t// out\n        /* \"#utility.yul\":10311:10470   */\n    tag_179:\n        /* \"#utility.yul\":10451:10462   */\n      0x73746172743c6e6f770000000000000000000000000000000000000000000000\n        /* \"#utility.yul\":10447:10448   */\n      0x00\n        /* \"#utility.yul\":10439:10445   */\n      dup3\n        /* \"#utility.yul\":10435:10449   */\n      add\n        /* \"#utility.yul\":10428:10463   */\n      mstore\n        /* \"#utility.yul\":10311:10470   */\n      pop\n      jump\t// out\n        /* \"#utility.yul\":10476:10841   */\n    tag_180:\n        /* \"#utility.yul\":10618:10621   */\n      0x00\n        /* \"#utility.yul\":10639:10705   */\n      tag_309\n        /* \"#utility.yul\":10703:10704   */\n      0x09\n        /* \"#utility.yul\":10698:10701   */\n      dup4\n        /* \"#utility.yul\":10639:10705   */\n      tag_170\n      jump\t// in\n    tag_309:\n        /* \"#utility.yul\":10632:10705   */\n      swap2\n      pop\n        /* \"#utility.yul\":10714:10807   */\n      tag_310\n        /* \"#utility.yul\":10803:10806   */\n      dup3\n        /* \"#utility.yul\":10714:10807   */\n      tag_179\n      jump\t// in\n    tag_310:\n        /* \"#utility.yul\":10832:10834   */\n      0x20\n        /* \"#utility.yul\":10827:10830   */\n      dup3\n        /* \"#utility.yul\":10823:10835   */\n      add\n        /* \"#utility.yul\":10816:10835   */\n      swap1\n      pop\n        /* \"#utility.yul\":10476:10841   */\n      swap2\n      swap1\n      pop\n      jump\t// out\n        /* \"#utility.yul\":10847:11266   */\n    tag_90:\n        /* \"#utility.yul\":11013:11017   */\n      0x00\n        /* \"#utility.yul\":11051:11053   */\n      0x20\n        /* \"#utility.yul\":11040:11049   */\n      dup3\n        /* \"#utility.yul\":11036:11054   */\n      add\n        /* \"#utility.yul\":11028:11054   */\n      swap1\n      pop\n        /* \"#utility.yul\":11100:11109   */\n      dup2\n        /* \"#utility.yul\":11094:11098   */\n      dup2\n        /* \"#utility.yul\":11090:11110   */\n      sub\n        /* \"#utility.yul\":11086:11087   */\n      0x00\n        /* \"#utility.yul\":11075:11084   */\n      dup4\n        /* \"#utility.yul\":11071:11088   */\n      add\n        /* \"#utility.yul\":11064:11111   */\n      mstore\n        /* \"#utility.yul\":11128:11259   */\n      tag_312\n        /* \"#utility.yul\":11254:11258   */\n      dup2\n        /* \"#utility.yul\":11128:11259   */\n      tag_180\n      jump\t// in\n    tag_312:\n        /* \"#utility.yul\":11120:11259   */\n      swap1\n      pop\n        /* \"#utility.yul\":10847:11266   */\n      swap2\n      swap1\n      pop\n      jump\t// out\n        /* \"#utility.yul\":11272:11431   */\n    tag_181:\n        /* \"#utility.yul\":11412:11423   */\n      0x73746172743c656e640000000000000000000000000000000000000000000000\n        /* \"#utility.yul\":11408:11409   */\n      0x00\n        /* \"#utility.yul\":11400:11406   */\n      dup3\n        /* \"#utility.yul\":11396:11410   */\n      add\n        /* \"#utility.yul\":11389:11424   */\n      mstore\n        /* \"#utility.yul\":11272:11431   */\n      pop\n      jump\t// out\n        /* \"#utility.yul\":11437:11802   */\n    tag_182:\n        /* \"#utility.yul\":11579:11582   */\n      0x00\n        /* \"#utility.yul\":11600:11666   */\n      tag_315\n        /* \"#utility.yul\":11664:11665   */\n      0x09\n        /* \"#utility.yul\":11659:11662   */\n      dup4\n        /* \"#utility.yul\":11600:11666   */\n      tag_170\n      jump\t// in\n    tag_315:\n        /* \"#utility.yul\":11593:11666   */\n      swap2\n      pop\n        /* \"#utility.yul\":11675:11768   */\n      tag_316\n        /* \"#utility.yul\":11764:11767   */\n      dup3\n        /* \"#utility.yul\":11675:11768   */\n      tag_181\n      jump\t// in\n    tag_316:\n        /* \"#utility.yul\":11793:11795   */\n      0x20\n        /* \"#utility.yul\":11788:11791   */\n      dup3\n        /* \"#utility.yul\":11784:11796   */\n      add\n        /* \"#utility.yul\":11777:11796   */\n      swap1\n      pop\n        /* \"#utility.yul\":11437:11802   */\n      swap2\n      swap1\n      pop\n      jump\t// out\n        /* \"#utility.yul\":11808:12227   */\n    tag_93:\n        /* \"#utility.yul\":11974:11978   */\n      0x00\n        /* \"#utility.yul\":12012:12014   */\n      0x20\n        /* \"#utility.yul\":12001:12010   */\n      dup3\n        /* \"#utility.yul\":11997:12015   */\n      add\n        /* \"#utility.yul\":11989:12015   */\n      swap1\n      pop\n        /* \"#utility.yul\":12061:12070   */\n      dup2\n        /* \"#utility.yul\":12055:12059   */\n      dup2\n        /* \"#utility.yul\":12051:12071   */\n      sub\n        /* \"#utility.yul\":12047:12048   */\n      0x00\n        /* \"#utility.yul\":12036:12045   */\n      dup4\n        /* \"#utility.yul\":12032:12049   */\n      add\n        /* \"#utility.yul\":12025:12072   */\n      mstore\n        /* \"#utility.yul\":12089:12220   */\n      tag_318\n        /* \"#utility.yul\":12215:12219   */\n      dup2\n        /* \"#utility.yul\":12089:12220   */\n      tag_182\n      jump\t// in\n    tag_318:\n        /* \"#utility.yul\":12081:12220   */\n      swap1\n      pop\n        /* \"#utility.yul\":11808:12227   */\n      swap2\n      swap1\n      pop\n      jump\t// out\n        /* \"#utility.yul\":12233:12413   */\n    tag_183:\n        /* \"#utility.yul\":12281:12358   */\n      0x4e487b7100000000000000000000000000000000000000000000000000000000\n        /* \"#utility.yul\":12278:12279   */\n      0x00\n        /* \"#utility.yul\":12271:12359   */\n      mstore\n        /* \"#utility.yul\":12378:12382   */\n      0x11\n        /* \"#utility.yul\":12375:12376   */\n      0x04\n        /* \"#utility.yul\":12368:12383   */\n      mstore\n        /* \"#utility.yul\":12402:12406   */\n      0x24\n        /* \"#utility.yul\":12399:12400   */\n      0x00\n        /* \"#utility.yul\":12392:12407   */\n      revert\n        /* \"#utility.yul\":12419:12724   */\n    tag_95:\n        /* \"#utility.yul\":12459:12462   */\n      0x00\n        /* \"#utility.yul\":12478:12498   */\n      tag_321\n        /* \"#utility.yul\":12496:12497   */\n      dup3\n        /* \"#utility.yul\":12478:12498   */\n      tag_147\n      jump\t// in\n    tag_321:\n        /* \"#utility.yul\":12473:12498   */\n      swap2\n      pop\n        /* \"#utility.yul\":12512:12532   */\n      tag_322\n        /* \"#utility.yul\":12530:12531   */\n      dup4\n        /* \"#utility.yul\":12512:12532   */\n      tag_147\n      jump\t// in\n    tag_322:\n        /* \"#utility.yul\":12507:12532   */\n      swap3\n      pop\n        /* \"#utility.yul\":12666:12667   */\n      dup3\n        /* \"#utility.yul\":12598:12664   */\n      0xffffffffffffffffffffffffffffffffffffffffffffffffffffffffffffffff\n        /* \"#utility.yul\":12594:12668   */\n      sub\n        /* \"#utility.yul\":12591:12592   */\n      dup3\n        /* \"#utility.yul\":12588:12669   */\n      gt\n        /* \"#utility.yul\":12585:12692   */\n      iszero\n      tag_323\n      jumpi\n        /* \"#utility.yul\":12672:12690   */\n      tag_324\n      tag_183\n      jump\t// in\n    tag_324:\n        /* \"#utility.yul\":12585:12692   */\n    tag_323:\n        /* \"#utility.yul\":12716:12717   */\n      dup3\n        /* \"#utility.yul\":12713:12714   */\n      dup3\n        /* \"#utility.yul\":12709:12718   */\n      add\n        /* \"#utility.yul\":12702:12718   */\n      swap1\n      pop\n        /* \"#utility.yul\":12419:12724   */\n      swap3\n      swap2\n      pop\n      pop\n      jump\t// out\n        /* \"#utility.yul\":12730:12891   */\n    tag_184:\n        /* \"#utility.yul\":12870:12883   */\n      0x6475723c6d61785f647572000000000000000000000000000000000000000000\n        /* \"#utility.yul\":12866:12867   */\n      0x00\n        /* \"#utility.yul\":12858:12864   */\n      dup3\n        /* \"#utility.yul\":12854:12868   */\n      add\n        /* \"#utility.yul\":12847:12884   */\n      mstore\n        /* \"#utility.yul\":12730:12891   */\n      pop\n      jump\t// out\n        /* \"#utility.yul\":12897:13263   */\n    tag_185:\n        /* \"#utility.yul\":13039:13042   */\n      0x00\n        /* \"#utility.yul\":13060:13127   */\n      tag_327\n        /* \"#utility.yul\":13124:13126   */\n      0x0b\n        /* \"#utility.yul\":13119:13122   */\n      dup4\n        /* \"#utility.yul\":13060:13127   */\n      tag_170\n      jump\t// in\n    tag_327:\n        /* \"#utility.yul\":13053:13127   */\n      swap2\n      pop\n        /* \"#utility.yul\":13136:13229   */\n      tag_328\n        /* \"#utility.yul\":13225:13228   */\n      dup3\n        /* \"#utility.yul\":13136:13229   */\n      tag_184\n      jump\t// in\n    tag_328:\n        /* \"#utility.yul\":13254:13256   */\n      0x20\n        /* \"#utility.yul\":13249:13252   */\n      dup3\n        /* \"#utility.yul\":13245:13257   */\n      add\n        /* \"#utility.yul\":13238:13257   */\n      swap1\n      pop\n        /* \"#utility.yul\":12897:13263   */\n      swap2\n      swap1\n      pop\n      jump\t// out\n        /* \"#utility.yul\":13269:13688   */\n    tag_98:\n        /* \"#utility.yul\":13435:13439   */\n      0x00\n        /* \"#utility.yul\":13473:13475   */\n      0x20\n        /* \"#utility.yul\":13462:13471   */\n      dup3\n        /* \"#utility.yul\":13458:13476   */\n      add\n        /* \"#utility.yul\":13450:13476   */\n      swap1\n      pop\n        /* \"#utility.yul\":13522:13531   */\n      dup2\n        /* \"#utility.yul\":13516:13520   */\n      dup2\n        /* \"#utility.yul\":13512:13532   */\n      sub\n        /* \"#utility.yul\":13508:13509   */\n      0x00\n        /* \"#utility.yul\":13497:13506   */\n      dup4\n        /* \"#utility.yul\":13493:13510   */\n      add\n        /* \"#utility.yul\":13486:13533   */\n      mstore\n        /* \"#utility.yul\":13550:13681   */\n      tag_330\n        /* \"#utility.yul\":13676:13680   */\n      dup2\n        /* \"#utility.yul\":13550:13681   */\n      tag_185\n      jump\t// in\n    tag_330:\n        /* \"#utility.yul\":13542:13681   */\n      swap1\n      pop\n        /* \"#utility.yul\":13269:13688   */\n      swap2\n      swap1\n      pop\n      jump\t// out\n        /* \"#utility.yul\":13694:14239   */\n    tag_100:\n        /* \"#utility.yul\":13867:13871   */\n      0x00\n        /* \"#utility.yul\":13905:13908   */\n      0x80\n        /* \"#utility.yul\":13894:13903   */\n      dup3\n        /* \"#utility.yul\":13890:13909   */\n      add\n        /* \"#utility.yul\":13882:13909   */\n      swap1\n      pop\n        /* \"#utility.yul\":13919:13990   */\n      tag_332\n        /* \"#utility.yul\":13987:13988   */\n      0x00\n        /* \"#utility.yul\":13976:13985   */\n      dup4\n        /* \"#utility.yul\":13972:13989   */\n      add\n        /* \"#utility.yul\":13963:13969   */\n      dup8\n        /* \"#utility.yul\":13919:13990   */\n      tag_148\n      jump\t// in\n    tag_332:\n        /* \"#utility.yul\":14000:14072   */\n      tag_333\n        /* \"#utility.yul\":14068:14070   */\n      0x20\n        /* \"#utility.yul\":14057:14066   */\n      dup4\n        /* \"#utility.yul\":14053:14071   */\n      add\n        /* \"#utility.yul\":14044:14050   */\n      dup7\n        /* \"#utility.yul\":14000:14072   */\n      tag_148\n      jump\t// in\n    tag_333:\n        /* \"#utility.yul\":14082:14152   */\n      tag_334\n        /* \"#utility.yul\":14148:14150   */\n      0x40\n        /* \"#utility.yul\":14137:14146   */\n      dup4\n        /* \"#utility.yul\":14133:14151   */\n      add\n        /* \"#utility.yul\":14124:14130   */\n      dup6\n        /* \"#utility.yul\":14082:14152   */\n      tag_158\n      jump\t// in\n    tag_334:\n        /* \"#utility.yul\":14162:14232   */\n      tag_335\n        /* \"#utility.yul\":14228:14230   */\n      0x60\n        /* \"#utility.yul\":14217:14226   */\n      dup4\n        /* \"#utility.yul\":14213:14231   */\n      add\n        /* \"#utility.yul\":14204:14210   */\n      dup5\n        /* \"#utility.yul\":14162:14232   */\n      tag_158\n      jump\t// in\n    tag_335:\n        /* \"#utility.yul\":13694:14239   */\n      swap6\n      swap5\n      pop\n      pop\n      pop\n      pop\n      pop\n      jump\t// out\n        /* \"#utility.yul\":14245:14478   */\n    tag_102:\n        /* \"#utility.yul\":14284:14287   */\n      0x00\n        /* \"#utility.yul\":14307:14331   */\n      tag_337\n        /* \"#utility.yul\":14325:14330   */\n      dup3\n        /* \"#utility.yul\":14307:14331   */\n      tag_147\n      jump\t// in\n    tag_337:\n        /* \"#utility.yul\":14298:14331   */\n      swap2\n      pop\n        /* \"#utility.yul\":14353:14419   */\n      0xffffffffffffffffffffffffffffffffffffffffffffffffffffffffffffffff\n        /* \"#utility.yul\":14346:14351   */\n      dup3\n        /* \"#utility.yul\":14343:14420   */\n      sub\n        /* \"#utility.yul\":14340:14443   */\n      tag_338\n      jumpi\n        /* \"#utility.yul\":14423:14441   */\n      tag_339\n      tag_183\n      jump\t// in\n    tag_339:\n        /* \"#utility.yul\":14340:14443   */\n    tag_338:\n        /* \"#utility.yul\":14470:14471   */\n      0x01\n        /* \"#utility.yul\":14463:14468   */\n      dup3\n        /* \"#utility.yul\":14459:14472   */\n      add\n        /* \"#utility.yul\":14452:14472   */\n      swap1\n      pop\n        /* \"#utility.yul\":14245:14478   */\n      swap2\n      swap1\n      pop\n      jump\t// out\n        /* \"#utility.yul\":14484:14645   */\n    tag_186:\n        /* \"#utility.yul\":14624:14637   */\n      0x6e6f742063726561746f72000000000000000000000000000000000000000000\n        /* \"#utility.yul\":14620:14621   */\n      0x00\n        /* \"#utility.yul\":14612:14618   */\n      dup3\n        /* \"#utility.yul\":14608:14622   */\n      add\n        /* \"#utility.yul\":14601:14638   */\n      mstore\n        /* \"#utility.yul\":14484:14645   */\n      pop\n      jump\t// out\n        /* \"#utility.yul\":14651:15017   */\n    tag_187:\n        /* \"#utility.yul\":14793:14796   */\n      0x00\n        /* \"#utility.yul\":14814:14881   */\n      tag_342\n        /* \"#utility.yul\":14878:14880   */\n      0x0b\n        /* \"#utility.yul\":14873:14876   */\n      dup4\n        /* \"#utility.yul\":14814:14881   */\n      tag_170\n      jump\t// in\n    tag_342:\n        /* \"#utility.yul\":14807:14881   */\n      swap2\n      pop\n        /* \"#utility.yul\":14890:14983   */\n      tag_343\n        /* \"#utility.yul\":14979:14982   */\n      dup3\n        /* \"#utility.yul\":14890:14983   */\n      tag_186\n      jump\t// in\n    tag_343:\n        /* \"#utility.yul\":15008:15010   */\n      0x20\n        /* \"#utility.yul\":15003:15006   */\n      dup3\n        /* \"#utility.yul\":14999:15011   */\n      add\n        /* \"#utility.yul\":14992:15011   */\n      swap1\n      pop\n        /* \"#utility.yul\":14651:15017   */\n      swap2\n      swap1\n      pop\n      jump\t// out\n        /* \"#utility.yul\":15023:15442   */\n    tag_106:\n        /* \"#utility.yul\":15189:15193   */\n      0x00\n        /* \"#utility.yul\":15227:15229   */\n      0x20\n        /* \"#utility.yul\":15216:15225   */\n      dup3\n        /* \"#utility.yul\":15212:15230   */\n      add\n        /* \"#utility.yul\":15204:15230   */\n      swap1\n      pop\n        /* \"#utility.yul\":15276:15285   */\n      dup2\n        /* \"#utility.yul\":15270:15274   */\n      dup2\n        /* \"#utility.yul\":15266:15286   */\n      sub\n        /* \"#utility.yul\":15262:15263   */\n      0x00\n        /* \"#utility.yul\":15251:15260   */\n      dup4\n        /* \"#utility.yul\":15247:15264   */\n      add\n        /* \"#utility.yul\":15240:15287   */\n      mstore\n        /* \"#utility.yul\":15304:15435   */\n      tag_345\n        /* \"#utility.yul\":15430:15434   */\n      dup2\n        /* \"#utility.yul\":15304:15435   */\n      tag_187\n      jump\t// in\n    tag_345:\n        /* \"#utility.yul\":15296:15435   */\n      swap1\n      pop\n        /* \"#utility.yul\":15023:15442   */\n      swap2\n      swap1\n      pop\n      jump\t// out\n        /* \"#utility.yul\":15448:15607   */\n    tag_188:\n        /* \"#utility.yul\":15588:15599   */\n      0x6e6f7420656e6465640000000000000000000000000000000000000000000000\n        /* \"#utility.yul\":15584:15585   */\n      0x00\n        /* \"#utility.yul\":15576:15582   */\n      dup3\n        /* \"#utility.yul\":15572:15586   */\n      add\n        /* \"#utility.yul\":15565:15600   */\n      mstore\n        /* \"#utility.yul\":15448:15607   */\n      pop\n      jump\t// out\n        /* \"#utility.yul\":15613:15978   */\n    tag_189:\n        /* \"#utility.yul\":15755:15758   */\n      0x00\n        /* \"#utility.yul\":15776:15842   */\n      tag_348\n        /* \"#utility.yul\":15840:15841   */\n      0x09\n        /* \"#utility.yul\":15835:15838   */\n      dup4\n        /* \"#utility.yul\":15776:15842   */\n      tag_170\n      jump\t// in\n    tag_348:\n        /* \"#utility.yul\":15769:15842   */\n      swap2\n      pop\n        /* \"#utility.yul\":15851:15944   */\n      tag_349\n        /* \"#utility.yul\":15940:15943   */\n      dup3\n        /* \"#utility.yul\":15851:15944   */\n      tag_188\n      jump\t// in\n    tag_349:\n        /* \"#utility.yul\":15969:15971   */\n      0x20\n        /* \"#utility.yul\":15964:15967   */\n      dup3\n        /* \"#utility.yul\":15960:15972   */\n      add\n        /* \"#utility.yul\":15953:15972   */\n      swap1\n      pop\n        /* \"#utility.yul\":15613:15978   */\n      swap2\n      swap1\n      pop\n      jump\t// out\n        /* \"#utility.yul\":15984:16403   */\n    tag_109:\n        /* \"#utility.yul\":16150:16154   */\n      0x00\n        /* \"#utility.yul\":16188:16190   */\n      0x20\n        /* \"#utility.yul\":16177:16186   */\n      dup3\n        /* \"#utility.yul\":16173:16191   */\n      add\n        /* \"#utility.yul\":16165:16191   */\n      swap1\n      pop\n        /* \"#utility.yul\":16237:16246   */\n      dup2\n        /* \"#utility.yul\":16231:16235   */\n      dup2\n        /* \"#utility.yul\":16227:16247   */\n      sub\n        /* \"#utility.yul\":16223:16224   */\n      0x00\n        /* \"#utility.yul\":16212:16221   */\n      dup4\n        /* \"#utility.yul\":16208:16225   */\n      add\n        /* \"#utility.yul\":16201:16248   */\n      mstore\n        /* \"#utility.yul\":16265:16396   */\n      tag_351\n        /* \"#utility.yul\":16391:16395   */\n      dup2\n        /* \"#utility.yul\":16265:16396   */\n      tag_189\n      jump\t// in\n    tag_351:\n        /* \"#utility.yul\":16257:16396   */\n      swap1\n      pop\n        /* \"#utility.yul\":15984:16403   */\n      swap2\n      swap1\n      pop\n      jump\t// out\n        /* \"#utility.yul\":16409:16573   */\n    tag_190:\n        /* \"#utility.yul\":16549:16565   */\n      0x706c6564676564203c20676f616c000000000000000000000000000000000000\n        /* \"#utility.yul\":16545:16546   */\n      0x00\n        /* \"#utility.yul\":16537:16543   */\n      dup3\n        /* \"#utility.yul\":16533:16547   */\n      add\n        /* \"#utility.yul\":16526:16566   */\n      mstore\n        /* \"#utility.yul\":16409:16573   */\n      pop\n      jump\t// out\n        /* \"#utility.yul\":16579:16945   */\n    tag_191:\n        /* \"#utility.yul\":16721:16724   */\n      0x00\n        /* \"#utility.yul\":16742:16809   */\n      tag_354\n        /* \"#utility.yul\":16806:16808   */\n      0x0e\n        /* \"#utility.yul\":16801:16804   */\n      dup4\n        /* \"#utility.yul\":16742:16809   */\n      tag_170\n      jump\t// in\n    tag_354:\n        /* \"#utility.yul\":16735:16809   */\n      swap2\n      pop\n        /* \"#utility.yul\":16818:16911   */\n      tag_355\n        /* \"#utility.yul\":16907:16910   */\n      dup3\n        /* \"#utility.yul\":16818:16911   */\n      tag_190\n      jump\t// in\n    tag_355:\n        /* \"#utility.yul\":16936:16938   */\n      0x20\n        /* \"#utility.yul\":16931:16934   */\n      dup3\n        /* \"#utility.yul\":16927:16939   */\n      add\n        /* \"#utility.yul\":16920:16939   */\n      swap1\n      pop\n        /* \"#utility.yul\":16579:16945   */\n      swap2\n      swap1\n      pop\n      jump\t// out\n        /* \"#utility.yul\":16951:17370   */\n    tag_112:\n        /* \"#utility.yul\":17117:17121   */\n      0x00\n        /* \"#utility.yul\":17155:17157   */\n      0x20\n        /* \"#utility.yul\":17144:17153   */\n      dup3\n        /* \"#utility.yul\":17140:17158   */\n      add\n        /* \"#utility.yul\":17132:17158   */\n      swap1\n      pop\n        /* \"#utility.yul\":17204:17213   */\n      dup2\n        /* \"#utility.yul\":17198:17202   */\n      dup2\n        /* \"#utility.yul\":17194:17214   */\n      sub\n        /* \"#utility.yul\":17190:17191   */\n      0x00\n        /* \"#utility.yul\":17179:17188   */\n      dup4\n        /* \"#utility.yul\":17175:17192   */\n      add\n        /* \"#utility.yul\":17168:17215   */\n      mstore\n        /* \"#utility.yul\":17232:17363   */\n      tag_357\n        /* \"#utility.yul\":17358:17362   */\n      dup2\n        /* \"#utility.yul\":17232:17363   */\n      tag_191\n      jump\t// in\n    tag_357:\n        /* \"#utility.yul\":17224:17363   */\n      swap1\n      pop\n        /* \"#utility.yul\":16951:17370   */\n      swap2\n      swap1\n      pop\n      jump\t// out\n        /* \"#utility.yul\":17376:17533   */\n    tag_192:\n        /* \"#utility.yul\":17516:17525   */\n      0x636c61696d656400000000000000000000000000000000000000000000000000\n        /* \"#utility.yul\":17512:17513   */\n      0x00\n        /* \"#utility.yul\":17504:17510   */\n      dup3\n        /* \"#utility.yul\":17500:17514   */\n      add\n        /* \"#utility.yul\":17493:17526   */\n      mstore\n        /* \"#utility.yul\":17376:17533   */\n      pop\n      jump\t// out\n        /* \"#utility.yul\":17539:17904   */\n    tag_193:\n        /* \"#utility.yul\":17681:17684   */\n      0x00\n        /* \"#utility.yul\":17702:17768   */\n      tag_360\n        /* \"#utility.yul\":17766:17767   */\n      0x07\n        /* \"#utility.yul\":17761:17764   */\n      dup4\n        /* \"#utility.yul\":17702:17768   */\n      tag_170\n      jump\t// in\n    tag_360:\n        /* \"#utility.yul\":17695:17768   */\n      swap2\n      pop\n        /* \"#utility.yul\":17777:17870   */\n      tag_361\n        /* \"#utility.yul\":17866:17869   */\n      dup3\n        /* \"#utility.yul\":17777:17870   */\n      tag_192\n      jump\t// in\n    tag_361:\n        /* \"#utility.yul\":17895:17897   */\n      0x20\n        /* \"#utility.yul\":17890:17893   */\n      dup3\n        /* \"#utility.yul\":17886:17898   */\n      add\n        /* \"#utility.yul\":17879:17898   */\n      swap1\n      pop\n        /* \"#utility.yul\":17539:17904   */\n      swap2\n      swap1\n      pop\n      jump\t// out\n        /* \"#utility.yul\":17910:18329   */\n    tag_115:\n        /* \"#utility.yul\":18076:18080   */\n      0x00\n        /* \"#utility.yul\":18114:18116   */\n      0x20\n        /* \"#utility.yul\":18103:18112   */\n      dup3\n        /* \"#utility.yul\":18099:18117   */\n      add\n        /* \"#utility.yul\":18091:18117   */\n      swap1\n      pop\n        /* \"#utility.yul\":18163:18172   */\n      dup2\n        /* \"#utility.yul\":18157:18161   */\n      dup2\n        /* \"#utility.yul\":18153:18173   */\n      sub\n        /* \"#utility.yul\":18149:18150   */\n      0x00\n        /* \"#utility.yul\":18138:18147   */\n      dup4\n        /* \"#utility.yul\":18134:18151   */\n      add\n        /* \"#utility.yul\":18127:18174   */\n      mstore\n        /* \"#utility.yul\":18191:18322   */\n      tag_363\n        /* \"#utility.yul\":18317:18321   */\n      dup2\n        /* \"#utility.yul\":18191:18322   */\n      tag_193\n      jump\t// in\n    tag_363:\n        /* \"#utility.yul\":18183:18322   */\n      swap1\n      pop\n        /* \"#utility.yul\":17910:18329   */\n      swap2\n      swap1\n      pop\n      jump\t// out\n        /* \"#utility.yul\":18335:18490   */\n    tag_194:\n        /* \"#utility.yul\":18475:18482   */\n      0x656e646564000000000000000000000000000000000000000000000000000000\n        /* \"#utility.yul\":18471:18472   */\n      0x00\n        /* \"#utility.yul\":18463:18469   */\n      dup3\n        /* \"#utility.yul\":18459:18473   */\n      add\n        /* \"#utility.yul\":18452:18483   */\n      mstore\n        /* \"#utility.yul\":18335:18490   */\n      pop\n      jump\t// out\n        /* \"#utility.yul\":18496:18861   */\n    tag_195:\n        /* \"#utility.yul\":18638:18641   */\n      0x00\n        /* \"#utility.yul\":18659:18725   */\n      tag_366\n        /* \"#utility.yul\":18723:18724   */\n      0x05\n        /* \"#utility.yul\":18718:18721   */\n      dup4\n        /* \"#utility.yul\":18659:18725   */\n      tag_170\n      jump\t// in\n    tag_366:\n        /* \"#utility.yul\":18652:18725   */\n      swap2\n      pop\n        /* \"#utility.yul\":18734:18827   */\n      tag_367\n        /* \"#utility.yul\":18823:18826   */\n      dup3\n        /* \"#utility.yul\":18734:18827   */\n      tag_194\n      jump\t// in\n    tag_367:\n        /* \"#utility.yul\":18852:18854   */\n      0x20\n        /* \"#utility.yul\":18847:18850   */\n      dup3\n        /* \"#utility.yul\":18843:18855   */\n      add\n        /* \"#utility.yul\":18836:18855   */\n      swap1\n      pop\n        /* \"#utility.yul\":18496:18861   */\n      swap2\n      swap1\n      pop\n      jump\t// out\n        /* \"#utility.yul\":18867:19286   */\n    tag_124:\n        /* \"#utility.yul\":19033:19037   */\n      0x00\n        /* \"#utility.yul\":19071:19073   */\n      0x20\n        /* \"#utility.yul\":19060:19069   */\n      dup3\n        /* \"#utility.yul\":19056:19074   */\n      add\n        /* \"#utility.yul\":19048:19074   */\n      swap1\n      pop\n        /* \"#utility.yul\":19120:19129   */\n      dup2\n        /* \"#utility.yul\":19114:19118   */\n      dup2\n        /* \"#utility.yul\":19110:19130   */\n      sub\n        /* \"#utility.yul\":19106:19107   */\n      0x00\n        /* \"#utility.yul\":19095:19104   */\n      dup4\n        /* \"#utility.yul\":19091:19108   */\n      add\n        /* \"#utility.yul\":19084:19131   */\n      mstore\n        /* \"#utility.yul\":19148:19279   */\n      tag_369\n        /* \"#utility.yul\":19274:19278   */\n      dup2\n        /* \"#utility.yul\":19148:19279   */\n      tag_195\n      jump\t// in\n    tag_369:\n        /* \"#utility.yul\":19140:19279   */\n      swap1\n      pop\n        /* \"#utility.yul\":18867:19286   */\n      swap2\n      swap1\n      pop\n      jump\t// out\n        /* \"#utility.yul\":19292:19483   */\n    tag_126:\n        /* \"#utility.yul\":19332:19336   */\n      0x00\n        /* \"#utility.yul\":19352:19372   */\n      tag_371\n        /* \"#utility.yul\":19370:19371   */\n      dup3\n        /* \"#utility.yul\":19352:19372   */\n      tag_147\n      jump\t// in\n    tag_371:\n        /* \"#utility.yul\":19347:19372   */\n      swap2\n      pop\n        /* \"#utility.yul\":19386:19406   */\n      tag_372\n        /* \"#utility.yul\":19404:19405   */\n      dup4\n        /* \"#utility.yul\":19386:19406   */\n      tag_147\n      jump\t// in\n    tag_372:\n        /* \"#utility.yul\":19381:19406   */\n      swap3\n      pop\n        /* \"#utility.yul\":19425:19426   */\n      dup3\n        /* \"#utility.yul\":19422:19423   */\n      dup3\n        /* \"#utility.yul\":19419:19427   */\n      lt\n        /* \"#utility.yul\":19416:19450   */\n      iszero\n      tag_373\n      jumpi\n        /* \"#utility.yul\":19430:19448   */\n      tag_374\n      tag_183\n      jump\t// in\n    tag_374:\n        /* \"#utility.yul\":19416:19450   */\n    tag_373:\n        /* \"#utility.yul\":19475:19476   */\n      dup3\n        /* \"#utility.yul\":19472:19473   */\n      dup3\n        /* \"#utility.yul\":19468:19477   */\n      sub\n        /* \"#utility.yul\":19460:19477   */\n      swap1\n      pop\n        /* \"#utility.yul\":19292:19483   */\n      swap3\n      swap2\n      pop\n      pop\n      jump\t// out\n        /* \"#utility.yul\":19489:19650   */\n    tag_196:\n        /* \"#utility.yul\":19629:19642   */\n      0x6e6f742073746172746564000000000000000000000000000000000000000000\n        /* \"#utility.yul\":19625:19626   */\n      0x00\n        /* \"#utility.yul\":19617:19623   */\n      dup3\n        /* \"#utility.yul\":19613:19627   */\n      add\n        /* \"#utility.yul\":19606:19643   */\n      mstore\n        /* \"#utility.yul\":19489:19650   */\n      pop\n      jump\t// out\n        /* \"#utility.yul\":19656:20022   */\n    tag_197:\n        /* \"#utility.yul\":19798:19801   */\n      0x00\n        /* \"#utility.yul\":19819:19886   */\n      tag_377\n        /* \"#utility.yul\":19883:19885   */\n      0x0b\n        /* \"#utility.yul\":19878:19881   */\n      dup4\n        /* \"#utility.yul\":19819:19886   */\n      tag_170\n      jump\t// in\n    tag_377:\n        /* \"#utility.yul\":19812:19886   */\n      swap2\n      pop\n        /* \"#utility.yul\":19895:19988   */\n      tag_378\n        /* \"#utility.yul\":19984:19987   */\n      dup3\n        /* \"#utility.yul\":19895:19988   */\n      tag_196\n      jump\t// in\n    tag_378:\n        /* \"#utility.yul\":20013:20015   */\n      0x20\n        /* \"#utility.yul\":20008:20011   */\n      dup3\n        /* \"#utility.yul\":20004:20016   */\n      add\n        /* \"#utility.yul\":19997:20016   */\n      swap1\n      pop\n        /* \"#utility.yul\":19656:20022   */\n      swap2\n      swap1\n      pop\n      jump\t// out\n        /* \"#utility.yul\":20028:20447   */\n    tag_136:\n        /* \"#utility.yul\":20194:20198   */\n      0x00\n        /* \"#utility.yul\":20232:20234   */\n      0x20\n        /* \"#utility.yul\":20221:20230   */\n      dup3\n        /* \"#utility.yul\":20217:20235   */\n      add\n        /* \"#utility.yul\":20209:20235   */\n      swap1\n      pop\n        /* \"#utility.yul\":20281:20290   */\n      dup2\n        /* \"#utility.yul\":20275:20279   */\n      dup2\n        /* \"#utility.yul\":20271:20291   */\n      sub\n        /* \"#utility.yul\":20267:20268   */\n      0x00\n        /* \"#utility.yul\":20256:20265   */\n      dup4\n        /* \"#utility.yul\":20252:20269   */\n      add\n        /* \"#utility.yul\":20245:20292   */\n      mstore\n        /* \"#utility.yul\":20309:20440   */\n      tag_380\n        /* \"#utility.yul\":20435:20439   */\n      dup2\n        /* \"#utility.yul\":20309:20440   */\n      tag_197\n      jump\t// in\n    tag_380:\n        /* \"#utility.yul\":20301:20440   */\n      swap1\n      pop\n        /* \"#utility.yul\":20028:20447   */\n      swap2\n      swap1\n      pop\n      jump\t// out\n        /* \"#utility.yul\":20453:20895   */\n    tag_142:\n        /* \"#utility.yul\":20602:20606   */\n      0x00\n        /* \"#utility.yul\":20640:20642   */\n      0x60\n        /* \"#utility.yul\":20629:20638   */\n      dup3\n        /* \"#utility.yul\":20625:20643   */\n      add\n        /* \"#utility.yul\":20617:20643   */\n      swap1\n      pop\n        /* \"#utility.yul\":20653:20724   */\n      tag_382\n        /* \"#utility.yul\":20721:20722   */\n      0x00\n        /* \"#utility.yul\":20710:20719   */\n      dup4\n        /* \"#utility.yul\":20706:20723   */\n      add\n        /* \"#utility.yul\":20697:20703   */\n      dup7\n        /* \"#utility.yul\":20653:20724   */\n      tag_156\n      jump\t// in\n    tag_382:\n        /* \"#utility.yul\":20734:20806   */\n      tag_383\n        /* \"#utility.yul\":20802:20804   */\n      0x20\n        /* \"#utility.yul\":20791:20800   */\n      dup4\n        /* \"#utility.yul\":20787:20805   */\n      add\n        /* \"#utility.yul\":20778:20784   */\n      dup6\n        /* \"#utility.yul\":20734:20806   */\n      tag_156\n      jump\t// in\n    tag_383:\n        /* \"#utility.yul\":20816:20888   */\n      tag_384\n        /* \"#utility.yul\":20884:20886   */\n      0x40\n        /* \"#utility.yul\":20873:20882   */\n      dup4\n        /* \"#utility.yul\":20869:20887   */\n      add\n        /* \"#utility.yul\":20860:20866   */\n      dup5\n        /* \"#utility.yul\":20816:20888   */\n      tag_148\n      jump\t// in\n    tag_384:\n        /* \"#utility.yul\":20453:20895   */\n      swap5\n      swap4\n      pop\n      pop\n      pop\n      pop\n      jump\t// out\n\n    auxdata: 0xa2646970667358221220b1e162c141f2492c1f0282cbd2016cdd10bf8e2faa56efb30839fb3bb08b256064736f6c634300080d0033\n}\n",
				"bytecode": {
					"linkReferences": {},
					"object": "60a0604052600080553480156200001557600080fd5b5060405162001df338038062001df383398181016040528101906200003b9190620000e0565b8073ffffffffffffffffffffffffffffffffffffffff1660808173ffffffffffffffffffffffffffffffffffffffff16815250505062000112565b600080fd5b600073ffffffffffffffffffffffffffffffffffffffff82169050919050565b6000620000a8826200007b565b9050919050565b620000ba816200009b565b8114620000c657600080fd5b50565b600081519050620000da81620000af565b92915050565b600060208284031215620000f957620000f862000076565b5b60006200010984828501620000c9565b91505092915050565b608051611ca96200014a6000396000818161078101528181610cc701528181610ebf01528181610fc201526111390152611ca96000f3fe60806040526004361061009c5760003560e01c80632c63f146116100645780632c63f1461461018b578063379607f5146101b4578063711853ab146101dd578063aa4fb63a14610206578063fc0c546a14610243578063fde327be1461026e5761009c565b806306661abd146100a15780630aebeb4e146100cc578063141961bc146100f557806316ada54714610137578063278ecde114610162575b600080fd5b3480156100ad57600080fd5b506100b661028a565b6040516100c39190611230565b60405180910390f35b3480156100d857600080fd5b506100f360048036038101906100ee919061127c565b610290565b005b34801561010157600080fd5b5061011c6004803603810190610117919061127c565b610506565b60405161012e96959493929190611324565b60405180910390f35b34801561014357600080fd5b5061014c61058f565b6040516101599190611230565b60405180910390f35b34801561016e57600080fd5b506101896004803603810190610184919061127c565b610597565b005b34801561019757600080fd5b506101b260048036038101906101ad91906113b1565b610873565b005b3480156101c057600080fd5b506101db60048036038101906101d6919061127c565b610b06565b005b3480156101e957600080fd5b5061020460048036038101906101ff9190611404565b610dc7565b005b34801561021257600080fd5b5061022d60048036038101906102289190611470565b610f9b565b60405161023a9190611230565b60405180910390f35b34801561024f57600080fd5b50610258610fc0565b604051610265919061150f565b60405180910390f35b61028860048036038101906102839190611404565b610fe4565b005b60005481565b6000600160008381526020019081526020016000206040518060c00160405290816000820160009054906101000a900473ffffffffffffffffffffffffffffffffffffffff1673ffffffffffffffffffffffffffffffffffffffff1673ffffffffffffffffffffffffffffffffffffffff168152602001600182015481526020016002820160009054906101000a900463ffffffff1663ffffffff1663ffffffff1681526020016002820160049054906101000a900463ffffffff1663ffffffff1663ffffffff168152602001600382015481526020016004820160009054906101000a900460ff16151515158152505090503373ffffffffffffffffffffffffffffffffffffffff16816000015173ffffffffffffffffffffffffffffffffffffffff16146103f5576040517f08c379a00000000000000000000000000000000000000000000000000000000081526004016103ec90611587565b60405180910390fd5b600081608001511461043c576040517f08c379a0000000000000000000000000000000000000000000000000000000008152600401610433906115f3565b60405180910390fd5b60016000838152602001908152602001600020600080820160006101000a81549073ffffffffffffffffffffffffffffffffffffffff021916905560018201600090556002820160006101000a81549063ffffffff02191690556002820160046101000a81549063ffffffff021916905560038201600090556004820160006101000a81549060ff021916905550507f7d815d575a49d6d9a069482c25b0fdb39914ccf1bba8aaea4cfe20322f8f6877826040516104fa9190611230565b60405180910390a15050565b60016020528060005260406000206000915090508060000160009054906101000a900473ffffffffffffffffffffffffffffffffffffffff16908060010154908060020160009054906101000a900463ffffffff16908060020160049054906101000a900463ffffffff16908060030154908060040160009054906101000a900460ff16905086565b600042905090565b6000600160008381526020019081526020016000206040518060c00160405290816000820160009054906101000a900473ffffffffffffffffffffffffffffffffffffffff1673ffffffffffffffffffffffffffffffffffffffff1673ffffffffffffffffffffffffffffffffffffffff168152602001600182015481526020016002820160009054906101000a900463ffffffff1663ffffffff1663ffffffff1681526020016002820160049054906101000a900463ffffffff1663ffffffff1663ffffffff168152602001600382015481526020016004820160009054906101000a900460ff161515151581525050905080602001518160800151106106d4576040517f08c379a00000000000000000000000000000000000000000000000000000000081526004016106cb9061165f565b60405180910390fd5b60006002600084815260200190815260200160002060003373ffffffffffffffffffffffffffffffffffffffff1673ffffffffffffffffffffffffffffffffffffffff16815260200190815260200160002054905060006002600085815260200190815260200160002060003373ffffffffffffffffffffffffffffffffffffffff1673ffffffffffffffffffffffffffffffffffffffff168152602001908152602001600020819055507f000000000000000000000000000000000000000000000000000000000000000073ffffffffffffffffffffffffffffffffffffffff1663a9059cbb33836040518363ffffffff1660e01b81526004016107da92919061167f565b6020604051808303816000875af11580156107f9573d6000803e3d6000fd5b505050506040513d601f19601f8201168201806040525081019061081d91906116d4565b503373ffffffffffffffffffffffffffffffffffffffff167f21e12a7cad0da5928167e1084ea4d5fdf8d9af66657a2543a9ac76a0ca0814778483604051610866929190611701565b60405180910390a2505050565b428263ffffffff1610156108bc576040517f08c379a00000000000000000000000000000000000000000000000000000000081526004016108b390611776565b60405180910390fd5b8163ffffffff168163ffffffff161161090a576040517f08c379a0000000000000000000000000000000000000000000000000000000008152600401610901906117e2565b60405180910390fd5b6276a700426109199190611831565b8163ffffffff161115610961576040517f08c379a0000000000000000000000000000000000000000000000000000000008152600401610958906118d3565b60405180910390fd5b6040518060c001604052803373ffffffffffffffffffffffffffffffffffffffff1681526020018481526020018363ffffffff1681526020018263ffffffff1681526020016000815260200160001515815250600160008054815260200190815260200160002060008201518160000160006101000a81548173ffffffffffffffffffffffffffffffffffffffff021916908373ffffffffffffffffffffffffffffffffffffffff1602179055506020820151816001015560408201518160020160006101000a81548163ffffffff021916908363ffffffff16021790555060608201518160020160046101000a81548163ffffffff021916908363ffffffff1602179055506080820151816003015560a08201518160040160006101000a81548160ff0219169083151502179055509050503373ffffffffffffffffffffffffffffffffffffffff167f0601cd0d650b473037e838a2696d41e654433d065b3f56b28d1d3302e44a304f600054858585604051610ae294939291906118f3565b60405180910390a2600080815480929190610afc90611938565b9190505550505050565b60006001600083815260200190815260200160002090503373ffffffffffffffffffffffffffffffffffffffff168160000160009054906101000a900473ffffffffffffffffffffffffffffffffffffffff1673ffffffffffffffffffffffffffffffffffffffff1614610baf576040517f08c379a0000000000000000000000000000000000000000000000000000000008152600401610ba6906119cc565b60405180910390fd5b8060020160049054906101000a900463ffffffff1663ffffffff164211610c0b576040517f08c379a0000000000000000000000000000000000000000000000000000000008152600401610c0290611a38565b60405180910390fd5b806001015481600301541015610c56576040517f08c379a0000000000000000000000000000000000000000000000000000000008152600401610c4d90611aa4565b60405180910390fd5b8060040160009054906101000a900460ff1615610ca8576040517f08c379a0000000000000000000000000000000000000000000000000000000008152600401610c9f90611b10565b60405180910390fd5b60018160040160006101000a81548160ff0219169083151502179055507f000000000000000000000000000000000000000000000000000000000000000073ffffffffffffffffffffffffffffffffffffffff1663a9059cbb8260000160009054906101000a900473ffffffffffffffffffffffffffffffffffffffff1683600301546040518363ffffffff1660e01b8152600401610d4892919061167f565b6020604051808303816000875af1158015610d67573d6000803e3d6000fd5b505050506040513d601f19601f82011682018060405250810190610d8b91906116d4565b507f7bb2b3c10797baccb6f8c4791f1edd6ca2f0d028ee0eda64b01a9a57e3a653f782604051610dbb9190611230565b60405180910390a15050565b60006001600084815260200190815260200160002090508060020160049054906101000a900463ffffffff1663ffffffff16421115610e3b576040517f08c379a0000000000000000000000000000000000000000000000000000000008152600401610e3290611b7c565b60405180910390fd5b81816003016000828254610e4f9190611b9c565b92505081905550816002600085815260200190815260200160002060003373ffffffffffffffffffffffffffffffffffffffff1673ffffffffffffffffffffffffffffffffffffffff1681526020019081526020016000206000828254610eb69190611b9c565b925050819055507f000000000000000000000000000000000000000000000000000000000000000073ffffffffffffffffffffffffffffffffffffffff1663a9059cbb33846040518363ffffffff1660e01b8152600401610f1892919061167f565b6020604051808303816000875af1158015610f37573d6000803e3d6000fd5b505050506040513d601f19601f82011682018060405250810190610f5b91906116d4565b50827f2eeeab891b26a214d1b25749f88a406bdea852bd8c9bfda977e0ef8114c180ba3384604051610f8e92919061167f565b60405180910390a2505050565b6002602052816000526040600020602052806000526040600020600091509150505481565b7f000000000000000000000000000000000000000000000000000000000000000081565b60006001600084815260200190815260200160002090508060020160009054906101000a900463ffffffff1663ffffffff16421015611058576040517f08c379a000000000000000000000000000000000000000000000000000000000815260040161104f90611c1c565b60405180910390fd5b8060020160049054906101000a900463ffffffff1663ffffffff164211156110b5576040517f08c379a00000000000000000000000000000000000000000000000000000000081526004016110ac90611b7c565b60405180910390fd5b818160030160008282546110c99190611831565b92505081905550816002600085815260200190815260200160002060003373ffffffffffffffffffffffffffffffffffffffff1673ffffffffffffffffffffffffffffffffffffffff16815260200190815260200160002060008282546111309190611831565b925050819055507f000000000000000000000000000000000000000000000000000000000000000073ffffffffffffffffffffffffffffffffffffffff166323b872dd3330856040518463ffffffff1660e01b815260040161119493929190611c3c565b6020604051808303816000875af11580156111b3573d6000803e3d6000fd5b505050506040513d601f19601f820116820180604052508101906111d791906116d4565b50827f06bdb975df800a73232998e71ed585d536222f1dfeaa622d7f62a23ada686c82338460405161120a92919061167f565b60405180910390a2505050565b6000819050919050565b61122a81611217565b82525050565b60006020820190506112456000830184611221565b92915050565b600080fd5b61125981611217565b811461126457600080fd5b50565b60008135905061127681611250565b92915050565b6000602082840312156112925761129161124b565b5b60006112a084828501611267565b91505092915050565b600073ffffffffffffffffffffffffffffffffffffffff82169050919050565b60006112d4826112a9565b9050919050565b6112e4816112c9565b82525050565b600063ffffffff82169050919050565b611303816112ea565b82525050565b60008115159050919050565b61131e81611309565b82525050565b600060c08201905061133960008301896112db565b6113466020830188611221565b61135360408301876112fa565b61136060608301866112fa565b61136d6080830185611221565b61137a60a0830184611315565b979650505050505050565b61138e816112ea565b811461139957600080fd5b50565b6000813590506113ab81611385565b92915050565b6000806000606084860312156113ca576113c961124b565b5b60006113d886828701611267565b93505060206113e98682870161139c565b92505060406113fa8682870161139c565b9150509250925092565b6000806040838503121561141b5761141a61124b565b5b600061142985828601611267565b925050602061143a85828601611267565b9150509250929050565b61144d816112c9565b811461145857600080fd5b50565b60008135905061146a81611444565b92915050565b600080604083850312156114875761148661124b565b5b600061149585828601611267565b92505060206114a68582860161145b565b9150509250929050565b6000819050919050565b60006114d56114d06114cb846112a9565b6114b0565b6112a9565b9050919050565b60006114e7826114ba565b9050919050565b60006114f9826114dc565b9050919050565b611509816114ee565b82525050565b60006020820190506115246000830184611500565b92915050565b600082825260208201905092915050565b7f44656e6965640000000000000000000000000000000000000000000000000000600082015250565b600061157160068361152a565b915061157c8261153b565b602082019050919050565b600060208201905081810360008301526115a081611564565b9050919050565b7f42616c20213d2030000000000000000000000000000000000000000000000000600082015250565b60006115dd60088361152a565b91506115e8826115a7565b602082019050919050565b6000602082019050818103600083015261160c816115d0565b9050919050565b7f506c6564676564203e3d20476f616c0000000000000000000000000000000000600082015250565b6000611649600f8361152a565b915061165482611613565b602082019050919050565b600060208201905081810360008301526116788161163c565b9050919050565b600060408201905061169460008301856112db565b6116a16020830184611221565b9392505050565b6116b181611309565b81146116bc57600080fd5b50565b6000815190506116ce816116a8565b92915050565b6000602082840312156116ea576116e961124b565b5b60006116f8848285016116bf565b91505092915050565b60006040820190506117166000830185611221565b6117236020830184611221565b9392505050565b7f73746172743c6e6f770000000000000000000000000000000000000000000000600082015250565b600061176060098361152a565b915061176b8261172a565b602082019050919050565b6000602082019050818103600083015261178f81611753565b9050919050565b7f73746172743c656e640000000000000000000000000000000000000000000000600082015250565b60006117cc60098361152a565b91506117d782611796565b602082019050919050565b600060208201905081810360008301526117fb816117bf565b9050919050565b7f4e487b7100000000000000000000000000000000000000000000000000000000600052601160045260246000fd5b600061183c82611217565b915061184783611217565b9250827fffffffffffffffffffffffffffffffffffffffffffffffffffffffffffffffff0382111561187c5761187b611802565b5b828201905092915050565b7f6475723c6d61785f647572000000000000000000000000000000000000000000600082015250565b60006118bd600b8361152a565b91506118c882611887565b602082019050919050565b600060208201905081810360008301526118ec816118b0565b9050919050565b60006080820190506119086000830187611221565b6119156020830186611221565b61192260408301856112fa565b61192f60608301846112fa565b95945050505050565b600061194382611217565b91507fffffffffffffffffffffffffffffffffffffffffffffffffffffffffffffffff820361197557611974611802565b5b600182019050919050565b7f6e6f742063726561746f72000000000000000000000000000000000000000000600082015250565b60006119b6600b8361152a565b91506119c182611980565b602082019050919050565b600060208201905081810360008301526119e5816119a9565b9050919050565b7f6e6f7420656e6465640000000000000000000000000000000000000000000000600082015250565b6000611a2260098361152a565b9150611a2d826119ec565b602082019050919050565b60006020820190508181036000830152611a5181611a15565b9050919050565b7f706c6564676564203c20676f616c000000000000000000000000000000000000600082015250565b6000611a8e600e8361152a565b9150611a9982611a58565b602082019050919050565b60006020820190508181036000830152611abd81611a81565b9050919050565b7f636c61696d656400000000000000000000000000000000000000000000000000600082015250565b6000611afa60078361152a565b9150611b0582611ac4565b602082019050919050565b60006020820190508181036000830152611b2981611aed565b9050919050565b7f656e646564000000000000000000000000000000000000000000000000000000600082015250565b6000611b6660058361152a565b9150611b7182611b30565b602082019050919050565b60006020820190508181036000830152611b9581611b59565b9050919050565b6000611ba782611217565b9150611bb283611217565b925082821015611bc557611bc4611802565b5b828203905092915050565b7f6e6f742073746172746564000000000000000000000000000000000000000000600082015250565b6000611c06600b8361152a565b9150611c1182611bd0565b602082019050919050565b60006020820190508181036000830152611c3581611bf9565b9050919050565b6000606082019050611c5160008301866112db565b611c5e60208301856112db565b611c6b6040830184611221565b94935050505056fea2646970667358221220b1e162c141f2492c1f0282cbd2016cdd10bf8e2faa56efb30839fb3bb08b256064736f6c634300080d0033",
					"opcodes": "PUSH1 0xA0 PUSH1 0x40 MSTORE PUSH1 0x0 DUP1 SSTORE CALLVALUE DUP1 ISZERO PUSH3 0x15 JUMPI PUSH1 0x0 DUP1 REVERT JUMPDEST POP PUSH1 0x40 MLOAD PUSH3 0x1DF3 CODESIZE SUB DUP1 PUSH3 0x1DF3 DUP4 CODECOPY DUP2 DUP2 ADD PUSH1 0x40 MSTORE DUP2 ADD SWAP1 PUSH3 0x3B SWAP2 SWAP1 PUSH3 0xE0 JUMP JUMPDEST DUP1 PUSH20 0xFFFFFFFFFFFFFFFFFFFFFFFFFFFFFFFFFFFFFFFF AND PUSH1 0x80 DUP2 PUSH20 0xFFFFFFFFFFFFFFFFFFFFFFFFFFFFFFFFFFFFFFFF AND DUP2 MSTORE POP POP POP PUSH3 0x112 JUMP JUMPDEST PUSH1 0x0 DUP1 REVERT JUMPDEST PUSH1 0x0 PUSH20 0xFFFFFFFFFFFFFFFFFFFFFFFFFFFFFFFFFFFFFFFF DUP3 AND SWAP1 POP SWAP2 SWAP1 POP JUMP JUMPDEST PUSH1 0x0 PUSH3 0xA8 DUP3 PUSH3 0x7B JUMP JUMPDEST SWAP1 POP SWAP2 SWAP1 POP JUMP JUMPDEST PUSH3 0xBA DUP2 PUSH3 0x9B JUMP JUMPDEST DUP2 EQ PUSH3 0xC6 JUMPI PUSH1 0x0 DUP1 REVERT JUMPDEST POP JUMP JUMPDEST PUSH1 0x0 DUP2 MLOAD SWAP1 POP PUSH3 0xDA DUP2 PUSH3 0xAF JUMP JUMPDEST SWAP3 SWAP2 POP POP JUMP JUMPDEST PUSH1 0x0 PUSH1 0x20 DUP3 DUP5 SUB SLT ISZERO PUSH3 0xF9 JUMPI PUSH3 0xF8 PUSH3 0x76 JUMP JUMPDEST JUMPDEST PUSH1 0x0 PUSH3 0x109 DUP5 DUP3 DUP6 ADD PUSH3 0xC9 JUMP JUMPDEST SWAP2 POP POP SWAP3 SWAP2 POP POP JUMP JUMPDEST PUSH1 0x80 MLOAD PUSH2 0x1CA9 PUSH3 0x14A PUSH1 0x0 CODECOPY PUSH1 0x0 DUP2 DUP2 PUSH2 0x781 ADD MSTORE DUP2 DUP2 PUSH2 0xCC7 ADD MSTORE DUP2 DUP2 PUSH2 0xEBF ADD MSTORE DUP2 DUP2 PUSH2 0xFC2 ADD MSTORE PUSH2 0x1139 ADD MSTORE PUSH2 0x1CA9 PUSH1 0x0 RETURN INVALID PUSH1 0x80 PUSH1 0x40 MSTORE PUSH1 0x4 CALLDATASIZE LT PUSH2 0x9C JUMPI PUSH1 0x0 CALLDATALOAD PUSH1 0xE0 SHR DUP1 PUSH4 0x2C63F146 GT PUSH2 0x64 JUMPI DUP1 PUSH4 0x2C63F146 EQ PUSH2 0x18B JUMPI DUP1 PUSH4 0x379607F5 EQ PUSH2 0x1B4 JUMPI DUP1 PUSH4 0x711853AB EQ PUSH2 0x1DD JUMPI DUP1 PUSH4 0xAA4FB63A EQ PUSH2 0x206 JUMPI DUP1 PUSH4 0xFC0C546A EQ PUSH2 0x243 JUMPI DUP1 PUSH4 0xFDE327BE EQ PUSH2 0x26E JUMPI PUSH2 0x9C JUMP JUMPDEST DUP1 PUSH4 0x6661ABD EQ PUSH2 0xA1 JUMPI DUP1 PUSH4 0xAEBEB4E EQ PUSH2 0xCC JUMPI DUP1 PUSH4 0x141961BC EQ PUSH2 0xF5 JUMPI DUP1 PUSH4 0x16ADA547 EQ PUSH2 0x137 JUMPI DUP1 PUSH4 0x278ECDE1 EQ PUSH2 0x162 JUMPI JUMPDEST PUSH1 0x0 DUP1 REVERT JUMPDEST CALLVALUE DUP1 ISZERO PUSH2 0xAD JUMPI PUSH1 0x0 DUP1 REVERT JUMPDEST POP PUSH2 0xB6 PUSH2 0x28A JUMP JUMPDEST PUSH1 0x40 MLOAD PUSH2 0xC3 SWAP2 SWAP1 PUSH2 0x1230 JUMP JUMPDEST PUSH1 0x40 MLOAD DUP1 SWAP2 SUB SWAP1 RETURN JUMPDEST CALLVALUE DUP1 ISZERO PUSH2 0xD8 JUMPI PUSH1 0x0 DUP1 REVERT JUMPDEST POP PUSH2 0xF3 PUSH1 0x4 DUP1 CALLDATASIZE SUB DUP2 ADD SWAP1 PUSH2 0xEE SWAP2 SWAP1 PUSH2 0x127C JUMP JUMPDEST PUSH2 0x290 JUMP JUMPDEST STOP JUMPDEST CALLVALUE DUP1 ISZERO PUSH2 0x101 JUMPI PUSH1 0x0 DUP1 REVERT JUMPDEST POP PUSH2 0x11C PUSH1 0x4 DUP1 CALLDATASIZE SUB DUP2 ADD SWAP1 PUSH2 0x117 SWAP2 SWAP1 PUSH2 0x127C JUMP JUMPDEST PUSH2 0x506 JUMP JUMPDEST PUSH1 0x40 MLOAD PUSH2 0x12E SWAP7 SWAP6 SWAP5 SWAP4 SWAP3 SWAP2 SWAP1 PUSH2 0x1324 JUMP JUMPDEST PUSH1 0x40 MLOAD DUP1 SWAP2 SUB SWAP1 RETURN JUMPDEST CALLVALUE DUP1 ISZERO PUSH2 0x143 JUMPI PUSH1 0x0 DUP1 REVERT JUMPDEST POP PUSH2 0x14C PUSH2 0x58F JUMP JUMPDEST PUSH1 0x40 MLOAD PUSH2 0x159 SWAP2 SWAP1 PUSH2 0x1230 JUMP JUMPDEST PUSH1 0x40 MLOAD DUP1 SWAP2 SUB SWAP1 RETURN JUMPDEST CALLVALUE DUP1 ISZERO PUSH2 0x16E JUMPI PUSH1 0x0 DUP1 REVERT JUMPDEST POP PUSH2 0x189 PUSH1 0x4 DUP1 CALLDATASIZE SUB DUP2 ADD SWAP1 PUSH2 0x184 SWAP2 SWAP1 PUSH2 0x127C JUMP JUMPDEST PUSH2 0x597 JUMP JUMPDEST STOP JUMPDEST CALLVALUE DUP1 ISZERO PUSH2 0x197 JUMPI PUSH1 0x0 DUP1 REVERT JUMPDEST POP PUSH2 0x1B2 PUSH1 0x4 DUP1 CALLDATASIZE SUB DUP2 ADD SWAP1 PUSH2 0x1AD SWAP2 SWAP1 PUSH2 0x13B1 JUMP JUMPDEST PUSH2 0x873 JUMP JUMPDEST STOP JUMPDEST CALLVALUE DUP1 ISZERO PUSH2 0x1C0 JUMPI PUSH1 0x0 DUP1 REVERT JUMPDEST POP PUSH2 0x1DB PUSH1 0x4 DUP1 CALLDATASIZE SUB DUP2 ADD SWAP1 PUSH2 0x1D6 SWAP2 SWAP1 PUSH2 0x127C JUMP JUMPDEST PUSH2 0xB06 JUMP JUMPDEST STOP JUMPDEST CALLVALUE DUP1 ISZERO PUSH2 0x1E9 JUMPI PUSH1 0x0 DUP1 REVERT JUMPDEST POP PUSH2 0x204 PUSH1 0x4 DUP1 CALLDATASIZE SUB DUP2 ADD SWAP1 PUSH2 0x1FF SWAP2 SWAP1 PUSH2 0x1404 JUMP JUMPDEST PUSH2 0xDC7 JUMP JUMPDEST STOP JUMPDEST CALLVALUE DUP1 ISZERO PUSH2 0x212 JUMPI PUSH1 0x0 DUP1 REVERT JUMPDEST POP PUSH2 0x22D PUSH1 0x4 DUP1 CALLDATASIZE SUB DUP2 ADD SWAP1 PUSH2 0x228 SWAP2 SWAP1 PUSH2 0x1470 JUMP JUMPDEST PUSH2 0xF9B JUMP JUMPDEST PUSH1 0x40 MLOAD PUSH2 0x23A SWAP2 SWAP1 PUSH2 0x1230 JUMP JUMPDEST PUSH1 0x40 MLOAD DUP1 SWAP2 SUB SWAP1 RETURN JUMPDEST CALLVALUE DUP1 ISZERO PUSH2 0x24F JUMPI PUSH1 0x0 DUP1 REVERT JUMPDEST POP PUSH2 0x258 PUSH2 0xFC0 JUMP JUMPDEST PUSH1 0x40 MLOAD PUSH2 0x265 SWAP2 SWAP1 PUSH2 0x150F JUMP JUMPDEST PUSH1 0x40 MLOAD DUP1 SWAP2 SUB SWAP1 RETURN JUMPDEST PUSH2 0x288 PUSH1 0x4 DUP1 CALLDATASIZE SUB DUP2 ADD SWAP1 PUSH2 0x283 SWAP2 SWAP1 PUSH2 0x1404 JUMP JUMPDEST PUSH2 0xFE4 JUMP JUMPDEST STOP JUMPDEST PUSH1 0x0 SLOAD DUP2 JUMP JUMPDEST PUSH1 0x0 PUSH1 0x1 PUSH1 0x0 DUP4 DUP2 MSTORE PUSH1 0x20 ADD SWAP1 DUP2 MSTORE PUSH1 0x20 ADD PUSH1 0x0 KECCAK256 PUSH1 0x40 MLOAD DUP1 PUSH1 0xC0 ADD PUSH1 0x40 MSTORE SWAP1 DUP2 PUSH1 0x0 DUP3 ADD PUSH1 0x0 SWAP1 SLOAD SWAP1 PUSH2 0x100 EXP SWAP1 DIV PUSH20 0xFFFFFFFFFFFFFFFFFFFFFFFFFFFFFFFFFFFFFFFF AND PUSH20 0xFFFFFFFFFFFFFFFFFFFFFFFFFFFFFFFFFFFFFFFF AND PUSH20 0xFFFFFFFFFFFFFFFFFFFFFFFFFFFFFFFFFFFFFFFF AND DUP2 MSTORE PUSH1 0x20 ADD PUSH1 0x1 DUP3 ADD SLOAD DUP2 MSTORE PUSH1 0x20 ADD PUSH1 0x2 DUP3 ADD PUSH1 0x0 SWAP1 SLOAD SWAP1 PUSH2 0x100 EXP SWAP1 DIV PUSH4 0xFFFFFFFF AND PUSH4 0xFFFFFFFF AND PUSH4 0xFFFFFFFF AND DUP2 MSTORE PUSH1 0x20 ADD PUSH1 0x2 DUP3 ADD PUSH1 0x4 SWAP1 SLOAD SWAP1 PUSH2 0x100 EXP SWAP1 DIV PUSH4 0xFFFFFFFF AND PUSH4 0xFFFFFFFF AND PUSH4 0xFFFFFFFF AND DUP2 MSTORE PUSH1 0x20 ADD PUSH1 0x3 DUP3 ADD SLOAD DUP2 MSTORE PUSH1 0x20 ADD PUSH1 0x4 DUP3 ADD PUSH1 0x0 SWAP1 SLOAD SWAP1 PUSH2 0x100 EXP SWAP1 DIV PUSH1 0xFF AND ISZERO ISZERO ISZERO ISZERO DUP2 MSTORE POP POP SWAP1 POP CALLER PUSH20 0xFFFFFFFFFFFFFFFFFFFFFFFFFFFFFFFFFFFFFFFF AND DUP2 PUSH1 0x0 ADD MLOAD PUSH20 0xFFFFFFFFFFFFFFFFFFFFFFFFFFFFFFFFFFFFFFFF AND EQ PUSH2 0x3F5 JUMPI PUSH1 0x40 MLOAD PUSH32 0x8C379A000000000000000000000000000000000000000000000000000000000 DUP2 MSTORE PUSH1 0x4 ADD PUSH2 0x3EC SWAP1 PUSH2 0x1587 JUMP JUMPDEST PUSH1 0x40 MLOAD DUP1 SWAP2 SUB SWAP1 REVERT JUMPDEST PUSH1 0x0 DUP2 PUSH1 0x80 ADD MLOAD EQ PUSH2 0x43C JUMPI PUSH1 0x40 MLOAD PUSH32 0x8C379A000000000000000000000000000000000000000000000000000000000 DUP2 MSTORE PUSH1 0x4 ADD PUSH2 0x433 SWAP1 PUSH2 0x15F3 JUMP JUMPDEST PUSH1 0x40 MLOAD DUP1 SWAP2 SUB SWAP1 REVERT JUMPDEST PUSH1 0x1 PUSH1 0x0 DUP4 DUP2 MSTORE PUSH1 0x20 ADD SWAP1 DUP2 MSTORE PUSH1 0x20 ADD PUSH1 0x0 KECCAK256 PUSH1 0x0 DUP1 DUP3 ADD PUSH1 0x0 PUSH2 0x100 EXP DUP2 SLOAD SWAP1 PUSH20 0xFFFFFFFFFFFFFFFFFFFFFFFFFFFFFFFFFFFFFFFF MUL NOT AND SWAP1 SSTORE PUSH1 0x1 DUP3 ADD PUSH1 0x0 SWAP1 SSTORE PUSH1 0x2 DUP3 ADD PUSH1 0x0 PUSH2 0x100 EXP DUP2 SLOAD SWAP1 PUSH4 0xFFFFFFFF MUL NOT AND SWAP1 SSTORE PUSH1 0x2 DUP3 ADD PUSH1 0x4 PUSH2 0x100 EXP DUP2 SLOAD SWAP1 PUSH4 0xFFFFFFFF MUL NOT AND SWAP1 SSTORE PUSH1 0x3 DUP3 ADD PUSH1 0x0 SWAP1 SSTORE PUSH1 0x4 DUP3 ADD PUSH1 0x0 PUSH2 0x100 EXP DUP2 SLOAD SWAP1 PUSH1 0xFF MUL NOT AND SWAP1 SSTORE POP POP PUSH32 0x7D815D575A49D6D9A069482C25B0FDB39914CCF1BBA8AAEA4CFE20322F8F6877 DUP3 PUSH1 0x40 MLOAD PUSH2 0x4FA SWAP2 SWAP1 PUSH2 0x1230 JUMP JUMPDEST PUSH1 0x40 MLOAD DUP1 SWAP2 SUB SWAP1 LOG1 POP POP JUMP JUMPDEST PUSH1 0x1 PUSH1 0x20 MSTORE DUP1 PUSH1 0x0 MSTORE PUSH1 0x40 PUSH1 0x0 KECCAK256 PUSH1 0x0 SWAP2 POP SWAP1 POP DUP1 PUSH1 0x0 ADD PUSH1 0x0 SWAP1 SLOAD SWAP1 PUSH2 0x100 EXP SWAP1 DIV PUSH20 0xFFFFFFFFFFFFFFFFFFFFFFFFFFFFFFFFFFFFFFFF AND SWAP1 DUP1 PUSH1 0x1 ADD SLOAD SWAP1 DUP1 PUSH1 0x2 ADD PUSH1 0x0 SWAP1 SLOAD SWAP1 PUSH2 0x100 EXP SWAP1 DIV PUSH4 0xFFFFFFFF AND SWAP1 DUP1 PUSH1 0x2 ADD PUSH1 0x4 SWAP1 SLOAD SWAP1 PUSH2 0x100 EXP SWAP1 DIV PUSH4 0xFFFFFFFF AND SWAP1 DUP1 PUSH1 0x3 ADD SLOAD SWAP1 DUP1 PUSH1 0x4 ADD PUSH1 0x0 SWAP1 SLOAD SWAP1 PUSH2 0x100 EXP SWAP1 DIV PUSH1 0xFF AND SWAP1 POP DUP7 JUMP JUMPDEST PUSH1 0x0 TIMESTAMP SWAP1 POP SWAP1 JUMP JUMPDEST PUSH1 0x0 PUSH1 0x1 PUSH1 0x0 DUP4 DUP2 MSTORE PUSH1 0x20 ADD SWAP1 DUP2 MSTORE PUSH1 0x20 ADD PUSH1 0x0 KECCAK256 PUSH1 0x40 MLOAD DUP1 PUSH1 0xC0 ADD PUSH1 0x40 MSTORE SWAP1 DUP2 PUSH1 0x0 DUP3 ADD PUSH1 0x0 SWAP1 SLOAD SWAP1 PUSH2 0x100 EXP SWAP1 DIV PUSH20 0xFFFFFFFFFFFFFFFFFFFFFFFFFFFFFFFFFFFFFFFF AND PUSH20 0xFFFFFFFFFFFFFFFFFFFFFFFFFFFFFFFFFFFFFFFF AND PUSH20 0xFFFFFFFFFFFFFFFFFFFFFFFFFFFFFFFFFFFFFFFF AND DUP2 MSTORE PUSH1 0x20 ADD PUSH1 0x1 DUP3 ADD SLOAD DUP2 MSTORE PUSH1 0x20 ADD PUSH1 0x2 DUP3 ADD PUSH1 0x0 SWAP1 SLOAD SWAP1 PUSH2 0x100 EXP SWAP1 DIV PUSH4 0xFFFFFFFF AND PUSH4 0xFFFFFFFF AND PUSH4 0xFFFFFFFF AND DUP2 MSTORE PUSH1 0x20 ADD PUSH1 0x2 DUP3 ADD PUSH1 0x4 SWAP1 SLOAD SWAP1 PUSH2 0x100 EXP SWAP1 DIV PUSH4 0xFFFFFFFF AND PUSH4 0xFFFFFFFF AND PUSH4 0xFFFFFFFF AND DUP2 MSTORE PUSH1 0x20 ADD PUSH1 0x3 DUP3 ADD SLOAD DUP2 MSTORE PUSH1 0x20 ADD PUSH1 0x4 DUP3 ADD PUSH1 0x0 SWAP1 SLOAD SWAP1 PUSH2 0x100 EXP SWAP1 DIV PUSH1 0xFF AND ISZERO ISZERO ISZERO ISZERO DUP2 MSTORE POP POP SWAP1 POP DUP1 PUSH1 0x20 ADD MLOAD DUP2 PUSH1 0x80 ADD MLOAD LT PUSH2 0x6D4 JUMPI PUSH1 0x40 MLOAD PUSH32 0x8C379A000000000000000000000000000000000000000000000000000000000 DUP2 MSTORE PUSH1 0x4 ADD PUSH2 0x6CB SWAP1 PUSH2 0x165F JUMP JUMPDEST PUSH1 0x40 MLOAD DUP1 SWAP2 SUB SWAP1 REVERT JUMPDEST PUSH1 0x0 PUSH1 0x2 PUSH1 0x0 DUP5 DUP2 MSTORE PUSH1 0x20 ADD SWAP1 DUP2 MSTORE PUSH1 0x20 ADD PUSH1 0x0 KECCAK256 PUSH1 0x0 CALLER PUSH20 0xFFFFFFFFFFFFFFFFFFFFFFFFFFFFFFFFFFFFFFFF AND PUSH20 0xFFFFFFFFFFFFFFFFFFFFFFFFFFFFFFFFFFFFFFFF AND DUP2 MSTORE PUSH1 0x20 ADD SWAP1 DUP2 MSTORE PUSH1 0x20 ADD PUSH1 0x0 KECCAK256 SLOAD SWAP1 POP PUSH1 0x0 PUSH1 0x2 PUSH1 0x0 DUP6 DUP2 MSTORE PUSH1 0x20 ADD SWAP1 DUP2 MSTORE PUSH1 0x20 ADD PUSH1 0x0 KECCAK256 PUSH1 0x0 CALLER PUSH20 0xFFFFFFFFFFFFFFFFFFFFFFFFFFFFFFFFFFFFFFFF AND PUSH20 0xFFFFFFFFFFFFFFFFFFFFFFFFFFFFFFFFFFFFFFFF AND DUP2 MSTORE PUSH1 0x20 ADD SWAP1 DUP2 MSTORE PUSH1 0x20 ADD PUSH1 0x0 KECCAK256 DUP2 SWAP1 SSTORE POP PUSH32 0x0 PUSH20 0xFFFFFFFFFFFFFFFFFFFFFFFFFFFFFFFFFFFFFFFF AND PUSH4 0xA9059CBB CALLER DUP4 PUSH1 0x40 MLOAD DUP4 PUSH4 0xFFFFFFFF AND PUSH1 0xE0 SHL DUP2 MSTORE PUSH1 0x4 ADD PUSH2 0x7DA SWAP3 SWAP2 SWAP1 PUSH2 0x167F JUMP JUMPDEST PUSH1 0x20 PUSH1 0x40 MLOAD DUP1 DUP4 SUB DUP2 PUSH1 0x0 DUP8 GAS CALL ISZERO DUP1 ISZERO PUSH2 0x7F9 JUMPI RETURNDATASIZE PUSH1 0x0 DUP1 RETURNDATACOPY RETURNDATASIZE PUSH1 0x0 REVERT JUMPDEST POP POP POP POP PUSH1 0x40 MLOAD RETURNDATASIZE PUSH1 0x1F NOT PUSH1 0x1F DUP3 ADD AND DUP3 ADD DUP1 PUSH1 0x40 MSTORE POP DUP2 ADD SWAP1 PUSH2 0x81D SWAP2 SWAP1 PUSH2 0x16D4 JUMP JUMPDEST POP CALLER PUSH20 0xFFFFFFFFFFFFFFFFFFFFFFFFFFFFFFFFFFFFFFFF AND PUSH32 0x21E12A7CAD0DA5928167E1084EA4D5FDF8D9AF66657A2543A9AC76A0CA081477 DUP5 DUP4 PUSH1 0x40 MLOAD PUSH2 0x866 SWAP3 SWAP2 SWAP1 PUSH2 0x1701 JUMP JUMPDEST PUSH1 0x40 MLOAD DUP1 SWAP2 SUB SWAP1 LOG2 POP POP POP JUMP JUMPDEST TIMESTAMP DUP3 PUSH4 0xFFFFFFFF AND LT ISZERO PUSH2 0x8BC JUMPI PUSH1 0x40 MLOAD PUSH32 0x8C379A000000000000000000000000000000000000000000000000000000000 DUP2 MSTORE PUSH1 0x4 ADD PUSH2 0x8B3 SWAP1 PUSH2 0x1776 JUMP JUMPDEST PUSH1 0x40 MLOAD DUP1 SWAP2 SUB SWAP1 REVERT JUMPDEST DUP2 PUSH4 0xFFFFFFFF AND DUP2 PUSH4 0xFFFFFFFF AND GT PUSH2 0x90A JUMPI PUSH1 0x40 MLOAD PUSH32 0x8C379A000000000000000000000000000000000000000000000000000000000 DUP2 MSTORE PUSH1 0x4 ADD PUSH2 0x901 SWAP1 PUSH2 0x17E2 JUMP JUMPDEST PUSH1 0x40 MLOAD DUP1 SWAP2 SUB SWAP1 REVERT JUMPDEST PUSH3 0x76A700 TIMESTAMP PUSH2 0x919 SWAP2 SWAP1 PUSH2 0x1831 JUMP JUMPDEST DUP2 PUSH4 0xFFFFFFFF AND GT ISZERO PUSH2 0x961 JUMPI PUSH1 0x40 MLOAD PUSH32 0x8C379A000000000000000000000000000000000000000000000000000000000 DUP2 MSTORE PUSH1 0x4 ADD PUSH2 0x958 SWAP1 PUSH2 0x18D3 JUMP JUMPDEST PUSH1 0x40 MLOAD DUP1 SWAP2 SUB SWAP1 REVERT JUMPDEST PUSH1 0x40 MLOAD DUP1 PUSH1 0xC0 ADD PUSH1 0x40 MSTORE DUP1 CALLER PUSH20 0xFFFFFFFFFFFFFFFFFFFFFFFFFFFFFFFFFFFFFFFF AND DUP2 MSTORE PUSH1 0x20 ADD DUP5 DUP2 MSTORE PUSH1 0x20 ADD DUP4 PUSH4 0xFFFFFFFF AND DUP2 MSTORE PUSH1 0x20 ADD DUP3 PUSH4 0xFFFFFFFF AND DUP2 MSTORE PUSH1 0x20 ADD PUSH1 0x0 DUP2 MSTORE PUSH1 0x20 ADD PUSH1 0x0 ISZERO ISZERO DUP2 MSTORE POP PUSH1 0x1 PUSH1 0x0 DUP1 SLOAD DUP2 MSTORE PUSH1 0x20 ADD SWAP1 DUP2 MSTORE PUSH1 0x20 ADD PUSH1 0x0 KECCAK256 PUSH1 0x0 DUP3 ADD MLOAD DUP2 PUSH1 0x0 ADD PUSH1 0x0 PUSH2 0x100 EXP DUP2 SLOAD DUP2 PUSH20 0xFFFFFFFFFFFFFFFFFFFFFFFFFFFFFFFFFFFFFFFF MUL NOT AND SWAP1 DUP4 PUSH20 0xFFFFFFFFFFFFFFFFFFFFFFFFFFFFFFFFFFFFFFFF AND MUL OR SWAP1 SSTORE POP PUSH1 0x20 DUP3 ADD MLOAD DUP2 PUSH1 0x1 ADD SSTORE PUSH1 0x40 DUP3 ADD MLOAD DUP2 PUSH1 0x2 ADD PUSH1 0x0 PUSH2 0x100 EXP DUP2 SLOAD DUP2 PUSH4 0xFFFFFFFF MUL NOT AND SWAP1 DUP4 PUSH4 0xFFFFFFFF AND MUL OR SWAP1 SSTORE POP PUSH1 0x60 DUP3 ADD MLOAD DUP2 PUSH1 0x2 ADD PUSH1 0x4 PUSH2 0x100 EXP DUP2 SLOAD DUP2 PUSH4 0xFFFFFFFF MUL NOT AND SWAP1 DUP4 PUSH4 0xFFFFFFFF AND MUL OR SWAP1 SSTORE POP PUSH1 0x80 DUP3 ADD MLOAD DUP2 PUSH1 0x3 ADD SSTORE PUSH1 0xA0 DUP3 ADD MLOAD DUP2 PUSH1 0x4 ADD PUSH1 0x0 PUSH2 0x100 EXP DUP2 SLOAD DUP2 PUSH1 0xFF MUL NOT AND SWAP1 DUP4 ISZERO ISZERO MUL OR SWAP1 SSTORE POP SWAP1 POP POP CALLER PUSH20 0xFFFFFFFFFFFFFFFFFFFFFFFFFFFFFFFFFFFFFFFF AND PUSH32 0x601CD0D650B473037E838A2696D41E654433D065B3F56B28D1D3302E44A304F PUSH1 0x0 SLOAD DUP6 DUP6 DUP6 PUSH1 0x40 MLOAD PUSH2 0xAE2 SWAP5 SWAP4 SWAP3 SWAP2 SWAP1 PUSH2 0x18F3 JUMP JUMPDEST PUSH1 0x40 MLOAD DUP1 SWAP2 SUB SWAP1 LOG2 PUSH1 0x0 DUP1 DUP2 SLOAD DUP1 SWAP3 SWAP2 SWAP1 PUSH2 0xAFC SWAP1 PUSH2 0x1938 JUMP JUMPDEST SWAP2 SWAP1 POP SSTORE POP POP POP POP JUMP JUMPDEST PUSH1 0x0 PUSH1 0x1 PUSH1 0x0 DUP4 DUP2 MSTORE PUSH1 0x20 ADD SWAP1 DUP2 MSTORE PUSH1 0x20 ADD PUSH1 0x0 KECCAK256 SWAP1 POP CALLER PUSH20 0xFFFFFFFFFFFFFFFFFFFFFFFFFFFFFFFFFFFFFFFF AND DUP2 PUSH1 0x0 ADD PUSH1 0x0 SWAP1 SLOAD SWAP1 PUSH2 0x100 EXP SWAP1 DIV PUSH20 0xFFFFFFFFFFFFFFFFFFFFFFFFFFFFFFFFFFFFFFFF AND PUSH20 0xFFFFFFFFFFFFFFFFFFFFFFFFFFFFFFFFFFFFFFFF AND EQ PUSH2 0xBAF JUMPI PUSH1 0x40 MLOAD PUSH32 0x8C379A000000000000000000000000000000000000000000000000000000000 DUP2 MSTORE PUSH1 0x4 ADD PUSH2 0xBA6 SWAP1 PUSH2 0x19CC JUMP JUMPDEST PUSH1 0x40 MLOAD DUP1 SWAP2 SUB SWAP1 REVERT JUMPDEST DUP1 PUSH1 0x2 ADD PUSH1 0x4 SWAP1 SLOAD SWAP1 PUSH2 0x100 EXP SWAP1 DIV PUSH4 0xFFFFFFFF AND PUSH4 0xFFFFFFFF AND TIMESTAMP GT PUSH2 0xC0B JUMPI PUSH1 0x40 MLOAD PUSH32 0x8C379A000000000000000000000000000000000000000000000000000000000 DUP2 MSTORE PUSH1 0x4 ADD PUSH2 0xC02 SWAP1 PUSH2 0x1A38 JUMP JUMPDEST PUSH1 0x40 MLOAD DUP1 SWAP2 SUB SWAP1 REVERT JUMPDEST DUP1 PUSH1 0x1 ADD SLOAD DUP2 PUSH1 0x3 ADD SLOAD LT ISZERO PUSH2 0xC56 JUMPI PUSH1 0x40 MLOAD PUSH32 0x8C379A000000000000000000000000000000000000000000000000000000000 DUP2 MSTORE PUSH1 0x4 ADD PUSH2 0xC4D SWAP1 PUSH2 0x1AA4 JUMP JUMPDEST PUSH1 0x40 MLOAD DUP1 SWAP2 SUB SWAP1 REVERT JUMPDEST DUP1 PUSH1 0x4 ADD PUSH1 0x0 SWAP1 SLOAD SWAP1 PUSH2 0x100 EXP SWAP1 DIV PUSH1 0xFF AND ISZERO PUSH2 0xCA8 JUMPI PUSH1 0x40 MLOAD PUSH32 0x8C379A000000000000000000000000000000000000000000000000000000000 DUP2 MSTORE PUSH1 0x4 ADD PUSH2 0xC9F SWAP1 PUSH2 0x1B10 JUMP JUMPDEST PUSH1 0x40 MLOAD DUP1 SWAP2 SUB SWAP1 REVERT JUMPDEST PUSH1 0x1 DUP2 PUSH1 0x4 ADD PUSH1 0x0 PUSH2 0x100 EXP DUP2 SLOAD DUP2 PUSH1 0xFF MUL NOT AND SWAP1 DUP4 ISZERO ISZERO MUL OR SWAP1 SSTORE POP PUSH32 0x0 PUSH20 0xFFFFFFFFFFFFFFFFFFFFFFFFFFFFFFFFFFFFFFFF AND PUSH4 0xA9059CBB DUP3 PUSH1 0x0 ADD PUSH1 0x0 SWAP1 SLOAD SWAP1 PUSH2 0x100 EXP SWAP1 DIV PUSH20 0xFFFFFFFFFFFFFFFFFFFFFFFFFFFFFFFFFFFFFFFF AND DUP4 PUSH1 0x3 ADD SLOAD PUSH1 0x40 MLOAD DUP4 PUSH4 0xFFFFFFFF AND PUSH1 0xE0 SHL DUP2 MSTORE PUSH1 0x4 ADD PUSH2 0xD48 SWAP3 SWAP2 SWAP1 PUSH2 0x167F JUMP JUMPDEST PUSH1 0x20 PUSH1 0x40 MLOAD DUP1 DUP4 SUB DUP2 PUSH1 0x0 DUP8 GAS CALL ISZERO DUP1 ISZERO PUSH2 0xD67 JUMPI RETURNDATASIZE PUSH1 0x0 DUP1 RETURNDATACOPY RETURNDATASIZE PUSH1 0x0 REVERT JUMPDEST POP POP POP POP PUSH1 0x40 MLOAD RETURNDATASIZE PUSH1 0x1F NOT PUSH1 0x1F DUP3 ADD AND DUP3 ADD DUP1 PUSH1 0x40 MSTORE POP DUP2 ADD SWAP1 PUSH2 0xD8B SWAP2 SWAP1 PUSH2 0x16D4 JUMP JUMPDEST POP PUSH32 0x7BB2B3C10797BACCB6F8C4791F1EDD6CA2F0D028EE0EDA64B01A9A57E3A653F7 DUP3 PUSH1 0x40 MLOAD PUSH2 0xDBB SWAP2 SWAP1 PUSH2 0x1230 JUMP JUMPDEST PUSH1 0x40 MLOAD DUP1 SWAP2 SUB SWAP1 LOG1 POP POP JUMP JUMPDEST PUSH1 0x0 PUSH1 0x1 PUSH1 0x0 DUP5 DUP2 MSTORE PUSH1 0x20 ADD SWAP1 DUP2 MSTORE PUSH1 0x20 ADD PUSH1 0x0 KECCAK256 SWAP1 POP DUP1 PUSH1 0x2 ADD PUSH1 0x4 SWAP1 SLOAD SWAP1 PUSH2 0x100 EXP SWAP1 DIV PUSH4 0xFFFFFFFF AND PUSH4 0xFFFFFFFF AND TIMESTAMP GT ISZERO PUSH2 0xE3B JUMPI PUSH1 0x40 MLOAD PUSH32 0x8C379A000000000000000000000000000000000000000000000000000000000 DUP2 MSTORE PUSH1 0x4 ADD PUSH2 0xE32 SWAP1 PUSH2 0x1B7C JUMP JUMPDEST PUSH1 0x40 MLOAD DUP1 SWAP2 SUB SWAP1 REVERT JUMPDEST DUP2 DUP2 PUSH1 0x3 ADD PUSH1 0x0 DUP3 DUP3 SLOAD PUSH2 0xE4F SWAP2 SWAP1 PUSH2 0x1B9C JUMP JUMPDEST SWAP3 POP POP DUP2 SWAP1 SSTORE POP DUP2 PUSH1 0x2 PUSH1 0x0 DUP6 DUP2 MSTORE PUSH1 0x20 ADD SWAP1 DUP2 MSTORE PUSH1 0x20 ADD PUSH1 0x0 KECCAK256 PUSH1 0x0 CALLER PUSH20 0xFFFFFFFFFFFFFFFFFFFFFFFFFFFFFFFFFFFFFFFF AND PUSH20 0xFFFFFFFFFFFFFFFFFFFFFFFFFFFFFFFFFFFFFFFF AND DUP2 MSTORE PUSH1 0x20 ADD SWAP1 DUP2 MSTORE PUSH1 0x20 ADD PUSH1 0x0 KECCAK256 PUSH1 0x0 DUP3 DUP3 SLOAD PUSH2 0xEB6 SWAP2 SWAP1 PUSH2 0x1B9C JUMP JUMPDEST SWAP3 POP POP DUP2 SWAP1 SSTORE POP PUSH32 0x0 PUSH20 0xFFFFFFFFFFFFFFFFFFFFFFFFFFFFFFFFFFFFFFFF AND PUSH4 0xA9059CBB CALLER DUP5 PUSH1 0x40 MLOAD DUP4 PUSH4 0xFFFFFFFF AND PUSH1 0xE0 SHL DUP2 MSTORE PUSH1 0x4 ADD PUSH2 0xF18 SWAP3 SWAP2 SWAP1 PUSH2 0x167F JUMP JUMPDEST PUSH1 0x20 PUSH1 0x40 MLOAD DUP1 DUP4 SUB DUP2 PUSH1 0x0 DUP8 GAS CALL ISZERO DUP1 ISZERO PUSH2 0xF37 JUMPI RETURNDATASIZE PUSH1 0x0 DUP1 RETURNDATACOPY RETURNDATASIZE PUSH1 0x0 REVERT JUMPDEST POP POP POP POP PUSH1 0x40 MLOAD RETURNDATASIZE PUSH1 0x1F NOT PUSH1 0x1F DUP3 ADD AND DUP3 ADD DUP1 PUSH1 0x40 MSTORE POP DUP2 ADD SWAP1 PUSH2 0xF5B SWAP2 SWAP1 PUSH2 0x16D4 JUMP JUMPDEST POP DUP3 PUSH32 0x2EEEAB891B26A214D1B25749F88A406BDEA852BD8C9BFDA977E0EF8114C180BA CALLER DUP5 PUSH1 0x40 MLOAD PUSH2 0xF8E SWAP3 SWAP2 SWAP1 PUSH2 0x167F JUMP JUMPDEST PUSH1 0x40 MLOAD DUP1 SWAP2 SUB SWAP1 LOG2 POP POP POP JUMP JUMPDEST PUSH1 0x2 PUSH1 0x20 MSTORE DUP2 PUSH1 0x0 MSTORE PUSH1 0x40 PUSH1 0x0 KECCAK256 PUSH1 0x20 MSTORE DUP1 PUSH1 0x0 MSTORE PUSH1 0x40 PUSH1 0x0 KECCAK256 PUSH1 0x0 SWAP2 POP SWAP2 POP POP SLOAD DUP2 JUMP JUMPDEST PUSH32 0x0 DUP2 JUMP JUMPDEST PUSH1 0x0 PUSH1 0x1 PUSH1 0x0 DUP5 DUP2 MSTORE PUSH1 0x20 ADD SWAP1 DUP2 MSTORE PUSH1 0x20 ADD PUSH1 0x0 KECCAK256 SWAP1 POP DUP1 PUSH1 0x2 ADD PUSH1 0x0 SWAP1 SLOAD SWAP1 PUSH2 0x100 EXP SWAP1 DIV PUSH4 0xFFFFFFFF AND PUSH4 0xFFFFFFFF AND TIMESTAMP LT ISZERO PUSH2 0x1058 JUMPI PUSH1 0x40 MLOAD PUSH32 0x8C379A000000000000000000000000000000000000000000000000000000000 DUP2 MSTORE PUSH1 0x4 ADD PUSH2 0x104F SWAP1 PUSH2 0x1C1C JUMP JUMPDEST PUSH1 0x40 MLOAD DUP1 SWAP2 SUB SWAP1 REVERT JUMPDEST DUP1 PUSH1 0x2 ADD PUSH1 0x4 SWAP1 SLOAD SWAP1 PUSH2 0x100 EXP SWAP1 DIV PUSH4 0xFFFFFFFF AND PUSH4 0xFFFFFFFF AND TIMESTAMP GT ISZERO PUSH2 0x10B5 JUMPI PUSH1 0x40 MLOAD PUSH32 0x8C379A000000000000000000000000000000000000000000000000000000000 DUP2 MSTORE PUSH1 0x4 ADD PUSH2 0x10AC SWAP1 PUSH2 0x1B7C JUMP JUMPDEST PUSH1 0x40 MLOAD DUP1 SWAP2 SUB SWAP1 REVERT JUMPDEST DUP2 DUP2 PUSH1 0x3 ADD PUSH1 0x0 DUP3 DUP3 SLOAD PUSH2 0x10C9 SWAP2 SWAP1 PUSH2 0x1831 JUMP JUMPDEST SWAP3 POP POP DUP2 SWAP1 SSTORE POP DUP2 PUSH1 0x2 PUSH1 0x0 DUP6 DUP2 MSTORE PUSH1 0x20 ADD SWAP1 DUP2 MSTORE PUSH1 0x20 ADD PUSH1 0x0 KECCAK256 PUSH1 0x0 CALLER PUSH20 0xFFFFFFFFFFFFFFFFFFFFFFFFFFFFFFFFFFFFFFFF AND PUSH20 0xFFFFFFFFFFFFFFFFFFFFFFFFFFFFFFFFFFFFFFFF AND DUP2 MSTORE PUSH1 0x20 ADD SWAP1 DUP2 MSTORE PUSH1 0x20 ADD PUSH1 0x0 KECCAK256 PUSH1 0x0 DUP3 DUP3 SLOAD PUSH2 0x1130 SWAP2 SWAP1 PUSH2 0x1831 JUMP JUMPDEST SWAP3 POP POP DUP2 SWAP1 SSTORE POP PUSH32 0x0 PUSH20 0xFFFFFFFFFFFFFFFFFFFFFFFFFFFFFFFFFFFFFFFF AND PUSH4 0x23B872DD CALLER ADDRESS DUP6 PUSH1 0x40 MLOAD DUP5 PUSH4 0xFFFFFFFF AND PUSH1 0xE0 SHL DUP2 MSTORE PUSH1 0x4 ADD PUSH2 0x1194 SWAP4 SWAP3 SWAP2 SWAP1 PUSH2 0x1C3C JUMP JUMPDEST PUSH1 0x20 PUSH1 0x40 MLOAD DUP1 DUP4 SUB DUP2 PUSH1 0x0 DUP8 GAS CALL ISZERO DUP1 ISZERO PUSH2 0x11B3 JUMPI RETURNDATASIZE PUSH1 0x0 DUP1 RETURNDATACOPY RETURNDATASIZE PUSH1 0x0 REVERT JUMPDEST POP POP POP POP PUSH1 0x40 MLOAD RETURNDATASIZE PUSH1 0x1F NOT PUSH1 0x1F DUP3 ADD AND DUP3 ADD DUP1 PUSH1 0x40 MSTORE POP DUP2 ADD SWAP1 PUSH2 0x11D7 SWAP2 SWAP1 PUSH2 0x16D4 JUMP JUMPDEST POP DUP3 PUSH32 0x6BDB975DF800A73232998E71ED585D536222F1DFEAA622D7F62A23ADA686C82 CALLER DUP5 PUSH1 0x40 MLOAD PUSH2 0x120A SWAP3 SWAP2 SWAP1 PUSH2 0x167F JUMP JUMPDEST PUSH1 0x40 MLOAD DUP1 SWAP2 SUB SWAP1 LOG2 POP POP POP JUMP JUMPDEST PUSH1 0x0 DUP2 SWAP1 POP SWAP2 SWAP1 POP JUMP JUMPDEST PUSH2 0x122A DUP2 PUSH2 0x1217 JUMP JUMPDEST DUP3 MSTORE POP POP JUMP JUMPDEST PUSH1 0x0 PUSH1 0x20 DUP3 ADD SWAP1 POP PUSH2 0x1245 PUSH1 0x0 DUP4 ADD DUP5 PUSH2 0x1221 JUMP JUMPDEST SWAP3 SWAP2 POP POP JUMP JUMPDEST PUSH1 0x0 DUP1 REVERT JUMPDEST PUSH2 0x1259 DUP2 PUSH2 0x1217 JUMP JUMPDEST DUP2 EQ PUSH2 0x1264 JUMPI PUSH1 0x0 DUP1 REVERT JUMPDEST POP JUMP JUMPDEST PUSH1 0x0 DUP2 CALLDATALOAD SWAP1 POP PUSH2 0x1276 DUP2 PUSH2 0x1250 JUMP JUMPDEST SWAP3 SWAP2 POP POP JUMP JUMPDEST PUSH1 0x0 PUSH1 0x20 DUP3 DUP5 SUB SLT ISZERO PUSH2 0x1292 JUMPI PUSH2 0x1291 PUSH2 0x124B JUMP JUMPDEST JUMPDEST PUSH1 0x0 PUSH2 0x12A0 DUP5 DUP3 DUP6 ADD PUSH2 0x1267 JUMP JUMPDEST SWAP2 POP POP SWAP3 SWAP2 POP POP JUMP JUMPDEST PUSH1 0x0 PUSH20 0xFFFFFFFFFFFFFFFFFFFFFFFFFFFFFFFFFFFFFFFF DUP3 AND SWAP1 POP SWAP2 SWAP1 POP JUMP JUMPDEST PUSH1 0x0 PUSH2 0x12D4 DUP3 PUSH2 0x12A9 JUMP JUMPDEST SWAP1 POP SWAP2 SWAP1 POP JUMP JUMPDEST PUSH2 0x12E4 DUP2 PUSH2 0x12C9 JUMP JUMPDEST DUP3 MSTORE POP POP JUMP JUMPDEST PUSH1 0x0 PUSH4 0xFFFFFFFF DUP3 AND SWAP1 POP SWAP2 SWAP1 POP JUMP JUMPDEST PUSH2 0x1303 DUP2 PUSH2 0x12EA JUMP JUMPDEST DUP3 MSTORE POP POP JUMP JUMPDEST PUSH1 0x0 DUP2 ISZERO ISZERO SWAP1 POP SWAP2 SWAP1 POP JUMP JUMPDEST PUSH2 0x131E DUP2 PUSH2 0x1309 JUMP JUMPDEST DUP3 MSTORE POP POP JUMP JUMPDEST PUSH1 0x0 PUSH1 0xC0 DUP3 ADD SWAP1 POP PUSH2 0x1339 PUSH1 0x0 DUP4 ADD DUP10 PUSH2 0x12DB JUMP JUMPDEST PUSH2 0x1346 PUSH1 0x20 DUP4 ADD DUP9 PUSH2 0x1221 JUMP JUMPDEST PUSH2 0x1353 PUSH1 0x40 DUP4 ADD DUP8 PUSH2 0x12FA JUMP JUMPDEST PUSH2 0x1360 PUSH1 0x60 DUP4 ADD DUP7 PUSH2 0x12FA JUMP JUMPDEST PUSH2 0x136D PUSH1 0x80 DUP4 ADD DUP6 PUSH2 0x1221 JUMP JUMPDEST PUSH2 0x137A PUSH1 0xA0 DUP4 ADD DUP5 PUSH2 0x1315 JUMP JUMPDEST SWAP8 SWAP7 POP POP POP POP POP POP POP JUMP JUMPDEST PUSH2 0x138E DUP2 PUSH2 0x12EA JUMP JUMPDEST DUP2 EQ PUSH2 0x1399 JUMPI PUSH1 0x0 DUP1 REVERT JUMPDEST POP JUMP JUMPDEST PUSH1 0x0 DUP2 CALLDATALOAD SWAP1 POP PUSH2 0x13AB DUP2 PUSH2 0x1385 JUMP JUMPDEST SWAP3 SWAP2 POP POP JUMP JUMPDEST PUSH1 0x0 DUP1 PUSH1 0x0 PUSH1 0x60 DUP5 DUP7 SUB SLT ISZERO PUSH2 0x13CA JUMPI PUSH2 0x13C9 PUSH2 0x124B JUMP JUMPDEST JUMPDEST PUSH1 0x0 PUSH2 0x13D8 DUP7 DUP3 DUP8 ADD PUSH2 0x1267 JUMP JUMPDEST SWAP4 POP POP PUSH1 0x20 PUSH2 0x13E9 DUP7 DUP3 DUP8 ADD PUSH2 0x139C JUMP JUMPDEST SWAP3 POP POP PUSH1 0x40 PUSH2 0x13FA DUP7 DUP3 DUP8 ADD PUSH2 0x139C JUMP JUMPDEST SWAP2 POP POP SWAP3 POP SWAP3 POP SWAP3 JUMP JUMPDEST PUSH1 0x0 DUP1 PUSH1 0x40 DUP4 DUP6 SUB SLT ISZERO PUSH2 0x141B JUMPI PUSH2 0x141A PUSH2 0x124B JUMP JUMPDEST JUMPDEST PUSH1 0x0 PUSH2 0x1429 DUP6 DUP3 DUP7 ADD PUSH2 0x1267 JUMP JUMPDEST SWAP3 POP POP PUSH1 0x20 PUSH2 0x143A DUP6 DUP3 DUP7 ADD PUSH2 0x1267 JUMP JUMPDEST SWAP2 POP POP SWAP3 POP SWAP3 SWAP1 POP JUMP JUMPDEST PUSH2 0x144D DUP2 PUSH2 0x12C9 JUMP JUMPDEST DUP2 EQ PUSH2 0x1458 JUMPI PUSH1 0x0 DUP1 REVERT JUMPDEST POP JUMP JUMPDEST PUSH1 0x0 DUP2 CALLDATALOAD SWAP1 POP PUSH2 0x146A DUP2 PUSH2 0x1444 JUMP JUMPDEST SWAP3 SWAP2 POP POP JUMP JUMPDEST PUSH1 0x0 DUP1 PUSH1 0x40 DUP4 DUP6 SUB SLT ISZERO PUSH2 0x1487 JUMPI PUSH2 0x1486 PUSH2 0x124B JUMP JUMPDEST JUMPDEST PUSH1 0x0 PUSH2 0x1495 DUP6 DUP3 DUP7 ADD PUSH2 0x1267 JUMP JUMPDEST SWAP3 POP POP PUSH1 0x20 PUSH2 0x14A6 DUP6 DUP3 DUP7 ADD PUSH2 0x145B JUMP JUMPDEST SWAP2 POP POP SWAP3 POP SWAP3 SWAP1 POP JUMP JUMPDEST PUSH1 0x0 DUP2 SWAP1 POP SWAP2 SWAP1 POP JUMP JUMPDEST PUSH1 0x0 PUSH2 0x14D5 PUSH2 0x14D0 PUSH2 0x14CB DUP5 PUSH2 0x12A9 JUMP JUMPDEST PUSH2 0x14B0 JUMP JUMPDEST PUSH2 0x12A9 JUMP JUMPDEST SWAP1 POP SWAP2 SWAP1 POP JUMP JUMPDEST PUSH1 0x0 PUSH2 0x14E7 DUP3 PUSH2 0x14BA JUMP JUMPDEST SWAP1 POP SWAP2 SWAP1 POP JUMP JUMPDEST PUSH1 0x0 PUSH2 0x14F9 DUP3 PUSH2 0x14DC JUMP JUMPDEST SWAP1 POP SWAP2 SWAP1 POP JUMP JUMPDEST PUSH2 0x1509 DUP2 PUSH2 0x14EE JUMP JUMPDEST DUP3 MSTORE POP POP JUMP JUMPDEST PUSH1 0x0 PUSH1 0x20 DUP3 ADD SWAP1 POP PUSH2 0x1524 PUSH1 0x0 DUP4 ADD DUP5 PUSH2 0x1500 JUMP JUMPDEST SWAP3 SWAP2 POP POP JUMP JUMPDEST PUSH1 0x0 DUP3 DUP3 MSTORE PUSH1 0x20 DUP3 ADD SWAP1 POP SWAP3 SWAP2 POP POP JUMP JUMPDEST PUSH32 0x44656E6965640000000000000000000000000000000000000000000000000000 PUSH1 0x0 DUP3 ADD MSTORE POP JUMP JUMPDEST PUSH1 0x0 PUSH2 0x1571 PUSH1 0x6 DUP4 PUSH2 0x152A JUMP JUMPDEST SWAP2 POP PUSH2 0x157C DUP3 PUSH2 0x153B JUMP JUMPDEST PUSH1 0x20 DUP3 ADD SWAP1 POP SWAP2 SWAP1 POP JUMP JUMPDEST PUSH1 0x0 PUSH1 0x20 DUP3 ADD SWAP1 POP DUP2 DUP2 SUB PUSH1 0x0 DUP4 ADD MSTORE PUSH2 0x15A0 DUP2 PUSH2 0x1564 JUMP JUMPDEST SWAP1 POP SWAP2 SWAP1 POP JUMP JUMPDEST PUSH32 0x42616C20213D2030000000000000000000000000000000000000000000000000 PUSH1 0x0 DUP3 ADD MSTORE POP JUMP JUMPDEST PUSH1 0x0 PUSH2 0x15DD PUSH1 0x8 DUP4 PUSH2 0x152A JUMP JUMPDEST SWAP2 POP PUSH2 0x15E8 DUP3 PUSH2 0x15A7 JUMP JUMPDEST PUSH1 0x20 DUP3 ADD SWAP1 POP SWAP2 SWAP1 POP JUMP JUMPDEST PUSH1 0x0 PUSH1 0x20 DUP3 ADD SWAP1 POP DUP2 DUP2 SUB PUSH1 0x0 DUP4 ADD MSTORE PUSH2 0x160C DUP2 PUSH2 0x15D0 JUMP JUMPDEST SWAP1 POP SWAP2 SWAP1 POP JUMP JUMPDEST PUSH32 0x506C6564676564203E3D20476F616C0000000000000000000000000000000000 PUSH1 0x0 DUP3 ADD MSTORE POP JUMP JUMPDEST PUSH1 0x0 PUSH2 0x1649 PUSH1 0xF DUP4 PUSH2 0x152A JUMP JUMPDEST SWAP2 POP PUSH2 0x1654 DUP3 PUSH2 0x1613 JUMP JUMPDEST PUSH1 0x20 DUP3 ADD SWAP1 POP SWAP2 SWAP1 POP JUMP JUMPDEST PUSH1 0x0 PUSH1 0x20 DUP3 ADD SWAP1 POP DUP2 DUP2 SUB PUSH1 0x0 DUP4 ADD MSTORE PUSH2 0x1678 DUP2 PUSH2 0x163C JUMP JUMPDEST SWAP1 POP SWAP2 SWAP1 POP JUMP JUMPDEST PUSH1 0x0 PUSH1 0x40 DUP3 ADD SWAP1 POP PUSH2 0x1694 PUSH1 0x0 DUP4 ADD DUP6 PUSH2 0x12DB JUMP JUMPDEST PUSH2 0x16A1 PUSH1 0x20 DUP4 ADD DUP5 PUSH2 0x1221 JUMP JUMPDEST SWAP4 SWAP3 POP POP POP JUMP JUMPDEST PUSH2 0x16B1 DUP2 PUSH2 0x1309 JUMP JUMPDEST DUP2 EQ PUSH2 0x16BC JUMPI PUSH1 0x0 DUP1 REVERT JUMPDEST POP JUMP JUMPDEST PUSH1 0x0 DUP2 MLOAD SWAP1 POP PUSH2 0x16CE DUP2 PUSH2 0x16A8 JUMP JUMPDEST SWAP3 SWAP2 POP POP JUMP JUMPDEST PUSH1 0x0 PUSH1 0x20 DUP3 DUP5 SUB SLT ISZERO PUSH2 0x16EA JUMPI PUSH2 0x16E9 PUSH2 0x124B JUMP JUMPDEST JUMPDEST PUSH1 0x0 PUSH2 0x16F8 DUP5 DUP3 DUP6 ADD PUSH2 0x16BF JUMP JUMPDEST SWAP2 POP POP SWAP3 SWAP2 POP POP JUMP JUMPDEST PUSH1 0x0 PUSH1 0x40 DUP3 ADD SWAP1 POP PUSH2 0x1716 PUSH1 0x0 DUP4 ADD DUP6 PUSH2 0x1221 JUMP JUMPDEST PUSH2 0x1723 PUSH1 0x20 DUP4 ADD DUP5 PUSH2 0x1221 JUMP JUMPDEST SWAP4 SWAP3 POP POP POP JUMP JUMPDEST PUSH32 0x73746172743C6E6F770000000000000000000000000000000000000000000000 PUSH1 0x0 DUP3 ADD MSTORE POP JUMP JUMPDEST PUSH1 0x0 PUSH2 0x1760 PUSH1 0x9 DUP4 PUSH2 0x152A JUMP JUMPDEST SWAP2 POP PUSH2 0x176B DUP3 PUSH2 0x172A JUMP JUMPDEST PUSH1 0x20 DUP3 ADD SWAP1 POP SWAP2 SWAP1 POP JUMP JUMPDEST PUSH1 0x0 PUSH1 0x20 DUP3 ADD SWAP1 POP DUP2 DUP2 SUB PUSH1 0x0 DUP4 ADD MSTORE PUSH2 0x178F DUP2 PUSH2 0x1753 JUMP JUMPDEST SWAP1 POP SWAP2 SWAP1 POP JUMP JUMPDEST PUSH32 0x73746172743C656E640000000000000000000000000000000000000000000000 PUSH1 0x0 DUP3 ADD MSTORE POP JUMP JUMPDEST PUSH1 0x0 PUSH2 0x17CC PUSH1 0x9 DUP4 PUSH2 0x152A JUMP JUMPDEST SWAP2 POP PUSH2 0x17D7 DUP3 PUSH2 0x1796 JUMP JUMPDEST PUSH1 0x20 DUP3 ADD SWAP1 POP SWAP2 SWAP1 POP JUMP JUMPDEST PUSH1 0x0 PUSH1 0x20 DUP3 ADD SWAP1 POP DUP2 DUP2 SUB PUSH1 0x0 DUP4 ADD MSTORE PUSH2 0x17FB DUP2 PUSH2 0x17BF JUMP JUMPDEST SWAP1 POP SWAP2 SWAP1 POP JUMP JUMPDEST PUSH32 0x4E487B7100000000000000000000000000000000000000000000000000000000 PUSH1 0x0 MSTORE PUSH1 0x11 PUSH1 0x4 MSTORE PUSH1 0x24 PUSH1 0x0 REVERT JUMPDEST PUSH1 0x0 PUSH2 0x183C DUP3 PUSH2 0x1217 JUMP JUMPDEST SWAP2 POP PUSH2 0x1847 DUP4 PUSH2 0x1217 JUMP JUMPDEST SWAP3 POP DUP3 PUSH32 0xFFFFFFFFFFFFFFFFFFFFFFFFFFFFFFFFFFFFFFFFFFFFFFFFFFFFFFFFFFFFFFFF SUB DUP3 GT ISZERO PUSH2 0x187C JUMPI PUSH2 0x187B PUSH2 0x1802 JUMP JUMPDEST JUMPDEST DUP3 DUP3 ADD SWAP1 POP SWAP3 SWAP2 POP POP JUMP JUMPDEST PUSH32 0x6475723C6D61785F647572000000000000000000000000000000000000000000 PUSH1 0x0 DUP3 ADD MSTORE POP JUMP JUMPDEST PUSH1 0x0 PUSH2 0x18BD PUSH1 0xB DUP4 PUSH2 0x152A JUMP JUMPDEST SWAP2 POP PUSH2 0x18C8 DUP3 PUSH2 0x1887 JUMP JUMPDEST PUSH1 0x20 DUP3 ADD SWAP1 POP SWAP2 SWAP1 POP JUMP JUMPDEST PUSH1 0x0 PUSH1 0x20 DUP3 ADD SWAP1 POP DUP2 DUP2 SUB PUSH1 0x0 DUP4 ADD MSTORE PUSH2 0x18EC DUP2 PUSH2 0x18B0 JUMP JUMPDEST SWAP1 POP SWAP2 SWAP1 POP JUMP JUMPDEST PUSH1 0x0 PUSH1 0x80 DUP3 ADD SWAP1 POP PUSH2 0x1908 PUSH1 0x0 DUP4 ADD DUP8 PUSH2 0x1221 JUMP JUMPDEST PUSH2 0x1915 PUSH1 0x20 DUP4 ADD DUP7 PUSH2 0x1221 JUMP JUMPDEST PUSH2 0x1922 PUSH1 0x40 DUP4 ADD DUP6 PUSH2 0x12FA JUMP JUMPDEST PUSH2 0x192F PUSH1 0x60 DUP4 ADD DUP5 PUSH2 0x12FA JUMP JUMPDEST SWAP6 SWAP5 POP POP POP POP POP JUMP JUMPDEST PUSH1 0x0 PUSH2 0x1943 DUP3 PUSH2 0x1217 JUMP JUMPDEST SWAP2 POP PUSH32 0xFFFFFFFFFFFFFFFFFFFFFFFFFFFFFFFFFFFFFFFFFFFFFFFFFFFFFFFFFFFFFFFF DUP3 SUB PUSH2 0x1975 JUMPI PUSH2 0x1974 PUSH2 0x1802 JUMP JUMPDEST JUMPDEST PUSH1 0x1 DUP3 ADD SWAP1 POP SWAP2 SWAP1 POP JUMP JUMPDEST PUSH32 0x6E6F742063726561746F72000000000000000000000000000000000000000000 PUSH1 0x0 DUP3 ADD MSTORE POP JUMP JUMPDEST PUSH1 0x0 PUSH2 0x19B6 PUSH1 0xB DUP4 PUSH2 0x152A JUMP JUMPDEST SWAP2 POP PUSH2 0x19C1 DUP3 PUSH2 0x1980 JUMP JUMPDEST PUSH1 0x20 DUP3 ADD SWAP1 POP SWAP2 SWAP1 POP JUMP JUMPDEST PUSH1 0x0 PUSH1 0x20 DUP3 ADD SWAP1 POP DUP2 DUP2 SUB PUSH1 0x0 DUP4 ADD MSTORE PUSH2 0x19E5 DUP2 PUSH2 0x19A9 JUMP JUMPDEST SWAP1 POP SWAP2 SWAP1 POP JUMP JUMPDEST PUSH32 0x6E6F7420656E6465640000000000000000000000000000000000000000000000 PUSH1 0x0 DUP3 ADD MSTORE POP JUMP JUMPDEST PUSH1 0x0 PUSH2 0x1A22 PUSH1 0x9 DUP4 PUSH2 0x152A JUMP JUMPDEST SWAP2 POP PUSH2 0x1A2D DUP3 PUSH2 0x19EC JUMP JUMPDEST PUSH1 0x20 DUP3 ADD SWAP1 POP SWAP2 SWAP1 POP JUMP JUMPDEST PUSH1 0x0 PUSH1 0x20 DUP3 ADD SWAP1 POP DUP2 DUP2 SUB PUSH1 0x0 DUP4 ADD MSTORE PUSH2 0x1A51 DUP2 PUSH2 0x1A15 JUMP JUMPDEST SWAP1 POP SWAP2 SWAP1 POP JUMP JUMPDEST PUSH32 0x706C6564676564203C20676F616C000000000000000000000000000000000000 PUSH1 0x0 DUP3 ADD MSTORE POP JUMP JUMPDEST PUSH1 0x0 PUSH2 0x1A8E PUSH1 0xE DUP4 PUSH2 0x152A JUMP JUMPDEST SWAP2 POP PUSH2 0x1A99 DUP3 PUSH2 0x1A58 JUMP JUMPDEST PUSH1 0x20 DUP3 ADD SWAP1 POP SWAP2 SWAP1 POP JUMP JUMPDEST PUSH1 0x0 PUSH1 0x20 DUP3 ADD SWAP1 POP DUP2 DUP2 SUB PUSH1 0x0 DUP4 ADD MSTORE PUSH2 0x1ABD DUP2 PUSH2 0x1A81 JUMP JUMPDEST SWAP1 POP SWAP2 SWAP1 POP JUMP JUMPDEST PUSH32 0x636C61696D656400000000000000000000000000000000000000000000000000 PUSH1 0x0 DUP3 ADD MSTORE POP JUMP JUMPDEST PUSH1 0x0 PUSH2 0x1AFA PUSH1 0x7 DUP4 PUSH2 0x152A JUMP JUMPDEST SWAP2 POP PUSH2 0x1B05 DUP3 PUSH2 0x1AC4 JUMP JUMPDEST PUSH1 0x20 DUP3 ADD SWAP1 POP SWAP2 SWAP1 POP JUMP JUMPDEST PUSH1 0x0 PUSH1 0x20 DUP3 ADD SWAP1 POP DUP2 DUP2 SUB PUSH1 0x0 DUP4 ADD MSTORE PUSH2 0x1B29 DUP2 PUSH2 0x1AED JUMP JUMPDEST SWAP1 POP SWAP2 SWAP1 POP JUMP JUMPDEST PUSH32 0x656E646564000000000000000000000000000000000000000000000000000000 PUSH1 0x0 DUP3 ADD MSTORE POP JUMP JUMPDEST PUSH1 0x0 PUSH2 0x1B66 PUSH1 0x5 DUP4 PUSH2 0x152A JUMP JUMPDEST SWAP2 POP PUSH2 0x1B71 DUP3 PUSH2 0x1B30 JUMP JUMPDEST PUSH1 0x20 DUP3 ADD SWAP1 POP SWAP2 SWAP1 POP JUMP JUMPDEST PUSH1 0x0 PUSH1 0x20 DUP3 ADD SWAP1 POP DUP2 DUP2 SUB PUSH1 0x0 DUP4 ADD MSTORE PUSH2 0x1B95 DUP2 PUSH2 0x1B59 JUMP JUMPDEST SWAP1 POP SWAP2 SWAP1 POP JUMP JUMPDEST PUSH1 0x0 PUSH2 0x1BA7 DUP3 PUSH2 0x1217 JUMP JUMPDEST SWAP2 POP PUSH2 0x1BB2 DUP4 PUSH2 0x1217 JUMP JUMPDEST SWAP3 POP DUP3 DUP3 LT ISZERO PUSH2 0x1BC5 JUMPI PUSH2 0x1BC4 PUSH2 0x1802 JUMP JUMPDEST JUMPDEST DUP3 DUP3 SUB SWAP1 POP SWAP3 SWAP2 POP POP JUMP JUMPDEST PUSH32 0x6E6F742073746172746564000000000000000000000000000000000000000000 PUSH1 0x0 DUP3 ADD MSTORE POP JUMP JUMPDEST PUSH1 0x0 PUSH2 0x1C06 PUSH1 0xB DUP4 PUSH2 0x152A JUMP JUMPDEST SWAP2 POP PUSH2 0x1C11 DUP3 PUSH2 0x1BD0 JUMP JUMPDEST PUSH1 0x20 DUP3 ADD SWAP1 POP SWAP2 SWAP1 POP JUMP JUMPDEST PUSH1 0x0 PUSH1 0x20 DUP3 ADD SWAP1 POP DUP2 DUP2 SUB PUSH1 0x0 DUP4 ADD MSTORE PUSH2 0x1C35 DUP2 PUSH2 0x1BF9 JUMP JUMPDEST SWAP1 POP SWAP2 SWAP1 POP JUMP JUMPDEST PUSH1 0x0 PUSH1 0x60 DUP3 ADD SWAP1 POP PUSH2 0x1C51 PUSH1 0x0 DUP4 ADD DUP7 PUSH2 0x12DB JUMP JUMPDEST PUSH2 0x1C5E PUSH1 0x20 DUP4 ADD DUP6 PUSH2 0x12DB JUMP JUMPDEST PUSH2 0x1C6B PUSH1 0x40 DUP4 ADD DUP5 PUSH2 0x1221 JUMP JUMPDEST SWAP5 SWAP4 POP POP POP POP JUMP INVALID LOG2 PUSH5 0x6970667358 0x22 SLT KECCAK256 0xB1 0xE1 PUSH3 0xC141F2 0x49 0x2C 0x1F MUL DUP3 0xCB 0xD2 ADD PUSH13 0xDD10BF8E2FAA56EFB30839FB3B 0xB0 DUP12 0x25 PUSH1 0x64 PUSH20 0x6F6C634300080D00330000000000000000000000 "
				},
				"gasEstimates": {
					"creation": {
						"codeDepositCost": "1467400",
						"executionCost": "infinite",
						"totalCost": "infinite"
					},
					"external": {
						"campaigns(uint256)": "infinite",
						"claim(uint256)": "infinite",
						"close(uint256)": "infinite",
						"count()": "2430",
						"launch(uint256,uint32,uint32)": "infinite",
						"pledge(uint256,uint256)": "infinite",
						"pledgedAmount(uint256,address)": "infinite",
						"refund(uint256)": "infinite",
						"time()": "403",
						"token()": "infinite",
						"unpledge(uint256,uint256)": "infinite"
					}
				},
				"methodIdentifiers": {
					"campaigns(uint256)": "141961bc",
					"claim(uint256)": "379607f5",
					"close(uint256)": "0aebeb4e",
					"count()": "06661abd",
					"launch(uint256,uint32,uint32)": "2c63f146",
					"pledge(uint256,uint256)": "fde327be",
					"pledgedAmount(uint256,address)": "aa4fb63a",
					"refund(uint256)": "278ecde1",
					"time()": "16ada547",
					"token()": "fc0c546a",
					"unpledge(uint256,uint256)": "711853ab"
				}
			},
			"storageLayout": {
				"storage": [
					{
						"astId": 91,
						"contract": "Homework3.sol:fund",
						"label": "count",
						"offset": 0,
						"slot": "0",
						"type": "t_uint256"
					},
					{
						"astId": 99,
						"contract": "Homework3.sol:fund",
						"label": "campaigns",
						"offset": 0,
						"slot": "1",
						"type": "t_mapping(t_uint256,t_struct(Campaign)88_storage)"
					},
					{
						"astId": 105,
						"contract": "Homework3.sol:fund",
						"label": "pledgedAmount",
						"offset": 0,
						"slot": "2",
						"type": "t_mapping(t_uint256,t_mapping(t_address,t_uint256))"
					}
				],
				"types": {
					"t_address": {
						"encoding": "inplace",
						"label": "address",
						"numberOfBytes": "20"
					},
					"t_bool": {
						"encoding": "inplace",
						"label": "bool",
						"numberOfBytes": "1"
					},
					"t_mapping(t_address,t_uint256)": {
						"encoding": "mapping",
						"key": "t_address",
						"label": "mapping(address => uint256)",
						"numberOfBytes": "32",
						"value": "t_uint256"
					},
					"t_mapping(t_uint256,t_mapping(t_address,t_uint256))": {
						"encoding": "mapping",
						"key": "t_uint256",
						"label": "mapping(uint256 => mapping(address => uint256))",
						"numberOfBytes": "32",
						"value": "t_mapping(t_address,t_uint256)"
					},
					"t_mapping(t_uint256,t_struct(Campaign)88_storage)": {
						"encoding": "mapping",
						"key": "t_uint256",
						"label": "mapping(uint256 => struct fund.Campaign)",
						"numberOfBytes": "32",
						"value": "t_struct(Campaign)88_storage"
					},
					"t_struct(Campaign)88_storage": {
						"encoding": "inplace",
						"label": "struct fund.Campaign",
						"members": [
							{
								"astId": 77,
								"contract": "Homework3.sol:fund",
								"label": "creator",
								"offset": 0,
								"slot": "0",
								"type": "t_address"
							},
							{
								"astId": 79,
								"contract": "Homework3.sol:fund",
								"label": "goal",
								"offset": 0,
								"slot": "1",
								"type": "t_uint256"
							},
							{
								"astId": 81,
								"contract": "Homework3.sol:fund",
								"label": "start",
								"offset": 0,
								"slot": "2",
								"type": "t_uint32"
							},
							{
								"astId": 83,
								"contract": "Homework3.sol:fund",
								"label": "end",
								"offset": 4,
								"slot": "2",
								"type": "t_uint32"
							},
							{
								"astId": 85,
								"contract": "Homework3.sol:fund",
								"label": "pledged",
								"offset": 0,
								"slot": "3",
								"type": "t_uint256"
							},
							{
								"astId": 87,
								"contract": "Homework3.sol:fund",
								"label": "claimed",
								"offset": 0,
								"slot": "4",
								"type": "t_bool"
							}
						],
						"numberOfBytes": "160"
					},
					"t_uint256": {
						"encoding": "inplace",
						"label": "uint256",
						"numberOfBytes": "32"
					},
					"t_uint32": {
						"encoding": "inplace",
						"label": "uint32",
						"numberOfBytes": "4"
					}
				}
			},
			"userdoc": {
				"kind": "user",
				"methods": {},
				"version": 1
			}
		}
	}
}