{
	"Homework3.sol": {
		"fund": {
			"abi": [
				{
					"inputs": [
						{
							"internalType": "address",
							"name": "_token",
							"type": "address"
						}
					],
					"stateMutability": "payable",
					"type": "constructor"
				},
				{
					"anonymous": false,
					"inputs": [
						{
							"indexed": false,
							"internalType": "uint256",
							"name": "id",
							"type": "uint256"
						}
					],
					"name": "Claim",
					"type": "event"
				},
				{
					"anonymous": false,
					"inputs": [
						{
							"indexed": false,
							"internalType": "uint256",
							"name": "_id",
							"type": "uint256"
						}
					],
					"name": "Delete",
					"type": "event"
				},
				{
					"anonymous": false,
					"inputs": [
						{
							"indexed": false,
							"internalType": "uint256",
							"name": "id",
							"type": "uint256"
						},
						{
							"indexed": true,
							"internalType": "address",
							"name": "owner",
							"type": "address"
						},
						{
							"indexed": false,
							"internalType": "uint256",
							"name": "goal",
							"type": "uint256"
						},
						{
							"indexed": false,
							"internalType": "uint32",
							"name": "start",
							"type": "uint32"
						},
						{
							"indexed": false,
							"internalType": "uint32",
							"name": "end",
							"type": "uint32"
						}
					],
					"name": "Launch",
					"type": "event"
				},
				{
					"anonymous": false,
					"inputs": [
						{
							"indexed": true,
							"internalType": "uint256",
							"name": "id",
							"type": "uint256"
						},
						{
							"indexed": false,
							"internalType": "address",
							"name": "user",
							"type": "address"
						},
						{
							"indexed": false,
							"internalType": "uint256",
							"name": "amount",
							"type": "uint256"
						}
					],
					"name": "Pledge",
					"type": "event"
				},
				{
					"anonymous": false,
					"inputs": [
						{
							"indexed": false,
							"internalType": "uint256",
							"name": "id",
							"type": "uint256"
						},
						{
							"indexed": true,
							"internalType": "address",
							"name": "user",
							"type": "address"
						},
						{
							"indexed": false,
							"internalType": "uint256",
							"name": "amount",
							"type": "uint256"
						}
					],
					"name": "Refund",
					"type": "event"
				},
				{
					"anonymous": false,
					"inputs": [
						{
							"indexed": true,
							"internalType": "uint256",
							"name": "id",
							"type": "uint256"
						},
						{
							"indexed": false,
							"internalType": "address",
							"name": "user",
							"type": "address"
						},
						{
							"indexed": false,
							"internalType": "uint256",
							"name": "amount",
							"type": "uint256"
						}
					],
					"name": "Unpledge",
					"type": "event"
				},
				{
					"inputs": [
						{
							"internalType": "uint256",
							"name": "",
							"type": "uint256"
						}
					],
					"name": "campaigns",
					"outputs": [
						{
							"internalType": "address",
							"name": "creator",
							"type": "address"
						},
						{
							"internalType": "uint256",
							"name": "goal",
							"type": "uint256"
						},
						{
							"internalType": "uint32",
							"name": "start",
							"type": "uint32"
						},
						{
							"internalType": "uint32",
							"name": "end",
							"type": "uint32"
						},
						{
							"internalType": "uint256",
							"name": "pledged",
							"type": "uint256"
						},
						{
							"internalType": "bool",
							"name": "claimed",
							"type": "bool"
						}
					],
					"stateMutability": "view",
					"type": "function"
				},
				{
					"inputs": [
						{
							"internalType": "uint256",
							"name": "_id",
							"type": "uint256"
						}
					],
					"name": "claim",
					"outputs": [],
					"stateMutability": "nonpayable",
					"type": "function"
				},
				{
					"inputs": [
						{
							"internalType": "uint256",
							"name": "id",
							"type": "uint256"
						}
					],
					"name": "close",
					"outputs": [],
					"stateMutability": "nonpayable",
					"type": "function"
				},
				{
					"inputs": [],
					"name": "count",
					"outputs": [
						{
							"internalType": "uint256",
							"name": "",
							"type": "uint256"
						}
					],
					"stateMutability": "view",
					"type": "function"
				},
				{
					"inputs": [],
					"name": "index",
					"outputs": [
						{
							"internalType": "uint256",
							"name": "",
							"type": "uint256"
						}
					],
					"stateMutability": "view",
					"type": "function"
				},
				{
					"inputs": [
						{
							"internalType": "uint256",
							"name": "_goal",
							"type": "uint256"
						},
						{
							"internalType": "uint32",
							"name": "_start",
							"type": "uint32"
						},
						{
							"internalType": "uint32",
							"name": "_end",
							"type": "uint32"
						}
					],
					"name": "launch",
					"outputs": [],
					"stateMutability": "nonpayable",
					"type": "function"
				},
				{
					"inputs": [
						{
							"internalType": "uint256",
							"name": "_id",
							"type": "uint256"
						},
						{
							"internalType": "uint256",
							"name": "_amount",
							"type": "uint256"
						}
					],
					"name": "pledge",
					"outputs": [],
					"stateMutability": "payable",
					"type": "function"
				},
				{
					"inputs": [
						{
							"internalType": "uint256",
							"name": "",
							"type": "uint256"
						},
						{
							"internalType": "address",
							"name": "",
							"type": "address"
						}
					],
					"name": "pledgedAmount",
					"outputs": [
						{
							"internalType": "uint256",
							"name": "",
							"type": "uint256"
						}
					],
					"stateMutability": "view",
					"type": "function"
				},
				{
					"inputs": [
						{
							"internalType": "uint256",
							"name": "id",
							"type": "uint256"
						}
					],
					"name": "refund",
					"outputs": [],
					"stateMutability": "nonpayable",
					"type": "function"
				},
				{
					"inputs": [],
					"name": "time",
					"outputs": [
						{
							"internalType": "uint256",
							"name": "",
							"type": "uint256"
						}
					],
					"stateMutability": "view",
					"type": "function"
				},
				{
					"inputs": [],
					"name": "token",
					"outputs": [
						{
							"internalType": "contract IERC20",
							"name": "",
							"type": "address"
						}
					],
					"stateMutability": "view",
					"type": "function"
				},
				{
					"inputs": [
						{
							"internalType": "uint256",
							"name": "_id",
							"type": "uint256"
						},
						{
							"internalType": "uint256",
							"name": "_amount",
							"type": "uint256"
						}
					],
					"name": "unpledge",
					"outputs": [],
					"stateMutability": "nonpayable",
					"type": "function"
				}
			],
			"devdoc": {
				"kind": "dev",
				"methods": {},
				"version": 1
			},
			"evm": {
				"assembly": "    /* \"Homework3.sol\":116:3611  contract fund{... */\n  mstore(0x40, 0xa0)\n    /* \"Homework3.sol\":777:778  0 */\n  0x00\n    /* \"Homework3.sol\":757:778  uint public count = 0 */\n  dup1\n  sstore\n    /* \"Homework3.sol\":804:805  0 */\n  0x00\n    /* \"Homework3.sol\":784:805  uint public index = 0 */\n  0x01\n  sstore\n    /* \"Homework3.sol\":961:1037  constructor (address _token) payable {... */\n  mload(0x40)\n  sub(codesize, bytecodeSize)\n  dup1\n  bytecodeSize\n  dup4\n  codecopy\n  dup2\n  dup2\n  add\n  0x40\n  mstore\n  dup2\n  add\n  swap1\n  tag_1\n  swap2\n  swap1\n  tag_2\n  jump\t// in\ntag_1:\n    /* \"Homework3.sol\":1023:1029  _token */\n  dup1\n    /* \"Homework3.sol\":1008:1030  token = IERC20(_token) */\n  0xffffffffffffffffffffffffffffffffffffffff\n  and\n  0x80\n  dup2\n  0xffffffffffffffffffffffffffffffffffffffff\n  and\n  dup2\n  mstore\n  pop\n  pop\n    /* \"Homework3.sol\":961:1037  constructor (address _token) payable {... */\n  pop\n    /* \"Homework3.sol\":116:3611  contract fund{... */\n  jump(tag_5)\n    /* \"#utility.yul\":88:205   */\ntag_7:\n    /* \"#utility.yul\":197:198   */\n  0x00\n    /* \"#utility.yul\":194:195   */\n  dup1\n    /* \"#utility.yul\":187:199   */\n  revert\n    /* \"#utility.yul\":334:460   */\ntag_9:\n    /* \"#utility.yul\":371:378   */\n  0x00\n    /* \"#utility.yul\":411:453   */\n  0xffffffffffffffffffffffffffffffffffffffff\n    /* \"#utility.yul\":404:409   */\n  dup3\n    /* \"#utility.yul\":400:454   */\n  and\n    /* \"#utility.yul\":389:454   */\n  swap1\n  pop\n    /* \"#utility.yul\":334:460   */\n  swap2\n  swap1\n  pop\n  jump\t// out\n    /* \"#utility.yul\":466:562   */\ntag_10:\n    /* \"#utility.yul\":503:510   */\n  0x00\n    /* \"#utility.yul\":532:556   */\n  tag_19\n    /* \"#utility.yul\":550:555   */\n  dup3\n    /* \"#utility.yul\":532:556   */\n  tag_9\n  jump\t// in\ntag_19:\n    /* \"#utility.yul\":521:556   */\n  swap1\n  pop\n    /* \"#utility.yul\":466:562   */\n  swap2\n  swap1\n  pop\n  jump\t// out\n    /* \"#utility.yul\":568:690   */\ntag_11:\n    /* \"#utility.yul\":641:665   */\n  tag_21\n    /* \"#utility.yul\":659:664   */\n  dup2\n    /* \"#utility.yul\":641:665   */\n  tag_10\n  jump\t// in\ntag_21:\n    /* \"#utility.yul\":634:639   */\n  dup2\n    /* \"#utility.yul\":631:666   */\n  eq\n    /* \"#utility.yul\":621:684   */\n  tag_22\n  jumpi\n    /* \"#utility.yul\":680:681   */\n  0x00\n    /* \"#utility.yul\":677:678   */\n  dup1\n    /* \"#utility.yul\":670:682   */\n  revert\n    /* \"#utility.yul\":621:684   */\ntag_22:\n    /* \"#utility.yul\":568:690   */\n  pop\n  jump\t// out\n    /* \"#utility.yul\":696:839   */\ntag_12:\n    /* \"#utility.yul\":753:758   */\n  0x00\n    /* \"#utility.yul\":784:790   */\n  dup2\n    /* \"#utility.yul\":778:791   */\n  mload\n    /* \"#utility.yul\":769:791   */\n  swap1\n  pop\n    /* \"#utility.yul\":800:833   */\n  tag_24\n    /* \"#utility.yul\":827:832   */\n  dup2\n    /* \"#utility.yul\":800:833   */\n  tag_11\n  jump\t// in\ntag_24:\n    /* \"#utility.yul\":696:839   */\n  swap3\n  swap2\n  pop\n  pop\n  jump\t// out\n    /* \"#utility.yul\":845:1196   */\ntag_2:\n    /* \"#utility.yul\":915:921   */\n  0x00\n    /* \"#utility.yul\":964:966   */\n  0x20\n    /* \"#utility.yul\":952:961   */\n  dup3\n    /* \"#utility.yul\":943:950   */\n  dup5\n    /* \"#utility.yul\":939:962   */\n  sub\n    /* \"#utility.yul\":935:967   */\n  slt\n    /* \"#utility.yul\":932:1051   */\n  iszero\n  tag_26\n  jumpi\n    /* \"#utility.yul\":970:1049   */\n  tag_27\n  tag_7\n  jump\t// in\ntag_27:\n    /* \"#utility.yul\":932:1051   */\ntag_26:\n    /* \"#utility.yul\":1090:1091   */\n  0x00\n    /* \"#utility.yul\":1115:1179   */\n  tag_28\n    /* \"#utility.yul\":1171:1178   */\n  dup5\n    /* \"#utility.yul\":1162:1168   */\n  dup3\n    /* \"#utility.yul\":1151:1160   */\n  dup6\n    /* \"#utility.yul\":1147:1169   */\n  add\n    /* \"#utility.yul\":1115:1179   */\n  tag_12\n  jump\t// in\ntag_28:\n    /* \"#utility.yul\":1105:1179   */\n  swap2\n  pop\n    /* \"#utility.yul\":1061:1189   */\n  pop\n    /* \"#utility.yul\":845:1196   */\n  swap3\n  swap2\n  pop\n  pop\n  jump\t// out\n    /* \"Homework3.sol\":116:3611  contract fund{... */\ntag_5:\n  mload(0x80)\n  codecopy(0x00, dataOffset(sub_0), dataSize(sub_0))\n  0x00\n  assignImmutable(\"0x52f7a9acb346ac5a585f690689611848c26ca2f22b293bc6ea3f80896e3f8940\")\n  return(0x00, dataSize(sub_0))\nstop\n\nsub_0: assembly {\n        /* \"Homework3.sol\":116:3611  contract fund{... */\n      mstore(0x40, 0x80)\n      jumpi(tag_1, lt(calldatasize, 0x04))\n      shr(0xe0, calldataload(0x00))\n      dup1\n      0x2c63f146\n      gt\n      tag_14\n      jumpi\n      dup1\n      0x2c63f146\n      eq\n      tag_8\n      jumpi\n      dup1\n      0x379607f5\n      eq\n      tag_9\n      jumpi\n      dup1\n      0x711853ab\n      eq\n      tag_10\n      jumpi\n      dup1\n      0xaa4fb63a\n      eq\n      tag_11\n      jumpi\n      dup1\n      0xfc0c546a\n      eq\n      tag_12\n      jumpi\n      dup1\n      0xfde327be\n      eq\n      tag_13\n      jumpi\n      jump(tag_1)\n    tag_14:\n      dup1\n      0x06661abd\n      eq\n      tag_2\n      jumpi\n      dup1\n      0x0aebeb4e\n      eq\n      tag_3\n      jumpi\n      dup1\n      0x141961bc\n      eq\n      tag_4\n      jumpi\n      dup1\n      0x16ada547\n      eq\n      tag_5\n      jumpi\n      dup1\n      0x278ecde1\n      eq\n      tag_6\n      jumpi\n      dup1\n      0x2986c0e5\n      eq\n      tag_7\n      jumpi\n    tag_1:\n      0x00\n      dup1\n      revert\n        /* \"Homework3.sol\":757:778  uint public count = 0 */\n    tag_2:\n      callvalue\n      dup1\n      iszero\n      tag_15\n      jumpi\n      0x00\n      dup1\n      revert\n    tag_15:\n      pop\n      tag_16\n      tag_17\n      jump\t// in\n    tag_16:\n      mload(0x40)\n      tag_18\n      swap2\n      swap1\n      tag_19\n      jump\t// in\n    tag_18:\n      mload(0x40)\n      dup1\n      swap2\n      sub\n      swap1\n      return\n        /* \"Homework3.sol\":1610:1977  function close(uint id) external{... */\n    tag_3:\n      callvalue\n      dup1\n      iszero\n      tag_20\n      jumpi\n      0x00\n      dup1\n      revert\n    tag_20:\n      pop\n      tag_21\n      0x04\n      dup1\n      calldatasize\n      sub\n      dup2\n      add\n      swap1\n      tag_22\n      swap2\n      swap1\n      tag_23\n      jump\t// in\n    tag_22:\n      tag_24\n      jump\t// in\n    tag_21:\n      stop\n        /* \"Homework3.sol\":847:888  mapping (uint=>Campaign) public campaigns */\n    tag_4:\n      callvalue\n      dup1\n      iszero\n      tag_25\n      jumpi\n      0x00\n      dup1\n      revert\n    tag_25:\n      pop\n      tag_26\n      0x04\n      dup1\n      calldatasize\n      sub\n      dup2\n      add\n      swap1\n      tag_27\n      swap2\n      swap1\n      tag_23\n      jump\t// in\n    tag_27:\n      tag_28\n      jump\t// in\n    tag_26:\n      mload(0x40)\n      tag_29\n      swap7\n      swap6\n      swap5\n      swap4\n      swap3\n      swap2\n      swap1\n      tag_30\n      jump\t// in\n    tag_29:\n      mload(0x40)\n      dup1\n      swap2\n      sub\n      swap1\n      return\n        /* \"Homework3.sol\":269:352  function time() external view returns (uint){... */\n    tag_5:\n      callvalue\n      dup1\n      iszero\n      tag_31\n      jumpi\n      0x00\n      dup1\n      revert\n    tag_31:\n      pop\n      tag_32\n      tag_33\n      jump\t// in\n    tag_32:\n      mload(0x40)\n      tag_34\n      swap2\n      swap1\n      tag_19\n      jump\t// in\n    tag_34:\n      mload(0x40)\n      dup1\n      swap2\n      sub\n      swap1\n      return\n        /* \"Homework3.sol\":3253:3608  function refund(uint id) external{... */\n    tag_6:\n      callvalue\n      dup1\n      iszero\n      tag_35\n      jumpi\n      0x00\n      dup1\n      revert\n    tag_35:\n      pop\n      tag_36\n      0x04\n      dup1\n      calldatasize\n      sub\n      dup2\n      add\n      swap1\n      tag_37\n      swap2\n      swap1\n      tag_23\n      jump\t// in\n    tag_37:\n      tag_38\n      jump\t// in\n    tag_36:\n      stop\n        /* \"Homework3.sol\":784:805  uint public index = 0 */\n    tag_7:\n      callvalue\n      dup1\n      iszero\n      tag_39\n      jumpi\n      0x00\n      dup1\n      revert\n    tag_39:\n      pop\n      tag_40\n      tag_41\n      jump\t// in\n    tag_40:\n      mload(0x40)\n      tag_42\n      swap2\n      swap1\n      tag_19\n      jump\t// in\n    tag_42:\n      mload(0x40)\n      dup1\n      swap2\n      sub\n      swap1\n      return\n        /* \"Homework3.sol\":1043:1604  function launch(... */\n    tag_8:\n      callvalue\n      dup1\n      iszero\n      tag_43\n      jumpi\n      0x00\n      dup1\n      revert\n    tag_43:\n      pop\n      tag_44\n      0x04\n      dup1\n      calldatasize\n      sub\n      dup2\n      add\n      swap1\n      tag_45\n      swap2\n      swap1\n      tag_46\n      jump\t// in\n    tag_45:\n      tag_47\n      jump\t// in\n    tag_44:\n      stop\n        /* \"Homework3.sol\":2791:3247  function claim(uint _id) external {... */\n    tag_9:\n      callvalue\n      dup1\n      iszero\n      tag_48\n      jumpi\n      0x00\n      dup1\n      revert\n    tag_48:\n      pop\n      tag_49\n      0x04\n      dup1\n      calldatasize\n      sub\n      dup2\n      add\n      swap1\n      tag_50\n      swap2\n      swap1\n      tag_23\n      jump\t// in\n    tag_50:\n      tag_51\n      jump\t// in\n    tag_49:\n      stop\n        /* \"Homework3.sol\":2432:2785  function unpledge(uint _id, uint _amount) external {... */\n    tag_10:\n      callvalue\n      dup1\n      iszero\n      tag_52\n      jumpi\n      0x00\n      dup1\n      revert\n    tag_52:\n      pop\n      tag_53\n      0x04\n      dup1\n      calldatasize\n      sub\n      dup2\n      add\n      swap1\n      tag_54\n      swap2\n      swap1\n      tag_55\n      jump\t// in\n    tag_54:\n      tag_56\n      jump\t// in\n    tag_53:\n      stop\n        /* \"Homework3.sol\":894:953  mapping (uint=>mapping(address=>uint)) public pledgedAmount */\n    tag_11:\n      callvalue\n      dup1\n      iszero\n      tag_57\n      jumpi\n      0x00\n      dup1\n      revert\n    tag_57:\n      pop\n      tag_58\n      0x04\n      dup1\n      calldatasize\n      sub\n      dup2\n      add\n      swap1\n      tag_59\n      swap2\n      swap1\n      tag_60\n      jump\t// in\n    tag_59:\n      tag_61\n      jump\t// in\n    tag_58:\n      mload(0x40)\n      tag_62\n      swap2\n      swap1\n      tag_19\n      jump\t// in\n    tag_62:\n      mload(0x40)\n      dup1\n      swap2\n      sub\n      swap1\n      return\n        /* \"Homework3.sol\":812:841  IERC20 public immutable token */\n    tag_12:\n      callvalue\n      dup1\n      iszero\n      tag_63\n      jumpi\n      0x00\n      dup1\n      revert\n    tag_63:\n      pop\n      tag_64\n      tag_65\n      jump\t// in\n    tag_64:\n      mload(0x40)\n      tag_66\n      swap2\n      swap1\n      tag_67\n      jump\t// in\n    tag_66:\n      mload(0x40)\n      dup1\n      swap2\n      sub\n      swap1\n      return\n        /* \"Homework3.sol\":1983:2426  function pledge(uint _id, uint _amount) payable external {... */\n    tag_13:\n      tag_68\n      0x04\n      dup1\n      calldatasize\n      sub\n      dup2\n      add\n      swap1\n      tag_69\n      swap2\n      swap1\n      tag_55\n      jump\t// in\n    tag_69:\n      tag_70\n      jump\t// in\n    tag_68:\n      stop\n        /* \"Homework3.sol\":757:778  uint public count = 0 */\n    tag_17:\n      sload(0x00)\n      dup2\n      jump\t// out\n        /* \"Homework3.sol\":1610:1977  function close(uint id) external{... */\n    tag_24:\n        /* \"Homework3.sol\":1652:1672  Campaign memory cmpn */\n      0x00\n        /* \"Homework3.sol\":1675:1684  campaigns */\n      0x02\n        /* \"Homework3.sol\":1675:1688  campaigns[id] */\n      0x00\n        /* \"Homework3.sol\":1685:1687  id */\n      dup4\n        /* \"Homework3.sol\":1675:1688  campaigns[id] */\n      dup2\n      mstore\n      0x20\n      add\n      swap1\n      dup2\n      mstore\n      0x20\n      add\n      0x00\n      keccak256\n        /* \"Homework3.sol\":1652:1688  Campaign memory cmpn = campaigns[id] */\n      mload(0x40)\n      dup1\n      0xc0\n      add\n      0x40\n      mstore\n      swap1\n      dup2\n      0x00\n      dup3\n      add\n      0x00\n      swap1\n      sload\n      swap1\n      0x0100\n      exp\n      swap1\n      div\n      0xffffffffffffffffffffffffffffffffffffffff\n      and\n      0xffffffffffffffffffffffffffffffffffffffff\n      and\n      0xffffffffffffffffffffffffffffffffffffffff\n      and\n      dup2\n      mstore\n      0x20\n      add\n      0x01\n      dup3\n      add\n      sload\n      dup2\n      mstore\n      0x20\n      add\n      0x02\n      dup3\n      add\n      0x00\n      swap1\n      sload\n      swap1\n      0x0100\n      exp\n      swap1\n      div\n      0xffffffff\n      and\n      0xffffffff\n      and\n      0xffffffff\n      and\n      dup2\n      mstore\n      0x20\n      add\n      0x02\n      dup3\n      add\n      0x04\n      swap1\n      sload\n      swap1\n      0x0100\n      exp\n      swap1\n      div\n      0xffffffff\n      and\n      0xffffffff\n      and\n      0xffffffff\n      and\n      dup2\n      mstore\n      0x20\n      add\n      0x03\n      dup3\n      add\n      sload\n      dup2\n      mstore\n      0x20\n      add\n      0x04\n      dup3\n      add\n      0x00\n      swap1\n      sload\n      swap1\n      0x0100\n      exp\n      swap1\n      div\n      0xff\n      and\n      iszero\n      iszero\n      iszero\n      iszero\n      dup2\n      mstore\n      pop\n      pop\n      swap1\n      pop\n        /* \"Homework3.sol\":1722:1732  msg.sender */\n      caller\n        /* \"Homework3.sol\":1706:1732  cmpn.creator == msg.sender */\n      0xffffffffffffffffffffffffffffffffffffffff\n      and\n        /* \"Homework3.sol\":1706:1710  cmpn */\n      dup2\n        /* \"Homework3.sol\":1706:1718  cmpn.creator */\n      0x00\n      add\n      mload\n        /* \"Homework3.sol\":1706:1732  cmpn.creator == msg.sender */\n      0xffffffffffffffffffffffffffffffffffffffff\n      and\n      eq\n        /* \"Homework3.sol\":1698:1742  require(cmpn.creator == msg.sender,\"Denied\") */\n      tag_72\n      jumpi\n      mload(0x40)\n      0x08c379a000000000000000000000000000000000000000000000000000000000\n      dup2\n      mstore\n      0x04\n      add\n      tag_73\n      swap1\n      tag_74\n      jump\t// in\n    tag_73:\n      mload(0x40)\n      dup1\n      swap2\n      sub\n      swap1\n      revert\n    tag_72:\n        /* \"Homework3.sol\":1883:1884  0 */\n      0x00\n        /* \"Homework3.sol\":1867:1871  cmpn */\n      dup2\n        /* \"Homework3.sol\":1867:1879  cmpn.pledged */\n      0x80\n      add\n      mload\n        /* \"Homework3.sol\":1867:1884  cmpn.pledged == 0 */\n      eq\n        /* \"Homework3.sol\":1858:1897  require (cmpn.pledged == 0, \"Bal != 0\") */\n      tag_75\n      jumpi\n      mload(0x40)\n      0x08c379a000000000000000000000000000000000000000000000000000000000\n      dup2\n      mstore\n      0x04\n      add\n      tag_76\n      swap1\n      tag_77\n      jump\t// in\n    tag_76:\n      mload(0x40)\n      dup1\n      swap2\n      sub\n      swap1\n      revert\n    tag_75:\n        /* \"Homework3.sol\":1907:1912  count */\n      0x00\n      dup1\n        /* \"Homework3.sol\":1907:1914  count-- */\n      dup2\n      sload\n      dup1\n      swap3\n      swap2\n      swap1\n      tag_78\n      swap1\n      tag_79\n      jump\t// in\n    tag_78:\n      swap2\n      swap1\n      pop\n      sstore\n      pop\n        /* \"Homework3.sol\":1931:1940  campaigns */\n      0x02\n        /* \"Homework3.sol\":1931:1944  campaigns[id] */\n      0x00\n        /* \"Homework3.sol\":1941:1943  id */\n      dup4\n        /* \"Homework3.sol\":1931:1944  campaigns[id] */\n      dup2\n      mstore\n      0x20\n      add\n      swap1\n      dup2\n      mstore\n      0x20\n      add\n      0x00\n      keccak256\n      0x00\n        /* \"Homework3.sol\":1924:1944  delete campaigns[id] */\n      dup1\n      dup3\n      add\n      exp(0x0100, 0x00)\n      dup2\n      sload\n      swap1\n      0xffffffffffffffffffffffffffffffffffffffff\n      mul\n      not\n      and\n      swap1\n      sstore\n      0x01\n      dup3\n      add\n      0x00\n      swap1\n      sstore\n      0x02\n      dup3\n      add\n      exp(0x0100, 0x00)\n      dup2\n      sload\n      swap1\n      0xffffffff\n      mul\n      not\n      and\n      swap1\n      sstore\n      0x02\n      dup3\n      add\n      exp(0x0100, 0x04)\n      dup2\n      sload\n      swap1\n      0xffffffff\n      mul\n      not\n      and\n      swap1\n      sstore\n      0x03\n      dup3\n      add\n      0x00\n      swap1\n      sstore\n      0x04\n      dup3\n      add\n      exp(0x0100, 0x00)\n      dup2\n      sload\n      swap1\n      0xff\n      mul\n      not\n      and\n      swap1\n      sstore\n      pop\n      pop\n        /* \"Homework3.sol\":1959:1969  Delete(id) */\n      0x7d815d575a49d6d9a069482c25b0fdb39914ccf1bba8aaea4cfe20322f8f6877\n        /* \"Homework3.sol\":1966:1968  id */\n      dup3\n        /* \"Homework3.sol\":1959:1969  Delete(id) */\n      mload(0x40)\n      tag_80\n      swap2\n      swap1\n      tag_19\n      jump\t// in\n    tag_80:\n      mload(0x40)\n      dup1\n      swap2\n      sub\n      swap1\n      log1\n        /* \"Homework3.sol\":1642:1977  {... */\n      pop\n        /* \"Homework3.sol\":1610:1977  function close(uint id) external{... */\n      pop\n      jump\t// out\n        /* \"Homework3.sol\":847:888  mapping (uint=>Campaign) public campaigns */\n    tag_28:\n      mstore(0x20, 0x02)\n      dup1\n      0x00\n      mstore\n      keccak256(0x00, 0x40)\n      0x00\n      swap2\n      pop\n      swap1\n      pop\n      dup1\n      0x00\n      add\n      0x00\n      swap1\n      sload\n      swap1\n      0x0100\n      exp\n      swap1\n      div\n      0xffffffffffffffffffffffffffffffffffffffff\n      and\n      swap1\n      dup1\n      0x01\n      add\n      sload\n      swap1\n      dup1\n      0x02\n      add\n      0x00\n      swap1\n      sload\n      swap1\n      0x0100\n      exp\n      swap1\n      div\n      0xffffffff\n      and\n      swap1\n      dup1\n      0x02\n      add\n      0x04\n      swap1\n      sload\n      swap1\n      0x0100\n      exp\n      swap1\n      div\n      0xffffffff\n      and\n      swap1\n      dup1\n      0x03\n      add\n      sload\n      swap1\n      dup1\n      0x04\n      add\n      0x00\n      swap1\n      sload\n      swap1\n      0x0100\n      exp\n      swap1\n      div\n      0xff\n      and\n      swap1\n      pop\n      dup7\n      jump\t// out\n        /* \"Homework3.sol\":269:352  function time() external view returns (uint){... */\n    tag_33:\n        /* \"Homework3.sol\":308:312  uint */\n      0x00\n        /* \"Homework3.sol\":330:345  block.timestamp */\n      timestamp\n        /* \"Homework3.sol\":323:345  return block.timestamp */\n      swap1\n      pop\n        /* \"Homework3.sol\":269:352  function time() external view returns (uint){... */\n      swap1\n      jump\t// out\n        /* \"Homework3.sol\":3253:3608  function refund(uint id) external{... */\n    tag_38:\n        /* \"Homework3.sol\":3296:3320  Campaign memory campaign */\n      0x00\n        /* \"Homework3.sol\":3323:3332  campaigns */\n      0x02\n        /* \"Homework3.sol\":3323:3336  campaigns[id] */\n      0x00\n        /* \"Homework3.sol\":3333:3335  id */\n      dup4\n        /* \"Homework3.sol\":3323:3336  campaigns[id] */\n      dup2\n      mstore\n      0x20\n      add\n      swap1\n      dup2\n      mstore\n      0x20\n      add\n      0x00\n      keccak256\n        /* \"Homework3.sol\":3296:3336  Campaign memory campaign = campaigns[id] */\n      mload(0x40)\n      dup1\n      0xc0\n      add\n      0x40\n      mstore\n      swap1\n      dup2\n      0x00\n      dup3\n      add\n      0x00\n      swap1\n      sload\n      swap1\n      0x0100\n      exp\n      swap1\n      div\n      0xffffffffffffffffffffffffffffffffffffffff\n      and\n      0xffffffffffffffffffffffffffffffffffffffff\n      and\n      0xffffffffffffffffffffffffffffffffffffffff\n      and\n      dup2\n      mstore\n      0x20\n      add\n      0x01\n      dup3\n      add\n      sload\n      dup2\n      mstore\n      0x20\n      add\n      0x02\n      dup3\n      add\n      0x00\n      swap1\n      sload\n      swap1\n      0x0100\n      exp\n      swap1\n      div\n      0xffffffff\n      and\n      0xffffffff\n      and\n      0xffffffff\n      and\n      dup2\n      mstore\n      0x20\n      add\n      0x02\n      dup3\n      add\n      0x04\n      swap1\n      sload\n      swap1\n      0x0100\n      exp\n      swap1\n      div\n      0xffffffff\n      and\n      0xffffffff\n      and\n      0xffffffff\n      and\n      dup2\n      mstore\n      0x20\n      add\n      0x03\n      dup3\n      add\n      sload\n      dup2\n      mstore\n      0x20\n      add\n      0x04\n      dup3\n      add\n      0x00\n      swap1\n      sload\n      swap1\n      0x0100\n      exp\n      swap1\n      div\n      0xff\n      and\n      iszero\n      iszero\n      iszero\n      iszero\n      dup2\n      mstore\n      pop\n      pop\n      swap1\n      pop\n        /* \"Homework3.sol\":3373:3381  campaign */\n      dup1\n        /* \"Homework3.sol\":3373:3386  campaign.goal */\n      0x20\n      add\n      mload\n        /* \"Homework3.sol\":3354:3362  campaign */\n      dup2\n        /* \"Homework3.sol\":3354:3370  campaign.pledged */\n      0x80\n      add\n      mload\n        /* \"Homework3.sol\":3354:3386  campaign.pledged < campaign.goal */\n      lt\n        /* \"Homework3.sol\":3346:3406  require(campaign.pledged < campaign.goal, \"Pledged >= Goal\") */\n      tag_83\n      jumpi\n      mload(0x40)\n      0x08c379a000000000000000000000000000000000000000000000000000000000\n      dup2\n      mstore\n      0x04\n      add\n      tag_84\n      swap1\n      tag_85\n      jump\t// in\n    tag_84:\n      mload(0x40)\n      dup1\n      swap2\n      sub\n      swap1\n      revert\n    tag_83:\n        /* \"Homework3.sol\":3425:3433  uint bal */\n      0x00\n        /* \"Homework3.sol\":3436:3449  pledgedAmount */\n      0x03\n        /* \"Homework3.sol\":3436:3453  pledgedAmount[id] */\n      0x00\n        /* \"Homework3.sol\":3450:3452  id */\n      dup5\n        /* \"Homework3.sol\":3436:3453  pledgedAmount[id] */\n      dup2\n      mstore\n      0x20\n      add\n      swap1\n      dup2\n      mstore\n      0x20\n      add\n      0x00\n      keccak256\n        /* \"Homework3.sol\":3436:3465  pledgedAmount[id][msg.sender] */\n      0x00\n        /* \"Homework3.sol\":3454:3464  msg.sender */\n      caller\n        /* \"Homework3.sol\":3436:3465  pledgedAmount[id][msg.sender] */\n      0xffffffffffffffffffffffffffffffffffffffff\n      and\n      0xffffffffffffffffffffffffffffffffffffffff\n      and\n      dup2\n      mstore\n      0x20\n      add\n      swap1\n      dup2\n      mstore\n      0x20\n      add\n      0x00\n      keccak256\n      sload\n        /* \"Homework3.sol\":3425:3465  uint bal = pledgedAmount[id][msg.sender] */\n      swap1\n      pop\n        /* \"Homework3.sol\":3507:3508  0 */\n      0x00\n        /* \"Homework3.sol\":3475:3488  pledgedAmount */\n      0x03\n        /* \"Homework3.sol\":3475:3492  pledgedAmount[id] */\n      0x00\n        /* \"Homework3.sol\":3489:3491  id */\n      dup6\n        /* \"Homework3.sol\":3475:3492  pledgedAmount[id] */\n      dup2\n      mstore\n      0x20\n      add\n      swap1\n      dup2\n      mstore\n      0x20\n      add\n      0x00\n      keccak256\n        /* \"Homework3.sol\":3475:3504  pledgedAmount[id][msg.sender] */\n      0x00\n        /* \"Homework3.sol\":3493:3503  msg.sender */\n      caller\n        /* \"Homework3.sol\":3475:3504  pledgedAmount[id][msg.sender] */\n      0xffffffffffffffffffffffffffffffffffffffff\n      and\n      0xffffffffffffffffffffffffffffffffffffffff\n      and\n      dup2\n      mstore\n      0x20\n      add\n      swap1\n      dup2\n      mstore\n      0x20\n      add\n      0x00\n      keccak256\n        /* \"Homework3.sol\":3475:3508  pledgedAmount[id][msg.sender] = 0 */\n      dup2\n      swap1\n      sstore\n      pop\n        /* \"Homework3.sol\":3518:3523  token */\n      immutable(\"0x52f7a9acb346ac5a585f690689611848c26ca2f22b293bc6ea3f80896e3f8940\")\n        /* \"Homework3.sol\":3518:3532  token.transfer */\n      0xffffffffffffffffffffffffffffffffffffffff\n      and\n      0xa9059cbb\n        /* \"Homework3.sol\":3533:3543  msg.sender */\n      caller\n        /* \"Homework3.sol\":3545:3548  bal */\n      dup4\n        /* \"Homework3.sol\":3518:3549  token.transfer(msg.sender, bal) */\n      mload(0x40)\n      dup4\n      0xffffffff\n      and\n      0xe0\n      shl\n      dup2\n      mstore\n      0x04\n      add\n      tag_86\n      swap3\n      swap2\n      swap1\n      tag_87\n      jump\t// in\n    tag_86:\n      0x20\n      mload(0x40)\n      dup1\n      dup4\n      sub\n      dup2\n      0x00\n      dup8\n      gas\n      call\n      iszero\n      dup1\n      iszero\n      tag_89\n      jumpi\n      returndatasize\n      0x00\n      dup1\n      returndatacopy\n      revert(0x00, returndatasize)\n    tag_89:\n      pop\n      pop\n      pop\n      pop\n      mload(0x40)\n      returndatasize\n      not(0x1f)\n      0x1f\n      dup3\n      add\n      and\n      dup3\n      add\n      dup1\n      0x40\n      mstore\n      pop\n      dup2\n      add\n      swap1\n      tag_90\n      swap2\n      swap1\n      tag_91\n      jump\t// in\n    tag_90:\n      pop\n        /* \"Homework3.sol\":3576:3586  msg.sender */\n      caller\n        /* \"Homework3.sol\":3565:3592  Refund(id, msg.sender, bal) */\n      0xffffffffffffffffffffffffffffffffffffffff\n      and\n      0x21e12a7cad0da5928167e1084ea4d5fdf8d9af66657a2543a9ac76a0ca081477\n        /* \"Homework3.sol\":3572:3574  id */\n      dup5\n        /* \"Homework3.sol\":3588:3591  bal */\n      dup4\n        /* \"Homework3.sol\":3565:3592  Refund(id, msg.sender, bal) */\n      mload(0x40)\n      tag_92\n      swap3\n      swap2\n      swap1\n      tag_93\n      jump\t// in\n    tag_92:\n      mload(0x40)\n      dup1\n      swap2\n      sub\n      swap1\n      log2\n        /* \"Homework3.sol\":3286:3608  {... */\n      pop\n      pop\n        /* \"Homework3.sol\":3253:3608  function refund(uint id) external{... */\n      pop\n      jump\t// out\n        /* \"Homework3.sol\":784:805  uint public index = 0 */\n    tag_41:\n      sload(0x01)\n      dup2\n      jump\t// out\n        /* \"Homework3.sol\":1043:1604  function launch(... */\n    tag_47:\n        /* \"Homework3.sol\":1164:1179  block.timestamp */\n      timestamp\n        /* \"Homework3.sol\":1156:1162  _start */\n      dup3\n        /* \"Homework3.sol\":1156:1179  _start>=block.timestamp */\n      0xffffffff\n      and\n      lt\n      iszero\n        /* \"Homework3.sol\":1148:1192  require(_start>=block.timestamp,\"start<now\") */\n      tag_95\n      jumpi\n      mload(0x40)\n      0x08c379a000000000000000000000000000000000000000000000000000000000\n      dup2\n      mstore\n      0x04\n      add\n      tag_96\n      swap1\n      tag_97\n      jump\t// in\n    tag_96:\n      mload(0x40)\n      dup1\n      swap2\n      sub\n      swap1\n      revert\n    tag_95:\n        /* \"Homework3.sol\":1215:1221  _start */\n      dup2\n        /* \"Homework3.sol\":1210:1221  _end>_start */\n      0xffffffff\n      and\n        /* \"Homework3.sol\":1210:1214  _end */\n      dup2\n        /* \"Homework3.sol\":1210:1221  _end>_start */\n      0xffffffff\n      and\n      gt\n        /* \"Homework3.sol\":1202:1235  require(_end>_start ,\"start<end\") */\n      tag_98\n      jumpi\n      mload(0x40)\n      0x08c379a000000000000000000000000000000000000000000000000000000000\n      dup2\n      mstore\n      0x04\n      add\n      tag_99\n      swap1\n      tag_100\n      jump\t// in\n    tag_99:\n      mload(0x40)\n      dup1\n      swap2\n      sub\n      swap1\n      revert\n    tag_98:\n        /* \"Homework3.sol\":1277:1284  90 days */\n      0x76a700\n        /* \"Homework3.sol\":1259:1274  block.timestamp */\n      timestamp\n        /* \"Homework3.sol\":1259:1284  block.timestamp + 90 days */\n      tag_101\n      swap2\n      swap1\n      tag_102\n      jump\t// in\n    tag_101:\n        /* \"Homework3.sol\":1253:1257  _end */\n      dup2\n        /* \"Homework3.sol\":1253:1284  _end<=block.timestamp + 90 days */\n      0xffffffff\n      and\n      gt\n      iszero\n        /* \"Homework3.sol\":1245:1299  require(_end<=block.timestamp + 90 days,\"dur<max_dur\") */\n      tag_103\n      jumpi\n      mload(0x40)\n      0x08c379a000000000000000000000000000000000000000000000000000000000\n      dup2\n      mstore\n      0x04\n      add\n      tag_104\n      swap1\n      tag_105\n      jump\t// in\n    tag_104:\n      mload(0x40)\n      dup1\n      swap2\n      sub\n      swap1\n      revert\n    tag_103:\n        /* \"Homework3.sol\":1328:1503  Campaign({... */\n      mload(0x40)\n      dup1\n      0xc0\n      add\n      0x40\n      mstore\n      dup1\n        /* \"Homework3.sol\":1360:1370  msg.sender */\n      caller\n        /* \"Homework3.sol\":1328:1503  Campaign({... */\n      0xffffffffffffffffffffffffffffffffffffffff\n      and\n      dup2\n      mstore\n      0x20\n      add\n        /* \"Homework3.sol\":1389:1394  _goal */\n      dup5\n        /* \"Homework3.sol\":1328:1503  Campaign({... */\n      dup2\n      mstore\n      0x20\n      add\n        /* \"Homework3.sol\":1414:1420  _start */\n      dup4\n        /* \"Homework3.sol\":1328:1503  Campaign({... */\n      0xffffffff\n      and\n      dup2\n      mstore\n      0x20\n      add\n        /* \"Homework3.sol\":1438:1442  _end */\n      dup3\n        /* \"Homework3.sol\":1328:1503  Campaign({... */\n      0xffffffff\n      and\n      dup2\n      mstore\n      0x20\n      add\n        /* \"Homework3.sol\":1464:1465  0 */\n      0x00\n        /* \"Homework3.sol\":1328:1503  Campaign({... */\n      dup2\n      mstore\n      0x20\n      add\n        /* \"Homework3.sol\":1487:1492  false */\n      0x00\n        /* \"Homework3.sol\":1328:1503  Campaign({... */\n      iszero\n      iszero\n      dup2\n      mstore\n      pop\n        /* \"Homework3.sol\":1309:1318  campaigns */\n      0x02\n        /* \"Homework3.sol\":1309:1325  campaigns[index] */\n      0x00\n        /* \"Homework3.sol\":1319:1324  index */\n      sload(0x01)\n        /* \"Homework3.sol\":1309:1325  campaigns[index] */\n      dup2\n      mstore\n      0x20\n      add\n      swap1\n      dup2\n      mstore\n      0x20\n      add\n      0x00\n      keccak256\n        /* \"Homework3.sol\":1309:1503  campaigns[index] = Campaign({... */\n      0x00\n      dup3\n      add\n      mload\n      dup2\n      0x00\n      add\n      exp(0x0100, 0x00)\n      dup2\n      sload\n      dup2\n      0xffffffffffffffffffffffffffffffffffffffff\n      mul\n      not\n      and\n      swap1\n      dup4\n      0xffffffffffffffffffffffffffffffffffffffff\n      and\n      mul\n      or\n      swap1\n      sstore\n      pop\n      0x20\n      dup3\n      add\n      mload\n      dup2\n      0x01\n      add\n      sstore\n      0x40\n      dup3\n      add\n      mload\n      dup2\n      0x02\n      add\n      exp(0x0100, 0x00)\n      dup2\n      sload\n      dup2\n      0xffffffff\n      mul\n      not\n      and\n      swap1\n      dup4\n      0xffffffff\n      and\n      mul\n      or\n      swap1\n      sstore\n      pop\n      0x60\n      dup3\n      add\n      mload\n      dup2\n      0x02\n      add\n      exp(0x0100, 0x04)\n      dup2\n      sload\n      dup2\n      0xffffffff\n      mul\n      not\n      and\n      swap1\n      dup4\n      0xffffffff\n      and\n      mul\n      or\n      swap1\n      sstore\n      pop\n      0x80\n      dup3\n      add\n      mload\n      dup2\n      0x03\n      add\n      sstore\n      0xa0\n      dup3\n      add\n      mload\n      dup2\n      0x04\n      add\n      exp(0x0100, 0x00)\n      dup2\n      sload\n      dup2\n      0xff\n      mul\n      not\n      and\n      swap1\n      dup4\n      iszero\n      iszero\n      mul\n      or\n      swap1\n      sstore\n      pop\n      swap1\n      pop\n      pop\n        /* \"Homework3.sol\":1532:1542  msg.sender */\n      caller\n        /* \"Homework3.sol\":1519:1561  Launch(count,msg.sender,_goal,_start,_end) */\n      0xffffffffffffffffffffffffffffffffffffffff\n      and\n      0x0601cd0d650b473037e838a2696d41e654433d065b3f56b28d1d3302e44a304f\n        /* \"Homework3.sol\":1526:1531  count */\n      sload(0x00)\n        /* \"Homework3.sol\":1543:1548  _goal */\n      dup6\n        /* \"Homework3.sol\":1549:1555  _start */\n      dup6\n        /* \"Homework3.sol\":1556:1560  _end */\n      dup6\n        /* \"Homework3.sol\":1519:1561  Launch(count,msg.sender,_goal,_start,_end) */\n      mload(0x40)\n      tag_106\n      swap5\n      swap4\n      swap3\n      swap2\n      swap1\n      tag_107\n      jump\t// in\n    tag_106:\n      mload(0x40)\n      dup1\n      swap2\n      sub\n      swap1\n      log2\n        /* \"Homework3.sol\":1571:1576  index */\n      0x01\n      0x00\n        /* \"Homework3.sol\":1571:1578  index++ */\n      dup2\n      sload\n      dup1\n      swap3\n      swap2\n      swap1\n      tag_108\n      swap1\n      tag_109\n      jump\t// in\n    tag_108:\n      swap2\n      swap1\n      pop\n      sstore\n      pop\n        /* \"Homework3.sol\":1588:1593  count */\n      0x00\n      dup1\n        /* \"Homework3.sol\":1588:1595  count++ */\n      dup2\n      sload\n      dup1\n      swap3\n      swap2\n      swap1\n      tag_110\n      swap1\n      tag_109\n      jump\t// in\n    tag_110:\n      swap2\n      swap1\n      pop\n      sstore\n      pop\n        /* \"Homework3.sol\":1043:1604  function launch(... */\n      pop\n      pop\n      pop\n      jump\t// out\n        /* \"Homework3.sol\":2791:3247  function claim(uint _id) external {... */\n    tag_51:\n        /* \"Homework3.sol\":2835:2860  Campaign storage campaign */\n      0x00\n        /* \"Homework3.sol\":2863:2872  campaigns */\n      0x02\n        /* \"Homework3.sol\":2863:2877  campaigns[_id] */\n      0x00\n        /* \"Homework3.sol\":2873:2876  _id */\n      dup4\n        /* \"Homework3.sol\":2863:2877  campaigns[_id] */\n      dup2\n      mstore\n      0x20\n      add\n      swap1\n      dup2\n      mstore\n      0x20\n      add\n      0x00\n      keccak256\n        /* \"Homework3.sol\":2835:2877  Campaign storage campaign = campaigns[_id] */\n      swap1\n      pop\n        /* \"Homework3.sol\":2915:2925  msg.sender */\n      caller\n        /* \"Homework3.sol\":2895:2925  campaign.creator == msg.sender */\n      0xffffffffffffffffffffffffffffffffffffffff\n      and\n        /* \"Homework3.sol\":2895:2903  campaign */\n      dup2\n        /* \"Homework3.sol\":2895:2911  campaign.creator */\n      0x00\n      add\n      0x00\n      swap1\n      sload\n      swap1\n      0x0100\n      exp\n      swap1\n      div\n      0xffffffffffffffffffffffffffffffffffffffff\n      and\n        /* \"Homework3.sol\":2895:2925  campaign.creator == msg.sender */\n      0xffffffffffffffffffffffffffffffffffffffff\n      and\n      eq\n        /* \"Homework3.sol\":2887:2941  require(campaign.creator == msg.sender, \"not creator\") */\n      tag_112\n      jumpi\n      mload(0x40)\n      0x08c379a000000000000000000000000000000000000000000000000000000000\n      dup2\n      mstore\n      0x04\n      add\n      tag_113\n      swap1\n      tag_114\n      jump\t// in\n    tag_113:\n      mload(0x40)\n      dup1\n      swap2\n      sub\n      swap1\n      revert\n    tag_112:\n        /* \"Homework3.sol\":2977:2985  campaign */\n      dup1\n        /* \"Homework3.sol\":2977:2989  campaign.end */\n      0x02\n      add\n      0x04\n      swap1\n      sload\n      swap1\n      0x0100\n      exp\n      swap1\n      div\n      0xffffffff\n      and\n        /* \"Homework3.sol\":2959:2989  block.timestamp > campaign.end */\n      0xffffffff\n      and\n        /* \"Homework3.sol\":2959:2974  block.timestamp */\n      timestamp\n        /* \"Homework3.sol\":2959:2989  block.timestamp > campaign.end */\n      gt\n        /* \"Homework3.sol\":2951:3003  require(block.timestamp > campaign.end, \"not ended\") */\n      tag_115\n      jumpi\n      mload(0x40)\n      0x08c379a000000000000000000000000000000000000000000000000000000000\n      dup2\n      mstore\n      0x04\n      add\n      tag_116\n      swap1\n      tag_117\n      jump\t// in\n    tag_116:\n      mload(0x40)\n      dup1\n      swap2\n      sub\n      swap1\n      revert\n    tag_115:\n        /* \"Homework3.sol\":3041:3049  campaign */\n      dup1\n        /* \"Homework3.sol\":3041:3054  campaign.goal */\n      0x01\n      add\n      sload\n        /* \"Homework3.sol\":3021:3029  campaign */\n      dup2\n        /* \"Homework3.sol\":3021:3037  campaign.pledged */\n      0x03\n      add\n      sload\n        /* \"Homework3.sol\":3021:3054  campaign.pledged >= campaign.goal */\n      lt\n      iszero\n        /* \"Homework3.sol\":3013:3073  require(campaign.pledged >= campaign.goal, \"pledged < goal\") */\n      tag_118\n      jumpi\n      mload(0x40)\n      0x08c379a000000000000000000000000000000000000000000000000000000000\n      dup2\n      mstore\n      0x04\n      add\n      tag_119\n      swap1\n      tag_120\n      jump\t// in\n    tag_119:\n      mload(0x40)\n      dup1\n      swap2\n      sub\n      swap1\n      revert\n    tag_118:\n        /* \"Homework3.sol\":3092:3100  campaign */\n      dup1\n        /* \"Homework3.sol\":3092:3108  campaign.claimed */\n      0x04\n      add\n      0x00\n      swap1\n      sload\n      swap1\n      0x0100\n      exp\n      swap1\n      div\n      0xff\n      and\n        /* \"Homework3.sol\":3091:3108  !campaign.claimed */\n      iszero\n        /* \"Homework3.sol\":3083:3120  require(!campaign.claimed, \"claimed\") */\n      tag_121\n      jumpi\n      mload(0x40)\n      0x08c379a000000000000000000000000000000000000000000000000000000000\n      dup2\n      mstore\n      0x04\n      add\n      tag_122\n      swap1\n      tag_123\n      jump\t// in\n    tag_122:\n      mload(0x40)\n      dup1\n      swap2\n      sub\n      swap1\n      revert\n    tag_121:\n        /* \"Homework3.sol\":3150:3154  true */\n      0x01\n        /* \"Homework3.sol\":3131:3139  campaign */\n      dup2\n        /* \"Homework3.sol\":3131:3147  campaign.claimed */\n      0x04\n      add\n      0x00\n        /* \"Homework3.sol\":3131:3154  campaign.claimed = true */\n      0x0100\n      exp\n      dup2\n      sload\n      dup2\n      0xff\n      mul\n      not\n      and\n      swap1\n      dup4\n      iszero\n      iszero\n      mul\n      or\n      swap1\n      sstore\n      pop\n        /* \"Homework3.sol\":3164:3169  token */\n      immutable(\"0x52f7a9acb346ac5a585f690689611848c26ca2f22b293bc6ea3f80896e3f8940\")\n        /* \"Homework3.sol\":3164:3178  token.transfer */\n      0xffffffffffffffffffffffffffffffffffffffff\n      and\n      0xa9059cbb\n        /* \"Homework3.sol\":3179:3187  campaign */\n      dup3\n        /* \"Homework3.sol\":3179:3195  campaign.creator */\n      0x00\n      add\n      0x00\n      swap1\n      sload\n      swap1\n      0x0100\n      exp\n      swap1\n      div\n      0xffffffffffffffffffffffffffffffffffffffff\n      and\n        /* \"Homework3.sol\":3197:3205  campaign */\n      dup4\n        /* \"Homework3.sol\":3197:3213  campaign.pledged */\n      0x03\n      add\n      sload\n        /* \"Homework3.sol\":3164:3214  token.transfer(campaign.creator, campaign.pledged) */\n      mload(0x40)\n      dup4\n      0xffffffff\n      and\n      0xe0\n      shl\n      dup2\n      mstore\n      0x04\n      add\n      tag_124\n      swap3\n      swap2\n      swap1\n      tag_87\n      jump\t// in\n    tag_124:\n      0x20\n      mload(0x40)\n      dup1\n      dup4\n      sub\n      dup2\n      0x00\n      dup8\n      gas\n      call\n      iszero\n      dup1\n      iszero\n      tag_126\n      jumpi\n      returndatasize\n      0x00\n      dup1\n      returndatacopy\n      revert(0x00, returndatasize)\n    tag_126:\n      pop\n      pop\n      pop\n      pop\n      mload(0x40)\n      returndatasize\n      not(0x1f)\n      0x1f\n      dup3\n      add\n      and\n      dup3\n      add\n      dup1\n      0x40\n      mstore\n      pop\n      dup2\n      add\n      swap1\n      tag_127\n      swap2\n      swap1\n      tag_91\n      jump\t// in\n    tag_127:\n      pop\n        /* \"Homework3.sol\":3230:3240  Claim(_id) */\n      0x7bb2b3c10797baccb6f8c4791f1edd6ca2f0d028ee0eda64b01a9a57e3a653f7\n        /* \"Homework3.sol\":3236:3239  _id */\n      dup3\n        /* \"Homework3.sol\":3230:3240  Claim(_id) */\n      mload(0x40)\n      tag_128\n      swap2\n      swap1\n      tag_19\n      jump\t// in\n    tag_128:\n      mload(0x40)\n      dup1\n      swap2\n      sub\n      swap1\n      log1\n        /* \"Homework3.sol\":2825:3247  {... */\n      pop\n        /* \"Homework3.sol\":2791:3247  function claim(uint _id) external {... */\n      pop\n      jump\t// out\n        /* \"Homework3.sol\":2432:2785  function unpledge(uint _id, uint _amount) external {... */\n    tag_56:\n        /* \"Homework3.sol\":2493:2518  Campaign storage campaign */\n      0x00\n        /* \"Homework3.sol\":2521:2530  campaigns */\n      0x02\n        /* \"Homework3.sol\":2521:2535  campaigns[_id] */\n      0x00\n        /* \"Homework3.sol\":2531:2534  _id */\n      dup5\n        /* \"Homework3.sol\":2521:2535  campaigns[_id] */\n      dup2\n      mstore\n      0x20\n      add\n      swap1\n      dup2\n      mstore\n      0x20\n      add\n      0x00\n      keccak256\n        /* \"Homework3.sol\":2493:2535  Campaign storage campaign = campaigns[_id] */\n      swap1\n      pop\n        /* \"Homework3.sol\":2572:2580  campaign */\n      dup1\n        /* \"Homework3.sol\":2572:2584  campaign.end */\n      0x02\n      add\n      0x04\n      swap1\n      sload\n      swap1\n      0x0100\n      exp\n      swap1\n      div\n      0xffffffff\n      and\n        /* \"Homework3.sol\":2553:2584  block.timestamp <= campaign.end */\n      0xffffffff\n      and\n        /* \"Homework3.sol\":2553:2568  block.timestamp */\n      timestamp\n        /* \"Homework3.sol\":2553:2584  block.timestamp <= campaign.end */\n      gt\n      iszero\n        /* \"Homework3.sol\":2545:2594  require(block.timestamp <= campaign.end, \"ended\") */\n      tag_130\n      jumpi\n      mload(0x40)\n      0x08c379a000000000000000000000000000000000000000000000000000000000\n      dup2\n      mstore\n      0x04\n      add\n      tag_131\n      swap1\n      tag_132\n      jump\t// in\n    tag_131:\n      mload(0x40)\n      dup1\n      swap2\n      sub\n      swap1\n      revert\n    tag_130:\n        /* \"Homework3.sol\":2625:2632  _amount */\n      dup2\n        /* \"Homework3.sol\":2605:2613  campaign */\n      dup2\n        /* \"Homework3.sol\":2605:2621  campaign.pledged */\n      0x03\n      add\n      0x00\n        /* \"Homework3.sol\":2605:2632  campaign.pledged -= _amount */\n      dup3\n      dup3\n      sload\n      tag_133\n      swap2\n      swap1\n      tag_134\n      jump\t// in\n    tag_133:\n      swap3\n      pop\n      pop\n      dup2\n      swap1\n      sstore\n      pop\n        /* \"Homework3.sol\":2676:2683  _amount */\n      dup2\n        /* \"Homework3.sol\":2642:2655  pledgedAmount */\n      0x03\n        /* \"Homework3.sol\":2642:2660  pledgedAmount[_id] */\n      0x00\n        /* \"Homework3.sol\":2656:2659  _id */\n      dup6\n        /* \"Homework3.sol\":2642:2660  pledgedAmount[_id] */\n      dup2\n      mstore\n      0x20\n      add\n      swap1\n      dup2\n      mstore\n      0x20\n      add\n      0x00\n      keccak256\n        /* \"Homework3.sol\":2642:2672  pledgedAmount[_id][msg.sender] */\n      0x00\n        /* \"Homework3.sol\":2661:2671  msg.sender */\n      caller\n        /* \"Homework3.sol\":2642:2672  pledgedAmount[_id][msg.sender] */\n      0xffffffffffffffffffffffffffffffffffffffff\n      and\n      0xffffffffffffffffffffffffffffffffffffffff\n      and\n      dup2\n      mstore\n      0x20\n      add\n      swap1\n      dup2\n      mstore\n      0x20\n      add\n      0x00\n      keccak256\n      0x00\n        /* \"Homework3.sol\":2642:2683  pledgedAmount[_id][msg.sender] -= _amount */\n      dup3\n      dup3\n      sload\n      tag_135\n      swap2\n      swap1\n      tag_134\n      jump\t// in\n    tag_135:\n      swap3\n      pop\n      pop\n      dup2\n      swap1\n      sstore\n      pop\n        /* \"Homework3.sol\":2693:2698  token */\n      immutable(\"0x52f7a9acb346ac5a585f690689611848c26ca2f22b293bc6ea3f80896e3f8940\")\n        /* \"Homework3.sol\":2693:2707  token.transfer */\n      0xffffffffffffffffffffffffffffffffffffffff\n      and\n      0xa9059cbb\n        /* \"Homework3.sol\":2708:2718  msg.sender */\n      caller\n        /* \"Homework3.sol\":2720:2727  _amount */\n      dup5\n        /* \"Homework3.sol\":2693:2728  token.transfer(msg.sender, _amount) */\n      mload(0x40)\n      dup4\n      0xffffffff\n      and\n      0xe0\n      shl\n      dup2\n      mstore\n      0x04\n      add\n      tag_136\n      swap3\n      swap2\n      swap1\n      tag_87\n      jump\t// in\n    tag_136:\n      0x20\n      mload(0x40)\n      dup1\n      dup4\n      sub\n      dup2\n      0x00\n      dup8\n      gas\n      call\n      iszero\n      dup1\n      iszero\n      tag_138\n      jumpi\n      returndatasize\n      0x00\n      dup1\n      returndatacopy\n      revert(0x00, returndatasize)\n    tag_138:\n      pop\n      pop\n      pop\n      pop\n      mload(0x40)\n      returndatasize\n      not(0x1f)\n      0x1f\n      dup3\n      add\n      and\n      dup3\n      add\n      dup1\n      0x40\n      mstore\n      pop\n      dup2\n      add\n      swap1\n      tag_139\n      swap2\n      swap1\n      tag_91\n      jump\t// in\n    tag_139:\n      pop\n        /* \"Homework3.sol\":2753:2756  _id */\n      dup3\n        /* \"Homework3.sol\":2744:2778  Unpledge(_id, msg.sender, _amount) */\n      0x2eeeab891b26a214d1b25749f88a406bdea852bd8c9bfda977e0ef8114c180ba\n        /* \"Homework3.sol\":2758:2768  msg.sender */\n      caller\n        /* \"Homework3.sol\":2770:2777  _amount */\n      dup5\n        /* \"Homework3.sol\":2744:2778  Unpledge(_id, msg.sender, _amount) */\n      mload(0x40)\n      tag_140\n      swap3\n      swap2\n      swap1\n      tag_87\n      jump\t// in\n    tag_140:\n      mload(0x40)\n      dup1\n      swap2\n      sub\n      swap1\n      log2\n        /* \"Homework3.sol\":2483:2785  {... */\n      pop\n        /* \"Homework3.sol\":2432:2785  function unpledge(uint _id, uint _amount) external {... */\n      pop\n      pop\n      jump\t// out\n        /* \"Homework3.sol\":894:953  mapping (uint=>mapping(address=>uint)) public pledgedAmount */\n    tag_61:\n      mstore(0x20, 0x03)\n      dup2\n      0x00\n      mstore\n      mstore(0x20, keccak256(0x00, 0x40))\n      dup1\n      0x00\n      mstore\n      keccak256(0x00, 0x40)\n      0x00\n      swap2\n      pop\n      swap2\n      pop\n      pop\n      sload\n      dup2\n      jump\t// out\n        /* \"Homework3.sol\":812:841  IERC20 public immutable token */\n    tag_65:\n      immutable(\"0x52f7a9acb346ac5a585f690689611848c26ca2f22b293bc6ea3f80896e3f8940\")\n      dup2\n      jump\t// out\n        /* \"Homework3.sol\":1983:2426  function pledge(uint _id, uint _amount) payable external {... */\n    tag_70:\n        /* \"Homework3.sol\":2050:2075  Campaign storage campaign */\n      0x00\n        /* \"Homework3.sol\":2078:2087  campaigns */\n      0x02\n        /* \"Homework3.sol\":2078:2092  campaigns[_id] */\n      0x00\n        /* \"Homework3.sol\":2088:2091  _id */\n      dup5\n        /* \"Homework3.sol\":2078:2092  campaigns[_id] */\n      dup2\n      mstore\n      0x20\n      add\n      swap1\n      dup2\n      mstore\n      0x20\n      add\n      0x00\n      keccak256\n        /* \"Homework3.sol\":2050:2092  Campaign storage campaign = campaigns[_id] */\n      swap1\n      pop\n        /* \"Homework3.sol\":2129:2137  campaign */\n      dup1\n        /* \"Homework3.sol\":2129:2143  campaign.start */\n      0x02\n      add\n      0x00\n      swap1\n      sload\n      swap1\n      0x0100\n      exp\n      swap1\n      div\n      0xffffffff\n      and\n        /* \"Homework3.sol\":2110:2143  block.timestamp >= campaign.start */\n      0xffffffff\n      and\n        /* \"Homework3.sol\":2110:2125  block.timestamp */\n      timestamp\n        /* \"Homework3.sol\":2110:2143  block.timestamp >= campaign.start */\n      lt\n      iszero\n        /* \"Homework3.sol\":2102:2159  require(block.timestamp >= campaign.start, \"not started\") */\n      tag_142\n      jumpi\n      mload(0x40)\n      0x08c379a000000000000000000000000000000000000000000000000000000000\n      dup2\n      mstore\n      0x04\n      add\n      tag_143\n      swap1\n      tag_144\n      jump\t// in\n    tag_143:\n      mload(0x40)\n      dup1\n      swap2\n      sub\n      swap1\n      revert\n    tag_142:\n        /* \"Homework3.sol\":2196:2204  campaign */\n      dup1\n        /* \"Homework3.sol\":2196:2208  campaign.end */\n      0x02\n      add\n      0x04\n      swap1\n      sload\n      swap1\n      0x0100\n      exp\n      swap1\n      div\n      0xffffffff\n      and\n        /* \"Homework3.sol\":2177:2208  block.timestamp <= campaign.end */\n      0xffffffff\n      and\n        /* \"Homework3.sol\":2177:2192  block.timestamp */\n      timestamp\n        /* \"Homework3.sol\":2177:2208  block.timestamp <= campaign.end */\n      gt\n      iszero\n        /* \"Homework3.sol\":2169:2218  require(block.timestamp <= campaign.end, \"ended\") */\n      tag_145\n      jumpi\n      mload(0x40)\n      0x08c379a000000000000000000000000000000000000000000000000000000000\n      dup2\n      mstore\n      0x04\n      add\n      tag_146\n      swap1\n      tag_132\n      jump\t// in\n    tag_146:\n      mload(0x40)\n      dup1\n      swap2\n      sub\n      swap1\n      revert\n    tag_145:\n        /* \"Homework3.sol\":2249:2256  _amount */\n      dup2\n        /* \"Homework3.sol\":2229:2237  campaign */\n      dup2\n        /* \"Homework3.sol\":2229:2245  campaign.pledged */\n      0x03\n      add\n      0x00\n        /* \"Homework3.sol\":2229:2256  campaign.pledged += _amount */\n      dup3\n      dup3\n      sload\n      tag_147\n      swap2\n      swap1\n      tag_102\n      jump\t// in\n    tag_147:\n      swap3\n      pop\n      pop\n      dup2\n      swap1\n      sstore\n      pop\n        /* \"Homework3.sol\":2300:2307  _amount */\n      dup2\n        /* \"Homework3.sol\":2266:2279  pledgedAmount */\n      0x03\n        /* \"Homework3.sol\":2266:2284  pledgedAmount[_id] */\n      0x00\n        /* \"Homework3.sol\":2280:2283  _id */\n      dup6\n        /* \"Homework3.sol\":2266:2284  pledgedAmount[_id] */\n      dup2\n      mstore\n      0x20\n      add\n      swap1\n      dup2\n      mstore\n      0x20\n      add\n      0x00\n      keccak256\n        /* \"Homework3.sol\":2266:2296  pledgedAmount[_id][msg.sender] */\n      0x00\n        /* \"Homework3.sol\":2285:2295  msg.sender */\n      caller\n        /* \"Homework3.sol\":2266:2296  pledgedAmount[_id][msg.sender] */\n      0xffffffffffffffffffffffffffffffffffffffff\n      and\n      0xffffffffffffffffffffffffffffffffffffffff\n      and\n      dup2\n      mstore\n      0x20\n      add\n      swap1\n      dup2\n      mstore\n      0x20\n      add\n      0x00\n      keccak256\n      0x00\n        /* \"Homework3.sol\":2266:2307  pledgedAmount[_id][msg.sender] += _amount */\n      dup3\n      dup3\n      sload\n      tag_148\n      swap2\n      swap1\n      tag_102\n      jump\t// in\n    tag_148:\n      swap3\n      pop\n      pop\n      dup2\n      swap1\n      sstore\n      pop\n        /* \"Homework3.sol\":2317:2322  token */\n      immutable(\"0x52f7a9acb346ac5a585f690689611848c26ca2f22b293bc6ea3f80896e3f8940\")\n        /* \"Homework3.sol\":2317:2335  token.transferFrom */\n      0xffffffffffffffffffffffffffffffffffffffff\n      and\n      0x23b872dd\n        /* \"Homework3.sol\":2336:2346  msg.sender */\n      caller\n        /* \"Homework3.sol\":2356:2360  this */\n      address\n        /* \"Homework3.sol\":2363:2370  _amount */\n      dup6\n        /* \"Homework3.sol\":2317:2371  token.transferFrom(msg.sender, address(this), _amount) */\n      mload(0x40)\n      dup5\n      0xffffffff\n      and\n      0xe0\n      shl\n      dup2\n      mstore\n      0x04\n      add\n      tag_149\n      swap4\n      swap3\n      swap2\n      swap1\n      tag_150\n      jump\t// in\n    tag_149:\n      0x20\n      mload(0x40)\n      dup1\n      dup4\n      sub\n      dup2\n      0x00\n      dup8\n      gas\n      call\n      iszero\n      dup1\n      iszero\n      tag_152\n      jumpi\n      returndatasize\n      0x00\n      dup1\n      returndatacopy\n      revert(0x00, returndatasize)\n    tag_152:\n      pop\n      pop\n      pop\n      pop\n      mload(0x40)\n      returndatasize\n      not(0x1f)\n      0x1f\n      dup3\n      add\n      and\n      dup3\n      add\n      dup1\n      0x40\n      mstore\n      pop\n      dup2\n      add\n      swap1\n      tag_153\n      swap2\n      swap1\n      tag_91\n      jump\t// in\n    tag_153:\n      pop\n        /* \"Homework3.sol\":2394:2397  _id */\n      dup3\n        /* \"Homework3.sol\":2387:2419  Pledge(_id, msg.sender, _amount) */\n      0x06bdb975df800a73232998e71ed585d536222f1dfeaa622d7f62a23ada686c82\n        /* \"Homework3.sol\":2399:2409  msg.sender */\n      caller\n        /* \"Homework3.sol\":2411:2418  _amount */\n      dup5\n        /* \"Homework3.sol\":2387:2419  Pledge(_id, msg.sender, _amount) */\n      mload(0x40)\n      tag_154\n      swap3\n      swap2\n      swap1\n      tag_87\n      jump\t// in\n    tag_154:\n      mload(0x40)\n      dup1\n      swap2\n      sub\n      swap1\n      log2\n        /* \"Homework3.sol\":2040:2426  {... */\n      pop\n        /* \"Homework3.sol\":1983:2426  function pledge(uint _id, uint _amount) payable external {... */\n      pop\n      pop\n      jump\t// out\n        /* \"#utility.yul\":7:84   */\n    tag_155:\n        /* \"#utility.yul\":44:51   */\n      0x00\n        /* \"#utility.yul\":73:78   */\n      dup2\n        /* \"#utility.yul\":62:78   */\n      swap1\n      pop\n        /* \"#utility.yul\":7:84   */\n      swap2\n      swap1\n      pop\n      jump\t// out\n        /* \"#utility.yul\":90:208   */\n    tag_156:\n        /* \"#utility.yul\":177:201   */\n      tag_209\n        /* \"#utility.yul\":195:200   */\n      dup2\n        /* \"#utility.yul\":177:201   */\n      tag_155\n      jump\t// in\n    tag_209:\n        /* \"#utility.yul\":172:175   */\n      dup3\n        /* \"#utility.yul\":165:202   */\n      mstore\n        /* \"#utility.yul\":90:208   */\n      pop\n      pop\n      jump\t// out\n        /* \"#utility.yul\":214:436   */\n    tag_19:\n        /* \"#utility.yul\":307:311   */\n      0x00\n        /* \"#utility.yul\":345:347   */\n      0x20\n        /* \"#utility.yul\":334:343   */\n      dup3\n        /* \"#utility.yul\":330:348   */\n      add\n        /* \"#utility.yul\":322:348   */\n      swap1\n      pop\n        /* \"#utility.yul\":358:429   */\n      tag_211\n        /* \"#utility.yul\":426:427   */\n      0x00\n        /* \"#utility.yul\":415:424   */\n      dup4\n        /* \"#utility.yul\":411:428   */\n      add\n        /* \"#utility.yul\":402:408   */\n      dup5\n        /* \"#utility.yul\":358:429   */\n      tag_156\n      jump\t// in\n    tag_211:\n        /* \"#utility.yul\":214:436   */\n      swap3\n      swap2\n      pop\n      pop\n      jump\t// out\n        /* \"#utility.yul\":523:640   */\n    tag_158:\n        /* \"#utility.yul\":632:633   */\n      0x00\n        /* \"#utility.yul\":629:630   */\n      dup1\n        /* \"#utility.yul\":622:634   */\n      revert\n        /* \"#utility.yul\":769:891   */\n    tag_160:\n        /* \"#utility.yul\":842:866   */\n      tag_216\n        /* \"#utility.yul\":860:865   */\n      dup2\n        /* \"#utility.yul\":842:866   */\n      tag_155\n      jump\t// in\n    tag_216:\n        /* \"#utility.yul\":835:840   */\n      dup2\n        /* \"#utility.yul\":832:867   */\n      eq\n        /* \"#utility.yul\":822:885   */\n      tag_217\n      jumpi\n        /* \"#utility.yul\":881:882   */\n      0x00\n        /* \"#utility.yul\":878:879   */\n      dup1\n        /* \"#utility.yul\":871:883   */\n      revert\n        /* \"#utility.yul\":822:885   */\n    tag_217:\n        /* \"#utility.yul\":769:891   */\n      pop\n      jump\t// out\n        /* \"#utility.yul\":897:1036   */\n    tag_161:\n        /* \"#utility.yul\":943:948   */\n      0x00\n        /* \"#utility.yul\":981:987   */\n      dup2\n        /* \"#utility.yul\":968:988   */\n      calldataload\n        /* \"#utility.yul\":959:988   */\n      swap1\n      pop\n        /* \"#utility.yul\":997:1030   */\n      tag_219\n        /* \"#utility.yul\":1024:1029   */\n      dup2\n        /* \"#utility.yul\":997:1030   */\n      tag_160\n      jump\t// in\n    tag_219:\n        /* \"#utility.yul\":897:1036   */\n      swap3\n      swap2\n      pop\n      pop\n      jump\t// out\n        /* \"#utility.yul\":1042:1371   */\n    tag_23:\n        /* \"#utility.yul\":1101:1107   */\n      0x00\n        /* \"#utility.yul\":1150:1152   */\n      0x20\n        /* \"#utility.yul\":1138:1147   */\n      dup3\n        /* \"#utility.yul\":1129:1136   */\n      dup5\n        /* \"#utility.yul\":1125:1148   */\n      sub\n        /* \"#utility.yul\":1121:1153   */\n      slt\n        /* \"#utility.yul\":1118:1237   */\n      iszero\n      tag_221\n      jumpi\n        /* \"#utility.yul\":1156:1235   */\n      tag_222\n      tag_158\n      jump\t// in\n    tag_222:\n        /* \"#utility.yul\":1118:1237   */\n    tag_221:\n        /* \"#utility.yul\":1276:1277   */\n      0x00\n        /* \"#utility.yul\":1301:1354   */\n      tag_223\n        /* \"#utility.yul\":1346:1353   */\n      dup5\n        /* \"#utility.yul\":1337:1343   */\n      dup3\n        /* \"#utility.yul\":1326:1335   */\n      dup6\n        /* \"#utility.yul\":1322:1344   */\n      add\n        /* \"#utility.yul\":1301:1354   */\n      tag_161\n      jump\t// in\n    tag_223:\n        /* \"#utility.yul\":1291:1354   */\n      swap2\n      pop\n        /* \"#utility.yul\":1247:1364   */\n      pop\n        /* \"#utility.yul\":1042:1371   */\n      swap3\n      swap2\n      pop\n      pop\n      jump\t// out\n        /* \"#utility.yul\":1377:1503   */\n    tag_162:\n        /* \"#utility.yul\":1414:1421   */\n      0x00\n        /* \"#utility.yul\":1454:1496   */\n      0xffffffffffffffffffffffffffffffffffffffff\n        /* \"#utility.yul\":1447:1452   */\n      dup3\n        /* \"#utility.yul\":1443:1497   */\n      and\n        /* \"#utility.yul\":1432:1497   */\n      swap1\n      pop\n        /* \"#utility.yul\":1377:1503   */\n      swap2\n      swap1\n      pop\n      jump\t// out\n        /* \"#utility.yul\":1509:1605   */\n    tag_163:\n        /* \"#utility.yul\":1546:1553   */\n      0x00\n        /* \"#utility.yul\":1575:1599   */\n      tag_226\n        /* \"#utility.yul\":1593:1598   */\n      dup3\n        /* \"#utility.yul\":1575:1599   */\n      tag_162\n      jump\t// in\n    tag_226:\n        /* \"#utility.yul\":1564:1599   */\n      swap1\n      pop\n        /* \"#utility.yul\":1509:1605   */\n      swap2\n      swap1\n      pop\n      jump\t// out\n        /* \"#utility.yul\":1611:1729   */\n    tag_164:\n        /* \"#utility.yul\":1698:1722   */\n      tag_228\n        /* \"#utility.yul\":1716:1721   */\n      dup2\n        /* \"#utility.yul\":1698:1722   */\n      tag_163\n      jump\t// in\n    tag_228:\n        /* \"#utility.yul\":1693:1696   */\n      dup3\n        /* \"#utility.yul\":1686:1723   */\n      mstore\n        /* \"#utility.yul\":1611:1729   */\n      pop\n      pop\n      jump\t// out\n        /* \"#utility.yul\":1735:1828   */\n    tag_165:\n        /* \"#utility.yul\":1771:1778   */\n      0x00\n        /* \"#utility.yul\":1811:1821   */\n      0xffffffff\n        /* \"#utility.yul\":1804:1809   */\n      dup3\n        /* \"#utility.yul\":1800:1822   */\n      and\n        /* \"#utility.yul\":1789:1822   */\n      swap1\n      pop\n        /* \"#utility.yul\":1735:1828   */\n      swap2\n      swap1\n      pop\n      jump\t// out\n        /* \"#utility.yul\":1834:1949   */\n    tag_166:\n        /* \"#utility.yul\":1919:1942   */\n      tag_231\n        /* \"#utility.yul\":1936:1941   */\n      dup2\n        /* \"#utility.yul\":1919:1942   */\n      tag_165\n      jump\t// in\n    tag_231:\n        /* \"#utility.yul\":1914:1917   */\n      dup3\n        /* \"#utility.yul\":1907:1943   */\n      mstore\n        /* \"#utility.yul\":1834:1949   */\n      pop\n      pop\n      jump\t// out\n        /* \"#utility.yul\":1955:2045   */\n    tag_167:\n        /* \"#utility.yul\":1989:1996   */\n      0x00\n        /* \"#utility.yul\":2032:2037   */\n      dup2\n        /* \"#utility.yul\":2025:2038   */\n      iszero\n        /* \"#utility.yul\":2018:2039   */\n      iszero\n        /* \"#utility.yul\":2007:2039   */\n      swap1\n      pop\n        /* \"#utility.yul\":1955:2045   */\n      swap2\n      swap1\n      pop\n      jump\t// out\n        /* \"#utility.yul\":2051:2160   */\n    tag_168:\n        /* \"#utility.yul\":2132:2153   */\n      tag_234\n        /* \"#utility.yul\":2147:2152   */\n      dup2\n        /* \"#utility.yul\":2132:2153   */\n      tag_167\n      jump\t// in\n    tag_234:\n        /* \"#utility.yul\":2127:2130   */\n      dup3\n        /* \"#utility.yul\":2120:2154   */\n      mstore\n        /* \"#utility.yul\":2051:2160   */\n      pop\n      pop\n      jump\t// out\n        /* \"#utility.yul\":2166:2921   */\n    tag_30:\n        /* \"#utility.yul\":2389:2393   */\n      0x00\n        /* \"#utility.yul\":2427:2430   */\n      0xc0\n        /* \"#utility.yul\":2416:2425   */\n      dup3\n        /* \"#utility.yul\":2412:2431   */\n      add\n        /* \"#utility.yul\":2404:2431   */\n      swap1\n      pop\n        /* \"#utility.yul\":2441:2512   */\n      tag_236\n        /* \"#utility.yul\":2509:2510   */\n      0x00\n        /* \"#utility.yul\":2498:2507   */\n      dup4\n        /* \"#utility.yul\":2494:2511   */\n      add\n        /* \"#utility.yul\":2485:2491   */\n      dup10\n        /* \"#utility.yul\":2441:2512   */\n      tag_164\n      jump\t// in\n    tag_236:\n        /* \"#utility.yul\":2522:2594   */\n      tag_237\n        /* \"#utility.yul\":2590:2592   */\n      0x20\n        /* \"#utility.yul\":2579:2588   */\n      dup4\n        /* \"#utility.yul\":2575:2593   */\n      add\n        /* \"#utility.yul\":2566:2572   */\n      dup9\n        /* \"#utility.yul\":2522:2594   */\n      tag_156\n      jump\t// in\n    tag_237:\n        /* \"#utility.yul\":2604:2674   */\n      tag_238\n        /* \"#utility.yul\":2670:2672   */\n      0x40\n        /* \"#utility.yul\":2659:2668   */\n      dup4\n        /* \"#utility.yul\":2655:2673   */\n      add\n        /* \"#utility.yul\":2646:2652   */\n      dup8\n        /* \"#utility.yul\":2604:2674   */\n      tag_166\n      jump\t// in\n    tag_238:\n        /* \"#utility.yul\":2684:2754   */\n      tag_239\n        /* \"#utility.yul\":2750:2752   */\n      0x60\n        /* \"#utility.yul\":2739:2748   */\n      dup4\n        /* \"#utility.yul\":2735:2753   */\n      add\n        /* \"#utility.yul\":2726:2732   */\n      dup7\n        /* \"#utility.yul\":2684:2754   */\n      tag_166\n      jump\t// in\n    tag_239:\n        /* \"#utility.yul\":2764:2837   */\n      tag_240\n        /* \"#utility.yul\":2832:2835   */\n      0x80\n        /* \"#utility.yul\":2821:2830   */\n      dup4\n        /* \"#utility.yul\":2817:2836   */\n      add\n        /* \"#utility.yul\":2808:2814   */\n      dup6\n        /* \"#utility.yul\":2764:2837   */\n      tag_156\n      jump\t// in\n    tag_240:\n        /* \"#utility.yul\":2847:2914   */\n      tag_241\n        /* \"#utility.yul\":2909:2912   */\n      0xa0\n        /* \"#utility.yul\":2898:2907   */\n      dup4\n        /* \"#utility.yul\":2894:2913   */\n      add\n        /* \"#utility.yul\":2885:2891   */\n      dup5\n        /* \"#utility.yul\":2847:2914   */\n      tag_168\n      jump\t// in\n    tag_241:\n        /* \"#utility.yul\":2166:2921   */\n      swap8\n      swap7\n      pop\n      pop\n      pop\n      pop\n      pop\n      pop\n      pop\n      jump\t// out\n        /* \"#utility.yul\":2927:3047   */\n    tag_169:\n        /* \"#utility.yul\":2999:3022   */\n      tag_243\n        /* \"#utility.yul\":3016:3021   */\n      dup2\n        /* \"#utility.yul\":2999:3022   */\n      tag_165\n      jump\t// in\n    tag_243:\n        /* \"#utility.yul\":2992:2997   */\n      dup2\n        /* \"#utility.yul\":2989:3023   */\n      eq\n        /* \"#utility.yul\":2979:3041   */\n      tag_244\n      jumpi\n        /* \"#utility.yul\":3037:3038   */\n      0x00\n        /* \"#utility.yul\":3034:3035   */\n      dup1\n        /* \"#utility.yul\":3027:3039   */\n      revert\n        /* \"#utility.yul\":2979:3041   */\n    tag_244:\n        /* \"#utility.yul\":2927:3047   */\n      pop\n      jump\t// out\n        /* \"#utility.yul\":3053:3190   */\n    tag_170:\n        /* \"#utility.yul\":3098:3103   */\n      0x00\n        /* \"#utility.yul\":3136:3142   */\n      dup2\n        /* \"#utility.yul\":3123:3143   */\n      calldataload\n        /* \"#utility.yul\":3114:3143   */\n      swap1\n      pop\n        /* \"#utility.yul\":3152:3184   */\n      tag_246\n        /* \"#utility.yul\":3178:3183   */\n      dup2\n        /* \"#utility.yul\":3152:3184   */\n      tag_169\n      jump\t// in\n    tag_246:\n        /* \"#utility.yul\":3053:3190   */\n      swap3\n      swap2\n      pop\n      pop\n      jump\t// out\n        /* \"#utility.yul\":3196:3811   */\n    tag_46:\n        /* \"#utility.yul\":3271:3277   */\n      0x00\n        /* \"#utility.yul\":3279:3285   */\n      dup1\n        /* \"#utility.yul\":3287:3293   */\n      0x00\n        /* \"#utility.yul\":3336:3338   */\n      0x60\n        /* \"#utility.yul\":3324:3333   */\n      dup5\n        /* \"#utility.yul\":3315:3322   */\n      dup7\n        /* \"#utility.yul\":3311:3334   */\n      sub\n        /* \"#utility.yul\":3307:3339   */\n      slt\n        /* \"#utility.yul\":3304:3423   */\n      iszero\n      tag_248\n      jumpi\n        /* \"#utility.yul\":3342:3421   */\n      tag_249\n      tag_158\n      jump\t// in\n    tag_249:\n        /* \"#utility.yul\":3304:3423   */\n    tag_248:\n        /* \"#utility.yul\":3462:3463   */\n      0x00\n        /* \"#utility.yul\":3487:3540   */\n      tag_250\n        /* \"#utility.yul\":3532:3539   */\n      dup7\n        /* \"#utility.yul\":3523:3529   */\n      dup3\n        /* \"#utility.yul\":3512:3521   */\n      dup8\n        /* \"#utility.yul\":3508:3530   */\n      add\n        /* \"#utility.yul\":3487:3540   */\n      tag_161\n      jump\t// in\n    tag_250:\n        /* \"#utility.yul\":3477:3540   */\n      swap4\n      pop\n        /* \"#utility.yul\":3433:3550   */\n      pop\n        /* \"#utility.yul\":3589:3591   */\n      0x20\n        /* \"#utility.yul\":3615:3667   */\n      tag_251\n        /* \"#utility.yul\":3659:3666   */\n      dup7\n        /* \"#utility.yul\":3650:3656   */\n      dup3\n        /* \"#utility.yul\":3639:3648   */\n      dup8\n        /* \"#utility.yul\":3635:3657   */\n      add\n        /* \"#utility.yul\":3615:3667   */\n      tag_170\n      jump\t// in\n    tag_251:\n        /* \"#utility.yul\":3605:3667   */\n      swap3\n      pop\n        /* \"#utility.yul\":3560:3677   */\n      pop\n        /* \"#utility.yul\":3716:3718   */\n      0x40\n        /* \"#utility.yul\":3742:3794   */\n      tag_252\n        /* \"#utility.yul\":3786:3793   */\n      dup7\n        /* \"#utility.yul\":3777:3783   */\n      dup3\n        /* \"#utility.yul\":3766:3775   */\n      dup8\n        /* \"#utility.yul\":3762:3784   */\n      add\n        /* \"#utility.yul\":3742:3794   */\n      tag_170\n      jump\t// in\n    tag_252:\n        /* \"#utility.yul\":3732:3794   */\n      swap2\n      pop\n        /* \"#utility.yul\":3687:3804   */\n      pop\n        /* \"#utility.yul\":3196:3811   */\n      swap3\n      pop\n      swap3\n      pop\n      swap3\n      jump\t// out\n        /* \"#utility.yul\":3817:4291   */\n    tag_55:\n        /* \"#utility.yul\":3885:3891   */\n      0x00\n        /* \"#utility.yul\":3893:3899   */\n      dup1\n        /* \"#utility.yul\":3942:3944   */\n      0x40\n        /* \"#utility.yul\":3930:3939   */\n      dup4\n        /* \"#utility.yul\":3921:3928   */\n      dup6\n        /* \"#utility.yul\":3917:3940   */\n      sub\n        /* \"#utility.yul\":3913:3945   */\n      slt\n        /* \"#utility.yul\":3910:4029   */\n      iszero\n      tag_254\n      jumpi\n        /* \"#utility.yul\":3948:4027   */\n      tag_255\n      tag_158\n      jump\t// in\n    tag_255:\n        /* \"#utility.yul\":3910:4029   */\n    tag_254:\n        /* \"#utility.yul\":4068:4069   */\n      0x00\n        /* \"#utility.yul\":4093:4146   */\n      tag_256\n        /* \"#utility.yul\":4138:4145   */\n      dup6\n        /* \"#utility.yul\":4129:4135   */\n      dup3\n        /* \"#utility.yul\":4118:4127   */\n      dup7\n        /* \"#utility.yul\":4114:4136   */\n      add\n        /* \"#utility.yul\":4093:4146   */\n      tag_161\n      jump\t// in\n    tag_256:\n        /* \"#utility.yul\":4083:4146   */\n      swap3\n      pop\n        /* \"#utility.yul\":4039:4156   */\n      pop\n        /* \"#utility.yul\":4195:4197   */\n      0x20\n        /* \"#utility.yul\":4221:4274   */\n      tag_257\n        /* \"#utility.yul\":4266:4273   */\n      dup6\n        /* \"#utility.yul\":4257:4263   */\n      dup3\n        /* \"#utility.yul\":4246:4255   */\n      dup7\n        /* \"#utility.yul\":4242:4264   */\n      add\n        /* \"#utility.yul\":4221:4274   */\n      tag_161\n      jump\t// in\n    tag_257:\n        /* \"#utility.yul\":4211:4274   */\n      swap2\n      pop\n        /* \"#utility.yul\":4166:4284   */\n      pop\n        /* \"#utility.yul\":3817:4291   */\n      swap3\n      pop\n      swap3\n      swap1\n      pop\n      jump\t// out\n        /* \"#utility.yul\":4297:4419   */\n    tag_171:\n        /* \"#utility.yul\":4370:4394   */\n      tag_259\n        /* \"#utility.yul\":4388:4393   */\n      dup2\n        /* \"#utility.yul\":4370:4394   */\n      tag_163\n      jump\t// in\n    tag_259:\n        /* \"#utility.yul\":4363:4368   */\n      dup2\n        /* \"#utility.yul\":4360:4395   */\n      eq\n        /* \"#utility.yul\":4350:4413   */\n      tag_260\n      jumpi\n        /* \"#utility.yul\":4409:4410   */\n      0x00\n        /* \"#utility.yul\":4406:4407   */\n      dup1\n        /* \"#utility.yul\":4399:4411   */\n      revert\n        /* \"#utility.yul\":4350:4413   */\n    tag_260:\n        /* \"#utility.yul\":4297:4419   */\n      pop\n      jump\t// out\n        /* \"#utility.yul\":4425:4564   */\n    tag_172:\n        /* \"#utility.yul\":4471:4476   */\n      0x00\n        /* \"#utility.yul\":4509:4515   */\n      dup2\n        /* \"#utility.yul\":4496:4516   */\n      calldataload\n        /* \"#utility.yul\":4487:4516   */\n      swap1\n      pop\n        /* \"#utility.yul\":4525:4558   */\n      tag_262\n        /* \"#utility.yul\":4552:4557   */\n      dup2\n        /* \"#utility.yul\":4525:4558   */\n      tag_171\n      jump\t// in\n    tag_262:\n        /* \"#utility.yul\":4425:4564   */\n      swap3\n      swap2\n      pop\n      pop\n      jump\t// out\n        /* \"#utility.yul\":4570:5044   */\n    tag_60:\n        /* \"#utility.yul\":4638:4644   */\n      0x00\n        /* \"#utility.yul\":4646:4652   */\n      dup1\n        /* \"#utility.yul\":4695:4697   */\n      0x40\n        /* \"#utility.yul\":4683:4692   */\n      dup4\n        /* \"#utility.yul\":4674:4681   */\n      dup6\n        /* \"#utility.yul\":4670:4693   */\n      sub\n        /* \"#utility.yul\":4666:4698   */\n      slt\n        /* \"#utility.yul\":4663:4782   */\n      iszero\n      tag_264\n      jumpi\n        /* \"#utility.yul\":4701:4780   */\n      tag_265\n      tag_158\n      jump\t// in\n    tag_265:\n        /* \"#utility.yul\":4663:4782   */\n    tag_264:\n        /* \"#utility.yul\":4821:4822   */\n      0x00\n        /* \"#utility.yul\":4846:4899   */\n      tag_266\n        /* \"#utility.yul\":4891:4898   */\n      dup6\n        /* \"#utility.yul\":4882:4888   */\n      dup3\n        /* \"#utility.yul\":4871:4880   */\n      dup7\n        /* \"#utility.yul\":4867:4889   */\n      add\n        /* \"#utility.yul\":4846:4899   */\n      tag_161\n      jump\t// in\n    tag_266:\n        /* \"#utility.yul\":4836:4899   */\n      swap3\n      pop\n        /* \"#utility.yul\":4792:4909   */\n      pop\n        /* \"#utility.yul\":4948:4950   */\n      0x20\n        /* \"#utility.yul\":4974:5027   */\n      tag_267\n        /* \"#utility.yul\":5019:5026   */\n      dup6\n        /* \"#utility.yul\":5010:5016   */\n      dup3\n        /* \"#utility.yul\":4999:5008   */\n      dup7\n        /* \"#utility.yul\":4995:5017   */\n      add\n        /* \"#utility.yul\":4974:5027   */\n      tag_172\n      jump\t// in\n    tag_267:\n        /* \"#utility.yul\":4964:5027   */\n      swap2\n      pop\n        /* \"#utility.yul\":4919:5037   */\n      pop\n        /* \"#utility.yul\":4570:5044   */\n      swap3\n      pop\n      swap3\n      swap1\n      pop\n      jump\t// out\n        /* \"#utility.yul\":5050:5110   */\n    tag_173:\n        /* \"#utility.yul\":5078:5081   */\n      0x00\n        /* \"#utility.yul\":5099:5104   */\n      dup2\n        /* \"#utility.yul\":5092:5104   */\n      swap1\n      pop\n        /* \"#utility.yul\":5050:5110   */\n      swap2\n      swap1\n      pop\n      jump\t// out\n        /* \"#utility.yul\":5116:5258   */\n    tag_174:\n        /* \"#utility.yul\":5166:5175   */\n      0x00\n        /* \"#utility.yul\":5199:5252   */\n      tag_270\n        /* \"#utility.yul\":5217:5251   */\n      tag_271\n        /* \"#utility.yul\":5226:5250   */\n      tag_272\n        /* \"#utility.yul\":5244:5249   */\n      dup5\n        /* \"#utility.yul\":5226:5250   */\n      tag_162\n      jump\t// in\n    tag_272:\n        /* \"#utility.yul\":5217:5251   */\n      tag_173\n      jump\t// in\n    tag_271:\n        /* \"#utility.yul\":5199:5252   */\n      tag_162\n      jump\t// in\n    tag_270:\n        /* \"#utility.yul\":5186:5252   */\n      swap1\n      pop\n        /* \"#utility.yul\":5116:5258   */\n      swap2\n      swap1\n      pop\n      jump\t// out\n        /* \"#utility.yul\":5264:5390   */\n    tag_175:\n        /* \"#utility.yul\":5314:5323   */\n      0x00\n        /* \"#utility.yul\":5347:5384   */\n      tag_274\n        /* \"#utility.yul\":5378:5383   */\n      dup3\n        /* \"#utility.yul\":5347:5384   */\n      tag_174\n      jump\t// in\n    tag_274:\n        /* \"#utility.yul\":5334:5384   */\n      swap1\n      pop\n        /* \"#utility.yul\":5264:5390   */\n      swap2\n      swap1\n      pop\n      jump\t// out\n        /* \"#utility.yul\":5396:5535   */\n    tag_176:\n        /* \"#utility.yul\":5459:5468   */\n      0x00\n        /* \"#utility.yul\":5492:5529   */\n      tag_276\n        /* \"#utility.yul\":5523:5528   */\n      dup3\n        /* \"#utility.yul\":5492:5529   */\n      tag_175\n      jump\t// in\n    tag_276:\n        /* \"#utility.yul\":5479:5529   */\n      swap1\n      pop\n        /* \"#utility.yul\":5396:5535   */\n      swap2\n      swap1\n      pop\n      jump\t// out\n        /* \"#utility.yul\":5541:5698   */\n    tag_177:\n        /* \"#utility.yul\":5641:5691   */\n      tag_278\n        /* \"#utility.yul\":5685:5690   */\n      dup2\n        /* \"#utility.yul\":5641:5691   */\n      tag_176\n      jump\t// in\n    tag_278:\n        /* \"#utility.yul\":5636:5639   */\n      dup3\n        /* \"#utility.yul\":5629:5692   */\n      mstore\n        /* \"#utility.yul\":5541:5698   */\n      pop\n      pop\n      jump\t// out\n        /* \"#utility.yul\":5704:5952   */\n    tag_67:\n        /* \"#utility.yul\":5810:5814   */\n      0x00\n        /* \"#utility.yul\":5848:5850   */\n      0x20\n        /* \"#utility.yul\":5837:5846   */\n      dup3\n        /* \"#utility.yul\":5833:5851   */\n      add\n        /* \"#utility.yul\":5825:5851   */\n      swap1\n      pop\n        /* \"#utility.yul\":5861:5945   */\n      tag_280\n        /* \"#utility.yul\":5942:5943   */\n      0x00\n        /* \"#utility.yul\":5931:5940   */\n      dup4\n        /* \"#utility.yul\":5927:5944   */\n      add\n        /* \"#utility.yul\":5918:5924   */\n      dup5\n        /* \"#utility.yul\":5861:5945   */\n      tag_177\n      jump\t// in\n    tag_280:\n        /* \"#utility.yul\":5704:5952   */\n      swap3\n      swap2\n      pop\n      pop\n      jump\t// out\n        /* \"#utility.yul\":5958:6127   */\n    tag_178:\n        /* \"#utility.yul\":6042:6053   */\n      0x00\n        /* \"#utility.yul\":6076:6082   */\n      dup3\n        /* \"#utility.yul\":6071:6074   */\n      dup3\n        /* \"#utility.yul\":6064:6083   */\n      mstore\n        /* \"#utility.yul\":6116:6120   */\n      0x20\n        /* \"#utility.yul\":6111:6114   */\n      dup3\n        /* \"#utility.yul\":6107:6121   */\n      add\n        /* \"#utility.yul\":6092:6121   */\n      swap1\n      pop\n        /* \"#utility.yul\":5958:6127   */\n      swap3\n      swap2\n      pop\n      pop\n      jump\t// out\n        /* \"#utility.yul\":6133:6289   */\n    tag_179:\n        /* \"#utility.yul\":6273:6281   */\n      0x44656e6965640000000000000000000000000000000000000000000000000000\n        /* \"#utility.yul\":6269:6270   */\n      0x00\n        /* \"#utility.yul\":6261:6267   */\n      dup3\n        /* \"#utility.yul\":6257:6271   */\n      add\n        /* \"#utility.yul\":6250:6282   */\n      mstore\n        /* \"#utility.yul\":6133:6289   */\n      pop\n      jump\t// out\n        /* \"#utility.yul\":6295:6660   */\n    tag_180:\n        /* \"#utility.yul\":6437:6440   */\n      0x00\n        /* \"#utility.yul\":6458:6524   */\n      tag_284\n        /* \"#utility.yul\":6522:6523   */\n      0x06\n        /* \"#utility.yul\":6517:6520   */\n      dup4\n        /* \"#utility.yul\":6458:6524   */\n      tag_178\n      jump\t// in\n    tag_284:\n        /* \"#utility.yul\":6451:6524   */\n      swap2\n      pop\n        /* \"#utility.yul\":6533:6626   */\n      tag_285\n        /* \"#utility.yul\":6622:6625   */\n      dup3\n        /* \"#utility.yul\":6533:6626   */\n      tag_179\n      jump\t// in\n    tag_285:\n        /* \"#utility.yul\":6651:6653   */\n      0x20\n        /* \"#utility.yul\":6646:6649   */\n      dup3\n        /* \"#utility.yul\":6642:6654   */\n      add\n        /* \"#utility.yul\":6635:6654   */\n      swap1\n      pop\n        /* \"#utility.yul\":6295:6660   */\n      swap2\n      swap1\n      pop\n      jump\t// out\n        /* \"#utility.yul\":6666:7085   */\n    tag_74:\n        /* \"#utility.yul\":6832:6836   */\n      0x00\n        /* \"#utility.yul\":6870:6872   */\n      0x20\n        /* \"#utility.yul\":6859:6868   */\n      dup3\n        /* \"#utility.yul\":6855:6873   */\n      add\n        /* \"#utility.yul\":6847:6873   */\n      swap1\n      pop\n        /* \"#utility.yul\":6919:6928   */\n      dup2\n        /* \"#utility.yul\":6913:6917   */\n      dup2\n        /* \"#utility.yul\":6909:6929   */\n      sub\n        /* \"#utility.yul\":6905:6906   */\n      0x00\n        /* \"#utility.yul\":6894:6903   */\n      dup4\n        /* \"#utility.yul\":6890:6907   */\n      add\n        /* \"#utility.yul\":6883:6930   */\n      mstore\n        /* \"#utility.yul\":6947:7078   */\n      tag_287\n        /* \"#utility.yul\":7073:7077   */\n      dup2\n        /* \"#utility.yul\":6947:7078   */\n      tag_180\n      jump\t// in\n    tag_287:\n        /* \"#utility.yul\":6939:7078   */\n      swap1\n      pop\n        /* \"#utility.yul\":6666:7085   */\n      swap2\n      swap1\n      pop\n      jump\t// out\n        /* \"#utility.yul\":7091:7249   */\n    tag_181:\n        /* \"#utility.yul\":7231:7241   */\n      0x42616c20213d2030000000000000000000000000000000000000000000000000\n        /* \"#utility.yul\":7227:7228   */\n      0x00\n        /* \"#utility.yul\":7219:7225   */\n      dup3\n        /* \"#utility.yul\":7215:7229   */\n      add\n        /* \"#utility.yul\":7208:7242   */\n      mstore\n        /* \"#utility.yul\":7091:7249   */\n      pop\n      jump\t// out\n        /* \"#utility.yul\":7255:7620   */\n    tag_182:\n        /* \"#utility.yul\":7397:7400   */\n      0x00\n        /* \"#utility.yul\":7418:7484   */\n      tag_290\n        /* \"#utility.yul\":7482:7483   */\n      0x08\n        /* \"#utility.yul\":7477:7480   */\n      dup4\n        /* \"#utility.yul\":7418:7484   */\n      tag_178\n      jump\t// in\n    tag_290:\n        /* \"#utility.yul\":7411:7484   */\n      swap2\n      pop\n        /* \"#utility.yul\":7493:7586   */\n      tag_291\n        /* \"#utility.yul\":7582:7585   */\n      dup3\n        /* \"#utility.yul\":7493:7586   */\n      tag_181\n      jump\t// in\n    tag_291:\n        /* \"#utility.yul\":7611:7613   */\n      0x20\n        /* \"#utility.yul\":7606:7609   */\n      dup3\n        /* \"#utility.yul\":7602:7614   */\n      add\n        /* \"#utility.yul\":7595:7614   */\n      swap1\n      pop\n        /* \"#utility.yul\":7255:7620   */\n      swap2\n      swap1\n      pop\n      jump\t// out\n        /* \"#utility.yul\":7626:8045   */\n    tag_77:\n        /* \"#utility.yul\":7792:7796   */\n      0x00\n        /* \"#utility.yul\":7830:7832   */\n      0x20\n        /* \"#utility.yul\":7819:7828   */\n      dup3\n        /* \"#utility.yul\":7815:7833   */\n      add\n        /* \"#utility.yul\":7807:7833   */\n      swap1\n      pop\n        /* \"#utility.yul\":7879:7888   */\n      dup2\n        /* \"#utility.yul\":7873:7877   */\n      dup2\n        /* \"#utility.yul\":7869:7889   */\n      sub\n        /* \"#utility.yul\":7865:7866   */\n      0x00\n        /* \"#utility.yul\":7854:7863   */\n      dup4\n        /* \"#utility.yul\":7850:7867   */\n      add\n        /* \"#utility.yul\":7843:7890   */\n      mstore\n        /* \"#utility.yul\":7907:8038   */\n      tag_293\n        /* \"#utility.yul\":8033:8037   */\n      dup2\n        /* \"#utility.yul\":7907:8038   */\n      tag_182\n      jump\t// in\n    tag_293:\n        /* \"#utility.yul\":7899:8038   */\n      swap1\n      pop\n        /* \"#utility.yul\":7626:8045   */\n      swap2\n      swap1\n      pop\n      jump\t// out\n        /* \"#utility.yul\":8051:8231   */\n    tag_183:\n        /* \"#utility.yul\":8099:8176   */\n      0x4e487b7100000000000000000000000000000000000000000000000000000000\n        /* \"#utility.yul\":8096:8097   */\n      0x00\n        /* \"#utility.yul\":8089:8177   */\n      mstore\n        /* \"#utility.yul\":8196:8200   */\n      0x11\n        /* \"#utility.yul\":8193:8194   */\n      0x04\n        /* \"#utility.yul\":8186:8201   */\n      mstore\n        /* \"#utility.yul\":8220:8224   */\n      0x24\n        /* \"#utility.yul\":8217:8218   */\n      0x00\n        /* \"#utility.yul\":8210:8225   */\n      revert\n        /* \"#utility.yul\":8237:8408   */\n    tag_79:\n        /* \"#utility.yul\":8276:8279   */\n      0x00\n        /* \"#utility.yul\":8299:8323   */\n      tag_296\n        /* \"#utility.yul\":8317:8322   */\n      dup3\n        /* \"#utility.yul\":8299:8323   */\n      tag_155\n      jump\t// in\n    tag_296:\n        /* \"#utility.yul\":8290:8323   */\n      swap2\n      pop\n        /* \"#utility.yul\":8345:8349   */\n      0x00\n        /* \"#utility.yul\":8338:8343   */\n      dup3\n        /* \"#utility.yul\":8335:8350   */\n      sub\n        /* \"#utility.yul\":8332:8373   */\n      tag_297\n      jumpi\n        /* \"#utility.yul\":8353:8371   */\n      tag_298\n      tag_183\n      jump\t// in\n    tag_298:\n        /* \"#utility.yul\":8332:8373   */\n    tag_297:\n        /* \"#utility.yul\":8400:8401   */\n      0x01\n        /* \"#utility.yul\":8393:8398   */\n      dup3\n        /* \"#utility.yul\":8389:8402   */\n      sub\n        /* \"#utility.yul\":8382:8402   */\n      swap1\n      pop\n        /* \"#utility.yul\":8237:8408   */\n      swap2\n      swap1\n      pop\n      jump\t// out\n        /* \"#utility.yul\":8414:8579   */\n    tag_184:\n        /* \"#utility.yul\":8554:8571   */\n      0x506c6564676564203e3d20476f616c0000000000000000000000000000000000\n        /* \"#utility.yul\":8550:8551   */\n      0x00\n        /* \"#utility.yul\":8542:8548   */\n      dup3\n        /* \"#utility.yul\":8538:8552   */\n      add\n        /* \"#utility.yul\":8531:8572   */\n      mstore\n        /* \"#utility.yul\":8414:8579   */\n      pop\n      jump\t// out\n        /* \"#utility.yul\":8585:8951   */\n    tag_185:\n        /* \"#utility.yul\":8727:8730   */\n      0x00\n        /* \"#utility.yul\":8748:8815   */\n      tag_301\n        /* \"#utility.yul\":8812:8814   */\n      0x0f\n        /* \"#utility.yul\":8807:8810   */\n      dup4\n        /* \"#utility.yul\":8748:8815   */\n      tag_178\n      jump\t// in\n    tag_301:\n        /* \"#utility.yul\":8741:8815   */\n      swap2\n      pop\n        /* \"#utility.yul\":8824:8917   */\n      tag_302\n        /* \"#utility.yul\":8913:8916   */\n      dup3\n        /* \"#utility.yul\":8824:8917   */\n      tag_184\n      jump\t// in\n    tag_302:\n        /* \"#utility.yul\":8942:8944   */\n      0x20\n        /* \"#utility.yul\":8937:8940   */\n      dup3\n        /* \"#utility.yul\":8933:8945   */\n      add\n        /* \"#utility.yul\":8926:8945   */\n      swap1\n      pop\n        /* \"#utility.yul\":8585:8951   */\n      swap2\n      swap1\n      pop\n      jump\t// out\n        /* \"#utility.yul\":8957:9376   */\n    tag_85:\n        /* \"#utility.yul\":9123:9127   */\n      0x00\n        /* \"#utility.yul\":9161:9163   */\n      0x20\n        /* \"#utility.yul\":9150:9159   */\n      dup3\n        /* \"#utility.yul\":9146:9164   */\n      add\n        /* \"#utility.yul\":9138:9164   */\n      swap1\n      pop\n        /* \"#utility.yul\":9210:9219   */\n      dup2\n        /* \"#utility.yul\":9204:9208   */\n      dup2\n        /* \"#utility.yul\":9200:9220   */\n      sub\n        /* \"#utility.yul\":9196:9197   */\n      0x00\n        /* \"#utility.yul\":9185:9194   */\n      dup4\n        /* \"#utility.yul\":9181:9198   */\n      add\n        /* \"#utility.yul\":9174:9221   */\n      mstore\n        /* \"#utility.yul\":9238:9369   */\n      tag_304\n        /* \"#utility.yul\":9364:9368   */\n      dup2\n        /* \"#utility.yul\":9238:9369   */\n      tag_185\n      jump\t// in\n    tag_304:\n        /* \"#utility.yul\":9230:9369   */\n      swap1\n      pop\n        /* \"#utility.yul\":8957:9376   */\n      swap2\n      swap1\n      pop\n      jump\t// out\n        /* \"#utility.yul\":9382:9714   */\n    tag_87:\n        /* \"#utility.yul\":9503:9507   */\n      0x00\n        /* \"#utility.yul\":9541:9543   */\n      0x40\n        /* \"#utility.yul\":9530:9539   */\n      dup3\n        /* \"#utility.yul\":9526:9544   */\n      add\n        /* \"#utility.yul\":9518:9544   */\n      swap1\n      pop\n        /* \"#utility.yul\":9554:9625   */\n      tag_306\n        /* \"#utility.yul\":9622:9623   */\n      0x00\n        /* \"#utility.yul\":9611:9620   */\n      dup4\n        /* \"#utility.yul\":9607:9624   */\n      add\n        /* \"#utility.yul\":9598:9604   */\n      dup6\n        /* \"#utility.yul\":9554:9625   */\n      tag_164\n      jump\t// in\n    tag_306:\n        /* \"#utility.yul\":9635:9707   */\n      tag_307\n        /* \"#utility.yul\":9703:9705   */\n      0x20\n        /* \"#utility.yul\":9692:9701   */\n      dup4\n        /* \"#utility.yul\":9688:9706   */\n      add\n        /* \"#utility.yul\":9679:9685   */\n      dup5\n        /* \"#utility.yul\":9635:9707   */\n      tag_156\n      jump\t// in\n    tag_307:\n        /* \"#utility.yul\":9382:9714   */\n      swap4\n      swap3\n      pop\n      pop\n      pop\n      jump\t// out\n        /* \"#utility.yul\":9720:9836   */\n    tag_186:\n        /* \"#utility.yul\":9790:9811   */\n      tag_309\n        /* \"#utility.yul\":9805:9810   */\n      dup2\n        /* \"#utility.yul\":9790:9811   */\n      tag_167\n      jump\t// in\n    tag_309:\n        /* \"#utility.yul\":9783:9788   */\n      dup2\n        /* \"#utility.yul\":9780:9812   */\n      eq\n        /* \"#utility.yul\":9770:9830   */\n      tag_310\n      jumpi\n        /* \"#utility.yul\":9826:9827   */\n      0x00\n        /* \"#utility.yul\":9823:9824   */\n      dup1\n        /* \"#utility.yul\":9816:9828   */\n      revert\n        /* \"#utility.yul\":9770:9830   */\n    tag_310:\n        /* \"#utility.yul\":9720:9836   */\n      pop\n      jump\t// out\n        /* \"#utility.yul\":9842:9979   */\n    tag_187:\n        /* \"#utility.yul\":9896:9901   */\n      0x00\n        /* \"#utility.yul\":9927:9933   */\n      dup2\n        /* \"#utility.yul\":9921:9934   */\n      mload\n        /* \"#utility.yul\":9912:9934   */\n      swap1\n      pop\n        /* \"#utility.yul\":9943:9973   */\n      tag_312\n        /* \"#utility.yul\":9967:9972   */\n      dup2\n        /* \"#utility.yul\":9943:9973   */\n      tag_186\n      jump\t// in\n    tag_312:\n        /* \"#utility.yul\":9842:9979   */\n      swap3\n      swap2\n      pop\n      pop\n      jump\t// out\n        /* \"#utility.yul\":9985:10330   */\n    tag_91:\n        /* \"#utility.yul\":10052:10058   */\n      0x00\n        /* \"#utility.yul\":10101:10103   */\n      0x20\n        /* \"#utility.yul\":10089:10098   */\n      dup3\n        /* \"#utility.yul\":10080:10087   */\n      dup5\n        /* \"#utility.yul\":10076:10099   */\n      sub\n        /* \"#utility.yul\":10072:10104   */\n      slt\n        /* \"#utility.yul\":10069:10188   */\n      iszero\n      tag_314\n      jumpi\n        /* \"#utility.yul\":10107:10186   */\n      tag_315\n      tag_158\n      jump\t// in\n    tag_315:\n        /* \"#utility.yul\":10069:10188   */\n    tag_314:\n        /* \"#utility.yul\":10227:10228   */\n      0x00\n        /* \"#utility.yul\":10252:10313   */\n      tag_316\n        /* \"#utility.yul\":10305:10312   */\n      dup5\n        /* \"#utility.yul\":10296:10302   */\n      dup3\n        /* \"#utility.yul\":10285:10294   */\n      dup6\n        /* \"#utility.yul\":10281:10303   */\n      add\n        /* \"#utility.yul\":10252:10313   */\n      tag_187\n      jump\t// in\n    tag_316:\n        /* \"#utility.yul\":10242:10313   */\n      swap2\n      pop\n        /* \"#utility.yul\":10198:10323   */\n      pop\n        /* \"#utility.yul\":9985:10330   */\n      swap3\n      swap2\n      pop\n      pop\n      jump\t// out\n        /* \"#utility.yul\":10336:10668   */\n    tag_93:\n        /* \"#utility.yul\":10457:10461   */\n      0x00\n        /* \"#utility.yul\":10495:10497   */\n      0x40\n        /* \"#utility.yul\":10484:10493   */\n      dup3\n        /* \"#utility.yul\":10480:10498   */\n      add\n        /* \"#utility.yul\":10472:10498   */\n      swap1\n      pop\n        /* \"#utility.yul\":10508:10579   */\n      tag_318\n        /* \"#utility.yul\":10576:10577   */\n      0x00\n        /* \"#utility.yul\":10565:10574   */\n      dup4\n        /* \"#utility.yul\":10561:10578   */\n      add\n        /* \"#utility.yul\":10552:10558   */\n      dup6\n        /* \"#utility.yul\":10508:10579   */\n      tag_156\n      jump\t// in\n    tag_318:\n        /* \"#utility.yul\":10589:10661   */\n      tag_319\n        /* \"#utility.yul\":10657:10659   */\n      0x20\n        /* \"#utility.yul\":10646:10655   */\n      dup4\n        /* \"#utility.yul\":10642:10660   */\n      add\n        /* \"#utility.yul\":10633:10639   */\n      dup5\n        /* \"#utility.yul\":10589:10661   */\n      tag_156\n      jump\t// in\n    tag_319:\n        /* \"#utility.yul\":10336:10668   */\n      swap4\n      swap3\n      pop\n      pop\n      pop\n      jump\t// out\n        /* \"#utility.yul\":10674:10833   */\n    tag_188:\n        /* \"#utility.yul\":10814:10825   */\n      0x73746172743c6e6f770000000000000000000000000000000000000000000000\n        /* \"#utility.yul\":10810:10811   */\n      0x00\n        /* \"#utility.yul\":10802:10808   */\n      dup3\n        /* \"#utility.yul\":10798:10812   */\n      add\n        /* \"#utility.yul\":10791:10826   */\n      mstore\n        /* \"#utility.yul\":10674:10833   */\n      pop\n      jump\t// out\n        /* \"#utility.yul\":10839:11204   */\n    tag_189:\n        /* \"#utility.yul\":10981:10984   */\n      0x00\n        /* \"#utility.yul\":11002:11068   */\n      tag_322\n        /* \"#utility.yul\":11066:11067   */\n      0x09\n        /* \"#utility.yul\":11061:11064   */\n      dup4\n        /* \"#utility.yul\":11002:11068   */\n      tag_178\n      jump\t// in\n    tag_322:\n        /* \"#utility.yul\":10995:11068   */\n      swap2\n      pop\n        /* \"#utility.yul\":11077:11170   */\n      tag_323\n        /* \"#utility.yul\":11166:11169   */\n      dup3\n        /* \"#utility.yul\":11077:11170   */\n      tag_188\n      jump\t// in\n    tag_323:\n        /* \"#utility.yul\":11195:11197   */\n      0x20\n        /* \"#utility.yul\":11190:11193   */\n      dup3\n        /* \"#utility.yul\":11186:11198   */\n      add\n        /* \"#utility.yul\":11179:11198   */\n      swap1\n      pop\n        /* \"#utility.yul\":10839:11204   */\n      swap2\n      swap1\n      pop\n      jump\t// out\n        /* \"#utility.yul\":11210:11629   */\n    tag_97:\n        /* \"#utility.yul\":11376:11380   */\n      0x00\n        /* \"#utility.yul\":11414:11416   */\n      0x20\n        /* \"#utility.yul\":11403:11412   */\n      dup3\n        /* \"#utility.yul\":11399:11417   */\n      add\n        /* \"#utility.yul\":11391:11417   */\n      swap1\n      pop\n        /* \"#utility.yul\":11463:11472   */\n      dup2\n        /* \"#utility.yul\":11457:11461   */\n      dup2\n        /* \"#utility.yul\":11453:11473   */\n      sub\n        /* \"#utility.yul\":11449:11450   */\n      0x00\n        /* \"#utility.yul\":11438:11447   */\n      dup4\n        /* \"#utility.yul\":11434:11451   */\n      add\n        /* \"#utility.yul\":11427:11474   */\n      mstore\n        /* \"#utility.yul\":11491:11622   */\n      tag_325\n        /* \"#utility.yul\":11617:11621   */\n      dup2\n        /* \"#utility.yul\":11491:11622   */\n      tag_189\n      jump\t// in\n    tag_325:\n        /* \"#utility.yul\":11483:11622   */\n      swap1\n      pop\n        /* \"#utility.yul\":11210:11629   */\n      swap2\n      swap1\n      pop\n      jump\t// out\n        /* \"#utility.yul\":11635:11794   */\n    tag_190:\n        /* \"#utility.yul\":11775:11786   */\n      0x73746172743c656e640000000000000000000000000000000000000000000000\n        /* \"#utility.yul\":11771:11772   */\n      0x00\n        /* \"#utility.yul\":11763:11769   */\n      dup3\n        /* \"#utility.yul\":11759:11773   */\n      add\n        /* \"#utility.yul\":11752:11787   */\n      mstore\n        /* \"#utility.yul\":11635:11794   */\n      pop\n      jump\t// out\n        /* \"#utility.yul\":11800:12165   */\n    tag_191:\n        /* \"#utility.yul\":11942:11945   */\n      0x00\n        /* \"#utility.yul\":11963:12029   */\n      tag_328\n        /* \"#utility.yul\":12027:12028   */\n      0x09\n        /* \"#utility.yul\":12022:12025   */\n      dup4\n        /* \"#utility.yul\":11963:12029   */\n      tag_178\n      jump\t// in\n    tag_328:\n        /* \"#utility.yul\":11956:12029   */\n      swap2\n      pop\n        /* \"#utility.yul\":12038:12131   */\n      tag_329\n        /* \"#utility.yul\":12127:12130   */\n      dup3\n        /* \"#utility.yul\":12038:12131   */\n      tag_190\n      jump\t// in\n    tag_329:\n        /* \"#utility.yul\":12156:12158   */\n      0x20\n        /* \"#utility.yul\":12151:12154   */\n      dup3\n        /* \"#utility.yul\":12147:12159   */\n      add\n        /* \"#utility.yul\":12140:12159   */\n      swap1\n      pop\n        /* \"#utility.yul\":11800:12165   */\n      swap2\n      swap1\n      pop\n      jump\t// out\n        /* \"#utility.yul\":12171:12590   */\n    tag_100:\n        /* \"#utility.yul\":12337:12341   */\n      0x00\n        /* \"#utility.yul\":12375:12377   */\n      0x20\n        /* \"#utility.yul\":12364:12373   */\n      dup3\n        /* \"#utility.yul\":12360:12378   */\n      add\n        /* \"#utility.yul\":12352:12378   */\n      swap1\n      pop\n        /* \"#utility.yul\":12424:12433   */\n      dup2\n        /* \"#utility.yul\":12418:12422   */\n      dup2\n        /* \"#utility.yul\":12414:12434   */\n      sub\n        /* \"#utility.yul\":12410:12411   */\n      0x00\n        /* \"#utility.yul\":12399:12408   */\n      dup4\n        /* \"#utility.yul\":12395:12412   */\n      add\n        /* \"#utility.yul\":12388:12435   */\n      mstore\n        /* \"#utility.yul\":12452:12583   */\n      tag_331\n        /* \"#utility.yul\":12578:12582   */\n      dup2\n        /* \"#utility.yul\":12452:12583   */\n      tag_191\n      jump\t// in\n    tag_331:\n        /* \"#utility.yul\":12444:12583   */\n      swap1\n      pop\n        /* \"#utility.yul\":12171:12590   */\n      swap2\n      swap1\n      pop\n      jump\t// out\n        /* \"#utility.yul\":12596:12787   */\n    tag_102:\n        /* \"#utility.yul\":12636:12639   */\n      0x00\n        /* \"#utility.yul\":12655:12675   */\n      tag_333\n        /* \"#utility.yul\":12673:12674   */\n      dup3\n        /* \"#utility.yul\":12655:12675   */\n      tag_155\n      jump\t// in\n    tag_333:\n        /* \"#utility.yul\":12650:12675   */\n      swap2\n      pop\n        /* \"#utility.yul\":12689:12709   */\n      tag_334\n        /* \"#utility.yul\":12707:12708   */\n      dup4\n        /* \"#utility.yul\":12689:12709   */\n      tag_155\n      jump\t// in\n    tag_334:\n        /* \"#utility.yul\":12684:12709   */\n      swap3\n      pop\n        /* \"#utility.yul\":12732:12733   */\n      dup3\n        /* \"#utility.yul\":12729:12730   */\n      dup3\n        /* \"#utility.yul\":12725:12734   */\n      add\n        /* \"#utility.yul\":12718:12734   */\n      swap1\n      pop\n        /* \"#utility.yul\":12753:12756   */\n      dup1\n        /* \"#utility.yul\":12750:12751   */\n      dup3\n        /* \"#utility.yul\":12747:12757   */\n      gt\n        /* \"#utility.yul\":12744:12780   */\n      iszero\n      tag_335\n      jumpi\n        /* \"#utility.yul\":12760:12778   */\n      tag_336\n      tag_183\n      jump\t// in\n    tag_336:\n        /* \"#utility.yul\":12744:12780   */\n    tag_335:\n        /* \"#utility.yul\":12596:12787   */\n      swap3\n      swap2\n      pop\n      pop\n      jump\t// out\n        /* \"#utility.yul\":12793:12954   */\n    tag_192:\n        /* \"#utility.yul\":12933:12946   */\n      0x6475723c6d61785f647572000000000000000000000000000000000000000000\n        /* \"#utility.yul\":12929:12930   */\n      0x00\n        /* \"#utility.yul\":12921:12927   */\n      dup3\n        /* \"#utility.yul\":12917:12931   */\n      add\n        /* \"#utility.yul\":12910:12947   */\n      mstore\n        /* \"#utility.yul\":12793:12954   */\n      pop\n      jump\t// out\n        /* \"#utility.yul\":12960:13326   */\n    tag_193:\n        /* \"#utility.yul\":13102:13105   */\n      0x00\n        /* \"#utility.yul\":13123:13190   */\n      tag_339\n        /* \"#utility.yul\":13187:13189   */\n      0x0b\n        /* \"#utility.yul\":13182:13185   */\n      dup4\n        /* \"#utility.yul\":13123:13190   */\n      tag_178\n      jump\t// in\n    tag_339:\n        /* \"#utility.yul\":13116:13190   */\n      swap2\n      pop\n        /* \"#utility.yul\":13199:13292   */\n      tag_340\n        /* \"#utility.yul\":13288:13291   */\n      dup3\n        /* \"#utility.yul\":13199:13292   */\n      tag_192\n      jump\t// in\n    tag_340:\n        /* \"#utility.yul\":13317:13319   */\n      0x20\n        /* \"#utility.yul\":13312:13315   */\n      dup3\n        /* \"#utility.yul\":13308:13320   */\n      add\n        /* \"#utility.yul\":13301:13320   */\n      swap1\n      pop\n        /* \"#utility.yul\":12960:13326   */\n      swap2\n      swap1\n      pop\n      jump\t// out\n        /* \"#utility.yul\":13332:13751   */\n    tag_105:\n        /* \"#utility.yul\":13498:13502   */\n      0x00\n        /* \"#utility.yul\":13536:13538   */\n      0x20\n        /* \"#utility.yul\":13525:13534   */\n      dup3\n        /* \"#utility.yul\":13521:13539   */\n      add\n        /* \"#utility.yul\":13513:13539   */\n      swap1\n      pop\n        /* \"#utility.yul\":13585:13594   */\n      dup2\n        /* \"#utility.yul\":13579:13583   */\n      dup2\n        /* \"#utility.yul\":13575:13595   */\n      sub\n        /* \"#utility.yul\":13571:13572   */\n      0x00\n        /* \"#utility.yul\":13560:13569   */\n      dup4\n        /* \"#utility.yul\":13556:13573   */\n      add\n        /* \"#utility.yul\":13549:13596   */\n      mstore\n        /* \"#utility.yul\":13613:13744   */\n      tag_342\n        /* \"#utility.yul\":13739:13743   */\n      dup2\n        /* \"#utility.yul\":13613:13744   */\n      tag_193\n      jump\t// in\n    tag_342:\n        /* \"#utility.yul\":13605:13744   */\n      swap1\n      pop\n        /* \"#utility.yul\":13332:13751   */\n      swap2\n      swap1\n      pop\n      jump\t// out\n        /* \"#utility.yul\":13757:14302   */\n    tag_107:\n        /* \"#utility.yul\":13930:13934   */\n      0x00\n        /* \"#utility.yul\":13968:13971   */\n      0x80\n        /* \"#utility.yul\":13957:13966   */\n      dup3\n        /* \"#utility.yul\":13953:13972   */\n      add\n        /* \"#utility.yul\":13945:13972   */\n      swap1\n      pop\n        /* \"#utility.yul\":13982:14053   */\n      tag_344\n        /* \"#utility.yul\":14050:14051   */\n      0x00\n        /* \"#utility.yul\":14039:14048   */\n      dup4\n        /* \"#utility.yul\":14035:14052   */\n      add\n        /* \"#utility.yul\":14026:14032   */\n      dup8\n        /* \"#utility.yul\":13982:14053   */\n      tag_156\n      jump\t// in\n    tag_344:\n        /* \"#utility.yul\":14063:14135   */\n      tag_345\n        /* \"#utility.yul\":14131:14133   */\n      0x20\n        /* \"#utility.yul\":14120:14129   */\n      dup4\n        /* \"#utility.yul\":14116:14134   */\n      add\n        /* \"#utility.yul\":14107:14113   */\n      dup7\n        /* \"#utility.yul\":14063:14135   */\n      tag_156\n      jump\t// in\n    tag_345:\n        /* \"#utility.yul\":14145:14215   */\n      tag_346\n        /* \"#utility.yul\":14211:14213   */\n      0x40\n        /* \"#utility.yul\":14200:14209   */\n      dup4\n        /* \"#utility.yul\":14196:14214   */\n      add\n        /* \"#utility.yul\":14187:14193   */\n      dup6\n        /* \"#utility.yul\":14145:14215   */\n      tag_166\n      jump\t// in\n    tag_346:\n        /* \"#utility.yul\":14225:14295   */\n      tag_347\n        /* \"#utility.yul\":14291:14293   */\n      0x60\n        /* \"#utility.yul\":14280:14289   */\n      dup4\n        /* \"#utility.yul\":14276:14294   */\n      add\n        /* \"#utility.yul\":14267:14273   */\n      dup5\n        /* \"#utility.yul\":14225:14295   */\n      tag_166\n      jump\t// in\n    tag_347:\n        /* \"#utility.yul\":13757:14302   */\n      swap6\n      swap5\n      pop\n      pop\n      pop\n      pop\n      pop\n      jump\t// out\n        /* \"#utility.yul\":14308:14541   */\n    tag_109:\n        /* \"#utility.yul\":14347:14350   */\n      0x00\n        /* \"#utility.yul\":14370:14394   */\n      tag_349\n        /* \"#utility.yul\":14388:14393   */\n      dup3\n        /* \"#utility.yul\":14370:14394   */\n      tag_155\n      jump\t// in\n    tag_349:\n        /* \"#utility.yul\":14361:14394   */\n      swap2\n      pop\n        /* \"#utility.yul\":14416:14482   */\n      0xffffffffffffffffffffffffffffffffffffffffffffffffffffffffffffffff\n        /* \"#utility.yul\":14409:14414   */\n      dup3\n        /* \"#utility.yul\":14406:14483   */\n      sub\n        /* \"#utility.yul\":14403:14506   */\n      tag_350\n      jumpi\n        /* \"#utility.yul\":14486:14504   */\n      tag_351\n      tag_183\n      jump\t// in\n    tag_351:\n        /* \"#utility.yul\":14403:14506   */\n    tag_350:\n        /* \"#utility.yul\":14533:14534   */\n      0x01\n        /* \"#utility.yul\":14526:14531   */\n      dup3\n        /* \"#utility.yul\":14522:14535   */\n      add\n        /* \"#utility.yul\":14515:14535   */\n      swap1\n      pop\n        /* \"#utility.yul\":14308:14541   */\n      swap2\n      swap1\n      pop\n      jump\t// out\n        /* \"#utility.yul\":14547:14708   */\n    tag_194:\n        /* \"#utility.yul\":14687:14700   */\n      0x6e6f742063726561746f72000000000000000000000000000000000000000000\n        /* \"#utility.yul\":14683:14684   */\n      0x00\n        /* \"#utility.yul\":14675:14681   */\n      dup3\n        /* \"#utility.yul\":14671:14685   */\n      add\n        /* \"#utility.yul\":14664:14701   */\n      mstore\n        /* \"#utility.yul\":14547:14708   */\n      pop\n      jump\t// out\n        /* \"#utility.yul\":14714:15080   */\n    tag_195:\n        /* \"#utility.yul\":14856:14859   */\n      0x00\n        /* \"#utility.yul\":14877:14944   */\n      tag_354\n        /* \"#utility.yul\":14941:14943   */\n      0x0b\n        /* \"#utility.yul\":14936:14939   */\n      dup4\n        /* \"#utility.yul\":14877:14944   */\n      tag_178\n      jump\t// in\n    tag_354:\n        /* \"#utility.yul\":14870:14944   */\n      swap2\n      pop\n        /* \"#utility.yul\":14953:15046   */\n      tag_355\n        /* \"#utility.yul\":15042:15045   */\n      dup3\n        /* \"#utility.yul\":14953:15046   */\n      tag_194\n      jump\t// in\n    tag_355:\n        /* \"#utility.yul\":15071:15073   */\n      0x20\n        /* \"#utility.yul\":15066:15069   */\n      dup3\n        /* \"#utility.yul\":15062:15074   */\n      add\n        /* \"#utility.yul\":15055:15074   */\n      swap1\n      pop\n        /* \"#utility.yul\":14714:15080   */\n      swap2\n      swap1\n      pop\n      jump\t// out\n        /* \"#utility.yul\":15086:15505   */\n    tag_114:\n        /* \"#utility.yul\":15252:15256   */\n      0x00\n        /* \"#utility.yul\":15290:15292   */\n      0x20\n        /* \"#utility.yul\":15279:15288   */\n      dup3\n        /* \"#utility.yul\":15275:15293   */\n      add\n        /* \"#utility.yul\":15267:15293   */\n      swap1\n      pop\n        /* \"#utility.yul\":15339:15348   */\n      dup2\n        /* \"#utility.yul\":15333:15337   */\n      dup2\n        /* \"#utility.yul\":15329:15349   */\n      sub\n        /* \"#utility.yul\":15325:15326   */\n      0x00\n        /* \"#utility.yul\":15314:15323   */\n      dup4\n        /* \"#utility.yul\":15310:15327   */\n      add\n        /* \"#utility.yul\":15303:15350   */\n      mstore\n        /* \"#utility.yul\":15367:15498   */\n      tag_357\n        /* \"#utility.yul\":15493:15497   */\n      dup2\n        /* \"#utility.yul\":15367:15498   */\n      tag_195\n      jump\t// in\n    tag_357:\n        /* \"#utility.yul\":15359:15498   */\n      swap1\n      pop\n        /* \"#utility.yul\":15086:15505   */\n      swap2\n      swap1\n      pop\n      jump\t// out\n        /* \"#utility.yul\":15511:15670   */\n    tag_196:\n        /* \"#utility.yul\":15651:15662   */\n      0x6e6f7420656e6465640000000000000000000000000000000000000000000000\n        /* \"#utility.yul\":15647:15648   */\n      0x00\n        /* \"#utility.yul\":15639:15645   */\n      dup3\n        /* \"#utility.yul\":15635:15649   */\n      add\n        /* \"#utility.yul\":15628:15663   */\n      mstore\n        /* \"#utility.yul\":15511:15670   */\n      pop\n      jump\t// out\n        /* \"#utility.yul\":15676:16041   */\n    tag_197:\n        /* \"#utility.yul\":15818:15821   */\n      0x00\n        /* \"#utility.yul\":15839:15905   */\n      tag_360\n        /* \"#utility.yul\":15903:15904   */\n      0x09\n        /* \"#utility.yul\":15898:15901   */\n      dup4\n        /* \"#utility.yul\":15839:15905   */\n      tag_178\n      jump\t// in\n    tag_360:\n        /* \"#utility.yul\":15832:15905   */\n      swap2\n      pop\n        /* \"#utility.yul\":15914:16007   */\n      tag_361\n        /* \"#utility.yul\":16003:16006   */\n      dup3\n        /* \"#utility.yul\":15914:16007   */\n      tag_196\n      jump\t// in\n    tag_361:\n        /* \"#utility.yul\":16032:16034   */\n      0x20\n        /* \"#utility.yul\":16027:16030   */\n      dup3\n        /* \"#utility.yul\":16023:16035   */\n      add\n        /* \"#utility.yul\":16016:16035   */\n      swap1\n      pop\n        /* \"#utility.yul\":15676:16041   */\n      swap2\n      swap1\n      pop\n      jump\t// out\n        /* \"#utility.yul\":16047:16466   */\n    tag_117:\n        /* \"#utility.yul\":16213:16217   */\n      0x00\n        /* \"#utility.yul\":16251:16253   */\n      0x20\n        /* \"#utility.yul\":16240:16249   */\n      dup3\n        /* \"#utility.yul\":16236:16254   */\n      add\n        /* \"#utility.yul\":16228:16254   */\n      swap1\n      pop\n        /* \"#utility.yul\":16300:16309   */\n      dup2\n        /* \"#utility.yul\":16294:16298   */\n      dup2\n        /* \"#utility.yul\":16290:16310   */\n      sub\n        /* \"#utility.yul\":16286:16287   */\n      0x00\n        /* \"#utility.yul\":16275:16284   */\n      dup4\n        /* \"#utility.yul\":16271:16288   */\n      add\n        /* \"#utility.yul\":16264:16311   */\n      mstore\n        /* \"#utility.yul\":16328:16459   */\n      tag_363\n        /* \"#utility.yul\":16454:16458   */\n      dup2\n        /* \"#utility.yul\":16328:16459   */\n      tag_197\n      jump\t// in\n    tag_363:\n        /* \"#utility.yul\":16320:16459   */\n      swap1\n      pop\n        /* \"#utility.yul\":16047:16466   */\n      swap2\n      swap1\n      pop\n      jump\t// out\n        /* \"#utility.yul\":16472:16636   */\n    tag_198:\n        /* \"#utility.yul\":16612:16628   */\n      0x706c6564676564203c20676f616c000000000000000000000000000000000000\n        /* \"#utility.yul\":16608:16609   */\n      0x00\n        /* \"#utility.yul\":16600:16606   */\n      dup3\n        /* \"#utility.yul\":16596:16610   */\n      add\n        /* \"#utility.yul\":16589:16629   */\n      mstore\n        /* \"#utility.yul\":16472:16636   */\n      pop\n      jump\t// out\n        /* \"#utility.yul\":16642:17008   */\n    tag_199:\n        /* \"#utility.yul\":16784:16787   */\n      0x00\n        /* \"#utility.yul\":16805:16872   */\n      tag_366\n        /* \"#utility.yul\":16869:16871   */\n      0x0e\n        /* \"#utility.yul\":16864:16867   */\n      dup4\n        /* \"#utility.yul\":16805:16872   */\n      tag_178\n      jump\t// in\n    tag_366:\n        /* \"#utility.yul\":16798:16872   */\n      swap2\n      pop\n        /* \"#utility.yul\":16881:16974   */\n      tag_367\n        /* \"#utility.yul\":16970:16973   */\n      dup3\n        /* \"#utility.yul\":16881:16974   */\n      tag_198\n      jump\t// in\n    tag_367:\n        /* \"#utility.yul\":16999:17001   */\n      0x20\n        /* \"#utility.yul\":16994:16997   */\n      dup3\n        /* \"#utility.yul\":16990:17002   */\n      add\n        /* \"#utility.yul\":16983:17002   */\n      swap1\n      pop\n        /* \"#utility.yul\":16642:17008   */\n      swap2\n      swap1\n      pop\n      jump\t// out\n        /* \"#utility.yul\":17014:17433   */\n    tag_120:\n        /* \"#utility.yul\":17180:17184   */\n      0x00\n        /* \"#utility.yul\":17218:17220   */\n      0x20\n        /* \"#utility.yul\":17207:17216   */\n      dup3\n        /* \"#utility.yul\":17203:17221   */\n      add\n        /* \"#utility.yul\":17195:17221   */\n      swap1\n      pop\n        /* \"#utility.yul\":17267:17276   */\n      dup2\n        /* \"#utility.yul\":17261:17265   */\n      dup2\n        /* \"#utility.yul\":17257:17277   */\n      sub\n        /* \"#utility.yul\":17253:17254   */\n      0x00\n        /* \"#utility.yul\":17242:17251   */\n      dup4\n        /* \"#utility.yul\":17238:17255   */\n      add\n        /* \"#utility.yul\":17231:17278   */\n      mstore\n        /* \"#utility.yul\":17295:17426   */\n      tag_369\n        /* \"#utility.yul\":17421:17425   */\n      dup2\n        /* \"#utility.yul\":17295:17426   */\n      tag_199\n      jump\t// in\n    tag_369:\n        /* \"#utility.yul\":17287:17426   */\n      swap1\n      pop\n        /* \"#utility.yul\":17014:17433   */\n      swap2\n      swap1\n      pop\n      jump\t// out\n        /* \"#utility.yul\":17439:17596   */\n    tag_200:\n        /* \"#utility.yul\":17579:17588   */\n      0x636c61696d656400000000000000000000000000000000000000000000000000\n        /* \"#utility.yul\":17575:17576   */\n      0x00\n        /* \"#utility.yul\":17567:17573   */\n      dup3\n        /* \"#utility.yul\":17563:17577   */\n      add\n        /* \"#utility.yul\":17556:17589   */\n      mstore\n        /* \"#utility.yul\":17439:17596   */\n      pop\n      jump\t// out\n        /* \"#utility.yul\":17602:17967   */\n    tag_201:\n        /* \"#utility.yul\":17744:17747   */\n      0x00\n        /* \"#utility.yul\":17765:17831   */\n      tag_372\n        /* \"#utility.yul\":17829:17830   */\n      0x07\n        /* \"#utility.yul\":17824:17827   */\n      dup4\n        /* \"#utility.yul\":17765:17831   */\n      tag_178\n      jump\t// in\n    tag_372:\n        /* \"#utility.yul\":17758:17831   */\n      swap2\n      pop\n        /* \"#utility.yul\":17840:17933   */\n      tag_373\n        /* \"#utility.yul\":17929:17932   */\n      dup3\n        /* \"#utility.yul\":17840:17933   */\n      tag_200\n      jump\t// in\n    tag_373:\n        /* \"#utility.yul\":17958:17960   */\n      0x20\n        /* \"#utility.yul\":17953:17956   */\n      dup3\n        /* \"#utility.yul\":17949:17961   */\n      add\n        /* \"#utility.yul\":17942:17961   */\n      swap1\n      pop\n        /* \"#utility.yul\":17602:17967   */\n      swap2\n      swap1\n      pop\n      jump\t// out\n        /* \"#utility.yul\":17973:18392   */\n    tag_123:\n        /* \"#utility.yul\":18139:18143   */\n      0x00\n        /* \"#utility.yul\":18177:18179   */\n      0x20\n        /* \"#utility.yul\":18166:18175   */\n      dup3\n        /* \"#utility.yul\":18162:18180   */\n      add\n        /* \"#utility.yul\":18154:18180   */\n      swap1\n      pop\n        /* \"#utility.yul\":18226:18235   */\n      dup2\n        /* \"#utility.yul\":18220:18224   */\n      dup2\n        /* \"#utility.yul\":18216:18236   */\n      sub\n        /* \"#utility.yul\":18212:18213   */\n      0x00\n        /* \"#utility.yul\":18201:18210   */\n      dup4\n        /* \"#utility.yul\":18197:18214   */\n      add\n        /* \"#utility.yul\":18190:18237   */\n      mstore\n        /* \"#utility.yul\":18254:18385   */\n      tag_375\n        /* \"#utility.yul\":18380:18384   */\n      dup2\n        /* \"#utility.yul\":18254:18385   */\n      tag_201\n      jump\t// in\n    tag_375:\n        /* \"#utility.yul\":18246:18385   */\n      swap1\n      pop\n        /* \"#utility.yul\":17973:18392   */\n      swap2\n      swap1\n      pop\n      jump\t// out\n        /* \"#utility.yul\":18398:18553   */\n    tag_202:\n        /* \"#utility.yul\":18538:18545   */\n      0x656e646564000000000000000000000000000000000000000000000000000000\n        /* \"#utility.yul\":18534:18535   */\n      0x00\n        /* \"#utility.yul\":18526:18532   */\n      dup3\n        /* \"#utility.yul\":18522:18536   */\n      add\n        /* \"#utility.yul\":18515:18546   */\n      mstore\n        /* \"#utility.yul\":18398:18553   */\n      pop\n      jump\t// out\n        /* \"#utility.yul\":18559:18924   */\n    tag_203:\n        /* \"#utility.yul\":18701:18704   */\n      0x00\n        /* \"#utility.yul\":18722:18788   */\n      tag_378\n        /* \"#utility.yul\":18786:18787   */\n      0x05\n        /* \"#utility.yul\":18781:18784   */\n      dup4\n        /* \"#utility.yul\":18722:18788   */\n      tag_178\n      jump\t// in\n    tag_378:\n        /* \"#utility.yul\":18715:18788   */\n      swap2\n      pop\n        /* \"#utility.yul\":18797:18890   */\n      tag_379\n        /* \"#utility.yul\":18886:18889   */\n      dup3\n        /* \"#utility.yul\":18797:18890   */\n      tag_202\n      jump\t// in\n    tag_379:\n        /* \"#utility.yul\":18915:18917   */\n      0x20\n        /* \"#utility.yul\":18910:18913   */\n      dup3\n        /* \"#utility.yul\":18906:18918   */\n      add\n        /* \"#utility.yul\":18899:18918   */\n      swap1\n      pop\n        /* \"#utility.yul\":18559:18924   */\n      swap2\n      swap1\n      pop\n      jump\t// out\n        /* \"#utility.yul\":18930:19349   */\n    tag_132:\n        /* \"#utility.yul\":19096:19100   */\n      0x00\n        /* \"#utility.yul\":19134:19136   */\n      0x20\n        /* \"#utility.yul\":19123:19132   */\n      dup3\n        /* \"#utility.yul\":19119:19137   */\n      add\n        /* \"#utility.yul\":19111:19137   */\n      swap1\n      pop\n        /* \"#utility.yul\":19183:19192   */\n      dup2\n        /* \"#utility.yul\":19177:19181   */\n      dup2\n        /* \"#utility.yul\":19173:19193   */\n      sub\n        /* \"#utility.yul\":19169:19170   */\n      0x00\n        /* \"#utility.yul\":19158:19167   */\n      dup4\n        /* \"#utility.yul\":19154:19171   */\n      add\n        /* \"#utility.yul\":19147:19194   */\n      mstore\n        /* \"#utility.yul\":19211:19342   */\n      tag_381\n        /* \"#utility.yul\":19337:19341   */\n      dup2\n        /* \"#utility.yul\":19211:19342   */\n      tag_203\n      jump\t// in\n    tag_381:\n        /* \"#utility.yul\":19203:19342   */\n      swap1\n      pop\n        /* \"#utility.yul\":18930:19349   */\n      swap2\n      swap1\n      pop\n      jump\t// out\n        /* \"#utility.yul\":19355:19549   */\n    tag_134:\n        /* \"#utility.yul\":19395:19399   */\n      0x00\n        /* \"#utility.yul\":19415:19435   */\n      tag_383\n        /* \"#utility.yul\":19433:19434   */\n      dup3\n        /* \"#utility.yul\":19415:19435   */\n      tag_155\n      jump\t// in\n    tag_383:\n        /* \"#utility.yul\":19410:19435   */\n      swap2\n      pop\n        /* \"#utility.yul\":19449:19469   */\n      tag_384\n        /* \"#utility.yul\":19467:19468   */\n      dup4\n        /* \"#utility.yul\":19449:19469   */\n      tag_155\n      jump\t// in\n    tag_384:\n        /* \"#utility.yul\":19444:19469   */\n      swap3\n      pop\n        /* \"#utility.yul\":19493:19494   */\n      dup3\n        /* \"#utility.yul\":19490:19491   */\n      dup3\n        /* \"#utility.yul\":19486:19495   */\n      sub\n        /* \"#utility.yul\":19478:19495   */\n      swap1\n      pop\n        /* \"#utility.yul\":19517:19518   */\n      dup2\n        /* \"#utility.yul\":19511:19515   */\n      dup2\n        /* \"#utility.yul\":19508:19519   */\n      gt\n        /* \"#utility.yul\":19505:19542   */\n      iszero\n      tag_385\n      jumpi\n        /* \"#utility.yul\":19522:19540   */\n      tag_386\n      tag_183\n      jump\t// in\n    tag_386:\n        /* \"#utility.yul\":19505:19542   */\n    tag_385:\n        /* \"#utility.yul\":19355:19549   */\n      swap3\n      swap2\n      pop\n      pop\n      jump\t// out\n        /* \"#utility.yul\":19555:19716   */\n    tag_204:\n        /* \"#utility.yul\":19695:19708   */\n      0x6e6f742073746172746564000000000000000000000000000000000000000000\n        /* \"#utility.yul\":19691:19692   */\n      0x00\n        /* \"#utility.yul\":19683:19689   */\n      dup3\n        /* \"#utility.yul\":19679:19693   */\n      add\n        /* \"#utility.yul\":19672:19709   */\n      mstore\n        /* \"#utility.yul\":19555:19716   */\n      pop\n      jump\t// out\n        /* \"#utility.yul\":19722:20088   */\n    tag_205:\n        /* \"#utility.yul\":19864:19867   */\n      0x00\n        /* \"#utility.yul\":19885:19952   */\n      tag_389\n        /* \"#utility.yul\":19949:19951   */\n      0x0b\n        /* \"#utility.yul\":19944:19947   */\n      dup4\n        /* \"#utility.yul\":19885:19952   */\n      tag_178\n      jump\t// in\n    tag_389:\n        /* \"#utility.yul\":19878:19952   */\n      swap2\n      pop\n        /* \"#utility.yul\":19961:20054   */\n      tag_390\n        /* \"#utility.yul\":20050:20053   */\n      dup3\n        /* \"#utility.yul\":19961:20054   */\n      tag_204\n      jump\t// in\n    tag_390:\n        /* \"#utility.yul\":20079:20081   */\n      0x20\n        /* \"#utility.yul\":20074:20077   */\n      dup3\n        /* \"#utility.yul\":20070:20082   */\n      add\n        /* \"#utility.yul\":20063:20082   */\n      swap1\n      pop\n        /* \"#utility.yul\":19722:20088   */\n      swap2\n      swap1\n      pop\n      jump\t// out\n        /* \"#utility.yul\":20094:20513   */\n    tag_144:\n        /* \"#utility.yul\":20260:20264   */\n      0x00\n        /* \"#utility.yul\":20298:20300   */\n      0x20\n        /* \"#utility.yul\":20287:20296   */\n      dup3\n        /* \"#utility.yul\":20283:20301   */\n      add\n        /* \"#utility.yul\":20275:20301   */\n      swap1\n      pop\n        /* \"#utility.yul\":20347:20356   */\n      dup2\n        /* \"#utility.yul\":20341:20345   */\n      dup2\n        /* \"#utility.yul\":20337:20357   */\n      sub\n        /* \"#utility.yul\":20333:20334   */\n      0x00\n        /* \"#utility.yul\":20322:20331   */\n      dup4\n        /* \"#utility.yul\":20318:20335   */\n      add\n        /* \"#utility.yul\":20311:20358   */\n      mstore\n        /* \"#utility.yul\":20375:20506   */\n      tag_392\n        /* \"#utility.yul\":20501:20505   */\n      dup2\n        /* \"#utility.yul\":20375:20506   */\n      tag_205\n      jump\t// in\n    tag_392:\n        /* \"#utility.yul\":20367:20506   */\n      swap1\n      pop\n        /* \"#utility.yul\":20094:20513   */\n      swap2\n      swap1\n      pop\n      jump\t// out\n        /* \"#utility.yul\":20519:20961   */\n    tag_150:\n        /* \"#utility.yul\":20668:20672   */\n      0x00\n        /* \"#utility.yul\":20706:20708   */\n      0x60\n        /* \"#utility.yul\":20695:20704   */\n      dup3\n        /* \"#utility.yul\":20691:20709   */\n      add\n        /* \"#utility.yul\":20683:20709   */\n      swap1\n      pop\n        /* \"#utility.yul\":20719:20790   */\n      tag_394\n        /* \"#utility.yul\":20787:20788   */\n      0x00\n        /* \"#utility.yul\":20776:20785   */\n      dup4\n        /* \"#utility.yul\":20772:20789   */\n      add\n        /* \"#utility.yul\":20763:20769   */\n      dup7\n        /* \"#utility.yul\":20719:20790   */\n      tag_164\n      jump\t// in\n    tag_394:\n        /* \"#utility.yul\":20800:20872   */\n      tag_395\n        /* \"#utility.yul\":20868:20870   */\n      0x20\n        /* \"#utility.yul\":20857:20866   */\n      dup4\n        /* \"#utility.yul\":20853:20871   */\n      add\n        /* \"#utility.yul\":20844:20850   */\n      dup6\n        /* \"#utility.yul\":20800:20872   */\n      tag_164\n      jump\t// in\n    tag_395:\n        /* \"#utility.yul\":20882:20954   */\n      tag_396\n        /* \"#utility.yul\":20950:20952   */\n      0x40\n        /* \"#utility.yul\":20939:20948   */\n      dup4\n        /* \"#utility.yul\":20935:20953   */\n      add\n        /* \"#utility.yul\":20926:20932   */\n      dup5\n        /* \"#utility.yul\":20882:20954   */\n      tag_156\n      jump\t// in\n    tag_396:\n        /* \"#utility.yul\":20519:20961   */\n      swap5\n      swap4\n      pop\n      pop\n      pop\n      pop\n      jump\t// out\n\n    auxdata: 0xa2646970667358221220800266f6869fac29694229f954089231be9059a245d6ce6e910e546b9bbab62c64736f6c63430008110033\n}\n",
				"bytecode": {
					"linkReferences": {},
					"object": "60a060405260008055600060015560405162001e5d38038062001e5d8339818101604052810190620000329190620000d7565b8073ffffffffffffffffffffffffffffffffffffffff1660808173ffffffffffffffffffffffffffffffffffffffff16815250505062000109565b600080fd5b600073ffffffffffffffffffffffffffffffffffffffff82169050919050565b60006200009f8262000072565b9050919050565b620000b18162000092565b8114620000bd57600080fd5b50565b600081519050620000d181620000a6565b92915050565b600060208284031215620000f057620000ef6200006d565b5b60006200010084828501620000c0565b91505092915050565b608051611d1c62000141600039600081816107ce01528181610d3301528181610f2b0152818161102e01526111a50152611d1c6000f3fe6080604052600436106100a75760003560e01c80632c63f146116100645780632c63f146146101c1578063379607f5146101ea578063711853ab14610213578063aa4fb63a1461023c578063fc0c546a14610279578063fde327be146102a4576100a7565b806306661abd146100ac5780630aebeb4e146100d7578063141961bc1461010057806316ada54714610142578063278ecde11461016d5780632986c0e514610196575b600080fd5b3480156100b857600080fd5b506100c16102c0565b6040516100ce919061129c565b60405180910390f35b3480156100e357600080fd5b506100fe60048036038101906100f991906112e8565b6102c6565b005b34801561010c57600080fd5b50610127600480360381019061012291906112e8565b610553565b60405161013996959493929190611390565b60405180910390f35b34801561014e57600080fd5b506101576105dc565b604051610164919061129c565b60405180910390f35b34801561017957600080fd5b50610194600480360381019061018f91906112e8565b6105e4565b005b3480156101a257600080fd5b506101ab6108c0565b6040516101b8919061129c565b60405180910390f35b3480156101cd57600080fd5b506101e860048036038101906101e3919061141d565b6108c6565b005b3480156101f657600080fd5b50610211600480360381019061020c91906112e8565b610b72565b005b34801561021f57600080fd5b5061023a60048036038101906102359190611470565b610e33565b005b34801561024857600080fd5b50610263600480360381019061025e91906114dc565b611007565b604051610270919061129c565b60405180910390f35b34801561028557600080fd5b5061028e61102c565b60405161029b919061157b565b60405180910390f35b6102be60048036038101906102b99190611470565b611050565b005b60005481565b6000600260008381526020019081526020016000206040518060c00160405290816000820160009054906101000a900473ffffffffffffffffffffffffffffffffffffffff1673ffffffffffffffffffffffffffffffffffffffff1673ffffffffffffffffffffffffffffffffffffffff168152602001600182015481526020016002820160009054906101000a900463ffffffff1663ffffffff1663ffffffff1681526020016002820160049054906101000a900463ffffffff1663ffffffff1663ffffffff168152602001600382015481526020016004820160009054906101000a900460ff16151515158152505090503373ffffffffffffffffffffffffffffffffffffffff16816000015173ffffffffffffffffffffffffffffffffffffffff161461042b576040517f08c379a0000000000000000000000000000000000000000000000000000000008152600401610422906115f3565b60405180910390fd5b6000816080015114610472576040517f08c379a00000000000000000000000000000000000000000000000000000000081526004016104699061165f565b60405180910390fd5b600080815480929190610484906116ae565b919050555060026000838152602001908152602001600020600080820160006101000a81549073ffffffffffffffffffffffffffffffffffffffff021916905560018201600090556002820160006101000a81549063ffffffff02191690556002820160046101000a81549063ffffffff021916905560038201600090556004820160006101000a81549060ff021916905550507f7d815d575a49d6d9a069482c25b0fdb39914ccf1bba8aaea4cfe20322f8f687782604051610547919061129c565b60405180910390a15050565b60026020528060005260406000206000915090508060000160009054906101000a900473ffffffffffffffffffffffffffffffffffffffff16908060010154908060020160009054906101000a900463ffffffff16908060020160049054906101000a900463ffffffff16908060030154908060040160009054906101000a900460ff16905086565b600042905090565b6000600260008381526020019081526020016000206040518060c00160405290816000820160009054906101000a900473ffffffffffffffffffffffffffffffffffffffff1673ffffffffffffffffffffffffffffffffffffffff1673ffffffffffffffffffffffffffffffffffffffff168152602001600182015481526020016002820160009054906101000a900463ffffffff1663ffffffff1663ffffffff1681526020016002820160049054906101000a900463ffffffff1663ffffffff1663ffffffff168152602001600382015481526020016004820160009054906101000a900460ff16151515158152505090508060200151816080015110610721576040517f08c379a000000000000000000000000000000000000000000000000000000000815260040161071890611723565b60405180910390fd5b60006003600084815260200190815260200160002060003373ffffffffffffffffffffffffffffffffffffffff1673ffffffffffffffffffffffffffffffffffffffff16815260200190815260200160002054905060006003600085815260200190815260200160002060003373ffffffffffffffffffffffffffffffffffffffff1673ffffffffffffffffffffffffffffffffffffffff168152602001908152602001600020819055507f000000000000000000000000000000000000000000000000000000000000000073ffffffffffffffffffffffffffffffffffffffff1663a9059cbb33836040518363ffffffff1660e01b8152600401610827929190611743565b6020604051808303816000875af1158015610846573d6000803e3d6000fd5b505050506040513d601f19601f8201168201806040525081019061086a9190611798565b503373ffffffffffffffffffffffffffffffffffffffff167f21e12a7cad0da5928167e1084ea4d5fdf8d9af66657a2543a9ac76a0ca08147784836040516108b39291906117c5565b60405180910390a2505050565b60015481565b428263ffffffff16101561090f576040517f08c379a00000000000000000000000000000000000000000000000000000000081526004016109069061183a565b60405180910390fd5b8163ffffffff168163ffffffff161161095d576040517f08c379a0000000000000000000000000000000000000000000000000000000008152600401610954906118a6565b60405180910390fd5b6276a7004261096c91906118c6565b8163ffffffff1611156109b4576040517f08c379a00000000000000000000000000000000000000000000000000000000081526004016109ab90611946565b60405180910390fd5b6040518060c001604052803373ffffffffffffffffffffffffffffffffffffffff1681526020018481526020018363ffffffff1681526020018263ffffffff168152602001600081526020016000151581525060026000600154815260200190815260200160002060008201518160000160006101000a81548173ffffffffffffffffffffffffffffffffffffffff021916908373ffffffffffffffffffffffffffffffffffffffff1602179055506020820151816001015560408201518160020160006101000a81548163ffffffff021916908363ffffffff16021790555060608201518160020160046101000a81548163ffffffff021916908363ffffffff1602179055506080820151816003015560a08201518160040160006101000a81548160ff0219169083151502179055509050503373ffffffffffffffffffffffffffffffffffffffff167f0601cd0d650b473037e838a2696d41e654433d065b3f56b28d1d3302e44a304f600054858585604051610b369493929190611966565b60405180910390a260016000815480929190610b51906119ab565b9190505550600080815480929190610b68906119ab565b9190505550505050565b60006002600083815260200190815260200160002090503373ffffffffffffffffffffffffffffffffffffffff168160000160009054906101000a900473ffffffffffffffffffffffffffffffffffffffff1673ffffffffffffffffffffffffffffffffffffffff1614610c1b576040517f08c379a0000000000000000000000000000000000000000000000000000000008152600401610c1290611a3f565b60405180910390fd5b8060020160049054906101000a900463ffffffff1663ffffffff164211610c77576040517f08c379a0000000000000000000000000000000000000000000000000000000008152600401610c6e90611aab565b60405180910390fd5b806001015481600301541015610cc2576040517f08c379a0000000000000000000000000000000000000000000000000000000008152600401610cb990611b17565b60405180910390fd5b8060040160009054906101000a900460ff1615610d14576040517f08c379a0000000000000000000000000000000000000000000000000000000008152600401610d0b90611b83565b60405180910390fd5b60018160040160006101000a81548160ff0219169083151502179055507f000000000000000000000000000000000000000000000000000000000000000073ffffffffffffffffffffffffffffffffffffffff1663a9059cbb8260000160009054906101000a900473ffffffffffffffffffffffffffffffffffffffff1683600301546040518363ffffffff1660e01b8152600401610db4929190611743565b6020604051808303816000875af1158015610dd3573d6000803e3d6000fd5b505050506040513d601f19601f82011682018060405250810190610df79190611798565b507f7bb2b3c10797baccb6f8c4791f1edd6ca2f0d028ee0eda64b01a9a57e3a653f782604051610e27919061129c565b60405180910390a15050565b60006002600084815260200190815260200160002090508060020160049054906101000a900463ffffffff1663ffffffff16421115610ea7576040517f08c379a0000000000000000000000000000000000000000000000000000000008152600401610e9e90611bef565b60405180910390fd5b81816003016000828254610ebb9190611c0f565b92505081905550816003600085815260200190815260200160002060003373ffffffffffffffffffffffffffffffffffffffff1673ffffffffffffffffffffffffffffffffffffffff1681526020019081526020016000206000828254610f229190611c0f565b925050819055507f000000000000000000000000000000000000000000000000000000000000000073ffffffffffffffffffffffffffffffffffffffff1663a9059cbb33846040518363ffffffff1660e01b8152600401610f84929190611743565b6020604051808303816000875af1158015610fa3573d6000803e3d6000fd5b505050506040513d601f19601f82011682018060405250810190610fc79190611798565b50827f2eeeab891b26a214d1b25749f88a406bdea852bd8c9bfda977e0ef8114c180ba3384604051610ffa929190611743565b60405180910390a2505050565b6003602052816000526040600020602052806000526040600020600091509150505481565b7f000000000000000000000000000000000000000000000000000000000000000081565b60006002600084815260200190815260200160002090508060020160009054906101000a900463ffffffff1663ffffffff164210156110c4576040517f08c379a00000000000000000000000000000000000000000000000000000000081526004016110bb90611c8f565b60405180910390fd5b8060020160049054906101000a900463ffffffff1663ffffffff16421115611121576040517f08c379a000000000000000000000000000000000000000000000000000000000815260040161111890611bef565b60405180910390fd5b8181600301600082825461113591906118c6565b92505081905550816003600085815260200190815260200160002060003373ffffffffffffffffffffffffffffffffffffffff1673ffffffffffffffffffffffffffffffffffffffff168152602001908152602001600020600082825461119c91906118c6565b925050819055507f000000000000000000000000000000000000000000000000000000000000000073ffffffffffffffffffffffffffffffffffffffff166323b872dd3330856040518463ffffffff1660e01b815260040161120093929190611caf565b6020604051808303816000875af115801561121f573d6000803e3d6000fd5b505050506040513d601f19601f820116820180604052508101906112439190611798565b50827f06bdb975df800a73232998e71ed585d536222f1dfeaa622d7f62a23ada686c823384604051611276929190611743565b60405180910390a2505050565b6000819050919050565b61129681611283565b82525050565b60006020820190506112b1600083018461128d565b92915050565b600080fd5b6112c581611283565b81146112d057600080fd5b50565b6000813590506112e2816112bc565b92915050565b6000602082840312156112fe576112fd6112b7565b5b600061130c848285016112d3565b91505092915050565b600073ffffffffffffffffffffffffffffffffffffffff82169050919050565b600061134082611315565b9050919050565b61135081611335565b82525050565b600063ffffffff82169050919050565b61136f81611356565b82525050565b60008115159050919050565b61138a81611375565b82525050565b600060c0820190506113a56000830189611347565b6113b2602083018861128d565b6113bf6040830187611366565b6113cc6060830186611366565b6113d9608083018561128d565b6113e660a0830184611381565b979650505050505050565b6113fa81611356565b811461140557600080fd5b50565b600081359050611417816113f1565b92915050565b600080600060608486031215611436576114356112b7565b5b6000611444868287016112d3565b935050602061145586828701611408565b925050604061146686828701611408565b9150509250925092565b60008060408385031215611487576114866112b7565b5b6000611495858286016112d3565b92505060206114a6858286016112d3565b9150509250929050565b6114b981611335565b81146114c457600080fd5b50565b6000813590506114d6816114b0565b92915050565b600080604083850312156114f3576114f26112b7565b5b6000611501858286016112d3565b9250506020611512858286016114c7565b9150509250929050565b6000819050919050565b600061154161153c61153784611315565b61151c565b611315565b9050919050565b600061155382611526565b9050919050565b600061156582611548565b9050919050565b6115758161155a565b82525050565b6000602082019050611590600083018461156c565b92915050565b600082825260208201905092915050565b7f44656e6965640000000000000000000000000000000000000000000000000000600082015250565b60006115dd600683611596565b91506115e8826115a7565b602082019050919050565b6000602082019050818103600083015261160c816115d0565b9050919050565b7f42616c20213d2030000000000000000000000000000000000000000000000000600082015250565b6000611649600883611596565b915061165482611613565b602082019050919050565b600060208201905081810360008301526116788161163c565b9050919050565b7f4e487b7100000000000000000000000000000000000000000000000000000000600052601160045260246000fd5b60006116b982611283565b9150600082036116cc576116cb61167f565b5b600182039050919050565b7f506c6564676564203e3d20476f616c0000000000000000000000000000000000600082015250565b600061170d600f83611596565b9150611718826116d7565b602082019050919050565b6000602082019050818103600083015261173c81611700565b9050919050565b60006040820190506117586000830185611347565b611765602083018461128d565b9392505050565b61177581611375565b811461178057600080fd5b50565b6000815190506117928161176c565b92915050565b6000602082840312156117ae576117ad6112b7565b5b60006117bc84828501611783565b91505092915050565b60006040820190506117da600083018561128d565b6117e7602083018461128d565b9392505050565b7f73746172743c6e6f770000000000000000000000000000000000000000000000600082015250565b6000611824600983611596565b915061182f826117ee565b602082019050919050565b6000602082019050818103600083015261185381611817565b9050919050565b7f73746172743c656e640000000000000000000000000000000000000000000000600082015250565b6000611890600983611596565b915061189b8261185a565b602082019050919050565b600060208201905081810360008301526118bf81611883565b9050919050565b60006118d182611283565b91506118dc83611283565b92508282019050808211156118f4576118f361167f565b5b92915050565b7f6475723c6d61785f647572000000000000000000000000000000000000000000600082015250565b6000611930600b83611596565b915061193b826118fa565b602082019050919050565b6000602082019050818103600083015261195f81611923565b9050919050565b600060808201905061197b600083018761128d565b611988602083018661128d565b6119956040830185611366565b6119a26060830184611366565b95945050505050565b60006119b682611283565b91507fffffffffffffffffffffffffffffffffffffffffffffffffffffffffffffffff82036119e8576119e761167f565b5b600182019050919050565b7f6e6f742063726561746f72000000000000000000000000000000000000000000600082015250565b6000611a29600b83611596565b9150611a34826119f3565b602082019050919050565b60006020820190508181036000830152611a5881611a1c565b9050919050565b7f6e6f7420656e6465640000000000000000000000000000000000000000000000600082015250565b6000611a95600983611596565b9150611aa082611a5f565b602082019050919050565b60006020820190508181036000830152611ac481611a88565b9050919050565b7f706c6564676564203c20676f616c000000000000000000000000000000000000600082015250565b6000611b01600e83611596565b9150611b0c82611acb565b602082019050919050565b60006020820190508181036000830152611b3081611af4565b9050919050565b7f636c61696d656400000000000000000000000000000000000000000000000000600082015250565b6000611b6d600783611596565b9150611b7882611b37565b602082019050919050565b60006020820190508181036000830152611b9c81611b60565b9050919050565b7f656e646564000000000000000000000000000000000000000000000000000000600082015250565b6000611bd9600583611596565b9150611be482611ba3565b602082019050919050565b60006020820190508181036000830152611c0881611bcc565b9050919050565b6000611c1a82611283565b9150611c2583611283565b9250828203905081811115611c3d57611c3c61167f565b5b92915050565b7f6e6f742073746172746564000000000000000000000000000000000000000000600082015250565b6000611c79600b83611596565b9150611c8482611c43565b602082019050919050565b60006020820190508181036000830152611ca881611c6c565b9050919050565b6000606082019050611cc46000830186611347565b611cd16020830185611347565b611cde604083018461128d565b94935050505056fea2646970667358221220800266f6869fac29694229f954089231be9059a245d6ce6e910e546b9bbab62c64736f6c63430008110033",
					"opcodes": "PUSH1 0xA0 PUSH1 0x40 MSTORE PUSH1 0x0 DUP1 SSTORE PUSH1 0x0 PUSH1 0x1 SSTORE PUSH1 0x40 MLOAD PUSH3 0x1E5D CODESIZE SUB DUP1 PUSH3 0x1E5D DUP4 CODECOPY DUP2 DUP2 ADD PUSH1 0x40 MSTORE DUP2 ADD SWAP1 PUSH3 0x32 SWAP2 SWAP1 PUSH3 0xD7 JUMP JUMPDEST DUP1 PUSH20 0xFFFFFFFFFFFFFFFFFFFFFFFFFFFFFFFFFFFFFFFF AND PUSH1 0x80 DUP2 PUSH20 0xFFFFFFFFFFFFFFFFFFFFFFFFFFFFFFFFFFFFFFFF AND DUP2 MSTORE POP POP POP PUSH3 0x109 JUMP JUMPDEST PUSH1 0x0 DUP1 REVERT JUMPDEST PUSH1 0x0 PUSH20 0xFFFFFFFFFFFFFFFFFFFFFFFFFFFFFFFFFFFFFFFF DUP3 AND SWAP1 POP SWAP2 SWAP1 POP JUMP JUMPDEST PUSH1 0x0 PUSH3 0x9F DUP3 PUSH3 0x72 JUMP JUMPDEST SWAP1 POP SWAP2 SWAP1 POP JUMP JUMPDEST PUSH3 0xB1 DUP2 PUSH3 0x92 JUMP JUMPDEST DUP2 EQ PUSH3 0xBD JUMPI PUSH1 0x0 DUP1 REVERT JUMPDEST POP JUMP JUMPDEST PUSH1 0x0 DUP2 MLOAD SWAP1 POP PUSH3 0xD1 DUP2 PUSH3 0xA6 JUMP JUMPDEST SWAP3 SWAP2 POP POP JUMP JUMPDEST PUSH1 0x0 PUSH1 0x20 DUP3 DUP5 SUB SLT ISZERO PUSH3 0xF0 JUMPI PUSH3 0xEF PUSH3 0x6D JUMP JUMPDEST JUMPDEST PUSH1 0x0 PUSH3 0x100 DUP5 DUP3 DUP6 ADD PUSH3 0xC0 JUMP JUMPDEST SWAP2 POP POP SWAP3 SWAP2 POP POP JUMP JUMPDEST PUSH1 0x80 MLOAD PUSH2 0x1D1C PUSH3 0x141 PUSH1 0x0 CODECOPY PUSH1 0x0 DUP2 DUP2 PUSH2 0x7CE ADD MSTORE DUP2 DUP2 PUSH2 0xD33 ADD MSTORE DUP2 DUP2 PUSH2 0xF2B ADD MSTORE DUP2 DUP2 PUSH2 0x102E ADD MSTORE PUSH2 0x11A5 ADD MSTORE PUSH2 0x1D1C PUSH1 0x0 RETURN INVALID PUSH1 0x80 PUSH1 0x40 MSTORE PUSH1 0x4 CALLDATASIZE LT PUSH2 0xA7 JUMPI PUSH1 0x0 CALLDATALOAD PUSH1 0xE0 SHR DUP1 PUSH4 0x2C63F146 GT PUSH2 0x64 JUMPI DUP1 PUSH4 0x2C63F146 EQ PUSH2 0x1C1 JUMPI DUP1 PUSH4 0x379607F5 EQ PUSH2 0x1EA JUMPI DUP1 PUSH4 0x711853AB EQ PUSH2 0x213 JUMPI DUP1 PUSH4 0xAA4FB63A EQ PUSH2 0x23C JUMPI DUP1 PUSH4 0xFC0C546A EQ PUSH2 0x279 JUMPI DUP1 PUSH4 0xFDE327BE EQ PUSH2 0x2A4 JUMPI PUSH2 0xA7 JUMP JUMPDEST DUP1 PUSH4 0x6661ABD EQ PUSH2 0xAC JUMPI DUP1 PUSH4 0xAEBEB4E EQ PUSH2 0xD7 JUMPI DUP1 PUSH4 0x141961BC EQ PUSH2 0x100 JUMPI DUP1 PUSH4 0x16ADA547 EQ PUSH2 0x142 JUMPI DUP1 PUSH4 0x278ECDE1 EQ PUSH2 0x16D JUMPI DUP1 PUSH4 0x2986C0E5 EQ PUSH2 0x196 JUMPI JUMPDEST PUSH1 0x0 DUP1 REVERT JUMPDEST CALLVALUE DUP1 ISZERO PUSH2 0xB8 JUMPI PUSH1 0x0 DUP1 REVERT JUMPDEST POP PUSH2 0xC1 PUSH2 0x2C0 JUMP JUMPDEST PUSH1 0x40 MLOAD PUSH2 0xCE SWAP2 SWAP1 PUSH2 0x129C JUMP JUMPDEST PUSH1 0x40 MLOAD DUP1 SWAP2 SUB SWAP1 RETURN JUMPDEST CALLVALUE DUP1 ISZERO PUSH2 0xE3 JUMPI PUSH1 0x0 DUP1 REVERT JUMPDEST POP PUSH2 0xFE PUSH1 0x4 DUP1 CALLDATASIZE SUB DUP2 ADD SWAP1 PUSH2 0xF9 SWAP2 SWAP1 PUSH2 0x12E8 JUMP JUMPDEST PUSH2 0x2C6 JUMP JUMPDEST STOP JUMPDEST CALLVALUE DUP1 ISZERO PUSH2 0x10C JUMPI PUSH1 0x0 DUP1 REVERT JUMPDEST POP PUSH2 0x127 PUSH1 0x4 DUP1 CALLDATASIZE SUB DUP2 ADD SWAP1 PUSH2 0x122 SWAP2 SWAP1 PUSH2 0x12E8 JUMP JUMPDEST PUSH2 0x553 JUMP JUMPDEST PUSH1 0x40 MLOAD PUSH2 0x139 SWAP7 SWAP6 SWAP5 SWAP4 SWAP3 SWAP2 SWAP1 PUSH2 0x1390 JUMP JUMPDEST PUSH1 0x40 MLOAD DUP1 SWAP2 SUB SWAP1 RETURN JUMPDEST CALLVALUE DUP1 ISZERO PUSH2 0x14E JUMPI PUSH1 0x0 DUP1 REVERT JUMPDEST POP PUSH2 0x157 PUSH2 0x5DC JUMP JUMPDEST PUSH1 0x40 MLOAD PUSH2 0x164 SWAP2 SWAP1 PUSH2 0x129C JUMP JUMPDEST PUSH1 0x40 MLOAD DUP1 SWAP2 SUB SWAP1 RETURN JUMPDEST CALLVALUE DUP1 ISZERO PUSH2 0x179 JUMPI PUSH1 0x0 DUP1 REVERT JUMPDEST POP PUSH2 0x194 PUSH1 0x4 DUP1 CALLDATASIZE SUB DUP2 ADD SWAP1 PUSH2 0x18F SWAP2 SWAP1 PUSH2 0x12E8 JUMP JUMPDEST PUSH2 0x5E4 JUMP JUMPDEST STOP JUMPDEST CALLVALUE DUP1 ISZERO PUSH2 0x1A2 JUMPI PUSH1 0x0 DUP1 REVERT JUMPDEST POP PUSH2 0x1AB PUSH2 0x8C0 JUMP JUMPDEST PUSH1 0x40 MLOAD PUSH2 0x1B8 SWAP2 SWAP1 PUSH2 0x129C JUMP JUMPDEST PUSH1 0x40 MLOAD DUP1 SWAP2 SUB SWAP1 RETURN JUMPDEST CALLVALUE DUP1 ISZERO PUSH2 0x1CD JUMPI PUSH1 0x0 DUP1 REVERT JUMPDEST POP PUSH2 0x1E8 PUSH1 0x4 DUP1 CALLDATASIZE SUB DUP2 ADD SWAP1 PUSH2 0x1E3 SWAP2 SWAP1 PUSH2 0x141D JUMP JUMPDEST PUSH2 0x8C6 JUMP JUMPDEST STOP JUMPDEST CALLVALUE DUP1 ISZERO PUSH2 0x1F6 JUMPI PUSH1 0x0 DUP1 REVERT JUMPDEST POP PUSH2 0x211 PUSH1 0x4 DUP1 CALLDATASIZE SUB DUP2 ADD SWAP1 PUSH2 0x20C SWAP2 SWAP1 PUSH2 0x12E8 JUMP JUMPDEST PUSH2 0xB72 JUMP JUMPDEST STOP JUMPDEST CALLVALUE DUP1 ISZERO PUSH2 0x21F JUMPI PUSH1 0x0 DUP1 REVERT JUMPDEST POP PUSH2 0x23A PUSH1 0x4 DUP1 CALLDATASIZE SUB DUP2 ADD SWAP1 PUSH2 0x235 SWAP2 SWAP1 PUSH2 0x1470 JUMP JUMPDEST PUSH2 0xE33 JUMP JUMPDEST STOP JUMPDEST CALLVALUE DUP1 ISZERO PUSH2 0x248 JUMPI PUSH1 0x0 DUP1 REVERT JUMPDEST POP PUSH2 0x263 PUSH1 0x4 DUP1 CALLDATASIZE SUB DUP2 ADD SWAP1 PUSH2 0x25E SWAP2 SWAP1 PUSH2 0x14DC JUMP JUMPDEST PUSH2 0x1007 JUMP JUMPDEST PUSH1 0x40 MLOAD PUSH2 0x270 SWAP2 SWAP1 PUSH2 0x129C JUMP JUMPDEST PUSH1 0x40 MLOAD DUP1 SWAP2 SUB SWAP1 RETURN JUMPDEST CALLVALUE DUP1 ISZERO PUSH2 0x285 JUMPI PUSH1 0x0 DUP1 REVERT JUMPDEST POP PUSH2 0x28E PUSH2 0x102C JUMP JUMPDEST PUSH1 0x40 MLOAD PUSH2 0x29B SWAP2 SWAP1 PUSH2 0x157B JUMP JUMPDEST PUSH1 0x40 MLOAD DUP1 SWAP2 SUB SWAP1 RETURN JUMPDEST PUSH2 0x2BE PUSH1 0x4 DUP1 CALLDATASIZE SUB DUP2 ADD SWAP1 PUSH2 0x2B9 SWAP2 SWAP1 PUSH2 0x1470 JUMP JUMPDEST PUSH2 0x1050 JUMP JUMPDEST STOP JUMPDEST PUSH1 0x0 SLOAD DUP2 JUMP JUMPDEST PUSH1 0x0 PUSH1 0x2 PUSH1 0x0 DUP4 DUP2 MSTORE PUSH1 0x20 ADD SWAP1 DUP2 MSTORE PUSH1 0x20 ADD PUSH1 0x0 KECCAK256 PUSH1 0x40 MLOAD DUP1 PUSH1 0xC0 ADD PUSH1 0x40 MSTORE SWAP1 DUP2 PUSH1 0x0 DUP3 ADD PUSH1 0x0 SWAP1 SLOAD SWAP1 PUSH2 0x100 EXP SWAP1 DIV PUSH20 0xFFFFFFFFFFFFFFFFFFFFFFFFFFFFFFFFFFFFFFFF AND PUSH20 0xFFFFFFFFFFFFFFFFFFFFFFFFFFFFFFFFFFFFFFFF AND PUSH20 0xFFFFFFFFFFFFFFFFFFFFFFFFFFFFFFFFFFFFFFFF AND DUP2 MSTORE PUSH1 0x20 ADD PUSH1 0x1 DUP3 ADD SLOAD DUP2 MSTORE PUSH1 0x20 ADD PUSH1 0x2 DUP3 ADD PUSH1 0x0 SWAP1 SLOAD SWAP1 PUSH2 0x100 EXP SWAP1 DIV PUSH4 0xFFFFFFFF AND PUSH4 0xFFFFFFFF AND PUSH4 0xFFFFFFFF AND DUP2 MSTORE PUSH1 0x20 ADD PUSH1 0x2 DUP3 ADD PUSH1 0x4 SWAP1 SLOAD SWAP1 PUSH2 0x100 EXP SWAP1 DIV PUSH4 0xFFFFFFFF AND PUSH4 0xFFFFFFFF AND PUSH4 0xFFFFFFFF AND DUP2 MSTORE PUSH1 0x20 ADD PUSH1 0x3 DUP3 ADD SLOAD DUP2 MSTORE PUSH1 0x20 ADD PUSH1 0x4 DUP3 ADD PUSH1 0x0 SWAP1 SLOAD SWAP1 PUSH2 0x100 EXP SWAP1 DIV PUSH1 0xFF AND ISZERO ISZERO ISZERO ISZERO DUP2 MSTORE POP POP SWAP1 POP CALLER PUSH20 0xFFFFFFFFFFFFFFFFFFFFFFFFFFFFFFFFFFFFFFFF AND DUP2 PUSH1 0x0 ADD MLOAD PUSH20 0xFFFFFFFFFFFFFFFFFFFFFFFFFFFFFFFFFFFFFFFF AND EQ PUSH2 0x42B JUMPI PUSH1 0x40 MLOAD PUSH32 0x8C379A000000000000000000000000000000000000000000000000000000000 DUP2 MSTORE PUSH1 0x4 ADD PUSH2 0x422 SWAP1 PUSH2 0x15F3 JUMP JUMPDEST PUSH1 0x40 MLOAD DUP1 SWAP2 SUB SWAP1 REVERT JUMPDEST PUSH1 0x0 DUP2 PUSH1 0x80 ADD MLOAD EQ PUSH2 0x472 JUMPI PUSH1 0x40 MLOAD PUSH32 0x8C379A000000000000000000000000000000000000000000000000000000000 DUP2 MSTORE PUSH1 0x4 ADD PUSH2 0x469 SWAP1 PUSH2 0x165F JUMP JUMPDEST PUSH1 0x40 MLOAD DUP1 SWAP2 SUB SWAP1 REVERT JUMPDEST PUSH1 0x0 DUP1 DUP2 SLOAD DUP1 SWAP3 SWAP2 SWAP1 PUSH2 0x484 SWAP1 PUSH2 0x16AE JUMP JUMPDEST SWAP2 SWAP1 POP SSTORE POP PUSH1 0x2 PUSH1 0x0 DUP4 DUP2 MSTORE PUSH1 0x20 ADD SWAP1 DUP2 MSTORE PUSH1 0x20 ADD PUSH1 0x0 KECCAK256 PUSH1 0x0 DUP1 DUP3 ADD PUSH1 0x0 PUSH2 0x100 EXP DUP2 SLOAD SWAP1 PUSH20 0xFFFFFFFFFFFFFFFFFFFFFFFFFFFFFFFFFFFFFFFF MUL NOT AND SWAP1 SSTORE PUSH1 0x1 DUP3 ADD PUSH1 0x0 SWAP1 SSTORE PUSH1 0x2 DUP3 ADD PUSH1 0x0 PUSH2 0x100 EXP DUP2 SLOAD SWAP1 PUSH4 0xFFFFFFFF MUL NOT AND SWAP1 SSTORE PUSH1 0x2 DUP3 ADD PUSH1 0x4 PUSH2 0x100 EXP DUP2 SLOAD SWAP1 PUSH4 0xFFFFFFFF MUL NOT AND SWAP1 SSTORE PUSH1 0x3 DUP3 ADD PUSH1 0x0 SWAP1 SSTORE PUSH1 0x4 DUP3 ADD PUSH1 0x0 PUSH2 0x100 EXP DUP2 SLOAD SWAP1 PUSH1 0xFF MUL NOT AND SWAP1 SSTORE POP POP PUSH32 0x7D815D575A49D6D9A069482C25B0FDB39914CCF1BBA8AAEA4CFE20322F8F6877 DUP3 PUSH1 0x40 MLOAD PUSH2 0x547 SWAP2 SWAP1 PUSH2 0x129C JUMP JUMPDEST PUSH1 0x40 MLOAD DUP1 SWAP2 SUB SWAP1 LOG1 POP POP JUMP JUMPDEST PUSH1 0x2 PUSH1 0x20 MSTORE DUP1 PUSH1 0x0 MSTORE PUSH1 0x40 PUSH1 0x0 KECCAK256 PUSH1 0x0 SWAP2 POP SWAP1 POP DUP1 PUSH1 0x0 ADD PUSH1 0x0 SWAP1 SLOAD SWAP1 PUSH2 0x100 EXP SWAP1 DIV PUSH20 0xFFFFFFFFFFFFFFFFFFFFFFFFFFFFFFFFFFFFFFFF AND SWAP1 DUP1 PUSH1 0x1 ADD SLOAD SWAP1 DUP1 PUSH1 0x2 ADD PUSH1 0x0 SWAP1 SLOAD SWAP1 PUSH2 0x100 EXP SWAP1 DIV PUSH4 0xFFFFFFFF AND SWAP1 DUP1 PUSH1 0x2 ADD PUSH1 0x4 SWAP1 SLOAD SWAP1 PUSH2 0x100 EXP SWAP1 DIV PUSH4 0xFFFFFFFF AND SWAP1 DUP1 PUSH1 0x3 ADD SLOAD SWAP1 DUP1 PUSH1 0x4 ADD PUSH1 0x0 SWAP1 SLOAD SWAP1 PUSH2 0x100 EXP SWAP1 DIV PUSH1 0xFF AND SWAP1 POP DUP7 JUMP JUMPDEST PUSH1 0x0 TIMESTAMP SWAP1 POP SWAP1 JUMP JUMPDEST PUSH1 0x0 PUSH1 0x2 PUSH1 0x0 DUP4 DUP2 MSTORE PUSH1 0x20 ADD SWAP1 DUP2 MSTORE PUSH1 0x20 ADD PUSH1 0x0 KECCAK256 PUSH1 0x40 MLOAD DUP1 PUSH1 0xC0 ADD PUSH1 0x40 MSTORE SWAP1 DUP2 PUSH1 0x0 DUP3 ADD PUSH1 0x0 SWAP1 SLOAD SWAP1 PUSH2 0x100 EXP SWAP1 DIV PUSH20 0xFFFFFFFFFFFFFFFFFFFFFFFFFFFFFFFFFFFFFFFF AND PUSH20 0xFFFFFFFFFFFFFFFFFFFFFFFFFFFFFFFFFFFFFFFF AND PUSH20 0xFFFFFFFFFFFFFFFFFFFFFFFFFFFFFFFFFFFFFFFF AND DUP2 MSTORE PUSH1 0x20 ADD PUSH1 0x1 DUP3 ADD SLOAD DUP2 MSTORE PUSH1 0x20 ADD PUSH1 0x2 DUP3 ADD PUSH1 0x0 SWAP1 SLOAD SWAP1 PUSH2 0x100 EXP SWAP1 DIV PUSH4 0xFFFFFFFF AND PUSH4 0xFFFFFFFF AND PUSH4 0xFFFFFFFF AND DUP2 MSTORE PUSH1 0x20 ADD PUSH1 0x2 DUP3 ADD PUSH1 0x4 SWAP1 SLOAD SWAP1 PUSH2 0x100 EXP SWAP1 DIV PUSH4 0xFFFFFFFF AND PUSH4 0xFFFFFFFF AND PUSH4 0xFFFFFFFF AND DUP2 MSTORE PUSH1 0x20 ADD PUSH1 0x3 DUP3 ADD SLOAD DUP2 MSTORE PUSH1 0x20 ADD PUSH1 0x4 DUP3 ADD PUSH1 0x0 SWAP1 SLOAD SWAP1 PUSH2 0x100 EXP SWAP1 DIV PUSH1 0xFF AND ISZERO ISZERO ISZERO ISZERO DUP2 MSTORE POP POP SWAP1 POP DUP1 PUSH1 0x20 ADD MLOAD DUP2 PUSH1 0x80 ADD MLOAD LT PUSH2 0x721 JUMPI PUSH1 0x40 MLOAD PUSH32 0x8C379A000000000000000000000000000000000000000000000000000000000 DUP2 MSTORE PUSH1 0x4 ADD PUSH2 0x718 SWAP1 PUSH2 0x1723 JUMP JUMPDEST PUSH1 0x40 MLOAD DUP1 SWAP2 SUB SWAP1 REVERT JUMPDEST PUSH1 0x0 PUSH1 0x3 PUSH1 0x0 DUP5 DUP2 MSTORE PUSH1 0x20 ADD SWAP1 DUP2 MSTORE PUSH1 0x20 ADD PUSH1 0x0 KECCAK256 PUSH1 0x0 CALLER PUSH20 0xFFFFFFFFFFFFFFFFFFFFFFFFFFFFFFFFFFFFFFFF AND PUSH20 0xFFFFFFFFFFFFFFFFFFFFFFFFFFFFFFFFFFFFFFFF AND DUP2 MSTORE PUSH1 0x20 ADD SWAP1 DUP2 MSTORE PUSH1 0x20 ADD PUSH1 0x0 KECCAK256 SLOAD SWAP1 POP PUSH1 0x0 PUSH1 0x3 PUSH1 0x0 DUP6 DUP2 MSTORE PUSH1 0x20 ADD SWAP1 DUP2 MSTORE PUSH1 0x20 ADD PUSH1 0x0 KECCAK256 PUSH1 0x0 CALLER PUSH20 0xFFFFFFFFFFFFFFFFFFFFFFFFFFFFFFFFFFFFFFFF AND PUSH20 0xFFFFFFFFFFFFFFFFFFFFFFFFFFFFFFFFFFFFFFFF AND DUP2 MSTORE PUSH1 0x20 ADD SWAP1 DUP2 MSTORE PUSH1 0x20 ADD PUSH1 0x0 KECCAK256 DUP2 SWAP1 SSTORE POP PUSH32 0x0 PUSH20 0xFFFFFFFFFFFFFFFFFFFFFFFFFFFFFFFFFFFFFFFF AND PUSH4 0xA9059CBB CALLER DUP4 PUSH1 0x40 MLOAD DUP4 PUSH4 0xFFFFFFFF AND PUSH1 0xE0 SHL DUP2 MSTORE PUSH1 0x4 ADD PUSH2 0x827 SWAP3 SWAP2 SWAP1 PUSH2 0x1743 JUMP JUMPDEST PUSH1 0x20 PUSH1 0x40 MLOAD DUP1 DUP4 SUB DUP2 PUSH1 0x0 DUP8 GAS CALL ISZERO DUP1 ISZERO PUSH2 0x846 JUMPI RETURNDATASIZE PUSH1 0x0 DUP1 RETURNDATACOPY RETURNDATASIZE PUSH1 0x0 REVERT JUMPDEST POP POP POP POP PUSH1 0x40 MLOAD RETURNDATASIZE PUSH1 0x1F NOT PUSH1 0x1F DUP3 ADD AND DUP3 ADD DUP1 PUSH1 0x40 MSTORE POP DUP2 ADD SWAP1 PUSH2 0x86A SWAP2 SWAP1 PUSH2 0x1798 JUMP JUMPDEST POP CALLER PUSH20 0xFFFFFFFFFFFFFFFFFFFFFFFFFFFFFFFFFFFFFFFF AND PUSH32 0x21E12A7CAD0DA5928167E1084EA4D5FDF8D9AF66657A2543A9AC76A0CA081477 DUP5 DUP4 PUSH1 0x40 MLOAD PUSH2 0x8B3 SWAP3 SWAP2 SWAP1 PUSH2 0x17C5 JUMP JUMPDEST PUSH1 0x40 MLOAD DUP1 SWAP2 SUB SWAP1 LOG2 POP POP POP JUMP JUMPDEST PUSH1 0x1 SLOAD DUP2 JUMP JUMPDEST TIMESTAMP DUP3 PUSH4 0xFFFFFFFF AND LT ISZERO PUSH2 0x90F JUMPI PUSH1 0x40 MLOAD PUSH32 0x8C379A000000000000000000000000000000000000000000000000000000000 DUP2 MSTORE PUSH1 0x4 ADD PUSH2 0x906 SWAP1 PUSH2 0x183A JUMP JUMPDEST PUSH1 0x40 MLOAD DUP1 SWAP2 SUB SWAP1 REVERT JUMPDEST DUP2 PUSH4 0xFFFFFFFF AND DUP2 PUSH4 0xFFFFFFFF AND GT PUSH2 0x95D JUMPI PUSH1 0x40 MLOAD PUSH32 0x8C379A000000000000000000000000000000000000000000000000000000000 DUP2 MSTORE PUSH1 0x4 ADD PUSH2 0x954 SWAP1 PUSH2 0x18A6 JUMP JUMPDEST PUSH1 0x40 MLOAD DUP1 SWAP2 SUB SWAP1 REVERT JUMPDEST PUSH3 0x76A700 TIMESTAMP PUSH2 0x96C SWAP2 SWAP1 PUSH2 0x18C6 JUMP JUMPDEST DUP2 PUSH4 0xFFFFFFFF AND GT ISZERO PUSH2 0x9B4 JUMPI PUSH1 0x40 MLOAD PUSH32 0x8C379A000000000000000000000000000000000000000000000000000000000 DUP2 MSTORE PUSH1 0x4 ADD PUSH2 0x9AB SWAP1 PUSH2 0x1946 JUMP JUMPDEST PUSH1 0x40 MLOAD DUP1 SWAP2 SUB SWAP1 REVERT JUMPDEST PUSH1 0x40 MLOAD DUP1 PUSH1 0xC0 ADD PUSH1 0x40 MSTORE DUP1 CALLER PUSH20 0xFFFFFFFFFFFFFFFFFFFFFFFFFFFFFFFFFFFFFFFF AND DUP2 MSTORE PUSH1 0x20 ADD DUP5 DUP2 MSTORE PUSH1 0x20 ADD DUP4 PUSH4 0xFFFFFFFF AND DUP2 MSTORE PUSH1 0x20 ADD DUP3 PUSH4 0xFFFFFFFF AND DUP2 MSTORE PUSH1 0x20 ADD PUSH1 0x0 DUP2 MSTORE PUSH1 0x20 ADD PUSH1 0x0 ISZERO ISZERO DUP2 MSTORE POP PUSH1 0x2 PUSH1 0x0 PUSH1 0x1 SLOAD DUP2 MSTORE PUSH1 0x20 ADD SWAP1 DUP2 MSTORE PUSH1 0x20 ADD PUSH1 0x0 KECCAK256 PUSH1 0x0 DUP3 ADD MLOAD DUP2 PUSH1 0x0 ADD PUSH1 0x0 PUSH2 0x100 EXP DUP2 SLOAD DUP2 PUSH20 0xFFFFFFFFFFFFFFFFFFFFFFFFFFFFFFFFFFFFFFFF MUL NOT AND SWAP1 DUP4 PUSH20 0xFFFFFFFFFFFFFFFFFFFFFFFFFFFFFFFFFFFFFFFF AND MUL OR SWAP1 SSTORE POP PUSH1 0x20 DUP3 ADD MLOAD DUP2 PUSH1 0x1 ADD SSTORE PUSH1 0x40 DUP3 ADD MLOAD DUP2 PUSH1 0x2 ADD PUSH1 0x0 PUSH2 0x100 EXP DUP2 SLOAD DUP2 PUSH4 0xFFFFFFFF MUL NOT AND SWAP1 DUP4 PUSH4 0xFFFFFFFF AND MUL OR SWAP1 SSTORE POP PUSH1 0x60 DUP3 ADD MLOAD DUP2 PUSH1 0x2 ADD PUSH1 0x4 PUSH2 0x100 EXP DUP2 SLOAD DUP2 PUSH4 0xFFFFFFFF MUL NOT AND SWAP1 DUP4 PUSH4 0xFFFFFFFF AND MUL OR SWAP1 SSTORE POP PUSH1 0x80 DUP3 ADD MLOAD DUP2 PUSH1 0x3 ADD SSTORE PUSH1 0xA0 DUP3 ADD MLOAD DUP2 PUSH1 0x4 ADD PUSH1 0x0 PUSH2 0x100 EXP DUP2 SLOAD DUP2 PUSH1 0xFF MUL NOT AND SWAP1 DUP4 ISZERO ISZERO MUL OR SWAP1 SSTORE POP SWAP1 POP POP CALLER PUSH20 0xFFFFFFFFFFFFFFFFFFFFFFFFFFFFFFFFFFFFFFFF AND PUSH32 0x601CD0D650B473037E838A2696D41E654433D065B3F56B28D1D3302E44A304F PUSH1 0x0 SLOAD DUP6 DUP6 DUP6 PUSH1 0x40 MLOAD PUSH2 0xB36 SWAP5 SWAP4 SWAP3 SWAP2 SWAP1 PUSH2 0x1966 JUMP JUMPDEST PUSH1 0x40 MLOAD DUP1 SWAP2 SUB SWAP1 LOG2 PUSH1 0x1 PUSH1 0x0 DUP2 SLOAD DUP1 SWAP3 SWAP2 SWAP1 PUSH2 0xB51 SWAP1 PUSH2 0x19AB JUMP JUMPDEST SWAP2 SWAP1 POP SSTORE POP PUSH1 0x0 DUP1 DUP2 SLOAD DUP1 SWAP3 SWAP2 SWAP1 PUSH2 0xB68 SWAP1 PUSH2 0x19AB JUMP JUMPDEST SWAP2 SWAP1 POP SSTORE POP POP POP POP JUMP JUMPDEST PUSH1 0x0 PUSH1 0x2 PUSH1 0x0 DUP4 DUP2 MSTORE PUSH1 0x20 ADD SWAP1 DUP2 MSTORE PUSH1 0x20 ADD PUSH1 0x0 KECCAK256 SWAP1 POP CALLER PUSH20 0xFFFFFFFFFFFFFFFFFFFFFFFFFFFFFFFFFFFFFFFF AND DUP2 PUSH1 0x0 ADD PUSH1 0x0 SWAP1 SLOAD SWAP1 PUSH2 0x100 EXP SWAP1 DIV PUSH20 0xFFFFFFFFFFFFFFFFFFFFFFFFFFFFFFFFFFFFFFFF AND PUSH20 0xFFFFFFFFFFFFFFFFFFFFFFFFFFFFFFFFFFFFFFFF AND EQ PUSH2 0xC1B JUMPI PUSH1 0x40 MLOAD PUSH32 0x8C379A000000000000000000000000000000000000000000000000000000000 DUP2 MSTORE PUSH1 0x4 ADD PUSH2 0xC12 SWAP1 PUSH2 0x1A3F JUMP JUMPDEST PUSH1 0x40 MLOAD DUP1 SWAP2 SUB SWAP1 REVERT JUMPDEST DUP1 PUSH1 0x2 ADD PUSH1 0x4 SWAP1 SLOAD SWAP1 PUSH2 0x100 EXP SWAP1 DIV PUSH4 0xFFFFFFFF AND PUSH4 0xFFFFFFFF AND TIMESTAMP GT PUSH2 0xC77 JUMPI PUSH1 0x40 MLOAD PUSH32 0x8C379A000000000000000000000000000000000000000000000000000000000 DUP2 MSTORE PUSH1 0x4 ADD PUSH2 0xC6E SWAP1 PUSH2 0x1AAB JUMP JUMPDEST PUSH1 0x40 MLOAD DUP1 SWAP2 SUB SWAP1 REVERT JUMPDEST DUP1 PUSH1 0x1 ADD SLOAD DUP2 PUSH1 0x3 ADD SLOAD LT ISZERO PUSH2 0xCC2 JUMPI PUSH1 0x40 MLOAD PUSH32 0x8C379A000000000000000000000000000000000000000000000000000000000 DUP2 MSTORE PUSH1 0x4 ADD PUSH2 0xCB9 SWAP1 PUSH2 0x1B17 JUMP JUMPDEST PUSH1 0x40 MLOAD DUP1 SWAP2 SUB SWAP1 REVERT JUMPDEST DUP1 PUSH1 0x4 ADD PUSH1 0x0 SWAP1 SLOAD SWAP1 PUSH2 0x100 EXP SWAP1 DIV PUSH1 0xFF AND ISZERO PUSH2 0xD14 JUMPI PUSH1 0x40 MLOAD PUSH32 0x8C379A000000000000000000000000000000000000000000000000000000000 DUP2 MSTORE PUSH1 0x4 ADD PUSH2 0xD0B SWAP1 PUSH2 0x1B83 JUMP JUMPDEST PUSH1 0x40 MLOAD DUP1 SWAP2 SUB SWAP1 REVERT JUMPDEST PUSH1 0x1 DUP2 PUSH1 0x4 ADD PUSH1 0x0 PUSH2 0x100 EXP DUP2 SLOAD DUP2 PUSH1 0xFF MUL NOT AND SWAP1 DUP4 ISZERO ISZERO MUL OR SWAP1 SSTORE POP PUSH32 0x0 PUSH20 0xFFFFFFFFFFFFFFFFFFFFFFFFFFFFFFFFFFFFFFFF AND PUSH4 0xA9059CBB DUP3 PUSH1 0x0 ADD PUSH1 0x0 SWAP1 SLOAD SWAP1 PUSH2 0x100 EXP SWAP1 DIV PUSH20 0xFFFFFFFFFFFFFFFFFFFFFFFFFFFFFFFFFFFFFFFF AND DUP4 PUSH1 0x3 ADD SLOAD PUSH1 0x40 MLOAD DUP4 PUSH4 0xFFFFFFFF AND PUSH1 0xE0 SHL DUP2 MSTORE PUSH1 0x4 ADD PUSH2 0xDB4 SWAP3 SWAP2 SWAP1 PUSH2 0x1743 JUMP JUMPDEST PUSH1 0x20 PUSH1 0x40 MLOAD DUP1 DUP4 SUB DUP2 PUSH1 0x0 DUP8 GAS CALL ISZERO DUP1 ISZERO PUSH2 0xDD3 JUMPI RETURNDATASIZE PUSH1 0x0 DUP1 RETURNDATACOPY RETURNDATASIZE PUSH1 0x0 REVERT JUMPDEST POP POP POP POP PUSH1 0x40 MLOAD RETURNDATASIZE PUSH1 0x1F NOT PUSH1 0x1F DUP3 ADD AND DUP3 ADD DUP1 PUSH1 0x40 MSTORE POP DUP2 ADD SWAP1 PUSH2 0xDF7 SWAP2 SWAP1 PUSH2 0x1798 JUMP JUMPDEST POP PUSH32 0x7BB2B3C10797BACCB6F8C4791F1EDD6CA2F0D028EE0EDA64B01A9A57E3A653F7 DUP3 PUSH1 0x40 MLOAD PUSH2 0xE27 SWAP2 SWAP1 PUSH2 0x129C JUMP JUMPDEST PUSH1 0x40 MLOAD DUP1 SWAP2 SUB SWAP1 LOG1 POP POP JUMP JUMPDEST PUSH1 0x0 PUSH1 0x2 PUSH1 0x0 DUP5 DUP2 MSTORE PUSH1 0x20 ADD SWAP1 DUP2 MSTORE PUSH1 0x20 ADD PUSH1 0x0 KECCAK256 SWAP1 POP DUP1 PUSH1 0x2 ADD PUSH1 0x4 SWAP1 SLOAD SWAP1 PUSH2 0x100 EXP SWAP1 DIV PUSH4 0xFFFFFFFF AND PUSH4 0xFFFFFFFF AND TIMESTAMP GT ISZERO PUSH2 0xEA7 JUMPI PUSH1 0x40 MLOAD PUSH32 0x8C379A000000000000000000000000000000000000000000000000000000000 DUP2 MSTORE PUSH1 0x4 ADD PUSH2 0xE9E SWAP1 PUSH2 0x1BEF JUMP JUMPDEST PUSH1 0x40 MLOAD DUP1 SWAP2 SUB SWAP1 REVERT JUMPDEST DUP2 DUP2 PUSH1 0x3 ADD PUSH1 0x0 DUP3 DUP3 SLOAD PUSH2 0xEBB SWAP2 SWAP1 PUSH2 0x1C0F JUMP JUMPDEST SWAP3 POP POP DUP2 SWAP1 SSTORE POP DUP2 PUSH1 0x3 PUSH1 0x0 DUP6 DUP2 MSTORE PUSH1 0x20 ADD SWAP1 DUP2 MSTORE PUSH1 0x20 ADD PUSH1 0x0 KECCAK256 PUSH1 0x0 CALLER PUSH20 0xFFFFFFFFFFFFFFFFFFFFFFFFFFFFFFFFFFFFFFFF AND PUSH20 0xFFFFFFFFFFFFFFFFFFFFFFFFFFFFFFFFFFFFFFFF AND DUP2 MSTORE PUSH1 0x20 ADD SWAP1 DUP2 MSTORE PUSH1 0x20 ADD PUSH1 0x0 KECCAK256 PUSH1 0x0 DUP3 DUP3 SLOAD PUSH2 0xF22 SWAP2 SWAP1 PUSH2 0x1C0F JUMP JUMPDEST SWAP3 POP POP DUP2 SWAP1 SSTORE POP PUSH32 0x0 PUSH20 0xFFFFFFFFFFFFFFFFFFFFFFFFFFFFFFFFFFFFFFFF AND PUSH4 0xA9059CBB CALLER DUP5 PUSH1 0x40 MLOAD DUP4 PUSH4 0xFFFFFFFF AND PUSH1 0xE0 SHL DUP2 MSTORE PUSH1 0x4 ADD PUSH2 0xF84 SWAP3 SWAP2 SWAP1 PUSH2 0x1743 JUMP JUMPDEST PUSH1 0x20 PUSH1 0x40 MLOAD DUP1 DUP4 SUB DUP2 PUSH1 0x0 DUP8 GAS CALL ISZERO DUP1 ISZERO PUSH2 0xFA3 JUMPI RETURNDATASIZE PUSH1 0x0 DUP1 RETURNDATACOPY RETURNDATASIZE PUSH1 0x0 REVERT JUMPDEST POP POP POP POP PUSH1 0x40 MLOAD RETURNDATASIZE PUSH1 0x1F NOT PUSH1 0x1F DUP3 ADD AND DUP3 ADD DUP1 PUSH1 0x40 MSTORE POP DUP2 ADD SWAP1 PUSH2 0xFC7 SWAP2 SWAP1 PUSH2 0x1798 JUMP JUMPDEST POP DUP3 PUSH32 0x2EEEAB891B26A214D1B25749F88A406BDEA852BD8C9BFDA977E0EF8114C180BA CALLER DUP5 PUSH1 0x40 MLOAD PUSH2 0xFFA SWAP3 SWAP2 SWAP1 PUSH2 0x1743 JUMP JUMPDEST PUSH1 0x40 MLOAD DUP1 SWAP2 SUB SWAP1 LOG2 POP POP POP JUMP JUMPDEST PUSH1 0x3 PUSH1 0x20 MSTORE DUP2 PUSH1 0x0 MSTORE PUSH1 0x40 PUSH1 0x0 KECCAK256 PUSH1 0x20 MSTORE DUP1 PUSH1 0x0 MSTORE PUSH1 0x40 PUSH1 0x0 KECCAK256 PUSH1 0x0 SWAP2 POP SWAP2 POP POP SLOAD DUP2 JUMP JUMPDEST PUSH32 0x0 DUP2 JUMP JUMPDEST PUSH1 0x0 PUSH1 0x2 PUSH1 0x0 DUP5 DUP2 MSTORE PUSH1 0x20 ADD SWAP1 DUP2 MSTORE PUSH1 0x20 ADD PUSH1 0x0 KECCAK256 SWAP1 POP DUP1 PUSH1 0x2 ADD PUSH1 0x0 SWAP1 SLOAD SWAP1 PUSH2 0x100 EXP SWAP1 DIV PUSH4 0xFFFFFFFF AND PUSH4 0xFFFFFFFF AND TIMESTAMP LT ISZERO PUSH2 0x10C4 JUMPI PUSH1 0x40 MLOAD PUSH32 0x8C379A000000000000000000000000000000000000000000000000000000000 DUP2 MSTORE PUSH1 0x4 ADD PUSH2 0x10BB SWAP1 PUSH2 0x1C8F JUMP JUMPDEST PUSH1 0x40 MLOAD DUP1 SWAP2 SUB SWAP1 REVERT JUMPDEST DUP1 PUSH1 0x2 ADD PUSH1 0x4 SWAP1 SLOAD SWAP1 PUSH2 0x100 EXP SWAP1 DIV PUSH4 0xFFFFFFFF AND PUSH4 0xFFFFFFFF AND TIMESTAMP GT ISZERO PUSH2 0x1121 JUMPI PUSH1 0x40 MLOAD PUSH32 0x8C379A000000000000000000000000000000000000000000000000000000000 DUP2 MSTORE PUSH1 0x4 ADD PUSH2 0x1118 SWAP1 PUSH2 0x1BEF JUMP JUMPDEST PUSH1 0x40 MLOAD DUP1 SWAP2 SUB SWAP1 REVERT JUMPDEST DUP2 DUP2 PUSH1 0x3 ADD PUSH1 0x0 DUP3 DUP3 SLOAD PUSH2 0x1135 SWAP2 SWAP1 PUSH2 0x18C6 JUMP JUMPDEST SWAP3 POP POP DUP2 SWAP1 SSTORE POP DUP2 PUSH1 0x3 PUSH1 0x0 DUP6 DUP2 MSTORE PUSH1 0x20 ADD SWAP1 DUP2 MSTORE PUSH1 0x20 ADD PUSH1 0x0 KECCAK256 PUSH1 0x0 CALLER PUSH20 0xFFFFFFFFFFFFFFFFFFFFFFFFFFFFFFFFFFFFFFFF AND PUSH20 0xFFFFFFFFFFFFFFFFFFFFFFFFFFFFFFFFFFFFFFFF AND DUP2 MSTORE PUSH1 0x20 ADD SWAP1 DUP2 MSTORE PUSH1 0x20 ADD PUSH1 0x0 KECCAK256 PUSH1 0x0 DUP3 DUP3 SLOAD PUSH2 0x119C SWAP2 SWAP1 PUSH2 0x18C6 JUMP JUMPDEST SWAP3 POP POP DUP2 SWAP1 SSTORE POP PUSH32 0x0 PUSH20 0xFFFFFFFFFFFFFFFFFFFFFFFFFFFFFFFFFFFFFFFF AND PUSH4 0x23B872DD CALLER ADDRESS DUP6 PUSH1 0x40 MLOAD DUP5 PUSH4 0xFFFFFFFF AND PUSH1 0xE0 SHL DUP2 MSTORE PUSH1 0x4 ADD PUSH2 0x1200 SWAP4 SWAP3 SWAP2 SWAP1 PUSH2 0x1CAF JUMP JUMPDEST PUSH1 0x20 PUSH1 0x40 MLOAD DUP1 DUP4 SUB DUP2 PUSH1 0x0 DUP8 GAS CALL ISZERO DUP1 ISZERO PUSH2 0x121F JUMPI RETURNDATASIZE PUSH1 0x0 DUP1 RETURNDATACOPY RETURNDATASIZE PUSH1 0x0 REVERT JUMPDEST POP POP POP POP PUSH1 0x40 MLOAD RETURNDATASIZE PUSH1 0x1F NOT PUSH1 0x1F DUP3 ADD AND DUP3 ADD DUP1 PUSH1 0x40 MSTORE POP DUP2 ADD SWAP1 PUSH2 0x1243 SWAP2 SWAP1 PUSH2 0x1798 JUMP JUMPDEST POP DUP3 PUSH32 0x6BDB975DF800A73232998E71ED585D536222F1DFEAA622D7F62A23ADA686C82 CALLER DUP5 PUSH1 0x40 MLOAD PUSH2 0x1276 SWAP3 SWAP2 SWAP1 PUSH2 0x1743 JUMP JUMPDEST PUSH1 0x40 MLOAD DUP1 SWAP2 SUB SWAP1 LOG2 POP POP POP JUMP JUMPDEST PUSH1 0x0 DUP2 SWAP1 POP SWAP2 SWAP1 POP JUMP JUMPDEST PUSH2 0x1296 DUP2 PUSH2 0x1283 JUMP JUMPDEST DUP3 MSTORE POP POP JUMP JUMPDEST PUSH1 0x0 PUSH1 0x20 DUP3 ADD SWAP1 POP PUSH2 0x12B1 PUSH1 0x0 DUP4 ADD DUP5 PUSH2 0x128D JUMP JUMPDEST SWAP3 SWAP2 POP POP JUMP JUMPDEST PUSH1 0x0 DUP1 REVERT JUMPDEST PUSH2 0x12C5 DUP2 PUSH2 0x1283 JUMP JUMPDEST DUP2 EQ PUSH2 0x12D0 JUMPI PUSH1 0x0 DUP1 REVERT JUMPDEST POP JUMP JUMPDEST PUSH1 0x0 DUP2 CALLDATALOAD SWAP1 POP PUSH2 0x12E2 DUP2 PUSH2 0x12BC JUMP JUMPDEST SWAP3 SWAP2 POP POP JUMP JUMPDEST PUSH1 0x0 PUSH1 0x20 DUP3 DUP5 SUB SLT ISZERO PUSH2 0x12FE JUMPI PUSH2 0x12FD PUSH2 0x12B7 JUMP JUMPDEST JUMPDEST PUSH1 0x0 PUSH2 0x130C DUP5 DUP3 DUP6 ADD PUSH2 0x12D3 JUMP JUMPDEST SWAP2 POP POP SWAP3 SWAP2 POP POP JUMP JUMPDEST PUSH1 0x0 PUSH20 0xFFFFFFFFFFFFFFFFFFFFFFFFFFFFFFFFFFFFFFFF DUP3 AND SWAP1 POP SWAP2 SWAP1 POP JUMP JUMPDEST PUSH1 0x0 PUSH2 0x1340 DUP3 PUSH2 0x1315 JUMP JUMPDEST SWAP1 POP SWAP2 SWAP1 POP JUMP JUMPDEST PUSH2 0x1350 DUP2 PUSH2 0x1335 JUMP JUMPDEST DUP3 MSTORE POP POP JUMP JUMPDEST PUSH1 0x0 PUSH4 0xFFFFFFFF DUP3 AND SWAP1 POP SWAP2 SWAP1 POP JUMP JUMPDEST PUSH2 0x136F DUP2 PUSH2 0x1356 JUMP JUMPDEST DUP3 MSTORE POP POP JUMP JUMPDEST PUSH1 0x0 DUP2 ISZERO ISZERO SWAP1 POP SWAP2 SWAP1 POP JUMP JUMPDEST PUSH2 0x138A DUP2 PUSH2 0x1375 JUMP JUMPDEST DUP3 MSTORE POP POP JUMP JUMPDEST PUSH1 0x0 PUSH1 0xC0 DUP3 ADD SWAP1 POP PUSH2 0x13A5 PUSH1 0x0 DUP4 ADD DUP10 PUSH2 0x1347 JUMP JUMPDEST PUSH2 0x13B2 PUSH1 0x20 DUP4 ADD DUP9 PUSH2 0x128D JUMP JUMPDEST PUSH2 0x13BF PUSH1 0x40 DUP4 ADD DUP8 PUSH2 0x1366 JUMP JUMPDEST PUSH2 0x13CC PUSH1 0x60 DUP4 ADD DUP7 PUSH2 0x1366 JUMP JUMPDEST PUSH2 0x13D9 PUSH1 0x80 DUP4 ADD DUP6 PUSH2 0x128D JUMP JUMPDEST PUSH2 0x13E6 PUSH1 0xA0 DUP4 ADD DUP5 PUSH2 0x1381 JUMP JUMPDEST SWAP8 SWAP7 POP POP POP POP POP POP POP JUMP JUMPDEST PUSH2 0x13FA DUP2 PUSH2 0x1356 JUMP JUMPDEST DUP2 EQ PUSH2 0x1405 JUMPI PUSH1 0x0 DUP1 REVERT JUMPDEST POP JUMP JUMPDEST PUSH1 0x0 DUP2 CALLDATALOAD SWAP1 POP PUSH2 0x1417 DUP2 PUSH2 0x13F1 JUMP JUMPDEST SWAP3 SWAP2 POP POP JUMP JUMPDEST PUSH1 0x0 DUP1 PUSH1 0x0 PUSH1 0x60 DUP5 DUP7 SUB SLT ISZERO PUSH2 0x1436 JUMPI PUSH2 0x1435 PUSH2 0x12B7 JUMP JUMPDEST JUMPDEST PUSH1 0x0 PUSH2 0x1444 DUP7 DUP3 DUP8 ADD PUSH2 0x12D3 JUMP JUMPDEST SWAP4 POP POP PUSH1 0x20 PUSH2 0x1455 DUP7 DUP3 DUP8 ADD PUSH2 0x1408 JUMP JUMPDEST SWAP3 POP POP PUSH1 0x40 PUSH2 0x1466 DUP7 DUP3 DUP8 ADD PUSH2 0x1408 JUMP JUMPDEST SWAP2 POP POP SWAP3 POP SWAP3 POP SWAP3 JUMP JUMPDEST PUSH1 0x0 DUP1 PUSH1 0x40 DUP4 DUP6 SUB SLT ISZERO PUSH2 0x1487 JUMPI PUSH2 0x1486 PUSH2 0x12B7 JUMP JUMPDEST JUMPDEST PUSH1 0x0 PUSH2 0x1495 DUP6 DUP3 DUP7 ADD PUSH2 0x12D3 JUMP JUMPDEST SWAP3 POP POP PUSH1 0x20 PUSH2 0x14A6 DUP6 DUP3 DUP7 ADD PUSH2 0x12D3 JUMP JUMPDEST SWAP2 POP POP SWAP3 POP SWAP3 SWAP1 POP JUMP JUMPDEST PUSH2 0x14B9 DUP2 PUSH2 0x1335 JUMP JUMPDEST DUP2 EQ PUSH2 0x14C4 JUMPI PUSH1 0x0 DUP1 REVERT JUMPDEST POP JUMP JUMPDEST PUSH1 0x0 DUP2 CALLDATALOAD SWAP1 POP PUSH2 0x14D6 DUP2 PUSH2 0x14B0 JUMP JUMPDEST SWAP3 SWAP2 POP POP JUMP JUMPDEST PUSH1 0x0 DUP1 PUSH1 0x40 DUP4 DUP6 SUB SLT ISZERO PUSH2 0x14F3 JUMPI PUSH2 0x14F2 PUSH2 0x12B7 JUMP JUMPDEST JUMPDEST PUSH1 0x0 PUSH2 0x1501 DUP6 DUP3 DUP7 ADD PUSH2 0x12D3 JUMP JUMPDEST SWAP3 POP POP PUSH1 0x20 PUSH2 0x1512 DUP6 DUP3 DUP7 ADD PUSH2 0x14C7 JUMP JUMPDEST SWAP2 POP POP SWAP3 POP SWAP3 SWAP1 POP JUMP JUMPDEST PUSH1 0x0 DUP2 SWAP1 POP SWAP2 SWAP1 POP JUMP JUMPDEST PUSH1 0x0 PUSH2 0x1541 PUSH2 0x153C PUSH2 0x1537 DUP5 PUSH2 0x1315 JUMP JUMPDEST PUSH2 0x151C JUMP JUMPDEST PUSH2 0x1315 JUMP JUMPDEST SWAP1 POP SWAP2 SWAP1 POP JUMP JUMPDEST PUSH1 0x0 PUSH2 0x1553 DUP3 PUSH2 0x1526 JUMP JUMPDEST SWAP1 POP SWAP2 SWAP1 POP JUMP JUMPDEST PUSH1 0x0 PUSH2 0x1565 DUP3 PUSH2 0x1548 JUMP JUMPDEST SWAP1 POP SWAP2 SWAP1 POP JUMP JUMPDEST PUSH2 0x1575 DUP2 PUSH2 0x155A JUMP JUMPDEST DUP3 MSTORE POP POP JUMP JUMPDEST PUSH1 0x0 PUSH1 0x20 DUP3 ADD SWAP1 POP PUSH2 0x1590 PUSH1 0x0 DUP4 ADD DUP5 PUSH2 0x156C JUMP JUMPDEST SWAP3 SWAP2 POP POP JUMP JUMPDEST PUSH1 0x0 DUP3 DUP3 MSTORE PUSH1 0x20 DUP3 ADD SWAP1 POP SWAP3 SWAP2 POP POP JUMP JUMPDEST PUSH32 0x44656E6965640000000000000000000000000000000000000000000000000000 PUSH1 0x0 DUP3 ADD MSTORE POP JUMP JUMPDEST PUSH1 0x0 PUSH2 0x15DD PUSH1 0x6 DUP4 PUSH2 0x1596 JUMP JUMPDEST SWAP2 POP PUSH2 0x15E8 DUP3 PUSH2 0x15A7 JUMP JUMPDEST PUSH1 0x20 DUP3 ADD SWAP1 POP SWAP2 SWAP1 POP JUMP JUMPDEST PUSH1 0x0 PUSH1 0x20 DUP3 ADD SWAP1 POP DUP2 DUP2 SUB PUSH1 0x0 DUP4 ADD MSTORE PUSH2 0x160C DUP2 PUSH2 0x15D0 JUMP JUMPDEST SWAP1 POP SWAP2 SWAP1 POP JUMP JUMPDEST PUSH32 0x42616C20213D2030000000000000000000000000000000000000000000000000 PUSH1 0x0 DUP3 ADD MSTORE POP JUMP JUMPDEST PUSH1 0x0 PUSH2 0x1649 PUSH1 0x8 DUP4 PUSH2 0x1596 JUMP JUMPDEST SWAP2 POP PUSH2 0x1654 DUP3 PUSH2 0x1613 JUMP JUMPDEST PUSH1 0x20 DUP3 ADD SWAP1 POP SWAP2 SWAP1 POP JUMP JUMPDEST PUSH1 0x0 PUSH1 0x20 DUP3 ADD SWAP1 POP DUP2 DUP2 SUB PUSH1 0x0 DUP4 ADD MSTORE PUSH2 0x1678 DUP2 PUSH2 0x163C JUMP JUMPDEST SWAP1 POP SWAP2 SWAP1 POP JUMP JUMPDEST PUSH32 0x4E487B7100000000000000000000000000000000000000000000000000000000 PUSH1 0x0 MSTORE PUSH1 0x11 PUSH1 0x4 MSTORE PUSH1 0x24 PUSH1 0x0 REVERT JUMPDEST PUSH1 0x0 PUSH2 0x16B9 DUP3 PUSH2 0x1283 JUMP JUMPDEST SWAP2 POP PUSH1 0x0 DUP3 SUB PUSH2 0x16CC JUMPI PUSH2 0x16CB PUSH2 0x167F JUMP JUMPDEST JUMPDEST PUSH1 0x1 DUP3 SUB SWAP1 POP SWAP2 SWAP1 POP JUMP JUMPDEST PUSH32 0x506C6564676564203E3D20476F616C0000000000000000000000000000000000 PUSH1 0x0 DUP3 ADD MSTORE POP JUMP JUMPDEST PUSH1 0x0 PUSH2 0x170D PUSH1 0xF DUP4 PUSH2 0x1596 JUMP JUMPDEST SWAP2 POP PUSH2 0x1718 DUP3 PUSH2 0x16D7 JUMP JUMPDEST PUSH1 0x20 DUP3 ADD SWAP1 POP SWAP2 SWAP1 POP JUMP JUMPDEST PUSH1 0x0 PUSH1 0x20 DUP3 ADD SWAP1 POP DUP2 DUP2 SUB PUSH1 0x0 DUP4 ADD MSTORE PUSH2 0x173C DUP2 PUSH2 0x1700 JUMP JUMPDEST SWAP1 POP SWAP2 SWAP1 POP JUMP JUMPDEST PUSH1 0x0 PUSH1 0x40 DUP3 ADD SWAP1 POP PUSH2 0x1758 PUSH1 0x0 DUP4 ADD DUP6 PUSH2 0x1347 JUMP JUMPDEST PUSH2 0x1765 PUSH1 0x20 DUP4 ADD DUP5 PUSH2 0x128D JUMP JUMPDEST SWAP4 SWAP3 POP POP POP JUMP JUMPDEST PUSH2 0x1775 DUP2 PUSH2 0x1375 JUMP JUMPDEST DUP2 EQ PUSH2 0x1780 JUMPI PUSH1 0x0 DUP1 REVERT JUMPDEST POP JUMP JUMPDEST PUSH1 0x0 DUP2 MLOAD SWAP1 POP PUSH2 0x1792 DUP2 PUSH2 0x176C JUMP JUMPDEST SWAP3 SWAP2 POP POP JUMP JUMPDEST PUSH1 0x0 PUSH1 0x20 DUP3 DUP5 SUB SLT ISZERO PUSH2 0x17AE JUMPI PUSH2 0x17AD PUSH2 0x12B7 JUMP JUMPDEST JUMPDEST PUSH1 0x0 PUSH2 0x17BC DUP5 DUP3 DUP6 ADD PUSH2 0x1783 JUMP JUMPDEST SWAP2 POP POP SWAP3 SWAP2 POP POP JUMP JUMPDEST PUSH1 0x0 PUSH1 0x40 DUP3 ADD SWAP1 POP PUSH2 0x17DA PUSH1 0x0 DUP4 ADD DUP6 PUSH2 0x128D JUMP JUMPDEST PUSH2 0x17E7 PUSH1 0x20 DUP4 ADD DUP5 PUSH2 0x128D JUMP JUMPDEST SWAP4 SWAP3 POP POP POP JUMP JUMPDEST PUSH32 0x73746172743C6E6F770000000000000000000000000000000000000000000000 PUSH1 0x0 DUP3 ADD MSTORE POP JUMP JUMPDEST PUSH1 0x0 PUSH2 0x1824 PUSH1 0x9 DUP4 PUSH2 0x1596 JUMP JUMPDEST SWAP2 POP PUSH2 0x182F DUP3 PUSH2 0x17EE JUMP JUMPDEST PUSH1 0x20 DUP3 ADD SWAP1 POP SWAP2 SWAP1 POP JUMP JUMPDEST PUSH1 0x0 PUSH1 0x20 DUP3 ADD SWAP1 POP DUP2 DUP2 SUB PUSH1 0x0 DUP4 ADD MSTORE PUSH2 0x1853 DUP2 PUSH2 0x1817 JUMP JUMPDEST SWAP1 POP SWAP2 SWAP1 POP JUMP JUMPDEST PUSH32 0x73746172743C656E640000000000000000000000000000000000000000000000 PUSH1 0x0 DUP3 ADD MSTORE POP JUMP JUMPDEST PUSH1 0x0 PUSH2 0x1890 PUSH1 0x9 DUP4 PUSH2 0x1596 JUMP JUMPDEST SWAP2 POP PUSH2 0x189B DUP3 PUSH2 0x185A JUMP JUMPDEST PUSH1 0x20 DUP3 ADD SWAP1 POP SWAP2 SWAP1 POP JUMP JUMPDEST PUSH1 0x0 PUSH1 0x20 DUP3 ADD SWAP1 POP DUP2 DUP2 SUB PUSH1 0x0 DUP4 ADD MSTORE PUSH2 0x18BF DUP2 PUSH2 0x1883 JUMP JUMPDEST SWAP1 POP SWAP2 SWAP1 POP JUMP JUMPDEST PUSH1 0x0 PUSH2 0x18D1 DUP3 PUSH2 0x1283 JUMP JUMPDEST SWAP2 POP PUSH2 0x18DC DUP4 PUSH2 0x1283 JUMP JUMPDEST SWAP3 POP DUP3 DUP3 ADD SWAP1 POP DUP1 DUP3 GT ISZERO PUSH2 0x18F4 JUMPI PUSH2 0x18F3 PUSH2 0x167F JUMP JUMPDEST JUMPDEST SWAP3 SWAP2 POP POP JUMP JUMPDEST PUSH32 0x6475723C6D61785F647572000000000000000000000000000000000000000000 PUSH1 0x0 DUP3 ADD MSTORE POP JUMP JUMPDEST PUSH1 0x0 PUSH2 0x1930 PUSH1 0xB DUP4 PUSH2 0x1596 JUMP JUMPDEST SWAP2 POP PUSH2 0x193B DUP3 PUSH2 0x18FA JUMP JUMPDEST PUSH1 0x20 DUP3 ADD SWAP1 POP SWAP2 SWAP1 POP JUMP JUMPDEST PUSH1 0x0 PUSH1 0x20 DUP3 ADD SWAP1 POP DUP2 DUP2 SUB PUSH1 0x0 DUP4 ADD MSTORE PUSH2 0x195F DUP2 PUSH2 0x1923 JUMP JUMPDEST SWAP1 POP SWAP2 SWAP1 POP JUMP JUMPDEST PUSH1 0x0 PUSH1 0x80 DUP3 ADD SWAP1 POP PUSH2 0x197B PUSH1 0x0 DUP4 ADD DUP8 PUSH2 0x128D JUMP JUMPDEST PUSH2 0x1988 PUSH1 0x20 DUP4 ADD DUP7 PUSH2 0x128D JUMP JUMPDEST PUSH2 0x1995 PUSH1 0x40 DUP4 ADD DUP6 PUSH2 0x1366 JUMP JUMPDEST PUSH2 0x19A2 PUSH1 0x60 DUP4 ADD DUP5 PUSH2 0x1366 JUMP JUMPDEST SWAP6 SWAP5 POP POP POP POP POP JUMP JUMPDEST PUSH1 0x0 PUSH2 0x19B6 DUP3 PUSH2 0x1283 JUMP JUMPDEST SWAP2 POP PUSH32 0xFFFFFFFFFFFFFFFFFFFFFFFFFFFFFFFFFFFFFFFFFFFFFFFFFFFFFFFFFFFFFFFF DUP3 SUB PUSH2 0x19E8 JUMPI PUSH2 0x19E7 PUSH2 0x167F JUMP JUMPDEST JUMPDEST PUSH1 0x1 DUP3 ADD SWAP1 POP SWAP2 SWAP1 POP JUMP JUMPDEST PUSH32 0x6E6F742063726561746F72000000000000000000000000000000000000000000 PUSH1 0x0 DUP3 ADD MSTORE POP JUMP JUMPDEST PUSH1 0x0 PUSH2 0x1A29 PUSH1 0xB DUP4 PUSH2 0x1596 JUMP JUMPDEST SWAP2 POP PUSH2 0x1A34 DUP3 PUSH2 0x19F3 JUMP JUMPDEST PUSH1 0x20 DUP3 ADD SWAP1 POP SWAP2 SWAP1 POP JUMP JUMPDEST PUSH1 0x0 PUSH1 0x20 DUP3 ADD SWAP1 POP DUP2 DUP2 SUB PUSH1 0x0 DUP4 ADD MSTORE PUSH2 0x1A58 DUP2 PUSH2 0x1A1C JUMP JUMPDEST SWAP1 POP SWAP2 SWAP1 POP JUMP JUMPDEST PUSH32 0x6E6F7420656E6465640000000000000000000000000000000000000000000000 PUSH1 0x0 DUP3 ADD MSTORE POP JUMP JUMPDEST PUSH1 0x0 PUSH2 0x1A95 PUSH1 0x9 DUP4 PUSH2 0x1596 JUMP JUMPDEST SWAP2 POP PUSH2 0x1AA0 DUP3 PUSH2 0x1A5F JUMP JUMPDEST PUSH1 0x20 DUP3 ADD SWAP1 POP SWAP2 SWAP1 POP JUMP JUMPDEST PUSH1 0x0 PUSH1 0x20 DUP3 ADD SWAP1 POP DUP2 DUP2 SUB PUSH1 0x0 DUP4 ADD MSTORE PUSH2 0x1AC4 DUP2 PUSH2 0x1A88 JUMP JUMPDEST SWAP1 POP SWAP2 SWAP1 POP JUMP JUMPDEST PUSH32 0x706C6564676564203C20676F616C000000000000000000000000000000000000 PUSH1 0x0 DUP3 ADD MSTORE POP JUMP JUMPDEST PUSH1 0x0 PUSH2 0x1B01 PUSH1 0xE DUP4 PUSH2 0x1596 JUMP JUMPDEST SWAP2 POP PUSH2 0x1B0C DUP3 PUSH2 0x1ACB JUMP JUMPDEST PUSH1 0x20 DUP3 ADD SWAP1 POP SWAP2 SWAP1 POP JUMP JUMPDEST PUSH1 0x0 PUSH1 0x20 DUP3 ADD SWAP1 POP DUP2 DUP2 SUB PUSH1 0x0 DUP4 ADD MSTORE PUSH2 0x1B30 DUP2 PUSH2 0x1AF4 JUMP JUMPDEST SWAP1 POP SWAP2 SWAP1 POP JUMP JUMPDEST PUSH32 0x636C61696D656400000000000000000000000000000000000000000000000000 PUSH1 0x0 DUP3 ADD MSTORE POP JUMP JUMPDEST PUSH1 0x0 PUSH2 0x1B6D PUSH1 0x7 DUP4 PUSH2 0x1596 JUMP JUMPDEST SWAP2 POP PUSH2 0x1B78 DUP3 PUSH2 0x1B37 JUMP JUMPDEST PUSH1 0x20 DUP3 ADD SWAP1 POP SWAP2 SWAP1 POP JUMP JUMPDEST PUSH1 0x0 PUSH1 0x20 DUP3 ADD SWAP1 POP DUP2 DUP2 SUB PUSH1 0x0 DUP4 ADD MSTORE PUSH2 0x1B9C DUP2 PUSH2 0x1B60 JUMP JUMPDEST SWAP1 POP SWAP2 SWAP1 POP JUMP JUMPDEST PUSH32 0x656E646564000000000000000000000000000000000000000000000000000000 PUSH1 0x0 DUP3 ADD MSTORE POP JUMP JUMPDEST PUSH1 0x0 PUSH2 0x1BD9 PUSH1 0x5 DUP4 PUSH2 0x1596 JUMP JUMPDEST SWAP2 POP PUSH2 0x1BE4 DUP3 PUSH2 0x1BA3 JUMP JUMPDEST PUSH1 0x20 DUP3 ADD SWAP1 POP SWAP2 SWAP1 POP JUMP JUMPDEST PUSH1 0x0 PUSH1 0x20 DUP3 ADD SWAP1 POP DUP2 DUP2 SUB PUSH1 0x0 DUP4 ADD MSTORE PUSH2 0x1C08 DUP2 PUSH2 0x1BCC JUMP JUMPDEST SWAP1 POP SWAP2 SWAP1 POP JUMP JUMPDEST PUSH1 0x0 PUSH2 0x1C1A DUP3 PUSH2 0x1283 JUMP JUMPDEST SWAP2 POP PUSH2 0x1C25 DUP4 PUSH2 0x1283 JUMP JUMPDEST SWAP3 POP DUP3 DUP3 SUB SWAP1 POP DUP2 DUP2 GT ISZERO PUSH2 0x1C3D JUMPI PUSH2 0x1C3C PUSH2 0x167F JUMP JUMPDEST JUMPDEST SWAP3 SWAP2 POP POP JUMP JUMPDEST PUSH32 0x6E6F742073746172746564000000000000000000000000000000000000000000 PUSH1 0x0 DUP3 ADD MSTORE POP JUMP JUMPDEST PUSH1 0x0 PUSH2 0x1C79 PUSH1 0xB DUP4 PUSH2 0x1596 JUMP JUMPDEST SWAP2 POP PUSH2 0x1C84 DUP3 PUSH2 0x1C43 JUMP JUMPDEST PUSH1 0x20 DUP3 ADD SWAP1 POP SWAP2 SWAP1 POP JUMP JUMPDEST PUSH1 0x0 PUSH1 0x20 DUP3 ADD SWAP1 POP DUP2 DUP2 SUB PUSH1 0x0 DUP4 ADD MSTORE PUSH2 0x1CA8 DUP2 PUSH2 0x1C6C JUMP JUMPDEST SWAP1 POP SWAP2 SWAP1 POP JUMP JUMPDEST PUSH1 0x0 PUSH1 0x60 DUP3 ADD SWAP1 POP PUSH2 0x1CC4 PUSH1 0x0 DUP4 ADD DUP7 PUSH2 0x1347 JUMP JUMPDEST PUSH2 0x1CD1 PUSH1 0x20 DUP4 ADD DUP6 PUSH2 0x1347 JUMP JUMPDEST PUSH2 0x1CDE PUSH1 0x40 DUP4 ADD DUP5 PUSH2 0x128D JUMP JUMPDEST SWAP5 SWAP4 POP POP POP POP JUMP INVALID LOG2 PUSH5 0x6970667358 0x22 SLT KECCAK256 DUP1 MUL PUSH7 0xF6869FAC296942 0x29 0xF9 SLOAD ADDMOD SWAP3 BALANCE 0xBE SWAP1 MSIZE LOG2 GASLIMIT 0xD6 0xCE PUSH15 0x910E546B9BBAB62C64736F6C634300 ADDMOD GT STOP CALLER "
				},
				"gasEstimates": {
					"creation": {
						"codeDepositCost": "1490400",
						"executionCost": "infinite",
						"totalCost": "infinite"
					},
					"external": {
						"campaigns(uint256)": "infinite",
						"claim(uint256)": "infinite",
						"close(uint256)": "infinite",
						"count()": "2430",
						"index()": "2540",
						"launch(uint256,uint32,uint32)": "infinite",
						"pledge(uint256,uint256)": "infinite",
						"pledgedAmount(uint256,address)": "infinite",
						"refund(uint256)": "infinite",
						"time()": "403",
						"token()": "infinite",
						"unpledge(uint256,uint256)": "infinite"
					}
				},
				"methodIdentifiers": {
					"campaigns(uint256)": "141961bc",
					"claim(uint256)": "379607f5",
					"close(uint256)": "0aebeb4e",
					"count()": "06661abd",
					"index()": "2986c0e5",
					"launch(uint256,uint32,uint32)": "2c63f146",
					"pledge(uint256,uint256)": "fde327be",
					"pledgedAmount(uint256,address)": "aa4fb63a",
					"refund(uint256)": "278ecde1",
					"time()": "16ada547",
					"token()": "fc0c546a",
					"unpledge(uint256,uint256)": "711853ab"
				}
			},
			"storageLayout": {
				"storage": [
					{
						"astId": 149,
						"contract": "Homework3.sol:fund",
						"label": "count",
						"offset": 0,
						"slot": "0",
						"type": "t_uint256"
					},
					{
						"astId": 152,
						"contract": "Homework3.sol:fund",
						"label": "index",
						"offset": 0,
						"slot": "1",
						"type": "t_uint256"
					},
					{
						"astId": 160,
						"contract": "Homework3.sol:fund",
						"label": "campaigns",
						"offset": 0,
						"slot": "2",
						"type": "t_mapping(t_uint256,t_struct(Campaign)146_storage)"
					},
					{
						"astId": 166,
						"contract": "Homework3.sol:fund",
						"label": "pledgedAmount",
						"offset": 0,
						"slot": "3",
						"type": "t_mapping(t_uint256,t_mapping(t_address,t_uint256))"
					}
				],
				"types": {
					"t_address": {
						"encoding": "inplace",
						"label": "address",
						"numberOfBytes": "20"
					},
					"t_bool": {
						"encoding": "inplace",
						"label": "bool",
						"numberOfBytes": "1"
					},
					"t_mapping(t_address,t_uint256)": {
						"encoding": "mapping",
						"key": "t_address",
						"label": "mapping(address => uint256)",
						"numberOfBytes": "32",
						"value": "t_uint256"
					},
					"t_mapping(t_uint256,t_mapping(t_address,t_uint256))": {
						"encoding": "mapping",
						"key": "t_uint256",
						"label": "mapping(uint256 => mapping(address => uint256))",
						"numberOfBytes": "32",
						"value": "t_mapping(t_address,t_uint256)"
					},
					"t_mapping(t_uint256,t_struct(Campaign)146_storage)": {
						"encoding": "mapping",
						"key": "t_uint256",
						"label": "mapping(uint256 => struct fund.Campaign)",
						"numberOfBytes": "32",
						"value": "t_struct(Campaign)146_storage"
					},
					"t_struct(Campaign)146_storage": {
						"encoding": "inplace",
						"label": "struct fund.Campaign",
						"members": [
							{
								"astId": 135,
								"contract": "Homework3.sol:fund",
								"label": "creator",
								"offset": 0,
								"slot": "0",
								"type": "t_address"
							},
							{
								"astId": 137,
								"contract": "Homework3.sol:fund",
								"label": "goal",
								"offset": 0,
								"slot": "1",
								"type": "t_uint256"
							},
							{
								"astId": 139,
								"contract": "Homework3.sol:fund",
								"label": "start",
								"offset": 0,
								"slot": "2",
								"type": "t_uint32"
							},
							{
								"astId": 141,
								"contract": "Homework3.sol:fund",
								"label": "end",
								"offset": 4,
								"slot": "2",
								"type": "t_uint32"
							},
							{
								"astId": 143,
								"contract": "Homework3.sol:fund",
								"label": "pledged",
								"offset": 0,
								"slot": "3",
								"type": "t_uint256"
							},
							{
								"astId": 145,
								"contract": "Homework3.sol:fund",
								"label": "claimed",
								"offset": 0,
								"slot": "4",
								"type": "t_bool"
							}
						],
						"numberOfBytes": "160"
					},
					"t_uint256": {
						"encoding": "inplace",
						"label": "uint256",
						"numberOfBytes": "32"
					},
					"t_uint32": {
						"encoding": "inplace",
						"label": "uint32",
						"numberOfBytes": "4"
					}
				}
			},
			"userdoc": {
				"kind": "user",
				"methods": {},
				"version": 1
			}
		}
	}
}