{
	"Homework.sol": {
		"ETHStore": {
			"abi": [
				{
					"inputs": [],
					"stateMutability": "nonpayable",
					"type": "constructor"
				},
				{
					"inputs": [
						{
							"internalType": "uint256",
							"name": "amount",
							"type": "uint256"
						},
						{
							"internalType": "address payable",
							"name": "destination",
							"type": "address"
						}
					],
					"name": "withdraw",
					"outputs": [],
					"stateMutability": "nonpayable",
					"type": "function"
				},
				{
					"stateMutability": "payable",
					"type": "receive"
				}
			],
			"devdoc": {
				"kind": "dev",
				"methods": {},
				"version": 1
			},
			"evm": {
				"assembly": "    /* \"Homework.sol\":57:541  contract ETHStore {... */\n  mstore(0x40, 0x80)\n    /* \"Homework.sol\":110:151  constructor() {... */\n  callvalue\n  dup1\n  iszero\n  tag_1\n  jumpi\n  0x00\n  dup1\n  revert\ntag_1:\n  pop\n    /* \"Homework.sol\":138:148  msg.sender */\n  caller\n    /* \"Homework.sol\":130:135  owner */\n  0x01\n  0x00\n    /* \"Homework.sol\":130:148  owner = msg.sender */\n  0x0100\n  exp\n  dup2\n  sload\n  dup2\n  0xffffffffffffffffffffffffffffffffffffffff\n  mul\n  not\n  and\n  swap1\n  dup4\n  0xffffffffffffffffffffffffffffffffffffffff\n  and\n  mul\n  or\n  swap1\n  sstore\n  pop\n    /* \"Homework.sol\":57:541  contract ETHStore {... */\n  dataSize(sub_0)\n  dup1\n  dataOffset(sub_0)\n  0x00\n  codecopy\n  0x00\n  return\nstop\n\nsub_0: assembly {\n        /* \"Homework.sol\":57:541  contract ETHStore {... */\n      mstore(0x40, 0x80)\n      jumpi(tag_1, lt(calldatasize, 0x04))\n      shr(0xe0, calldataload(0x00))\n      dup1\n      0xf714ce\n      eq\n      tag_3\n      jumpi\n      jump(tag_2)\n    tag_1:\n      jumpi(tag_2, calldatasize)\n        /* \"Homework.sol\":197:206  msg.value */\n      callvalue\n        /* \"Homework.sol\":186:193  balance */\n      0x00\n      dup1\n        /* \"Homework.sol\":186:206  balance += msg.value */\n      dup3\n      dup3\n      sload\n      tag_6\n      swap2\n      swap1\n      tag_7\n      jump\t// in\n    tag_6:\n      swap3\n      pop\n      pop\n      dup2\n      swap1\n      sstore\n      pop\n        /* \"Homework.sol\":57:541  contract ETHStore {... */\n      stop\n    tag_2:\n      0x00\n      dup1\n      revert\n        /* \"Homework.sol\":346:539  function withdraw(uint amount, address payable destination) public onlyowner{... */\n    tag_3:\n      callvalue\n      dup1\n      iszero\n      tag_8\n      jumpi\n      0x00\n      dup1\n      revert\n    tag_8:\n      pop\n      tag_9\n      0x04\n      dup1\n      calldatasize\n      sub\n      dup2\n      add\n      swap1\n      tag_10\n      swap2\n      swap1\n      tag_11\n      jump\t// in\n    tag_10:\n      tag_12\n      jump\t// in\n    tag_9:\n      stop\n    tag_12:\n        /* \"Homework.sol\":312:317  owner */\n      0x01\n      0x00\n      swap1\n      sload\n      swap1\n      0x0100\n      exp\n      swap1\n      div\n      0xffffffffffffffffffffffffffffffffffffffff\n      and\n        /* \"Homework.sol\":300:317  msg.sender==owner */\n      0xffffffffffffffffffffffffffffffffffffffff\n      and\n        /* \"Homework.sol\":300:310  msg.sender */\n      caller\n        /* \"Homework.sol\":300:317  msg.sender==owner */\n      0xffffffffffffffffffffffffffffffffffffffff\n      and\n      eq\n        /* \"Homework.sol\":292:334  require(msg.sender==owner, \"Unauthorized\") */\n      tag_14\n      jumpi\n      mload(0x40)\n      0x08c379a000000000000000000000000000000000000000000000000000000000\n      dup2\n      mstore\n      0x04\n      add\n      tag_15\n      swap1\n      tag_16\n      jump\t// in\n    tag_15:\n      mload(0x40)\n      dup1\n      swap2\n      sub\n      swap1\n      revert\n    tag_14:\n        /* \"Homework.sol\":446:453  balance */\n      sload(0x00)\n        /* \"Homework.sol\":436:442  amount */\n      dup3\n        /* \"Homework.sol\":436:453  amount <= balance */\n      gt\n      iszero\n        /* \"Homework.sol\":428:470  require(amount <= balance, \"Insufficient\") */\n      tag_18\n      jumpi\n      mload(0x40)\n      0x08c379a000000000000000000000000000000000000000000000000000000000\n      dup2\n      mstore\n      0x04\n      add\n      tag_19\n      swap1\n      tag_20\n      jump\t// in\n    tag_19:\n      mload(0x40)\n      dup1\n      swap2\n      sub\n      swap1\n      revert\n    tag_18:\n        /* \"Homework.sol\":476:487  destination */\n      dup1\n        /* \"Homework.sol\":476:496  destination.transfer */\n      0xffffffffffffffffffffffffffffffffffffffff\n      and\n        /* \"Homework.sol\":476:504  destination.transfer(amount) */\n      0x08fc\n        /* \"Homework.sol\":497:503  amount */\n      dup4\n        /* \"Homework.sol\":476:504  destination.transfer(amount) */\n      swap1\n      dup2\n      iszero\n      mul\n      swap1\n      mload(0x40)\n      0x00\n      mload(0x40)\n      dup1\n      dup4\n      sub\n      dup2\n      dup6\n      dup9\n      dup9\n      call\n      swap4\n      pop\n      pop\n      pop\n      pop\n      iszero\n      dup1\n      iszero\n      tag_22\n      jumpi\n      returndatasize\n      0x00\n      dup1\n      returndatacopy\n      revert(0x00, returndatasize)\n    tag_22:\n      pop\n        /* \"Homework.sol\":530:536  amount */\n      dup2\n        /* \"Homework.sol\":520:527  balance */\n      sload(0x00)\n        /* \"Homework.sol\":520:536  balance - amount */\n      tag_23\n      swap2\n      swap1\n      tag_24\n      jump\t// in\n    tag_23:\n        /* \"Homework.sol\":510:517  balance */\n      0x00\n        /* \"Homework.sol\":510:536  balance = balance - amount */\n      dup2\n      swap1\n      sstore\n      pop\n        /* \"Homework.sol\":346:539  function withdraw(uint amount, address payable destination) public onlyowner{... */\n      pop\n      pop\n      jump\t// out\n        /* \"#utility.yul\":7:162   */\n    tag_26:\n        /* \"#utility.yul\":61:66   */\n      0x00\n        /* \"#utility.yul\":99:105   */\n      dup2\n        /* \"#utility.yul\":86:106   */\n      calldataload\n        /* \"#utility.yul\":77:106   */\n      swap1\n      pop\n        /* \"#utility.yul\":115:156   */\n      tag_28\n        /* \"#utility.yul\":150:155   */\n      dup2\n        /* \"#utility.yul\":115:156   */\n      tag_29\n      jump\t// in\n    tag_28:\n        /* \"#utility.yul\":7:162   */\n      swap3\n      swap2\n      pop\n      pop\n      jump\t// out\n        /* \"#utility.yul\":168:307   */\n    tag_30:\n        /* \"#utility.yul\":214:219   */\n      0x00\n        /* \"#utility.yul\":252:258   */\n      dup2\n        /* \"#utility.yul\":239:259   */\n      calldataload\n        /* \"#utility.yul\":230:259   */\n      swap1\n      pop\n        /* \"#utility.yul\":268:301   */\n      tag_32\n        /* \"#utility.yul\":295:300   */\n      dup2\n        /* \"#utility.yul\":268:301   */\n      tag_33\n      jump\t// in\n    tag_32:\n        /* \"#utility.yul\":168:307   */\n      swap3\n      swap2\n      pop\n      pop\n      jump\t// out\n        /* \"#utility.yul\":313:803   */\n    tag_11:\n        /* \"#utility.yul\":389:395   */\n      0x00\n        /* \"#utility.yul\":397:403   */\n      dup1\n        /* \"#utility.yul\":446:448   */\n      0x40\n        /* \"#utility.yul\":434:443   */\n      dup4\n        /* \"#utility.yul\":425:432   */\n      dup6\n        /* \"#utility.yul\":421:444   */\n      sub\n        /* \"#utility.yul\":417:449   */\n      slt\n        /* \"#utility.yul\":414:533   */\n      iszero\n      tag_35\n      jumpi\n        /* \"#utility.yul\":452:531   */\n      tag_36\n      tag_37\n      jump\t// in\n    tag_36:\n        /* \"#utility.yul\":414:533   */\n    tag_35:\n        /* \"#utility.yul\":572:573   */\n      0x00\n        /* \"#utility.yul\":597:650   */\n      tag_38\n        /* \"#utility.yul\":642:649   */\n      dup6\n        /* \"#utility.yul\":633:639   */\n      dup3\n        /* \"#utility.yul\":622:631   */\n      dup7\n        /* \"#utility.yul\":618:640   */\n      add\n        /* \"#utility.yul\":597:650   */\n      tag_30\n      jump\t// in\n    tag_38:\n        /* \"#utility.yul\":587:650   */\n      swap3\n      pop\n        /* \"#utility.yul\":543:660   */\n      pop\n        /* \"#utility.yul\":699:701   */\n      0x20\n        /* \"#utility.yul\":725:786   */\n      tag_39\n        /* \"#utility.yul\":778:785   */\n      dup6\n        /* \"#utility.yul\":769:775   */\n      dup3\n        /* \"#utility.yul\":758:767   */\n      dup7\n        /* \"#utility.yul\":754:776   */\n      add\n        /* \"#utility.yul\":725:786   */\n      tag_26\n      jump\t// in\n    tag_39:\n        /* \"#utility.yul\":715:786   */\n      swap2\n      pop\n        /* \"#utility.yul\":670:796   */\n      pop\n        /* \"#utility.yul\":313:803   */\n      swap3\n      pop\n      swap3\n      swap1\n      pop\n      jump\t// out\n        /* \"#utility.yul\":809:1175   */\n    tag_40:\n        /* \"#utility.yul\":951:954   */\n      0x00\n        /* \"#utility.yul\":972:1039   */\n      tag_42\n        /* \"#utility.yul\":1036:1038   */\n      0x0c\n        /* \"#utility.yul\":1031:1034   */\n      dup4\n        /* \"#utility.yul\":972:1039   */\n      tag_43\n      jump\t// in\n    tag_42:\n        /* \"#utility.yul\":965:1039   */\n      swap2\n      pop\n        /* \"#utility.yul\":1048:1141   */\n      tag_44\n        /* \"#utility.yul\":1137:1140   */\n      dup3\n        /* \"#utility.yul\":1048:1141   */\n      tag_45\n      jump\t// in\n    tag_44:\n        /* \"#utility.yul\":1166:1168   */\n      0x20\n        /* \"#utility.yul\":1161:1164   */\n      dup3\n        /* \"#utility.yul\":1157:1169   */\n      add\n        /* \"#utility.yul\":1150:1169   */\n      swap1\n      pop\n        /* \"#utility.yul\":809:1175   */\n      swap2\n      swap1\n      pop\n      jump\t// out\n        /* \"#utility.yul\":1181:1547   */\n    tag_46:\n        /* \"#utility.yul\":1323:1326   */\n      0x00\n        /* \"#utility.yul\":1344:1411   */\n      tag_48\n        /* \"#utility.yul\":1408:1410   */\n      0x0c\n        /* \"#utility.yul\":1403:1406   */\n      dup4\n        /* \"#utility.yul\":1344:1411   */\n      tag_43\n      jump\t// in\n    tag_48:\n        /* \"#utility.yul\":1337:1411   */\n      swap2\n      pop\n        /* \"#utility.yul\":1420:1513   */\n      tag_49\n        /* \"#utility.yul\":1509:1512   */\n      dup3\n        /* \"#utility.yul\":1420:1513   */\n      tag_50\n      jump\t// in\n    tag_49:\n        /* \"#utility.yul\":1538:1540   */\n      0x20\n        /* \"#utility.yul\":1533:1536   */\n      dup3\n        /* \"#utility.yul\":1529:1541   */\n      add\n        /* \"#utility.yul\":1522:1541   */\n      swap1\n      pop\n        /* \"#utility.yul\":1181:1547   */\n      swap2\n      swap1\n      pop\n      jump\t// out\n        /* \"#utility.yul\":1553:1972   */\n    tag_20:\n        /* \"#utility.yul\":1719:1723   */\n      0x00\n        /* \"#utility.yul\":1757:1759   */\n      0x20\n        /* \"#utility.yul\":1746:1755   */\n      dup3\n        /* \"#utility.yul\":1742:1760   */\n      add\n        /* \"#utility.yul\":1734:1760   */\n      swap1\n      pop\n        /* \"#utility.yul\":1806:1815   */\n      dup2\n        /* \"#utility.yul\":1800:1804   */\n      dup2\n        /* \"#utility.yul\":1796:1816   */\n      sub\n        /* \"#utility.yul\":1792:1793   */\n      0x00\n        /* \"#utility.yul\":1781:1790   */\n      dup4\n        /* \"#utility.yul\":1777:1794   */\n      add\n        /* \"#utility.yul\":1770:1817   */\n      mstore\n        /* \"#utility.yul\":1834:1965   */\n      tag_52\n        /* \"#utility.yul\":1960:1964   */\n      dup2\n        /* \"#utility.yul\":1834:1965   */\n      tag_40\n      jump\t// in\n    tag_52:\n        /* \"#utility.yul\":1826:1965   */\n      swap1\n      pop\n        /* \"#utility.yul\":1553:1972   */\n      swap2\n      swap1\n      pop\n      jump\t// out\n        /* \"#utility.yul\":1978:2397   */\n    tag_16:\n        /* \"#utility.yul\":2144:2148   */\n      0x00\n        /* \"#utility.yul\":2182:2184   */\n      0x20\n        /* \"#utility.yul\":2171:2180   */\n      dup3\n        /* \"#utility.yul\":2167:2185   */\n      add\n        /* \"#utility.yul\":2159:2185   */\n      swap1\n      pop\n        /* \"#utility.yul\":2231:2240   */\n      dup2\n        /* \"#utility.yul\":2225:2229   */\n      dup2\n        /* \"#utility.yul\":2221:2241   */\n      sub\n        /* \"#utility.yul\":2217:2218   */\n      0x00\n        /* \"#utility.yul\":2206:2215   */\n      dup4\n        /* \"#utility.yul\":2202:2219   */\n      add\n        /* \"#utility.yul\":2195:2242   */\n      mstore\n        /* \"#utility.yul\":2259:2390   */\n      tag_54\n        /* \"#utility.yul\":2385:2389   */\n      dup2\n        /* \"#utility.yul\":2259:2390   */\n      tag_46\n      jump\t// in\n    tag_54:\n        /* \"#utility.yul\":2251:2390   */\n      swap1\n      pop\n        /* \"#utility.yul\":1978:2397   */\n      swap2\n      swap1\n      pop\n      jump\t// out\n        /* \"#utility.yul\":2484:2653   */\n    tag_43:\n        /* \"#utility.yul\":2568:2579   */\n      0x00\n        /* \"#utility.yul\":2602:2608   */\n      dup3\n        /* \"#utility.yul\":2597:2600   */\n      dup3\n        /* \"#utility.yul\":2590:2609   */\n      mstore\n        /* \"#utility.yul\":2642:2646   */\n      0x20\n        /* \"#utility.yul\":2637:2640   */\n      dup3\n        /* \"#utility.yul\":2633:2647   */\n      add\n        /* \"#utility.yul\":2618:2647   */\n      swap1\n      pop\n        /* \"#utility.yul\":2484:2653   */\n      swap3\n      swap2\n      pop\n      pop\n      jump\t// out\n        /* \"#utility.yul\":2659:2964   */\n    tag_7:\n        /* \"#utility.yul\":2699:2702   */\n      0x00\n        /* \"#utility.yul\":2718:2738   */\n      tag_59\n        /* \"#utility.yul\":2736:2737   */\n      dup3\n        /* \"#utility.yul\":2718:2738   */\n      tag_60\n      jump\t// in\n    tag_59:\n        /* \"#utility.yul\":2713:2738   */\n      swap2\n      pop\n        /* \"#utility.yul\":2752:2772   */\n      tag_61\n        /* \"#utility.yul\":2770:2771   */\n      dup4\n        /* \"#utility.yul\":2752:2772   */\n      tag_60\n      jump\t// in\n    tag_61:\n        /* \"#utility.yul\":2747:2772   */\n      swap3\n      pop\n        /* \"#utility.yul\":2906:2907   */\n      dup3\n        /* \"#utility.yul\":2838:2904   */\n      0xffffffffffffffffffffffffffffffffffffffffffffffffffffffffffffffff\n        /* \"#utility.yul\":2834:2908   */\n      sub\n        /* \"#utility.yul\":2831:2832   */\n      dup3\n        /* \"#utility.yul\":2828:2909   */\n      gt\n        /* \"#utility.yul\":2825:2932   */\n      iszero\n      tag_62\n      jumpi\n        /* \"#utility.yul\":2912:2930   */\n      tag_63\n      tag_64\n      jump\t// in\n    tag_63:\n        /* \"#utility.yul\":2825:2932   */\n    tag_62:\n        /* \"#utility.yul\":2956:2957   */\n      dup3\n        /* \"#utility.yul\":2953:2954   */\n      dup3\n        /* \"#utility.yul\":2949:2958   */\n      add\n        /* \"#utility.yul\":2942:2958   */\n      swap1\n      pop\n        /* \"#utility.yul\":2659:2964   */\n      swap3\n      swap2\n      pop\n      pop\n      jump\t// out\n        /* \"#utility.yul\":2970:3161   */\n    tag_24:\n        /* \"#utility.yul\":3010:3014   */\n      0x00\n        /* \"#utility.yul\":3030:3050   */\n      tag_66\n        /* \"#utility.yul\":3048:3049   */\n      dup3\n        /* \"#utility.yul\":3030:3050   */\n      tag_60\n      jump\t// in\n    tag_66:\n        /* \"#utility.yul\":3025:3050   */\n      swap2\n      pop\n        /* \"#utility.yul\":3064:3084   */\n      tag_67\n        /* \"#utility.yul\":3082:3083   */\n      dup4\n        /* \"#utility.yul\":3064:3084   */\n      tag_60\n      jump\t// in\n    tag_67:\n        /* \"#utility.yul\":3059:3084   */\n      swap3\n      pop\n        /* \"#utility.yul\":3103:3104   */\n      dup3\n        /* \"#utility.yul\":3100:3101   */\n      dup3\n        /* \"#utility.yul\":3097:3105   */\n      lt\n        /* \"#utility.yul\":3094:3128   */\n      iszero\n      tag_68\n      jumpi\n        /* \"#utility.yul\":3108:3126   */\n      tag_69\n      tag_64\n      jump\t// in\n    tag_69:\n        /* \"#utility.yul\":3094:3128   */\n    tag_68:\n        /* \"#utility.yul\":3153:3154   */\n      dup3\n        /* \"#utility.yul\":3150:3151   */\n      dup3\n        /* \"#utility.yul\":3146:3155   */\n      sub\n        /* \"#utility.yul\":3138:3155   */\n      swap1\n      pop\n        /* \"#utility.yul\":2970:3161   */\n      swap3\n      swap2\n      pop\n      pop\n      jump\t// out\n        /* \"#utility.yul\":3167:3271   */\n    tag_70:\n        /* \"#utility.yul\":3212:3219   */\n      0x00\n        /* \"#utility.yul\":3241:3265   */\n      tag_72\n        /* \"#utility.yul\":3259:3264   */\n      dup3\n        /* \"#utility.yul\":3241:3265   */\n      tag_73\n      jump\t// in\n    tag_72:\n        /* \"#utility.yul\":3230:3265   */\n      swap1\n      pop\n        /* \"#utility.yul\":3167:3271   */\n      swap2\n      swap1\n      pop\n      jump\t// out\n        /* \"#utility.yul\":3277:3403   */\n    tag_73:\n        /* \"#utility.yul\":3314:3321   */\n      0x00\n        /* \"#utility.yul\":3354:3396   */\n      0xffffffffffffffffffffffffffffffffffffffff\n        /* \"#utility.yul\":3347:3352   */\n      dup3\n        /* \"#utility.yul\":3343:3397   */\n      and\n        /* \"#utility.yul\":3332:3397   */\n      swap1\n      pop\n        /* \"#utility.yul\":3277:3403   */\n      swap2\n      swap1\n      pop\n      jump\t// out\n        /* \"#utility.yul\":3409:3486   */\n    tag_60:\n        /* \"#utility.yul\":3446:3453   */\n      0x00\n        /* \"#utility.yul\":3475:3480   */\n      dup2\n        /* \"#utility.yul\":3464:3480   */\n      swap1\n      pop\n        /* \"#utility.yul\":3409:3486   */\n      swap2\n      swap1\n      pop\n      jump\t// out\n        /* \"#utility.yul\":3492:3672   */\n    tag_64:\n        /* \"#utility.yul\":3540:3617   */\n      0x4e487b7100000000000000000000000000000000000000000000000000000000\n        /* \"#utility.yul\":3537:3538   */\n      0x00\n        /* \"#utility.yul\":3530:3618   */\n      mstore\n        /* \"#utility.yul\":3637:3641   */\n      0x11\n        /* \"#utility.yul\":3634:3635   */\n      0x04\n        /* \"#utility.yul\":3627:3642   */\n      mstore\n        /* \"#utility.yul\":3661:3665   */\n      0x24\n        /* \"#utility.yul\":3658:3659   */\n      0x00\n        /* \"#utility.yul\":3651:3666   */\n      revert\n        /* \"#utility.yul\":3801:3918   */\n    tag_37:\n        /* \"#utility.yul\":3910:3911   */\n      0x00\n        /* \"#utility.yul\":3907:3908   */\n      dup1\n        /* \"#utility.yul\":3900:3912   */\n      revert\n        /* \"#utility.yul\":3924:4086   */\n    tag_45:\n        /* \"#utility.yul\":4064:4078   */\n      0x496e73756666696369656e740000000000000000000000000000000000000000\n        /* \"#utility.yul\":4060:4061   */\n      0x00\n        /* \"#utility.yul\":4052:4058   */\n      dup3\n        /* \"#utility.yul\":4048:4062   */\n      add\n        /* \"#utility.yul\":4041:4079   */\n      mstore\n        /* \"#utility.yul\":3924:4086   */\n      pop\n      jump\t// out\n        /* \"#utility.yul\":4092:4254   */\n    tag_50:\n        /* \"#utility.yul\":4232:4246   */\n      0x556e617574686f72697a65640000000000000000000000000000000000000000\n        /* \"#utility.yul\":4228:4229   */\n      0x00\n        /* \"#utility.yul\":4220:4226   */\n      dup3\n        /* \"#utility.yul\":4216:4230   */\n      add\n        /* \"#utility.yul\":4209:4247   */\n      mstore\n        /* \"#utility.yul\":4092:4254   */\n      pop\n      jump\t// out\n        /* \"#utility.yul\":4260:4398   */\n    tag_29:\n        /* \"#utility.yul\":4341:4373   */\n      tag_83\n        /* \"#utility.yul\":4367:4372   */\n      dup2\n        /* \"#utility.yul\":4341:4373   */\n      tag_70\n      jump\t// in\n    tag_83:\n        /* \"#utility.yul\":4334:4339   */\n      dup2\n        /* \"#utility.yul\":4331:4374   */\n      eq\n        /* \"#utility.yul\":4321:4392   */\n      tag_84\n      jumpi\n        /* \"#utility.yul\":4388:4389   */\n      0x00\n        /* \"#utility.yul\":4385:4386   */\n      dup1\n        /* \"#utility.yul\":4378:4390   */\n      revert\n        /* \"#utility.yul\":4321:4392   */\n    tag_84:\n        /* \"#utility.yul\":4260:4398   */\n      pop\n      jump\t// out\n        /* \"#utility.yul\":4404:4526   */\n    tag_33:\n        /* \"#utility.yul\":4477:4501   */\n      tag_86\n        /* \"#utility.yul\":4495:4500   */\n      dup2\n        /* \"#utility.yul\":4477:4501   */\n      tag_60\n      jump\t// in\n    tag_86:\n        /* \"#utility.yul\":4470:4475   */\n      dup2\n        /* \"#utility.yul\":4467:4502   */\n      eq\n        /* \"#utility.yul\":4457:4520   */\n      tag_87\n      jumpi\n        /* \"#utility.yul\":4516:4517   */\n      0x00\n        /* \"#utility.yul\":4513:4514   */\n      dup1\n        /* \"#utility.yul\":4506:4518   */\n      revert\n        /* \"#utility.yul\":4457:4520   */\n    tag_87:\n        /* \"#utility.yul\":4404:4526   */\n      pop\n      jump\t// out\n\n    auxdata: 0xa26469706673582212205c0ef00b41539d4763e6b383f2bc5eafbed918ebf9197a34a5b61764d41aec3e64736f6c63430008070033\n}\n",
				"bytecode": {
					"linkReferences": {},
					"object": "608060405234801561001057600080fd5b5033600160006101000a81548173ffffffffffffffffffffffffffffffffffffffff021916908373ffffffffffffffffffffffffffffffffffffffff160217905550610453806100616000396000f3fe6080604052600436106100215760003560e01c8062f714ce1461004557610040565b36610040573460008082825461003791906102a3565b92505081905550005b600080fd5b34801561005157600080fd5b5061006c600480360381019061006791906101cc565b61006e565b005b600160009054906101000a900473ffffffffffffffffffffffffffffffffffffffff1673ffffffffffffffffffffffffffffffffffffffff163373ffffffffffffffffffffffffffffffffffffffff16146100fe576040517f08c379a00000000000000000000000000000000000000000000000000000000081526004016100f590610272565b60405180910390fd5b600054821115610143576040517f08c379a000000000000000000000000000000000000000000000000000000000815260040161013a90610252565b60405180910390fd5b8073ffffffffffffffffffffffffffffffffffffffff166108fc839081150290604051600060405180830381858888f19350505050158015610189573d6000803e3d6000fd5b508160005461019891906102f9565b6000819055505050565b6000813590506101b1816103ef565b92915050565b6000813590506101c681610406565b92915050565b600080604083850312156101e3576101e2610398565b5b60006101f1858286016101b7565b9250506020610202858286016101a2565b9150509250929050565b6000610219600c83610292565b91506102248261039d565b602082019050919050565b600061023c600c83610292565b9150610247826103c6565b602082019050919050565b6000602082019050818103600083015261026b8161020c565b9050919050565b6000602082019050818103600083015261028b8161022f565b9050919050565b600082825260208201905092915050565b60006102ae8261035f565b91506102b98361035f565b9250827fffffffffffffffffffffffffffffffffffffffffffffffffffffffffffffffff038211156102ee576102ed610369565b5b828201905092915050565b60006103048261035f565b915061030f8361035f565b92508282101561032257610321610369565b5b828203905092915050565b60006103388261033f565b9050919050565b600073ffffffffffffffffffffffffffffffffffffffff82169050919050565b6000819050919050565b7f4e487b7100000000000000000000000000000000000000000000000000000000600052601160045260246000fd5b600080fd5b7f496e73756666696369656e740000000000000000000000000000000000000000600082015250565b7f556e617574686f72697a65640000000000000000000000000000000000000000600082015250565b6103f88161032d565b811461040357600080fd5b50565b61040f8161035f565b811461041a57600080fd5b5056fea26469706673582212205c0ef00b41539d4763e6b383f2bc5eafbed918ebf9197a34a5b61764d41aec3e64736f6c63430008070033",
					"opcodes": "PUSH1 0x80 PUSH1 0x40 MSTORE CALLVALUE DUP1 ISZERO PUSH2 0x10 JUMPI PUSH1 0x0 DUP1 REVERT JUMPDEST POP CALLER PUSH1 0x1 PUSH1 0x0 PUSH2 0x100 EXP DUP2 SLOAD DUP2 PUSH20 0xFFFFFFFFFFFFFFFFFFFFFFFFFFFFFFFFFFFFFFFF MUL NOT AND SWAP1 DUP4 PUSH20 0xFFFFFFFFFFFFFFFFFFFFFFFFFFFFFFFFFFFFFFFF AND MUL OR SWAP1 SSTORE POP PUSH2 0x453 DUP1 PUSH2 0x61 PUSH1 0x0 CODECOPY PUSH1 0x0 RETURN INVALID PUSH1 0x80 PUSH1 0x40 MSTORE PUSH1 0x4 CALLDATASIZE LT PUSH2 0x21 JUMPI PUSH1 0x0 CALLDATALOAD PUSH1 0xE0 SHR DUP1 PUSH3 0xF714CE EQ PUSH2 0x45 JUMPI PUSH2 0x40 JUMP JUMPDEST CALLDATASIZE PUSH2 0x40 JUMPI CALLVALUE PUSH1 0x0 DUP1 DUP3 DUP3 SLOAD PUSH2 0x37 SWAP2 SWAP1 PUSH2 0x2A3 JUMP JUMPDEST SWAP3 POP POP DUP2 SWAP1 SSTORE POP STOP JUMPDEST PUSH1 0x0 DUP1 REVERT JUMPDEST CALLVALUE DUP1 ISZERO PUSH2 0x51 JUMPI PUSH1 0x0 DUP1 REVERT JUMPDEST POP PUSH2 0x6C PUSH1 0x4 DUP1 CALLDATASIZE SUB DUP2 ADD SWAP1 PUSH2 0x67 SWAP2 SWAP1 PUSH2 0x1CC JUMP JUMPDEST PUSH2 0x6E JUMP JUMPDEST STOP JUMPDEST PUSH1 0x1 PUSH1 0x0 SWAP1 SLOAD SWAP1 PUSH2 0x100 EXP SWAP1 DIV PUSH20 0xFFFFFFFFFFFFFFFFFFFFFFFFFFFFFFFFFFFFFFFF AND PUSH20 0xFFFFFFFFFFFFFFFFFFFFFFFFFFFFFFFFFFFFFFFF AND CALLER PUSH20 0xFFFFFFFFFFFFFFFFFFFFFFFFFFFFFFFFFFFFFFFF AND EQ PUSH2 0xFE JUMPI PUSH1 0x40 MLOAD PUSH32 0x8C379A000000000000000000000000000000000000000000000000000000000 DUP2 MSTORE PUSH1 0x4 ADD PUSH2 0xF5 SWAP1 PUSH2 0x272 JUMP JUMPDEST PUSH1 0x40 MLOAD DUP1 SWAP2 SUB SWAP1 REVERT JUMPDEST PUSH1 0x0 SLOAD DUP3 GT ISZERO PUSH2 0x143 JUMPI PUSH1 0x40 MLOAD PUSH32 0x8C379A000000000000000000000000000000000000000000000000000000000 DUP2 MSTORE PUSH1 0x4 ADD PUSH2 0x13A SWAP1 PUSH2 0x252 JUMP JUMPDEST PUSH1 0x40 MLOAD DUP1 SWAP2 SUB SWAP1 REVERT JUMPDEST DUP1 PUSH20 0xFFFFFFFFFFFFFFFFFFFFFFFFFFFFFFFFFFFFFFFF AND PUSH2 0x8FC DUP4 SWAP1 DUP2 ISZERO MUL SWAP1 PUSH1 0x40 MLOAD PUSH1 0x0 PUSH1 0x40 MLOAD DUP1 DUP4 SUB DUP2 DUP6 DUP9 DUP9 CALL SWAP4 POP POP POP POP ISZERO DUP1 ISZERO PUSH2 0x189 JUMPI RETURNDATASIZE PUSH1 0x0 DUP1 RETURNDATACOPY RETURNDATASIZE PUSH1 0x0 REVERT JUMPDEST POP DUP2 PUSH1 0x0 SLOAD PUSH2 0x198 SWAP2 SWAP1 PUSH2 0x2F9 JUMP JUMPDEST PUSH1 0x0 DUP2 SWAP1 SSTORE POP POP POP JUMP JUMPDEST PUSH1 0x0 DUP2 CALLDATALOAD SWAP1 POP PUSH2 0x1B1 DUP2 PUSH2 0x3EF JUMP JUMPDEST SWAP3 SWAP2 POP POP JUMP JUMPDEST PUSH1 0x0 DUP2 CALLDATALOAD SWAP1 POP PUSH2 0x1C6 DUP2 PUSH2 0x406 JUMP JUMPDEST SWAP3 SWAP2 POP POP JUMP JUMPDEST PUSH1 0x0 DUP1 PUSH1 0x40 DUP4 DUP6 SUB SLT ISZERO PUSH2 0x1E3 JUMPI PUSH2 0x1E2 PUSH2 0x398 JUMP JUMPDEST JUMPDEST PUSH1 0x0 PUSH2 0x1F1 DUP6 DUP3 DUP7 ADD PUSH2 0x1B7 JUMP JUMPDEST SWAP3 POP POP PUSH1 0x20 PUSH2 0x202 DUP6 DUP3 DUP7 ADD PUSH2 0x1A2 JUMP JUMPDEST SWAP2 POP POP SWAP3 POP SWAP3 SWAP1 POP JUMP JUMPDEST PUSH1 0x0 PUSH2 0x219 PUSH1 0xC DUP4 PUSH2 0x292 JUMP JUMPDEST SWAP2 POP PUSH2 0x224 DUP3 PUSH2 0x39D JUMP JUMPDEST PUSH1 0x20 DUP3 ADD SWAP1 POP SWAP2 SWAP1 POP JUMP JUMPDEST PUSH1 0x0 PUSH2 0x23C PUSH1 0xC DUP4 PUSH2 0x292 JUMP JUMPDEST SWAP2 POP PUSH2 0x247 DUP3 PUSH2 0x3C6 JUMP JUMPDEST PUSH1 0x20 DUP3 ADD SWAP1 POP SWAP2 SWAP1 POP JUMP JUMPDEST PUSH1 0x0 PUSH1 0x20 DUP3 ADD SWAP1 POP DUP2 DUP2 SUB PUSH1 0x0 DUP4 ADD MSTORE PUSH2 0x26B DUP2 PUSH2 0x20C JUMP JUMPDEST SWAP1 POP SWAP2 SWAP1 POP JUMP JUMPDEST PUSH1 0x0 PUSH1 0x20 DUP3 ADD SWAP1 POP DUP2 DUP2 SUB PUSH1 0x0 DUP4 ADD MSTORE PUSH2 0x28B DUP2 PUSH2 0x22F JUMP JUMPDEST SWAP1 POP SWAP2 SWAP1 POP JUMP JUMPDEST PUSH1 0x0 DUP3 DUP3 MSTORE PUSH1 0x20 DUP3 ADD SWAP1 POP SWAP3 SWAP2 POP POP JUMP JUMPDEST PUSH1 0x0 PUSH2 0x2AE DUP3 PUSH2 0x35F JUMP JUMPDEST SWAP2 POP PUSH2 0x2B9 DUP4 PUSH2 0x35F JUMP JUMPDEST SWAP3 POP DUP3 PUSH32 0xFFFFFFFFFFFFFFFFFFFFFFFFFFFFFFFFFFFFFFFFFFFFFFFFFFFFFFFFFFFFFFFF SUB DUP3 GT ISZERO PUSH2 0x2EE JUMPI PUSH2 0x2ED PUSH2 0x369 JUMP JUMPDEST JUMPDEST DUP3 DUP3 ADD SWAP1 POP SWAP3 SWAP2 POP POP JUMP JUMPDEST PUSH1 0x0 PUSH2 0x304 DUP3 PUSH2 0x35F JUMP JUMPDEST SWAP2 POP PUSH2 0x30F DUP4 PUSH2 0x35F JUMP JUMPDEST SWAP3 POP DUP3 DUP3 LT ISZERO PUSH2 0x322 JUMPI PUSH2 0x321 PUSH2 0x369 JUMP JUMPDEST JUMPDEST DUP3 DUP3 SUB SWAP1 POP SWAP3 SWAP2 POP POP JUMP JUMPDEST PUSH1 0x0 PUSH2 0x338 DUP3 PUSH2 0x33F JUMP JUMPDEST SWAP1 POP SWAP2 SWAP1 POP JUMP JUMPDEST PUSH1 0x0 PUSH20 0xFFFFFFFFFFFFFFFFFFFFFFFFFFFFFFFFFFFFFFFF DUP3 AND SWAP1 POP SWAP2 SWAP1 POP JUMP JUMPDEST PUSH1 0x0 DUP2 SWAP1 POP SWAP2 SWAP1 POP JUMP JUMPDEST PUSH32 0x4E487B7100000000000000000000000000000000000000000000000000000000 PUSH1 0x0 MSTORE PUSH1 0x11 PUSH1 0x4 MSTORE PUSH1 0x24 PUSH1 0x0 REVERT JUMPDEST PUSH1 0x0 DUP1 REVERT JUMPDEST PUSH32 0x496E73756666696369656E740000000000000000000000000000000000000000 PUSH1 0x0 DUP3 ADD MSTORE POP JUMP JUMPDEST PUSH32 0x556E617574686F72697A65640000000000000000000000000000000000000000 PUSH1 0x0 DUP3 ADD MSTORE POP JUMP JUMPDEST PUSH2 0x3F8 DUP2 PUSH2 0x32D JUMP JUMPDEST DUP2 EQ PUSH2 0x403 JUMPI PUSH1 0x0 DUP1 REVERT JUMPDEST POP JUMP JUMPDEST PUSH2 0x40F DUP2 PUSH2 0x35F JUMP JUMPDEST DUP2 EQ PUSH2 0x41A JUMPI PUSH1 0x0 DUP1 REVERT JUMPDEST POP JUMP INVALID LOG2 PUSH5 0x6970667358 0x22 SLT KECCAK256 0x5C 0xE CREATE SIGNEXTEND COINBASE MSTORE8 SWAP14 SELFBALANCE PUSH4 0xE6B383F2 0xBC 0x5E 0xAF 0xBE 0xD9 XOR 0xEB 0xF9 NOT PUSH27 0x34A5B61764D41AEC3E64736F6C6343000807003300000000000000 "
				},
				"gasEstimates": {
					"creation": {
						"codeDepositCost": "221400",
						"executionCost": "24529",
						"totalCost": "245929"
					},
					"external": {
						"withdraw(uint256,address)": "infinite"
					}
				},
				"methodIdentifiers": {
					"withdraw(uint256,address)": "00f714ce"
				}
			},
			"storageLayout": {
				"storage": [
					{
						"astId": 3,
						"contract": "Homework.sol:ETHStore",
						"label": "balance",
						"offset": 0,
						"slot": "0",
						"type": "t_uint256"
					},
					{
						"astId": 5,
						"contract": "Homework.sol:ETHStore",
						"label": "owner",
						"offset": 0,
						"slot": "1",
						"type": "t_address"
					}
				],
				"types": {
					"t_address": {
						"encoding": "inplace",
						"label": "address",
						"numberOfBytes": "20"
					},
					"t_uint256": {
						"encoding": "inplace",
						"label": "uint256",
						"numberOfBytes": "32"
					}
				}
			},
			"userdoc": {
				"kind": "user",
				"methods": {},
				"version": 1
			}
		}
	}
}