{
	"Homework3.sol": {
		"fund": {
			"abi": [
				{
					"inputs": [
						{
							"internalType": "address",
							"name": "_token",
							"type": "address"
						}
					],
					"stateMutability": "nonpayable",
					"type": "constructor"
				},
				{
					"anonymous": false,
					"inputs": [
						{
							"indexed": false,
							"internalType": "uint256",
							"name": "id",
							"type": "uint256"
						}
					],
					"name": "Claim",
					"type": "event"
				},
				{
					"anonymous": false,
					"inputs": [
						{
							"indexed": false,
							"internalType": "uint256",
							"name": "_id",
							"type": "uint256"
						}
					],
					"name": "Delete",
					"type": "event"
				},
				{
					"anonymous": false,
					"inputs": [
						{
							"indexed": false,
							"internalType": "uint256",
							"name": "id",
							"type": "uint256"
						},
						{
							"indexed": true,
							"internalType": "address",
							"name": "owner",
							"type": "address"
						},
						{
							"indexed": false,
							"internalType": "uint256",
							"name": "goal",
							"type": "uint256"
						},
						{
							"indexed": false,
							"internalType": "uint32",
							"name": "start",
							"type": "uint32"
						},
						{
							"indexed": false,
							"internalType": "uint32",
							"name": "end",
							"type": "uint32"
						}
					],
					"name": "Launch",
					"type": "event"
				},
				{
					"anonymous": false,
					"inputs": [
						{
							"indexed": true,
							"internalType": "uint256",
							"name": "id",
							"type": "uint256"
						},
						{
							"indexed": false,
							"internalType": "address",
							"name": "user",
							"type": "address"
						},
						{
							"indexed": false,
							"internalType": "uint256",
							"name": "amount",
							"type": "uint256"
						}
					],
					"name": "Pledge",
					"type": "event"
				},
				{
					"anonymous": false,
					"inputs": [
						{
							"indexed": false,
							"internalType": "uint256",
							"name": "id",
							"type": "uint256"
						},
						{
							"indexed": true,
							"internalType": "address",
							"name": "user",
							"type": "address"
						},
						{
							"indexed": false,
							"internalType": "uint256",
							"name": "amount",
							"type": "uint256"
						}
					],
					"name": "Refund",
					"type": "event"
				},
				{
					"anonymous": false,
					"inputs": [
						{
							"indexed": true,
							"internalType": "uint256",
							"name": "id",
							"type": "uint256"
						},
						{
							"indexed": false,
							"internalType": "address",
							"name": "user",
							"type": "address"
						},
						{
							"indexed": false,
							"internalType": "uint256",
							"name": "amount",
							"type": "uint256"
						}
					],
					"name": "Unpledge",
					"type": "event"
				},
				{
					"inputs": [
						{
							"internalType": "uint256",
							"name": "",
							"type": "uint256"
						}
					],
					"name": "campaigns",
					"outputs": [
						{
							"internalType": "address",
							"name": "creator",
							"type": "address"
						},
						{
							"internalType": "uint256",
							"name": "goal",
							"type": "uint256"
						},
						{
							"internalType": "uint32",
							"name": "start",
							"type": "uint32"
						},
						{
							"internalType": "uint32",
							"name": "end",
							"type": "uint32"
						},
						{
							"internalType": "uint256",
							"name": "pledged",
							"type": "uint256"
						},
						{
							"internalType": "bool",
							"name": "claimed",
							"type": "bool"
						}
					],
					"stateMutability": "view",
					"type": "function"
				},
				{
					"inputs": [
						{
							"internalType": "uint256",
							"name": "_id",
							"type": "uint256"
						}
					],
					"name": "claim",
					"outputs": [],
					"stateMutability": "nonpayable",
					"type": "function"
				},
				{
					"inputs": [
						{
							"internalType": "uint256",
							"name": "id",
							"type": "uint256"
						}
					],
					"name": "close",
					"outputs": [],
					"stateMutability": "nonpayable",
					"type": "function"
				},
				{
					"inputs": [],
					"name": "count",
					"outputs": [
						{
							"internalType": "uint256",
							"name": "",
							"type": "uint256"
						}
					],
					"stateMutability": "view",
					"type": "function"
				},
				{
					"inputs": [
						{
							"internalType": "uint256",
							"name": "_goal",
							"type": "uint256"
						},
						{
							"internalType": "uint32",
							"name": "_start",
							"type": "uint32"
						},
						{
							"internalType": "uint32",
							"name": "_end",
							"type": "uint32"
						}
					],
					"name": "launch",
					"outputs": [],
					"stateMutability": "nonpayable",
					"type": "function"
				},
				{
					"inputs": [
						{
							"internalType": "uint256",
							"name": "_id",
							"type": "uint256"
						},
						{
							"internalType": "uint256",
							"name": "_amount",
							"type": "uint256"
						}
					],
					"name": "pledge",
					"outputs": [],
					"stateMutability": "nonpayable",
					"type": "function"
				},
				{
					"inputs": [
						{
							"internalType": "uint256",
							"name": "",
							"type": "uint256"
						},
						{
							"internalType": "address",
							"name": "",
							"type": "address"
						}
					],
					"name": "pledgedAmount",
					"outputs": [
						{
							"internalType": "uint256",
							"name": "",
							"type": "uint256"
						}
					],
					"stateMutability": "view",
					"type": "function"
				},
				{
					"inputs": [
						{
							"internalType": "uint256",
							"name": "id",
							"type": "uint256"
						}
					],
					"name": "refund",
					"outputs": [],
					"stateMutability": "nonpayable",
					"type": "function"
				},
				{
					"inputs": [],
					"name": "token",
					"outputs": [
						{
							"internalType": "contract IERC20",
							"name": "",
							"type": "address"
						}
					],
					"stateMutability": "view",
					"type": "function"
				},
				{
					"inputs": [
						{
							"internalType": "uint256",
							"name": "_id",
							"type": "uint256"
						},
						{
							"internalType": "uint256",
							"name": "_amount",
							"type": "uint256"
						}
					],
					"name": "unpledge",
					"outputs": [],
					"stateMutability": "nonpayable",
					"type": "function"
				}
			],
			"devdoc": {
				"kind": "dev",
				"methods": {},
				"version": 1
			},
			"evm": {
				"assembly": "    /* \"Homework3.sol\":246:3573  contract fund{... */\n  mstore(0x40, 0xa0)\n    /* \"Homework3.sol\":818:819  0 */\n  0x00\n    /* \"Homework3.sol\":798:819  uint public count = 0 */\n  dup1\n  sstore\n    /* \"Homework3.sol\":974:1041  constructor(address _token) {... */\n  callvalue\n  dup1\n  iszero\n  tag_1\n  jumpi\n  0x00\n  dup1\n  revert\ntag_1:\n  pop\n  mload(0x40)\n  sub(codesize, bytecodeSize)\n  dup1\n  bytecodeSize\n  dup4\n  codecopy\n  dup2\n  dup2\n  add\n  0x40\n  mstore\n  dup2\n  add\n  swap1\n  tag_2\n  swap2\n  swap1\n  tag_3\n  jump\t// in\ntag_2:\n    /* \"Homework3.sol\":1027:1033  _token */\n  dup1\n    /* \"Homework3.sol\":1012:1034  token = IERC20(_token) */\n  0xffffffffffffffffffffffffffffffffffffffff\n  and\n  0x80\n  dup2\n  0xffffffffffffffffffffffffffffffffffffffff\n  and\n  0x60\n  shl\n  dup2\n  mstore\n  pop\n  pop\n    /* \"Homework3.sol\":974:1041  constructor(address _token) {... */\n  pop\n    /* \"Homework3.sol\":246:3573  contract fund{... */\n  jump(tag_6)\n    /* \"#utility.yul\":7:150   */\ntag_8:\n    /* \"#utility.yul\":64:69   */\n  0x00\n    /* \"#utility.yul\":95:101   */\n  dup2\n    /* \"#utility.yul\":89:102   */\n  mload\n    /* \"#utility.yul\":80:102   */\n  swap1\n  pop\n    /* \"#utility.yul\":111:144   */\n  tag_10\n    /* \"#utility.yul\":138:143   */\n  dup2\n    /* \"#utility.yul\":111:144   */\n  tag_11\n  jump\t// in\ntag_10:\n    /* \"#utility.yul\":7:150   */\n  swap3\n  swap2\n  pop\n  pop\n  jump\t// out\n    /* \"#utility.yul\":156:507   */\ntag_3:\n    /* \"#utility.yul\":226:232   */\n  0x00\n    /* \"#utility.yul\":275:277   */\n  0x20\n    /* \"#utility.yul\":263:272   */\n  dup3\n    /* \"#utility.yul\":254:261   */\n  dup5\n    /* \"#utility.yul\":250:273   */\n  sub\n    /* \"#utility.yul\":246:278   */\n  slt\n    /* \"#utility.yul\":243:362   */\n  iszero\n  tag_13\n  jumpi\n    /* \"#utility.yul\":281:360   */\n  tag_14\n  tag_15\n  jump\t// in\ntag_14:\n    /* \"#utility.yul\":243:362   */\ntag_13:\n    /* \"#utility.yul\":401:402   */\n  0x00\n    /* \"#utility.yul\":426:490   */\n  tag_16\n    /* \"#utility.yul\":482:489   */\n  dup5\n    /* \"#utility.yul\":473:479   */\n  dup3\n    /* \"#utility.yul\":462:471   */\n  dup6\n    /* \"#utility.yul\":458:480   */\n  add\n    /* \"#utility.yul\":426:490   */\n  tag_8\n  jump\t// in\ntag_16:\n    /* \"#utility.yul\":416:490   */\n  swap2\n  pop\n    /* \"#utility.yul\":372:500   */\n  pop\n    /* \"#utility.yul\":156:507   */\n  swap3\n  swap2\n  pop\n  pop\n  jump\t// out\n    /* \"#utility.yul\":594:690   */\ntag_19:\n    /* \"#utility.yul\":631:638   */\n  0x00\n    /* \"#utility.yul\":660:684   */\n  tag_21\n    /* \"#utility.yul\":678:683   */\n  dup3\n    /* \"#utility.yul\":660:684   */\n  tag_22\n  jump\t// in\ntag_21:\n    /* \"#utility.yul\":649:684   */\n  swap1\n  pop\n    /* \"#utility.yul\":594:690   */\n  swap2\n  swap1\n  pop\n  jump\t// out\n    /* \"#utility.yul\":696:822   */\ntag_22:\n    /* \"#utility.yul\":733:740   */\n  0x00\n    /* \"#utility.yul\":773:815   */\n  0xffffffffffffffffffffffffffffffffffffffff\n    /* \"#utility.yul\":766:771   */\n  dup3\n    /* \"#utility.yul\":762:816   */\n  and\n    /* \"#utility.yul\":751:816   */\n  swap1\n  pop\n    /* \"#utility.yul\":696:822   */\n  swap2\n  swap1\n  pop\n  jump\t// out\n    /* \"#utility.yul\":951:1068   */\ntag_15:\n    /* \"#utility.yul\":1060:1061   */\n  0x00\n    /* \"#utility.yul\":1057:1058   */\n  dup1\n    /* \"#utility.yul\":1050:1062   */\n  revert\n    /* \"#utility.yul\":1074:1196   */\ntag_11:\n    /* \"#utility.yul\":1147:1171   */\n  tag_28\n    /* \"#utility.yul\":1165:1170   */\n  dup2\n    /* \"#utility.yul\":1147:1171   */\n  tag_19\n  jump\t// in\ntag_28:\n    /* \"#utility.yul\":1140:1145   */\n  dup2\n    /* \"#utility.yul\":1137:1172   */\n  eq\n    /* \"#utility.yul\":1127:1190   */\n  tag_29\n  jumpi\n    /* \"#utility.yul\":1186:1187   */\n  0x00\n    /* \"#utility.yul\":1183:1184   */\n  dup1\n    /* \"#utility.yul\":1176:1188   */\n  revert\n    /* \"#utility.yul\":1127:1190   */\ntag_29:\n    /* \"#utility.yul\":1074:1196   */\n  pop\n  jump\t// out\n    /* \"Homework3.sol\":246:3573  contract fund{... */\ntag_6:\n  shr(0x60, mload(0x80))\n  codecopy(0x00, dataOffset(sub_0), dataSize(sub_0))\n  0x00\n  assignImmutable(\"0x17157e479612de6088d957c64aca858964825e74089b3c7dacc26409e6d53000\")\n  return(0x00, dataSize(sub_0))\nstop\n\nsub_0: assembly {\n        /* \"Homework3.sol\":246:3573  contract fund{... */\n      mstore(0x40, 0x80)\n      callvalue\n      dup1\n      iszero\n      tag_1\n      jumpi\n      0x00\n      dup1\n      revert\n    tag_1:\n      pop\n      jumpi(tag_2, lt(calldatasize, 0x04))\n      shr(0xe0, calldataload(0x00))\n      dup1\n      0x379607f5\n      gt\n      tag_13\n      jumpi\n      dup1\n      0x379607f5\n      eq\n      tag_8\n      jumpi\n      dup1\n      0x711853ab\n      eq\n      tag_9\n      jumpi\n      dup1\n      0xaa4fb63a\n      eq\n      tag_10\n      jumpi\n      dup1\n      0xfc0c546a\n      eq\n      tag_11\n      jumpi\n      dup1\n      0xfde327be\n      eq\n      tag_12\n      jumpi\n      jump(tag_2)\n    tag_13:\n      dup1\n      0x06661abd\n      eq\n      tag_3\n      jumpi\n      dup1\n      0x0aebeb4e\n      eq\n      tag_4\n      jumpi\n      dup1\n      0x141961bc\n      eq\n      tag_5\n      jumpi\n      dup1\n      0x278ecde1\n      eq\n      tag_6\n      jumpi\n      dup1\n      0x2c63f146\n      eq\n      tag_7\n      jumpi\n    tag_2:\n      0x00\n      dup1\n      revert\n        /* \"Homework3.sol\":798:819  uint public count = 0 */\n    tag_3:\n      tag_14\n      tag_15\n      jump\t// in\n    tag_14:\n      mload(0x40)\n      tag_16\n      swap2\n      swap1\n      tag_17\n      jump\t// in\n    tag_16:\n      mload(0x40)\n      dup1\n      swap2\n      sub\n      swap1\n      return\n        /* \"Homework3.sol\":1597:1947  function close(uint id) external{... */\n    tag_4:\n      tag_18\n      0x04\n      dup1\n      calldatasize\n      sub\n      dup2\n      add\n      swap1\n      tag_19\n      swap2\n      swap1\n      tag_20\n      jump\t// in\n    tag_19:\n      tag_21\n      jump\t// in\n    tag_18:\n      stop\n        /* \"Homework3.sol\":860:901  mapping (uint=>Campaign) public campaigns */\n    tag_5:\n      tag_22\n      0x04\n      dup1\n      calldatasize\n      sub\n      dup2\n      add\n      swap1\n      tag_23\n      swap2\n      swap1\n      tag_20\n      jump\t// in\n    tag_23:\n      tag_24\n      jump\t// in\n    tag_22:\n      mload(0x40)\n      tag_25\n      swap7\n      swap6\n      swap5\n      swap4\n      swap3\n      swap2\n      swap1\n      tag_26\n      jump\t// in\n    tag_25:\n      mload(0x40)\n      dup1\n      swap2\n      sub\n      swap1\n      return\n        /* \"Homework3.sol\":3215:3570  function refund(uint id) external{... */\n    tag_6:\n      tag_27\n      0x04\n      dup1\n      calldatasize\n      sub\n      dup2\n      add\n      swap1\n      tag_28\n      swap2\n      swap1\n      tag_20\n      jump\t// in\n    tag_28:\n      tag_29\n      jump\t// in\n    tag_27:\n      stop\n        /* \"Homework3.sol\":1047:1591  function launch(... */\n    tag_7:\n      tag_30\n      0x04\n      dup1\n      calldatasize\n      sub\n      dup2\n      add\n      swap1\n      tag_31\n      swap2\n      swap1\n      tag_32\n      jump\t// in\n    tag_31:\n      tag_33\n      jump\t// in\n    tag_30:\n      stop\n        /* \"Homework3.sol\":2753:3209  function claim(uint _id) external {... */\n    tag_8:\n      tag_34\n      0x04\n      dup1\n      calldatasize\n      sub\n      dup2\n      add\n      swap1\n      tag_35\n      swap2\n      swap1\n      tag_20\n      jump\t// in\n    tag_35:\n      tag_36\n      jump\t// in\n    tag_34:\n      stop\n        /* \"Homework3.sol\":2394:2747  function unpledge(uint _id, uint _amount) external {... */\n    tag_9:\n      tag_37\n      0x04\n      dup1\n      calldatasize\n      sub\n      dup2\n      add\n      swap1\n      tag_38\n      swap2\n      swap1\n      tag_39\n      jump\t// in\n    tag_38:\n      tag_40\n      jump\t// in\n    tag_37:\n      stop\n        /* \"Homework3.sol\":907:966  mapping (uint=>mapping(address=>uint)) public pledgedAmount */\n    tag_10:\n      tag_41\n      0x04\n      dup1\n      calldatasize\n      sub\n      dup2\n      add\n      swap1\n      tag_42\n      swap2\n      swap1\n      tag_43\n      jump\t// in\n    tag_42:\n      tag_44\n      jump\t// in\n    tag_41:\n      mload(0x40)\n      tag_45\n      swap2\n      swap1\n      tag_17\n      jump\t// in\n    tag_45:\n      mload(0x40)\n      dup1\n      swap2\n      sub\n      swap1\n      return\n        /* \"Homework3.sol\":825:854  IERC20 public immutable token */\n    tag_11:\n      tag_46\n      tag_47\n      jump\t// in\n    tag_46:\n      mload(0x40)\n      tag_48\n      swap2\n      swap1\n      tag_49\n      jump\t// in\n    tag_48:\n      mload(0x40)\n      dup1\n      swap2\n      sub\n      swap1\n      return\n        /* \"Homework3.sol\":1953:2388  function pledge(uint _id, uint _amount) external {... */\n    tag_12:\n      tag_50\n      0x04\n      dup1\n      calldatasize\n      sub\n      dup2\n      add\n      swap1\n      tag_51\n      swap2\n      swap1\n      tag_39\n      jump\t// in\n    tag_51:\n      tag_52\n      jump\t// in\n    tag_50:\n      stop\n        /* \"Homework3.sol\":798:819  uint public count = 0 */\n    tag_15:\n      sload(0x00)\n      dup2\n      jump\t// out\n        /* \"Homework3.sol\":1597:1947  function close(uint id) external{... */\n    tag_21:\n        /* \"Homework3.sol\":1639:1659  Campaign memory cmpn */\n      0x00\n        /* \"Homework3.sol\":1662:1671  campaigns */\n      0x01\n        /* \"Homework3.sol\":1662:1675  campaigns[id] */\n      0x00\n        /* \"Homework3.sol\":1672:1674  id */\n      dup4\n        /* \"Homework3.sol\":1662:1675  campaigns[id] */\n      dup2\n      mstore\n      0x20\n      add\n      swap1\n      dup2\n      mstore\n      0x20\n      add\n      0x00\n      keccak256\n        /* \"Homework3.sol\":1639:1675  Campaign memory cmpn = campaigns[id] */\n      mload(0x40)\n      dup1\n      0xc0\n      add\n      0x40\n      mstore\n      swap1\n      dup2\n      0x00\n      dup3\n      add\n      0x00\n      swap1\n      sload\n      swap1\n      0x0100\n      exp\n      swap1\n      div\n      0xffffffffffffffffffffffffffffffffffffffff\n      and\n      0xffffffffffffffffffffffffffffffffffffffff\n      and\n      0xffffffffffffffffffffffffffffffffffffffff\n      and\n      dup2\n      mstore\n      0x20\n      add\n      0x01\n      dup3\n      add\n      sload\n      dup2\n      mstore\n      0x20\n      add\n      0x02\n      dup3\n      add\n      0x00\n      swap1\n      sload\n      swap1\n      0x0100\n      exp\n      swap1\n      div\n      0xffffffff\n      and\n      0xffffffff\n      and\n      0xffffffff\n      and\n      dup2\n      mstore\n      0x20\n      add\n      0x02\n      dup3\n      add\n      0x04\n      swap1\n      sload\n      swap1\n      0x0100\n      exp\n      swap1\n      div\n      0xffffffff\n      and\n      0xffffffff\n      and\n      0xffffffff\n      and\n      dup2\n      mstore\n      0x20\n      add\n      0x03\n      dup3\n      add\n      sload\n      dup2\n      mstore\n      0x20\n      add\n      0x04\n      dup3\n      add\n      0x00\n      swap1\n      sload\n      swap1\n      0x0100\n      exp\n      swap1\n      div\n      0xff\n      and\n      iszero\n      iszero\n      iszero\n      iszero\n      dup2\n      mstore\n      pop\n      pop\n      swap1\n      pop\n        /* \"Homework3.sol\":1709:1719  msg.sender */\n      caller\n        /* \"Homework3.sol\":1693:1719  cmpn.creator == msg.sender */\n      0xffffffffffffffffffffffffffffffffffffffff\n      and\n        /* \"Homework3.sol\":1693:1697  cmpn */\n      dup2\n        /* \"Homework3.sol\":1693:1705  cmpn.creator */\n      0x00\n      add\n      mload\n        /* \"Homework3.sol\":1693:1719  cmpn.creator == msg.sender */\n      0xffffffffffffffffffffffffffffffffffffffff\n      and\n      eq\n        /* \"Homework3.sol\":1685:1729  require(cmpn.creator == msg.sender,\"Denied\") */\n      tag_54\n      jumpi\n      mload(0x40)\n      0x08c379a000000000000000000000000000000000000000000000000000000000\n      dup2\n      mstore\n      0x04\n      add\n      tag_55\n      swap1\n      tag_56\n      jump\t// in\n    tag_55:\n      mload(0x40)\n      dup1\n      swap2\n      sub\n      swap1\n      revert\n    tag_54:\n        /* \"Homework3.sol\":1870:1871  0 */\n      0x00\n        /* \"Homework3.sol\":1854:1858  cmpn */\n      dup2\n        /* \"Homework3.sol\":1854:1866  cmpn.pledged */\n      0x80\n      add\n      mload\n        /* \"Homework3.sol\":1854:1871  cmpn.pledged == 0 */\n      eq\n        /* \"Homework3.sol\":1845:1884  require (cmpn.pledged == 0, \"Bal != 0\") */\n      tag_57\n      jumpi\n      mload(0x40)\n      0x08c379a000000000000000000000000000000000000000000000000000000000\n      dup2\n      mstore\n      0x04\n      add\n      tag_58\n      swap1\n      tag_59\n      jump\t// in\n    tag_58:\n      mload(0x40)\n      dup1\n      swap2\n      sub\n      swap1\n      revert\n    tag_57:\n        /* \"Homework3.sol\":1901:1910  campaigns */\n      0x01\n        /* \"Homework3.sol\":1901:1914  campaigns[id] */\n      0x00\n        /* \"Homework3.sol\":1911:1913  id */\n      dup4\n        /* \"Homework3.sol\":1901:1914  campaigns[id] */\n      dup2\n      mstore\n      0x20\n      add\n      swap1\n      dup2\n      mstore\n      0x20\n      add\n      0x00\n      keccak256\n      0x00\n        /* \"Homework3.sol\":1894:1914  delete campaigns[id] */\n      dup1\n      dup3\n      add\n      exp(0x0100, 0x00)\n      dup2\n      sload\n      swap1\n      0xffffffffffffffffffffffffffffffffffffffff\n      mul\n      not\n      and\n      swap1\n      sstore\n      0x01\n      dup3\n      add\n      0x00\n      swap1\n      sstore\n      0x02\n      dup3\n      add\n      exp(0x0100, 0x00)\n      dup2\n      sload\n      swap1\n      0xffffffff\n      mul\n      not\n      and\n      swap1\n      sstore\n      0x02\n      dup3\n      add\n      exp(0x0100, 0x04)\n      dup2\n      sload\n      swap1\n      0xffffffff\n      mul\n      not\n      and\n      swap1\n      sstore\n      0x03\n      dup3\n      add\n      0x00\n      swap1\n      sstore\n      0x04\n      dup3\n      add\n      exp(0x0100, 0x00)\n      dup2\n      sload\n      swap1\n      0xff\n      mul\n      not\n      and\n      swap1\n      sstore\n      pop\n      pop\n        /* \"Homework3.sol\":1929:1939  Delete(id) */\n      0x7d815d575a49d6d9a069482c25b0fdb39914ccf1bba8aaea4cfe20322f8f6877\n        /* \"Homework3.sol\":1936:1938  id */\n      dup3\n        /* \"Homework3.sol\":1929:1939  Delete(id) */\n      mload(0x40)\n      tag_60\n      swap2\n      swap1\n      tag_17\n      jump\t// in\n    tag_60:\n      mload(0x40)\n      dup1\n      swap2\n      sub\n      swap1\n      log1\n        /* \"Homework3.sol\":1629:1947  {... */\n      pop\n        /* \"Homework3.sol\":1597:1947  function close(uint id) external{... */\n      pop\n      jump\t// out\n        /* \"Homework3.sol\":860:901  mapping (uint=>Campaign) public campaigns */\n    tag_24:\n      mstore(0x20, 0x01)\n      dup1\n      0x00\n      mstore\n      keccak256(0x00, 0x40)\n      0x00\n      swap2\n      pop\n      swap1\n      pop\n      dup1\n      0x00\n      add\n      0x00\n      swap1\n      sload\n      swap1\n      0x0100\n      exp\n      swap1\n      div\n      0xffffffffffffffffffffffffffffffffffffffff\n      and\n      swap1\n      dup1\n      0x01\n      add\n      sload\n      swap1\n      dup1\n      0x02\n      add\n      0x00\n      swap1\n      sload\n      swap1\n      0x0100\n      exp\n      swap1\n      div\n      0xffffffff\n      and\n      swap1\n      dup1\n      0x02\n      add\n      0x04\n      swap1\n      sload\n      swap1\n      0x0100\n      exp\n      swap1\n      div\n      0xffffffff\n      and\n      swap1\n      dup1\n      0x03\n      add\n      sload\n      swap1\n      dup1\n      0x04\n      add\n      0x00\n      swap1\n      sload\n      swap1\n      0x0100\n      exp\n      swap1\n      div\n      0xff\n      and\n      swap1\n      pop\n      dup7\n      jump\t// out\n        /* \"Homework3.sol\":3215:3570  function refund(uint id) external{... */\n    tag_29:\n        /* \"Homework3.sol\":3258:3282  Campaign memory campaign */\n      0x00\n        /* \"Homework3.sol\":3285:3294  campaigns */\n      0x01\n        /* \"Homework3.sol\":3285:3298  campaigns[id] */\n      0x00\n        /* \"Homework3.sol\":3295:3297  id */\n      dup4\n        /* \"Homework3.sol\":3285:3298  campaigns[id] */\n      dup2\n      mstore\n      0x20\n      add\n      swap1\n      dup2\n      mstore\n      0x20\n      add\n      0x00\n      keccak256\n        /* \"Homework3.sol\":3258:3298  Campaign memory campaign = campaigns[id] */\n      mload(0x40)\n      dup1\n      0xc0\n      add\n      0x40\n      mstore\n      swap1\n      dup2\n      0x00\n      dup3\n      add\n      0x00\n      swap1\n      sload\n      swap1\n      0x0100\n      exp\n      swap1\n      div\n      0xffffffffffffffffffffffffffffffffffffffff\n      and\n      0xffffffffffffffffffffffffffffffffffffffff\n      and\n      0xffffffffffffffffffffffffffffffffffffffff\n      and\n      dup2\n      mstore\n      0x20\n      add\n      0x01\n      dup3\n      add\n      sload\n      dup2\n      mstore\n      0x20\n      add\n      0x02\n      dup3\n      add\n      0x00\n      swap1\n      sload\n      swap1\n      0x0100\n      exp\n      swap1\n      div\n      0xffffffff\n      and\n      0xffffffff\n      and\n      0xffffffff\n      and\n      dup2\n      mstore\n      0x20\n      add\n      0x02\n      dup3\n      add\n      0x04\n      swap1\n      sload\n      swap1\n      0x0100\n      exp\n      swap1\n      div\n      0xffffffff\n      and\n      0xffffffff\n      and\n      0xffffffff\n      and\n      dup2\n      mstore\n      0x20\n      add\n      0x03\n      dup3\n      add\n      sload\n      dup2\n      mstore\n      0x20\n      add\n      0x04\n      dup3\n      add\n      0x00\n      swap1\n      sload\n      swap1\n      0x0100\n      exp\n      swap1\n      div\n      0xff\n      and\n      iszero\n      iszero\n      iszero\n      iszero\n      dup2\n      mstore\n      pop\n      pop\n      swap1\n      pop\n        /* \"Homework3.sol\":3335:3343  campaign */\n      dup1\n        /* \"Homework3.sol\":3335:3348  campaign.goal */\n      0x20\n      add\n      mload\n        /* \"Homework3.sol\":3316:3324  campaign */\n      dup2\n        /* \"Homework3.sol\":3316:3332  campaign.pledged */\n      0x80\n      add\n      mload\n        /* \"Homework3.sol\":3316:3348  campaign.pledged < campaign.goal */\n      lt\n        /* \"Homework3.sol\":3308:3368  require(campaign.pledged < campaign.goal, \"Pledged >= Goal\") */\n      tag_62\n      jumpi\n      mload(0x40)\n      0x08c379a000000000000000000000000000000000000000000000000000000000\n      dup2\n      mstore\n      0x04\n      add\n      tag_63\n      swap1\n      tag_64\n      jump\t// in\n    tag_63:\n      mload(0x40)\n      dup1\n      swap2\n      sub\n      swap1\n      revert\n    tag_62:\n        /* \"Homework3.sol\":3387:3395  uint bal */\n      0x00\n        /* \"Homework3.sol\":3398:3411  pledgedAmount */\n      0x02\n        /* \"Homework3.sol\":3398:3415  pledgedAmount[id] */\n      0x00\n        /* \"Homework3.sol\":3412:3414  id */\n      dup5\n        /* \"Homework3.sol\":3398:3415  pledgedAmount[id] */\n      dup2\n      mstore\n      0x20\n      add\n      swap1\n      dup2\n      mstore\n      0x20\n      add\n      0x00\n      keccak256\n        /* \"Homework3.sol\":3398:3427  pledgedAmount[id][msg.sender] */\n      0x00\n        /* \"Homework3.sol\":3416:3426  msg.sender */\n      caller\n        /* \"Homework3.sol\":3398:3427  pledgedAmount[id][msg.sender] */\n      0xffffffffffffffffffffffffffffffffffffffff\n      and\n      0xffffffffffffffffffffffffffffffffffffffff\n      and\n      dup2\n      mstore\n      0x20\n      add\n      swap1\n      dup2\n      mstore\n      0x20\n      add\n      0x00\n      keccak256\n      sload\n        /* \"Homework3.sol\":3387:3427  uint bal = pledgedAmount[id][msg.sender] */\n      swap1\n      pop\n        /* \"Homework3.sol\":3469:3470  0 */\n      0x00\n        /* \"Homework3.sol\":3437:3450  pledgedAmount */\n      0x02\n        /* \"Homework3.sol\":3437:3454  pledgedAmount[id] */\n      0x00\n        /* \"Homework3.sol\":3451:3453  id */\n      dup6\n        /* \"Homework3.sol\":3437:3454  pledgedAmount[id] */\n      dup2\n      mstore\n      0x20\n      add\n      swap1\n      dup2\n      mstore\n      0x20\n      add\n      0x00\n      keccak256\n        /* \"Homework3.sol\":3437:3466  pledgedAmount[id][msg.sender] */\n      0x00\n        /* \"Homework3.sol\":3455:3465  msg.sender */\n      caller\n        /* \"Homework3.sol\":3437:3466  pledgedAmount[id][msg.sender] */\n      0xffffffffffffffffffffffffffffffffffffffff\n      and\n      0xffffffffffffffffffffffffffffffffffffffff\n      and\n      dup2\n      mstore\n      0x20\n      add\n      swap1\n      dup2\n      mstore\n      0x20\n      add\n      0x00\n      keccak256\n        /* \"Homework3.sol\":3437:3470  pledgedAmount[id][msg.sender] = 0 */\n      dup2\n      swap1\n      sstore\n      pop\n        /* \"Homework3.sol\":3480:3485  token */\n      immutable(\"0x17157e479612de6088d957c64aca858964825e74089b3c7dacc26409e6d53000\")\n        /* \"Homework3.sol\":3480:3494  token.transfer */\n      0xffffffffffffffffffffffffffffffffffffffff\n      and\n      0xa9059cbb\n        /* \"Homework3.sol\":3495:3505  msg.sender */\n      caller\n        /* \"Homework3.sol\":3507:3510  bal */\n      dup4\n        /* \"Homework3.sol\":3480:3511  token.transfer(msg.sender, bal) */\n      mload(0x40)\n      dup4\n      0xffffffff\n      and\n      0xe0\n      shl\n      dup2\n      mstore\n      0x04\n      add\n      tag_65\n      swap3\n      swap2\n      swap1\n      tag_66\n      jump\t// in\n    tag_65:\n      0x20\n      mload(0x40)\n      dup1\n      dup4\n      sub\n      dup2\n      0x00\n      dup8\n      dup1\n      extcodesize\n      iszero\n      dup1\n      iszero\n      tag_67\n      jumpi\n      0x00\n      dup1\n      revert\n    tag_67:\n      pop\n      gas\n      call\n      iszero\n      dup1\n      iszero\n      tag_69\n      jumpi\n      returndatasize\n      0x00\n      dup1\n      returndatacopy\n      revert(0x00, returndatasize)\n    tag_69:\n      pop\n      pop\n      pop\n      pop\n      mload(0x40)\n      returndatasize\n      not(0x1f)\n      0x1f\n      dup3\n      add\n      and\n      dup3\n      add\n      dup1\n      0x40\n      mstore\n      pop\n      dup2\n      add\n      swap1\n      tag_70\n      swap2\n      swap1\n      tag_71\n      jump\t// in\n    tag_70:\n      pop\n        /* \"Homework3.sol\":3538:3548  msg.sender */\n      caller\n        /* \"Homework3.sol\":3527:3554  Refund(id, msg.sender, bal) */\n      0xffffffffffffffffffffffffffffffffffffffff\n      and\n      0x21e12a7cad0da5928167e1084ea4d5fdf8d9af66657a2543a9ac76a0ca081477\n        /* \"Homework3.sol\":3534:3536  id */\n      dup5\n        /* \"Homework3.sol\":3550:3553  bal */\n      dup4\n        /* \"Homework3.sol\":3527:3554  Refund(id, msg.sender, bal) */\n      mload(0x40)\n      tag_72\n      swap3\n      swap2\n      swap1\n      tag_73\n      jump\t// in\n    tag_72:\n      mload(0x40)\n      dup1\n      swap2\n      sub\n      swap1\n      log2\n        /* \"Homework3.sol\":3248:3570  {... */\n      pop\n      pop\n        /* \"Homework3.sol\":3215:3570  function refund(uint id) external{... */\n      pop\n      jump\t// out\n        /* \"Homework3.sol\":1047:1591  function launch(... */\n    tag_33:\n        /* \"Homework3.sol\":1168:1183  block.timestamp */\n      timestamp\n        /* \"Homework3.sol\":1160:1166  _start */\n      dup3\n        /* \"Homework3.sol\":1160:1183  _start>=block.timestamp */\n      0xffffffff\n      and\n      lt\n      iszero\n        /* \"Homework3.sol\":1152:1196  require(_start>=block.timestamp,\"start<now\") */\n      tag_75\n      jumpi\n      mload(0x40)\n      0x08c379a000000000000000000000000000000000000000000000000000000000\n      dup2\n      mstore\n      0x04\n      add\n      tag_76\n      swap1\n      tag_77\n      jump\t// in\n    tag_76:\n      mload(0x40)\n      dup1\n      swap2\n      sub\n      swap1\n      revert\n    tag_75:\n        /* \"Homework3.sol\":1219:1225  _start */\n      dup2\n        /* \"Homework3.sol\":1214:1225  _end>_start */\n      0xffffffff\n      and\n        /* \"Homework3.sol\":1214:1218  _end */\n      dup2\n        /* \"Homework3.sol\":1214:1225  _end>_start */\n      0xffffffff\n      and\n      gt\n        /* \"Homework3.sol\":1206:1239  require(_end>_start ,\"start<end\") */\n      tag_78\n      jumpi\n      mload(0x40)\n      0x08c379a000000000000000000000000000000000000000000000000000000000\n      dup2\n      mstore\n      0x04\n      add\n      tag_79\n      swap1\n      tag_80\n      jump\t// in\n    tag_79:\n      mload(0x40)\n      dup1\n      swap2\n      sub\n      swap1\n      revert\n    tag_78:\n        /* \"Homework3.sol\":1281:1288  90 days */\n      0x76a700\n        /* \"Homework3.sol\":1263:1278  block.timestamp */\n      timestamp\n        /* \"Homework3.sol\":1263:1288  block.timestamp + 90 days */\n      tag_81\n      swap2\n      swap1\n      tag_82\n      jump\t// in\n    tag_81:\n        /* \"Homework3.sol\":1257:1261  _end */\n      dup2\n        /* \"Homework3.sol\":1257:1288  _end<=block.timestamp + 90 days */\n      0xffffffff\n      and\n      gt\n      iszero\n        /* \"Homework3.sol\":1249:1303  require(_end<=block.timestamp + 90 days,\"dur<max_dur\") */\n      tag_83\n      jumpi\n      mload(0x40)\n      0x08c379a000000000000000000000000000000000000000000000000000000000\n      dup2\n      mstore\n      0x04\n      add\n      tag_84\n      swap1\n      tag_85\n      jump\t// in\n    tag_84:\n      mload(0x40)\n      dup1\n      swap2\n      sub\n      swap1\n      revert\n    tag_83:\n        /* \"Homework3.sol\":1332:1507  Campaign({... */\n      mload(0x40)\n      dup1\n      0xc0\n      add\n      0x40\n      mstore\n      dup1\n        /* \"Homework3.sol\":1364:1374  msg.sender */\n      caller\n        /* \"Homework3.sol\":1332:1507  Campaign({... */\n      0xffffffffffffffffffffffffffffffffffffffff\n      and\n      dup2\n      mstore\n      0x20\n      add\n        /* \"Homework3.sol\":1393:1398  _goal */\n      dup5\n        /* \"Homework3.sol\":1332:1507  Campaign({... */\n      dup2\n      mstore\n      0x20\n      add\n        /* \"Homework3.sol\":1418:1424  _start */\n      dup4\n        /* \"Homework3.sol\":1332:1507  Campaign({... */\n      0xffffffff\n      and\n      dup2\n      mstore\n      0x20\n      add\n        /* \"Homework3.sol\":1442:1446  _end */\n      dup3\n        /* \"Homework3.sol\":1332:1507  Campaign({... */\n      0xffffffff\n      and\n      dup2\n      mstore\n      0x20\n      add\n        /* \"Homework3.sol\":1468:1469  0 */\n      0x00\n        /* \"Homework3.sol\":1332:1507  Campaign({... */\n      dup2\n      mstore\n      0x20\n      add\n        /* \"Homework3.sol\":1491:1496  false */\n      0x00\n        /* \"Homework3.sol\":1332:1507  Campaign({... */\n      iszero\n      iszero\n      dup2\n      mstore\n      pop\n        /* \"Homework3.sol\":1313:1322  campaigns */\n      0x01\n        /* \"Homework3.sol\":1313:1329  campaigns[count] */\n      0x00\n        /* \"Homework3.sol\":1323:1328  count */\n      dup1\n      sload\n        /* \"Homework3.sol\":1313:1329  campaigns[count] */\n      dup2\n      mstore\n      0x20\n      add\n      swap1\n      dup2\n      mstore\n      0x20\n      add\n      0x00\n      keccak256\n        /* \"Homework3.sol\":1313:1507  campaigns[count] = Campaign({... */\n      0x00\n      dup3\n      add\n      mload\n      dup2\n      0x00\n      add\n      exp(0x0100, 0x00)\n      dup2\n      sload\n      dup2\n      0xffffffffffffffffffffffffffffffffffffffff\n      mul\n      not\n      and\n      swap1\n      dup4\n      0xffffffffffffffffffffffffffffffffffffffff\n      and\n      mul\n      or\n      swap1\n      sstore\n      pop\n      0x20\n      dup3\n      add\n      mload\n      dup2\n      0x01\n      add\n      sstore\n      0x40\n      dup3\n      add\n      mload\n      dup2\n      0x02\n      add\n      exp(0x0100, 0x00)\n      dup2\n      sload\n      dup2\n      0xffffffff\n      mul\n      not\n      and\n      swap1\n      dup4\n      0xffffffff\n      and\n      mul\n      or\n      swap1\n      sstore\n      pop\n      0x60\n      dup3\n      add\n      mload\n      dup2\n      0x02\n      add\n      exp(0x0100, 0x04)\n      dup2\n      sload\n      dup2\n      0xffffffff\n      mul\n      not\n      and\n      swap1\n      dup4\n      0xffffffff\n      and\n      mul\n      or\n      swap1\n      sstore\n      pop\n      0x80\n      dup3\n      add\n      mload\n      dup2\n      0x03\n      add\n      sstore\n      0xa0\n      dup3\n      add\n      mload\n      dup2\n      0x04\n      add\n      exp(0x0100, 0x00)\n      dup2\n      sload\n      dup2\n      0xff\n      mul\n      not\n      and\n      swap1\n      dup4\n      iszero\n      iszero\n      mul\n      or\n      swap1\n      sstore\n      pop\n      swap1\n      pop\n      pop\n        /* \"Homework3.sol\":1536:1546  msg.sender */\n      caller\n        /* \"Homework3.sol\":1523:1565  Launch(count,msg.sender,_goal,_start,_end) */\n      0xffffffffffffffffffffffffffffffffffffffff\n      and\n      0x0601cd0d650b473037e838a2696d41e654433d065b3f56b28d1d3302e44a304f\n        /* \"Homework3.sol\":1530:1535  count */\n      sload(0x00)\n        /* \"Homework3.sol\":1547:1552  _goal */\n      dup6\n        /* \"Homework3.sol\":1553:1559  _start */\n      dup6\n        /* \"Homework3.sol\":1560:1564  _end */\n      dup6\n        /* \"Homework3.sol\":1523:1565  Launch(count,msg.sender,_goal,_start,_end) */\n      mload(0x40)\n      tag_86\n      swap5\n      swap4\n      swap3\n      swap2\n      swap1\n      tag_87\n      jump\t// in\n    tag_86:\n      mload(0x40)\n      dup1\n      swap2\n      sub\n      swap1\n      log2\n        /* \"Homework3.sol\":1575:1580  count */\n      0x00\n      dup1\n        /* \"Homework3.sol\":1575:1582  count++ */\n      dup2\n      sload\n      dup1\n      swap3\n      swap2\n      swap1\n      tag_88\n      swap1\n      tag_89\n      jump\t// in\n    tag_88:\n      swap2\n      swap1\n      pop\n      sstore\n      pop\n        /* \"Homework3.sol\":1047:1591  function launch(... */\n      pop\n      pop\n      pop\n      jump\t// out\n        /* \"Homework3.sol\":2753:3209  function claim(uint _id) external {... */\n    tag_36:\n        /* \"Homework3.sol\":2797:2822  Campaign storage campaign */\n      0x00\n        /* \"Homework3.sol\":2825:2834  campaigns */\n      0x01\n        /* \"Homework3.sol\":2825:2839  campaigns[_id] */\n      0x00\n        /* \"Homework3.sol\":2835:2838  _id */\n      dup4\n        /* \"Homework3.sol\":2825:2839  campaigns[_id] */\n      dup2\n      mstore\n      0x20\n      add\n      swap1\n      dup2\n      mstore\n      0x20\n      add\n      0x00\n      keccak256\n        /* \"Homework3.sol\":2797:2839  Campaign storage campaign = campaigns[_id] */\n      swap1\n      pop\n        /* \"Homework3.sol\":2877:2887  msg.sender */\n      caller\n        /* \"Homework3.sol\":2857:2887  campaign.creator == msg.sender */\n      0xffffffffffffffffffffffffffffffffffffffff\n      and\n        /* \"Homework3.sol\":2857:2865  campaign */\n      dup2\n        /* \"Homework3.sol\":2857:2873  campaign.creator */\n      0x00\n      add\n      0x00\n      swap1\n      sload\n      swap1\n      0x0100\n      exp\n      swap1\n      div\n      0xffffffffffffffffffffffffffffffffffffffff\n      and\n        /* \"Homework3.sol\":2857:2887  campaign.creator == msg.sender */\n      0xffffffffffffffffffffffffffffffffffffffff\n      and\n      eq\n        /* \"Homework3.sol\":2849:2903  require(campaign.creator == msg.sender, \"not creator\") */\n      tag_91\n      jumpi\n      mload(0x40)\n      0x08c379a000000000000000000000000000000000000000000000000000000000\n      dup2\n      mstore\n      0x04\n      add\n      tag_92\n      swap1\n      tag_93\n      jump\t// in\n    tag_92:\n      mload(0x40)\n      dup1\n      swap2\n      sub\n      swap1\n      revert\n    tag_91:\n        /* \"Homework3.sol\":2939:2947  campaign */\n      dup1\n        /* \"Homework3.sol\":2939:2951  campaign.end */\n      0x02\n      add\n      0x04\n      swap1\n      sload\n      swap1\n      0x0100\n      exp\n      swap1\n      div\n      0xffffffff\n      and\n        /* \"Homework3.sol\":2921:2951  block.timestamp > campaign.end */\n      0xffffffff\n      and\n        /* \"Homework3.sol\":2921:2936  block.timestamp */\n      timestamp\n        /* \"Homework3.sol\":2921:2951  block.timestamp > campaign.end */\n      gt\n        /* \"Homework3.sol\":2913:2965  require(block.timestamp > campaign.end, \"not ended\") */\n      tag_94\n      jumpi\n      mload(0x40)\n      0x08c379a000000000000000000000000000000000000000000000000000000000\n      dup2\n      mstore\n      0x04\n      add\n      tag_95\n      swap1\n      tag_96\n      jump\t// in\n    tag_95:\n      mload(0x40)\n      dup1\n      swap2\n      sub\n      swap1\n      revert\n    tag_94:\n        /* \"Homework3.sol\":3003:3011  campaign */\n      dup1\n        /* \"Homework3.sol\":3003:3016  campaign.goal */\n      0x01\n      add\n      sload\n        /* \"Homework3.sol\":2983:2991  campaign */\n      dup2\n        /* \"Homework3.sol\":2983:2999  campaign.pledged */\n      0x03\n      add\n      sload\n        /* \"Homework3.sol\":2983:3016  campaign.pledged >= campaign.goal */\n      lt\n      iszero\n        /* \"Homework3.sol\":2975:3035  require(campaign.pledged >= campaign.goal, \"pledged < goal\") */\n      tag_97\n      jumpi\n      mload(0x40)\n      0x08c379a000000000000000000000000000000000000000000000000000000000\n      dup2\n      mstore\n      0x04\n      add\n      tag_98\n      swap1\n      tag_99\n      jump\t// in\n    tag_98:\n      mload(0x40)\n      dup1\n      swap2\n      sub\n      swap1\n      revert\n    tag_97:\n        /* \"Homework3.sol\":3054:3062  campaign */\n      dup1\n        /* \"Homework3.sol\":3054:3070  campaign.claimed */\n      0x04\n      add\n      0x00\n      swap1\n      sload\n      swap1\n      0x0100\n      exp\n      swap1\n      div\n      0xff\n      and\n        /* \"Homework3.sol\":3053:3070  !campaign.claimed */\n      iszero\n        /* \"Homework3.sol\":3045:3082  require(!campaign.claimed, \"claimed\") */\n      tag_100\n      jumpi\n      mload(0x40)\n      0x08c379a000000000000000000000000000000000000000000000000000000000\n      dup2\n      mstore\n      0x04\n      add\n      tag_101\n      swap1\n      tag_102\n      jump\t// in\n    tag_101:\n      mload(0x40)\n      dup1\n      swap2\n      sub\n      swap1\n      revert\n    tag_100:\n        /* \"Homework3.sol\":3112:3116  true */\n      0x01\n        /* \"Homework3.sol\":3093:3101  campaign */\n      dup2\n        /* \"Homework3.sol\":3093:3109  campaign.claimed */\n      0x04\n      add\n      0x00\n        /* \"Homework3.sol\":3093:3116  campaign.claimed = true */\n      0x0100\n      exp\n      dup2\n      sload\n      dup2\n      0xff\n      mul\n      not\n      and\n      swap1\n      dup4\n      iszero\n      iszero\n      mul\n      or\n      swap1\n      sstore\n      pop\n        /* \"Homework3.sol\":3126:3131  token */\n      immutable(\"0x17157e479612de6088d957c64aca858964825e74089b3c7dacc26409e6d53000\")\n        /* \"Homework3.sol\":3126:3140  token.transfer */\n      0xffffffffffffffffffffffffffffffffffffffff\n      and\n      0xa9059cbb\n        /* \"Homework3.sol\":3141:3149  campaign */\n      dup3\n        /* \"Homework3.sol\":3141:3157  campaign.creator */\n      0x00\n      add\n      0x00\n      swap1\n      sload\n      swap1\n      0x0100\n      exp\n      swap1\n      div\n      0xffffffffffffffffffffffffffffffffffffffff\n      and\n        /* \"Homework3.sol\":3159:3167  campaign */\n      dup4\n        /* \"Homework3.sol\":3159:3175  campaign.pledged */\n      0x03\n      add\n      sload\n        /* \"Homework3.sol\":3126:3176  token.transfer(campaign.creator, campaign.pledged) */\n      mload(0x40)\n      dup4\n      0xffffffff\n      and\n      0xe0\n      shl\n      dup2\n      mstore\n      0x04\n      add\n      tag_103\n      swap3\n      swap2\n      swap1\n      tag_66\n      jump\t// in\n    tag_103:\n      0x20\n      mload(0x40)\n      dup1\n      dup4\n      sub\n      dup2\n      0x00\n      dup8\n      dup1\n      extcodesize\n      iszero\n      dup1\n      iszero\n      tag_104\n      jumpi\n      0x00\n      dup1\n      revert\n    tag_104:\n      pop\n      gas\n      call\n      iszero\n      dup1\n      iszero\n      tag_106\n      jumpi\n      returndatasize\n      0x00\n      dup1\n      returndatacopy\n      revert(0x00, returndatasize)\n    tag_106:\n      pop\n      pop\n      pop\n      pop\n      mload(0x40)\n      returndatasize\n      not(0x1f)\n      0x1f\n      dup3\n      add\n      and\n      dup3\n      add\n      dup1\n      0x40\n      mstore\n      pop\n      dup2\n      add\n      swap1\n      tag_107\n      swap2\n      swap1\n      tag_71\n      jump\t// in\n    tag_107:\n      pop\n        /* \"Homework3.sol\":3192:3202  Claim(_id) */\n      0x7bb2b3c10797baccb6f8c4791f1edd6ca2f0d028ee0eda64b01a9a57e3a653f7\n        /* \"Homework3.sol\":3198:3201  _id */\n      dup3\n        /* \"Homework3.sol\":3192:3202  Claim(_id) */\n      mload(0x40)\n      tag_108\n      swap2\n      swap1\n      tag_17\n      jump\t// in\n    tag_108:\n      mload(0x40)\n      dup1\n      swap2\n      sub\n      swap1\n      log1\n        /* \"Homework3.sol\":2787:3209  {... */\n      pop\n        /* \"Homework3.sol\":2753:3209  function claim(uint _id) external {... */\n      pop\n      jump\t// out\n        /* \"Homework3.sol\":2394:2747  function unpledge(uint _id, uint _amount) external {... */\n    tag_40:\n        /* \"Homework3.sol\":2455:2480  Campaign storage campaign */\n      0x00\n        /* \"Homework3.sol\":2483:2492  campaigns */\n      0x01\n        /* \"Homework3.sol\":2483:2497  campaigns[_id] */\n      0x00\n        /* \"Homework3.sol\":2493:2496  _id */\n      dup5\n        /* \"Homework3.sol\":2483:2497  campaigns[_id] */\n      dup2\n      mstore\n      0x20\n      add\n      swap1\n      dup2\n      mstore\n      0x20\n      add\n      0x00\n      keccak256\n        /* \"Homework3.sol\":2455:2497  Campaign storage campaign = campaigns[_id] */\n      swap1\n      pop\n        /* \"Homework3.sol\":2534:2542  campaign */\n      dup1\n        /* \"Homework3.sol\":2534:2546  campaign.end */\n      0x02\n      add\n      0x04\n      swap1\n      sload\n      swap1\n      0x0100\n      exp\n      swap1\n      div\n      0xffffffff\n      and\n        /* \"Homework3.sol\":2515:2546  block.timestamp <= campaign.end */\n      0xffffffff\n      and\n        /* \"Homework3.sol\":2515:2530  block.timestamp */\n      timestamp\n        /* \"Homework3.sol\":2515:2546  block.timestamp <= campaign.end */\n      gt\n      iszero\n        /* \"Homework3.sol\":2507:2556  require(block.timestamp <= campaign.end, \"ended\") */\n      tag_110\n      jumpi\n      mload(0x40)\n      0x08c379a000000000000000000000000000000000000000000000000000000000\n      dup2\n      mstore\n      0x04\n      add\n      tag_111\n      swap1\n      tag_112\n      jump\t// in\n    tag_111:\n      mload(0x40)\n      dup1\n      swap2\n      sub\n      swap1\n      revert\n    tag_110:\n        /* \"Homework3.sol\":2587:2594  _amount */\n      dup2\n        /* \"Homework3.sol\":2567:2575  campaign */\n      dup2\n        /* \"Homework3.sol\":2567:2583  campaign.pledged */\n      0x03\n      add\n      0x00\n        /* \"Homework3.sol\":2567:2594  campaign.pledged -= _amount */\n      dup3\n      dup3\n      sload\n      tag_113\n      swap2\n      swap1\n      tag_114\n      jump\t// in\n    tag_113:\n      swap3\n      pop\n      pop\n      dup2\n      swap1\n      sstore\n      pop\n        /* \"Homework3.sol\":2638:2645  _amount */\n      dup2\n        /* \"Homework3.sol\":2604:2617  pledgedAmount */\n      0x02\n        /* \"Homework3.sol\":2604:2622  pledgedAmount[_id] */\n      0x00\n        /* \"Homework3.sol\":2618:2621  _id */\n      dup6\n        /* \"Homework3.sol\":2604:2622  pledgedAmount[_id] */\n      dup2\n      mstore\n      0x20\n      add\n      swap1\n      dup2\n      mstore\n      0x20\n      add\n      0x00\n      keccak256\n        /* \"Homework3.sol\":2604:2634  pledgedAmount[_id][msg.sender] */\n      0x00\n        /* \"Homework3.sol\":2623:2633  msg.sender */\n      caller\n        /* \"Homework3.sol\":2604:2634  pledgedAmount[_id][msg.sender] */\n      0xffffffffffffffffffffffffffffffffffffffff\n      and\n      0xffffffffffffffffffffffffffffffffffffffff\n      and\n      dup2\n      mstore\n      0x20\n      add\n      swap1\n      dup2\n      mstore\n      0x20\n      add\n      0x00\n      keccak256\n      0x00\n        /* \"Homework3.sol\":2604:2645  pledgedAmount[_id][msg.sender] -= _amount */\n      dup3\n      dup3\n      sload\n      tag_115\n      swap2\n      swap1\n      tag_114\n      jump\t// in\n    tag_115:\n      swap3\n      pop\n      pop\n      dup2\n      swap1\n      sstore\n      pop\n        /* \"Homework3.sol\":2655:2660  token */\n      immutable(\"0x17157e479612de6088d957c64aca858964825e74089b3c7dacc26409e6d53000\")\n        /* \"Homework3.sol\":2655:2669  token.transfer */\n      0xffffffffffffffffffffffffffffffffffffffff\n      and\n      0xa9059cbb\n        /* \"Homework3.sol\":2670:2680  msg.sender */\n      caller\n        /* \"Homework3.sol\":2682:2689  _amount */\n      dup5\n        /* \"Homework3.sol\":2655:2690  token.transfer(msg.sender, _amount) */\n      mload(0x40)\n      dup4\n      0xffffffff\n      and\n      0xe0\n      shl\n      dup2\n      mstore\n      0x04\n      add\n      tag_116\n      swap3\n      swap2\n      swap1\n      tag_66\n      jump\t// in\n    tag_116:\n      0x20\n      mload(0x40)\n      dup1\n      dup4\n      sub\n      dup2\n      0x00\n      dup8\n      dup1\n      extcodesize\n      iszero\n      dup1\n      iszero\n      tag_117\n      jumpi\n      0x00\n      dup1\n      revert\n    tag_117:\n      pop\n      gas\n      call\n      iszero\n      dup1\n      iszero\n      tag_119\n      jumpi\n      returndatasize\n      0x00\n      dup1\n      returndatacopy\n      revert(0x00, returndatasize)\n    tag_119:\n      pop\n      pop\n      pop\n      pop\n      mload(0x40)\n      returndatasize\n      not(0x1f)\n      0x1f\n      dup3\n      add\n      and\n      dup3\n      add\n      dup1\n      0x40\n      mstore\n      pop\n      dup2\n      add\n      swap1\n      tag_120\n      swap2\n      swap1\n      tag_71\n      jump\t// in\n    tag_120:\n      pop\n        /* \"Homework3.sol\":2715:2718  _id */\n      dup3\n        /* \"Homework3.sol\":2706:2740  Unpledge(_id, msg.sender, _amount) */\n      0x2eeeab891b26a214d1b25749f88a406bdea852bd8c9bfda977e0ef8114c180ba\n        /* \"Homework3.sol\":2720:2730  msg.sender */\n      caller\n        /* \"Homework3.sol\":2732:2739  _amount */\n      dup5\n        /* \"Homework3.sol\":2706:2740  Unpledge(_id, msg.sender, _amount) */\n      mload(0x40)\n      tag_121\n      swap3\n      swap2\n      swap1\n      tag_66\n      jump\t// in\n    tag_121:\n      mload(0x40)\n      dup1\n      swap2\n      sub\n      swap1\n      log2\n        /* \"Homework3.sol\":2445:2747  {... */\n      pop\n        /* \"Homework3.sol\":2394:2747  function unpledge(uint _id, uint _amount) external {... */\n      pop\n      pop\n      jump\t// out\n        /* \"Homework3.sol\":907:966  mapping (uint=>mapping(address=>uint)) public pledgedAmount */\n    tag_44:\n      mstore(0x20, 0x02)\n      dup2\n      0x00\n      mstore\n      mstore(0x20, keccak256(0x00, 0x40))\n      dup1\n      0x00\n      mstore\n      keccak256(0x00, 0x40)\n      0x00\n      swap2\n      pop\n      swap2\n      pop\n      pop\n      sload\n      dup2\n      jump\t// out\n        /* \"Homework3.sol\":825:854  IERC20 public immutable token */\n    tag_47:\n      immutable(\"0x17157e479612de6088d957c64aca858964825e74089b3c7dacc26409e6d53000\")\n      dup2\n      jump\t// out\n        /* \"Homework3.sol\":1953:2388  function pledge(uint _id, uint _amount) external {... */\n    tag_52:\n        /* \"Homework3.sol\":2012:2037  Campaign storage campaign */\n      0x00\n        /* \"Homework3.sol\":2040:2049  campaigns */\n      0x01\n        /* \"Homework3.sol\":2040:2054  campaigns[_id] */\n      0x00\n        /* \"Homework3.sol\":2050:2053  _id */\n      dup5\n        /* \"Homework3.sol\":2040:2054  campaigns[_id] */\n      dup2\n      mstore\n      0x20\n      add\n      swap1\n      dup2\n      mstore\n      0x20\n      add\n      0x00\n      keccak256\n        /* \"Homework3.sol\":2012:2054  Campaign storage campaign = campaigns[_id] */\n      swap1\n      pop\n        /* \"Homework3.sol\":2091:2099  campaign */\n      dup1\n        /* \"Homework3.sol\":2091:2105  campaign.start */\n      0x02\n      add\n      0x00\n      swap1\n      sload\n      swap1\n      0x0100\n      exp\n      swap1\n      div\n      0xffffffff\n      and\n        /* \"Homework3.sol\":2072:2105  block.timestamp >= campaign.start */\n      0xffffffff\n      and\n        /* \"Homework3.sol\":2072:2087  block.timestamp */\n      timestamp\n        /* \"Homework3.sol\":2072:2105  block.timestamp >= campaign.start */\n      lt\n      iszero\n        /* \"Homework3.sol\":2064:2121  require(block.timestamp >= campaign.start, \"not started\") */\n      tag_123\n      jumpi\n      mload(0x40)\n      0x08c379a000000000000000000000000000000000000000000000000000000000\n      dup2\n      mstore\n      0x04\n      add\n      tag_124\n      swap1\n      tag_125\n      jump\t// in\n    tag_124:\n      mload(0x40)\n      dup1\n      swap2\n      sub\n      swap1\n      revert\n    tag_123:\n        /* \"Homework3.sol\":2158:2166  campaign */\n      dup1\n        /* \"Homework3.sol\":2158:2170  campaign.end */\n      0x02\n      add\n      0x04\n      swap1\n      sload\n      swap1\n      0x0100\n      exp\n      swap1\n      div\n      0xffffffff\n      and\n        /* \"Homework3.sol\":2139:2170  block.timestamp <= campaign.end */\n      0xffffffff\n      and\n        /* \"Homework3.sol\":2139:2154  block.timestamp */\n      timestamp\n        /* \"Homework3.sol\":2139:2170  block.timestamp <= campaign.end */\n      gt\n      iszero\n        /* \"Homework3.sol\":2131:2180  require(block.timestamp <= campaign.end, \"ended\") */\n      tag_126\n      jumpi\n      mload(0x40)\n      0x08c379a000000000000000000000000000000000000000000000000000000000\n      dup2\n      mstore\n      0x04\n      add\n      tag_127\n      swap1\n      tag_112\n      jump\t// in\n    tag_127:\n      mload(0x40)\n      dup1\n      swap2\n      sub\n      swap1\n      revert\n    tag_126:\n        /* \"Homework3.sol\":2211:2218  _amount */\n      dup2\n        /* \"Homework3.sol\":2191:2199  campaign */\n      dup2\n        /* \"Homework3.sol\":2191:2207  campaign.pledged */\n      0x03\n      add\n      0x00\n        /* \"Homework3.sol\":2191:2218  campaign.pledged += _amount */\n      dup3\n      dup3\n      sload\n      tag_128\n      swap2\n      swap1\n      tag_82\n      jump\t// in\n    tag_128:\n      swap3\n      pop\n      pop\n      dup2\n      swap1\n      sstore\n      pop\n        /* \"Homework3.sol\":2262:2269  _amount */\n      dup2\n        /* \"Homework3.sol\":2228:2241  pledgedAmount */\n      0x02\n        /* \"Homework3.sol\":2228:2246  pledgedAmount[_id] */\n      0x00\n        /* \"Homework3.sol\":2242:2245  _id */\n      dup6\n        /* \"Homework3.sol\":2228:2246  pledgedAmount[_id] */\n      dup2\n      mstore\n      0x20\n      add\n      swap1\n      dup2\n      mstore\n      0x20\n      add\n      0x00\n      keccak256\n        /* \"Homework3.sol\":2228:2258  pledgedAmount[_id][msg.sender] */\n      0x00\n        /* \"Homework3.sol\":2247:2257  msg.sender */\n      caller\n        /* \"Homework3.sol\":2228:2258  pledgedAmount[_id][msg.sender] */\n      0xffffffffffffffffffffffffffffffffffffffff\n      and\n      0xffffffffffffffffffffffffffffffffffffffff\n      and\n      dup2\n      mstore\n      0x20\n      add\n      swap1\n      dup2\n      mstore\n      0x20\n      add\n      0x00\n      keccak256\n      0x00\n        /* \"Homework3.sol\":2228:2269  pledgedAmount[_id][msg.sender] += _amount */\n      dup3\n      dup3\n      sload\n      tag_129\n      swap2\n      swap1\n      tag_82\n      jump\t// in\n    tag_129:\n      swap3\n      pop\n      pop\n      dup2\n      swap1\n      sstore\n      pop\n        /* \"Homework3.sol\":2279:2284  token */\n      immutable(\"0x17157e479612de6088d957c64aca858964825e74089b3c7dacc26409e6d53000\")\n        /* \"Homework3.sol\":2279:2297  token.transferFrom */\n      0xffffffffffffffffffffffffffffffffffffffff\n      and\n      0x23b872dd\n        /* \"Homework3.sol\":2298:2308  msg.sender */\n      caller\n        /* \"Homework3.sol\":2318:2322  this */\n      address\n        /* \"Homework3.sol\":2325:2332  _amount */\n      dup6\n        /* \"Homework3.sol\":2279:2333  token.transferFrom(msg.sender, address(this), _amount) */\n      mload(0x40)\n      dup5\n      0xffffffff\n      and\n      0xe0\n      shl\n      dup2\n      mstore\n      0x04\n      add\n      tag_130\n      swap4\n      swap3\n      swap2\n      swap1\n      tag_131\n      jump\t// in\n    tag_130:\n      0x20\n      mload(0x40)\n      dup1\n      dup4\n      sub\n      dup2\n      0x00\n      dup8\n      dup1\n      extcodesize\n      iszero\n      dup1\n      iszero\n      tag_132\n      jumpi\n      0x00\n      dup1\n      revert\n    tag_132:\n      pop\n      gas\n      call\n      iszero\n      dup1\n      iszero\n      tag_134\n      jumpi\n      returndatasize\n      0x00\n      dup1\n      returndatacopy\n      revert(0x00, returndatasize)\n    tag_134:\n      pop\n      pop\n      pop\n      pop\n      mload(0x40)\n      returndatasize\n      not(0x1f)\n      0x1f\n      dup3\n      add\n      and\n      dup3\n      add\n      dup1\n      0x40\n      mstore\n      pop\n      dup2\n      add\n      swap1\n      tag_135\n      swap2\n      swap1\n      tag_71\n      jump\t// in\n    tag_135:\n      pop\n        /* \"Homework3.sol\":2356:2359  _id */\n      dup3\n        /* \"Homework3.sol\":2349:2381  Pledge(_id, msg.sender, _amount) */\n      0x06bdb975df800a73232998e71ed585d536222f1dfeaa622d7f62a23ada686c82\n        /* \"Homework3.sol\":2361:2371  msg.sender */\n      caller\n        /* \"Homework3.sol\":2373:2380  _amount */\n      dup5\n        /* \"Homework3.sol\":2349:2381  Pledge(_id, msg.sender, _amount) */\n      mload(0x40)\n      tag_136\n      swap3\n      swap2\n      swap1\n      tag_66\n      jump\t// in\n    tag_136:\n      mload(0x40)\n      dup1\n      swap2\n      sub\n      swap1\n      log2\n        /* \"Homework3.sol\":2002:2388  {... */\n      pop\n        /* \"Homework3.sol\":1953:2388  function pledge(uint _id, uint _amount) external {... */\n      pop\n      pop\n      jump\t// out\n        /* \"#utility.yul\":7:146   */\n    tag_138:\n        /* \"#utility.yul\":53:58   */\n      0x00\n        /* \"#utility.yul\":91:97   */\n      dup2\n        /* \"#utility.yul\":78:98   */\n      calldataload\n        /* \"#utility.yul\":69:98   */\n      swap1\n      pop\n        /* \"#utility.yul\":107:140   */\n      tag_140\n        /* \"#utility.yul\":134:139   */\n      dup2\n        /* \"#utility.yul\":107:140   */\n      tag_141\n      jump\t// in\n    tag_140:\n        /* \"#utility.yul\":7:146   */\n      swap3\n      swap2\n      pop\n      pop\n      jump\t// out\n        /* \"#utility.yul\":152:289   */\n    tag_142:\n        /* \"#utility.yul\":206:211   */\n      0x00\n        /* \"#utility.yul\":237:243   */\n      dup2\n        /* \"#utility.yul\":231:244   */\n      mload\n        /* \"#utility.yul\":222:244   */\n      swap1\n      pop\n        /* \"#utility.yul\":253:283   */\n      tag_144\n        /* \"#utility.yul\":277:282   */\n      dup2\n        /* \"#utility.yul\":253:283   */\n      tag_145\n      jump\t// in\n    tag_144:\n        /* \"#utility.yul\":152:289   */\n      swap3\n      swap2\n      pop\n      pop\n      jump\t// out\n        /* \"#utility.yul\":295:434   */\n    tag_146:\n        /* \"#utility.yul\":341:346   */\n      0x00\n        /* \"#utility.yul\":379:385   */\n      dup2\n        /* \"#utility.yul\":366:386   */\n      calldataload\n        /* \"#utility.yul\":357:386   */\n      swap1\n      pop\n        /* \"#utility.yul\":395:428   */\n      tag_148\n        /* \"#utility.yul\":422:427   */\n      dup2\n        /* \"#utility.yul\":395:428   */\n      tag_149\n      jump\t// in\n    tag_148:\n        /* \"#utility.yul\":295:434   */\n      swap3\n      swap2\n      pop\n      pop\n      jump\t// out\n        /* \"#utility.yul\":440:577   */\n    tag_150:\n        /* \"#utility.yul\":485:490   */\n      0x00\n        /* \"#utility.yul\":523:529   */\n      dup2\n        /* \"#utility.yul\":510:530   */\n      calldataload\n        /* \"#utility.yul\":501:530   */\n      swap1\n      pop\n        /* \"#utility.yul\":539:571   */\n      tag_152\n        /* \"#utility.yul\":565:570   */\n      dup2\n        /* \"#utility.yul\":539:571   */\n      tag_153\n      jump\t// in\n    tag_152:\n        /* \"#utility.yul\":440:577   */\n      swap3\n      swap2\n      pop\n      pop\n      jump\t// out\n        /* \"#utility.yul\":583:928   */\n    tag_71:\n        /* \"#utility.yul\":650:656   */\n      0x00\n        /* \"#utility.yul\":699:701   */\n      0x20\n        /* \"#utility.yul\":687:696   */\n      dup3\n        /* \"#utility.yul\":678:685   */\n      dup5\n        /* \"#utility.yul\":674:697   */\n      sub\n        /* \"#utility.yul\":670:702   */\n      slt\n        /* \"#utility.yul\":667:786   */\n      iszero\n      tag_155\n      jumpi\n        /* \"#utility.yul\":705:784   */\n      tag_156\n      tag_157\n      jump\t// in\n    tag_156:\n        /* \"#utility.yul\":667:786   */\n    tag_155:\n        /* \"#utility.yul\":825:826   */\n      0x00\n        /* \"#utility.yul\":850:911   */\n      tag_158\n        /* \"#utility.yul\":903:910   */\n      dup5\n        /* \"#utility.yul\":894:900   */\n      dup3\n        /* \"#utility.yul\":883:892   */\n      dup6\n        /* \"#utility.yul\":879:901   */\n      add\n        /* \"#utility.yul\":850:911   */\n      tag_142\n      jump\t// in\n    tag_158:\n        /* \"#utility.yul\":840:911   */\n      swap2\n      pop\n        /* \"#utility.yul\":796:921   */\n      pop\n        /* \"#utility.yul\":583:928   */\n      swap3\n      swap2\n      pop\n      pop\n      jump\t// out\n        /* \"#utility.yul\":934:1263   */\n    tag_20:\n        /* \"#utility.yul\":993:999   */\n      0x00\n        /* \"#utility.yul\":1042:1044   */\n      0x20\n        /* \"#utility.yul\":1030:1039   */\n      dup3\n        /* \"#utility.yul\":1021:1028   */\n      dup5\n        /* \"#utility.yul\":1017:1040   */\n      sub\n        /* \"#utility.yul\":1013:1045   */\n      slt\n        /* \"#utility.yul\":1010:1129   */\n      iszero\n      tag_160\n      jumpi\n        /* \"#utility.yul\":1048:1127   */\n      tag_161\n      tag_157\n      jump\t// in\n    tag_161:\n        /* \"#utility.yul\":1010:1129   */\n    tag_160:\n        /* \"#utility.yul\":1168:1169   */\n      0x00\n        /* \"#utility.yul\":1193:1246   */\n      tag_162\n        /* \"#utility.yul\":1238:1245   */\n      dup5\n        /* \"#utility.yul\":1229:1235   */\n      dup3\n        /* \"#utility.yul\":1218:1227   */\n      dup6\n        /* \"#utility.yul\":1214:1236   */\n      add\n        /* \"#utility.yul\":1193:1246   */\n      tag_146\n      jump\t// in\n    tag_162:\n        /* \"#utility.yul\":1183:1246   */\n      swap2\n      pop\n        /* \"#utility.yul\":1139:1256   */\n      pop\n        /* \"#utility.yul\":934:1263   */\n      swap3\n      swap2\n      pop\n      pop\n      jump\t// out\n        /* \"#utility.yul\":1269:1743   */\n    tag_43:\n        /* \"#utility.yul\":1337:1343   */\n      0x00\n        /* \"#utility.yul\":1345:1351   */\n      dup1\n        /* \"#utility.yul\":1394:1396   */\n      0x40\n        /* \"#utility.yul\":1382:1391   */\n      dup4\n        /* \"#utility.yul\":1373:1380   */\n      dup6\n        /* \"#utility.yul\":1369:1392   */\n      sub\n        /* \"#utility.yul\":1365:1397   */\n      slt\n        /* \"#utility.yul\":1362:1481   */\n      iszero\n      tag_164\n      jumpi\n        /* \"#utility.yul\":1400:1479   */\n      tag_165\n      tag_157\n      jump\t// in\n    tag_165:\n        /* \"#utility.yul\":1362:1481   */\n    tag_164:\n        /* \"#utility.yul\":1520:1521   */\n      0x00\n        /* \"#utility.yul\":1545:1598   */\n      tag_166\n        /* \"#utility.yul\":1590:1597   */\n      dup6\n        /* \"#utility.yul\":1581:1587   */\n      dup3\n        /* \"#utility.yul\":1570:1579   */\n      dup7\n        /* \"#utility.yul\":1566:1588   */\n      add\n        /* \"#utility.yul\":1545:1598   */\n      tag_146\n      jump\t// in\n    tag_166:\n        /* \"#utility.yul\":1535:1598   */\n      swap3\n      pop\n        /* \"#utility.yul\":1491:1608   */\n      pop\n        /* \"#utility.yul\":1647:1649   */\n      0x20\n        /* \"#utility.yul\":1673:1726   */\n      tag_167\n        /* \"#utility.yul\":1718:1725   */\n      dup6\n        /* \"#utility.yul\":1709:1715   */\n      dup3\n        /* \"#utility.yul\":1698:1707   */\n      dup7\n        /* \"#utility.yul\":1694:1716   */\n      add\n        /* \"#utility.yul\":1673:1726   */\n      tag_138\n      jump\t// in\n    tag_167:\n        /* \"#utility.yul\":1663:1726   */\n      swap2\n      pop\n        /* \"#utility.yul\":1618:1736   */\n      pop\n        /* \"#utility.yul\":1269:1743   */\n      swap3\n      pop\n      swap3\n      swap1\n      pop\n      jump\t// out\n        /* \"#utility.yul\":1749:2223   */\n    tag_39:\n        /* \"#utility.yul\":1817:1823   */\n      0x00\n        /* \"#utility.yul\":1825:1831   */\n      dup1\n        /* \"#utility.yul\":1874:1876   */\n      0x40\n        /* \"#utility.yul\":1862:1871   */\n      dup4\n        /* \"#utility.yul\":1853:1860   */\n      dup6\n        /* \"#utility.yul\":1849:1872   */\n      sub\n        /* \"#utility.yul\":1845:1877   */\n      slt\n        /* \"#utility.yul\":1842:1961   */\n      iszero\n      tag_169\n      jumpi\n        /* \"#utility.yul\":1880:1959   */\n      tag_170\n      tag_157\n      jump\t// in\n    tag_170:\n        /* \"#utility.yul\":1842:1961   */\n    tag_169:\n        /* \"#utility.yul\":2000:2001   */\n      0x00\n        /* \"#utility.yul\":2025:2078   */\n      tag_171\n        /* \"#utility.yul\":2070:2077   */\n      dup6\n        /* \"#utility.yul\":2061:2067   */\n      dup3\n        /* \"#utility.yul\":2050:2059   */\n      dup7\n        /* \"#utility.yul\":2046:2068   */\n      add\n        /* \"#utility.yul\":2025:2078   */\n      tag_146\n      jump\t// in\n    tag_171:\n        /* \"#utility.yul\":2015:2078   */\n      swap3\n      pop\n        /* \"#utility.yul\":1971:2088   */\n      pop\n        /* \"#utility.yul\":2127:2129   */\n      0x20\n        /* \"#utility.yul\":2153:2206   */\n      tag_172\n        /* \"#utility.yul\":2198:2205   */\n      dup6\n        /* \"#utility.yul\":2189:2195   */\n      dup3\n        /* \"#utility.yul\":2178:2187   */\n      dup7\n        /* \"#utility.yul\":2174:2196   */\n      add\n        /* \"#utility.yul\":2153:2206   */\n      tag_146\n      jump\t// in\n    tag_172:\n        /* \"#utility.yul\":2143:2206   */\n      swap2\n      pop\n        /* \"#utility.yul\":2098:2216   */\n      pop\n        /* \"#utility.yul\":1749:2223   */\n      swap3\n      pop\n      swap3\n      swap1\n      pop\n      jump\t// out\n        /* \"#utility.yul\":2229:2844   */\n    tag_32:\n        /* \"#utility.yul\":2304:2310   */\n      0x00\n        /* \"#utility.yul\":2312:2318   */\n      dup1\n        /* \"#utility.yul\":2320:2326   */\n      0x00\n        /* \"#utility.yul\":2369:2371   */\n      0x60\n        /* \"#utility.yul\":2357:2366   */\n      dup5\n        /* \"#utility.yul\":2348:2355   */\n      dup7\n        /* \"#utility.yul\":2344:2367   */\n      sub\n        /* \"#utility.yul\":2340:2372   */\n      slt\n        /* \"#utility.yul\":2337:2456   */\n      iszero\n      tag_174\n      jumpi\n        /* \"#utility.yul\":2375:2454   */\n      tag_175\n      tag_157\n      jump\t// in\n    tag_175:\n        /* \"#utility.yul\":2337:2456   */\n    tag_174:\n        /* \"#utility.yul\":2495:2496   */\n      0x00\n        /* \"#utility.yul\":2520:2573   */\n      tag_176\n        /* \"#utility.yul\":2565:2572   */\n      dup7\n        /* \"#utility.yul\":2556:2562   */\n      dup3\n        /* \"#utility.yul\":2545:2554   */\n      dup8\n        /* \"#utility.yul\":2541:2563   */\n      add\n        /* \"#utility.yul\":2520:2573   */\n      tag_146\n      jump\t// in\n    tag_176:\n        /* \"#utility.yul\":2510:2573   */\n      swap4\n      pop\n        /* \"#utility.yul\":2466:2583   */\n      pop\n        /* \"#utility.yul\":2622:2624   */\n      0x20\n        /* \"#utility.yul\":2648:2700   */\n      tag_177\n        /* \"#utility.yul\":2692:2699   */\n      dup7\n        /* \"#utility.yul\":2683:2689   */\n      dup3\n        /* \"#utility.yul\":2672:2681   */\n      dup8\n        /* \"#utility.yul\":2668:2690   */\n      add\n        /* \"#utility.yul\":2648:2700   */\n      tag_150\n      jump\t// in\n    tag_177:\n        /* \"#utility.yul\":2638:2700   */\n      swap3\n      pop\n        /* \"#utility.yul\":2593:2710   */\n      pop\n        /* \"#utility.yul\":2749:2751   */\n      0x40\n        /* \"#utility.yul\":2775:2827   */\n      tag_178\n        /* \"#utility.yul\":2819:2826   */\n      dup7\n        /* \"#utility.yul\":2810:2816   */\n      dup3\n        /* \"#utility.yul\":2799:2808   */\n      dup8\n        /* \"#utility.yul\":2795:2817   */\n      add\n        /* \"#utility.yul\":2775:2827   */\n      tag_150\n      jump\t// in\n    tag_178:\n        /* \"#utility.yul\":2765:2827   */\n      swap2\n      pop\n        /* \"#utility.yul\":2720:2837   */\n      pop\n        /* \"#utility.yul\":2229:2844   */\n      swap3\n      pop\n      swap3\n      pop\n      swap3\n      jump\t// out\n        /* \"#utility.yul\":2850:2968   */\n    tag_179:\n        /* \"#utility.yul\":2937:2961   */\n      tag_181\n        /* \"#utility.yul\":2955:2960   */\n      dup2\n        /* \"#utility.yul\":2937:2961   */\n      tag_182\n      jump\t// in\n    tag_181:\n        /* \"#utility.yul\":2932:2935   */\n      dup3\n        /* \"#utility.yul\":2925:2962   */\n      mstore\n        /* \"#utility.yul\":2850:2968   */\n      pop\n      pop\n      jump\t// out\n        /* \"#utility.yul\":2974:3083   */\n    tag_183:\n        /* \"#utility.yul\":3055:3076   */\n      tag_185\n        /* \"#utility.yul\":3070:3075   */\n      dup2\n        /* \"#utility.yul\":3055:3076   */\n      tag_186\n      jump\t// in\n    tag_185:\n        /* \"#utility.yul\":3050:3053   */\n      dup3\n        /* \"#utility.yul\":3043:3077   */\n      mstore\n        /* \"#utility.yul\":2974:3083   */\n      pop\n      pop\n      jump\t// out\n        /* \"#utility.yul\":3089:3246   */\n    tag_187:\n        /* \"#utility.yul\":3189:3239   */\n      tag_189\n        /* \"#utility.yul\":3233:3238   */\n      dup2\n        /* \"#utility.yul\":3189:3239   */\n      tag_190\n      jump\t// in\n    tag_189:\n        /* \"#utility.yul\":3184:3187   */\n      dup3\n        /* \"#utility.yul\":3177:3240   */\n      mstore\n        /* \"#utility.yul\":3089:3246   */\n      pop\n      pop\n      jump\t// out\n        /* \"#utility.yul\":3252:3617   */\n    tag_191:\n        /* \"#utility.yul\":3394:3397   */\n      0x00\n        /* \"#utility.yul\":3415:3481   */\n      tag_193\n        /* \"#utility.yul\":3479:3480   */\n      0x08\n        /* \"#utility.yul\":3474:3477   */\n      dup4\n        /* \"#utility.yul\":3415:3481   */\n      tag_194\n      jump\t// in\n    tag_193:\n        /* \"#utility.yul\":3408:3481   */\n      swap2\n      pop\n        /* \"#utility.yul\":3490:3583   */\n      tag_195\n        /* \"#utility.yul\":3579:3582   */\n      dup3\n        /* \"#utility.yul\":3490:3583   */\n      tag_196\n      jump\t// in\n    tag_195:\n        /* \"#utility.yul\":3608:3610   */\n      0x20\n        /* \"#utility.yul\":3603:3606   */\n      dup3\n        /* \"#utility.yul\":3599:3611   */\n      add\n        /* \"#utility.yul\":3592:3611   */\n      swap1\n      pop\n        /* \"#utility.yul\":3252:3617   */\n      swap2\n      swap1\n      pop\n      jump\t// out\n        /* \"#utility.yul\":3623:3988   */\n    tag_197:\n        /* \"#utility.yul\":3765:3768   */\n      0x00\n        /* \"#utility.yul\":3786:3852   */\n      tag_199\n        /* \"#utility.yul\":3850:3851   */\n      0x07\n        /* \"#utility.yul\":3845:3848   */\n      dup4\n        /* \"#utility.yul\":3786:3852   */\n      tag_194\n      jump\t// in\n    tag_199:\n        /* \"#utility.yul\":3779:3852   */\n      swap2\n      pop\n        /* \"#utility.yul\":3861:3954   */\n      tag_200\n        /* \"#utility.yul\":3950:3953   */\n      dup3\n        /* \"#utility.yul\":3861:3954   */\n      tag_201\n      jump\t// in\n    tag_200:\n        /* \"#utility.yul\":3979:3981   */\n      0x20\n        /* \"#utility.yul\":3974:3977   */\n      dup3\n        /* \"#utility.yul\":3970:3982   */\n      add\n        /* \"#utility.yul\":3963:3982   */\n      swap1\n      pop\n        /* \"#utility.yul\":3623:3988   */\n      swap2\n      swap1\n      pop\n      jump\t// out\n        /* \"#utility.yul\":3994:4360   */\n    tag_202:\n        /* \"#utility.yul\":4136:4139   */\n      0x00\n        /* \"#utility.yul\":4157:4224   */\n      tag_204\n        /* \"#utility.yul\":4221:4223   */\n      0x0b\n        /* \"#utility.yul\":4216:4219   */\n      dup4\n        /* \"#utility.yul\":4157:4224   */\n      tag_194\n      jump\t// in\n    tag_204:\n        /* \"#utility.yul\":4150:4224   */\n      swap2\n      pop\n        /* \"#utility.yul\":4233:4326   */\n      tag_205\n        /* \"#utility.yul\":4322:4325   */\n      dup3\n        /* \"#utility.yul\":4233:4326   */\n      tag_206\n      jump\t// in\n    tag_205:\n        /* \"#utility.yul\":4351:4353   */\n      0x20\n        /* \"#utility.yul\":4346:4349   */\n      dup3\n        /* \"#utility.yul\":4342:4354   */\n      add\n        /* \"#utility.yul\":4335:4354   */\n      swap1\n      pop\n        /* \"#utility.yul\":3994:4360   */\n      swap2\n      swap1\n      pop\n      jump\t// out\n        /* \"#utility.yul\":4366:4732   */\n    tag_207:\n        /* \"#utility.yul\":4508:4511   */\n      0x00\n        /* \"#utility.yul\":4529:4596   */\n      tag_209\n        /* \"#utility.yul\":4593:4595   */\n      0x0f\n        /* \"#utility.yul\":4588:4591   */\n      dup4\n        /* \"#utility.yul\":4529:4596   */\n      tag_194\n      jump\t// in\n    tag_209:\n        /* \"#utility.yul\":4522:4596   */\n      swap2\n      pop\n        /* \"#utility.yul\":4605:4698   */\n      tag_210\n        /* \"#utility.yul\":4694:4697   */\n      dup3\n        /* \"#utility.yul\":4605:4698   */\n      tag_211\n      jump\t// in\n    tag_210:\n        /* \"#utility.yul\":4723:4725   */\n      0x20\n        /* \"#utility.yul\":4718:4721   */\n      dup3\n        /* \"#utility.yul\":4714:4726   */\n      add\n        /* \"#utility.yul\":4707:4726   */\n      swap1\n      pop\n        /* \"#utility.yul\":4366:4732   */\n      swap2\n      swap1\n      pop\n      jump\t// out\n        /* \"#utility.yul\":4738:5103   */\n    tag_212:\n        /* \"#utility.yul\":4880:4883   */\n      0x00\n        /* \"#utility.yul\":4901:4967   */\n      tag_214\n        /* \"#utility.yul\":4965:4966   */\n      0x09\n        /* \"#utility.yul\":4960:4963   */\n      dup4\n        /* \"#utility.yul\":4901:4967   */\n      tag_194\n      jump\t// in\n    tag_214:\n        /* \"#utility.yul\":4894:4967   */\n      swap2\n      pop\n        /* \"#utility.yul\":4976:5069   */\n      tag_215\n        /* \"#utility.yul\":5065:5068   */\n      dup3\n        /* \"#utility.yul\":4976:5069   */\n      tag_216\n      jump\t// in\n    tag_215:\n        /* \"#utility.yul\":5094:5096   */\n      0x20\n        /* \"#utility.yul\":5089:5092   */\n      dup3\n        /* \"#utility.yul\":5085:5097   */\n      add\n        /* \"#utility.yul\":5078:5097   */\n      swap1\n      pop\n        /* \"#utility.yul\":4738:5103   */\n      swap2\n      swap1\n      pop\n      jump\t// out\n        /* \"#utility.yul\":5109:5474   */\n    tag_217:\n        /* \"#utility.yul\":5251:5254   */\n      0x00\n        /* \"#utility.yul\":5272:5338   */\n      tag_219\n        /* \"#utility.yul\":5336:5337   */\n      0x06\n        /* \"#utility.yul\":5331:5334   */\n      dup4\n        /* \"#utility.yul\":5272:5338   */\n      tag_194\n      jump\t// in\n    tag_219:\n        /* \"#utility.yul\":5265:5338   */\n      swap2\n      pop\n        /* \"#utility.yul\":5347:5440   */\n      tag_220\n        /* \"#utility.yul\":5436:5439   */\n      dup3\n        /* \"#utility.yul\":5347:5440   */\n      tag_221\n      jump\t// in\n    tag_220:\n        /* \"#utility.yul\":5465:5467   */\n      0x20\n        /* \"#utility.yul\":5460:5463   */\n      dup3\n        /* \"#utility.yul\":5456:5468   */\n      add\n        /* \"#utility.yul\":5449:5468   */\n      swap1\n      pop\n        /* \"#utility.yul\":5109:5474   */\n      swap2\n      swap1\n      pop\n      jump\t// out\n        /* \"#utility.yul\":5480:5845   */\n    tag_222:\n        /* \"#utility.yul\":5622:5625   */\n      0x00\n        /* \"#utility.yul\":5643:5709   */\n      tag_224\n        /* \"#utility.yul\":5707:5708   */\n      0x09\n        /* \"#utility.yul\":5702:5705   */\n      dup4\n        /* \"#utility.yul\":5643:5709   */\n      tag_194\n      jump\t// in\n    tag_224:\n        /* \"#utility.yul\":5636:5709   */\n      swap2\n      pop\n        /* \"#utility.yul\":5718:5811   */\n      tag_225\n        /* \"#utility.yul\":5807:5810   */\n      dup3\n        /* \"#utility.yul\":5718:5811   */\n      tag_226\n      jump\t// in\n    tag_225:\n        /* \"#utility.yul\":5836:5838   */\n      0x20\n        /* \"#utility.yul\":5831:5834   */\n      dup3\n        /* \"#utility.yul\":5827:5839   */\n      add\n        /* \"#utility.yul\":5820:5839   */\n      swap1\n      pop\n        /* \"#utility.yul\":5480:5845   */\n      swap2\n      swap1\n      pop\n      jump\t// out\n        /* \"#utility.yul\":5851:6217   */\n    tag_227:\n        /* \"#utility.yul\":5993:5996   */\n      0x00\n        /* \"#utility.yul\":6014:6081   */\n      tag_229\n        /* \"#utility.yul\":6078:6080   */\n      0x0b\n        /* \"#utility.yul\":6073:6076   */\n      dup4\n        /* \"#utility.yul\":6014:6081   */\n      tag_194\n      jump\t// in\n    tag_229:\n        /* \"#utility.yul\":6007:6081   */\n      swap2\n      pop\n        /* \"#utility.yul\":6090:6183   */\n      tag_230\n        /* \"#utility.yul\":6179:6182   */\n      dup3\n        /* \"#utility.yul\":6090:6183   */\n      tag_231\n      jump\t// in\n    tag_230:\n        /* \"#utility.yul\":6208:6210   */\n      0x20\n        /* \"#utility.yul\":6203:6206   */\n      dup3\n        /* \"#utility.yul\":6199:6211   */\n      add\n        /* \"#utility.yul\":6192:6211   */\n      swap1\n      pop\n        /* \"#utility.yul\":5851:6217   */\n      swap2\n      swap1\n      pop\n      jump\t// out\n        /* \"#utility.yul\":6223:6589   */\n    tag_232:\n        /* \"#utility.yul\":6365:6368   */\n      0x00\n        /* \"#utility.yul\":6386:6453   */\n      tag_234\n        /* \"#utility.yul\":6450:6452   */\n      0x0e\n        /* \"#utility.yul\":6445:6448   */\n      dup4\n        /* \"#utility.yul\":6386:6453   */\n      tag_194\n      jump\t// in\n    tag_234:\n        /* \"#utility.yul\":6379:6453   */\n      swap2\n      pop\n        /* \"#utility.yul\":6462:6555   */\n      tag_235\n        /* \"#utility.yul\":6551:6554   */\n      dup3\n        /* \"#utility.yul\":6462:6555   */\n      tag_236\n      jump\t// in\n    tag_235:\n        /* \"#utility.yul\":6580:6582   */\n      0x20\n        /* \"#utility.yul\":6575:6578   */\n      dup3\n        /* \"#utility.yul\":6571:6583   */\n      add\n        /* \"#utility.yul\":6564:6583   */\n      swap1\n      pop\n        /* \"#utility.yul\":6223:6589   */\n      swap2\n      swap1\n      pop\n      jump\t// out\n        /* \"#utility.yul\":6595:6961   */\n    tag_237:\n        /* \"#utility.yul\":6737:6740   */\n      0x00\n        /* \"#utility.yul\":6758:6825   */\n      tag_239\n        /* \"#utility.yul\":6822:6824   */\n      0x0b\n        /* \"#utility.yul\":6817:6820   */\n      dup4\n        /* \"#utility.yul\":6758:6825   */\n      tag_194\n      jump\t// in\n    tag_239:\n        /* \"#utility.yul\":6751:6825   */\n      swap2\n      pop\n        /* \"#utility.yul\":6834:6927   */\n      tag_240\n        /* \"#utility.yul\":6923:6926   */\n      dup3\n        /* \"#utility.yul\":6834:6927   */\n      tag_241\n      jump\t// in\n    tag_240:\n        /* \"#utility.yul\":6952:6954   */\n      0x20\n        /* \"#utility.yul\":6947:6950   */\n      dup3\n        /* \"#utility.yul\":6943:6955   */\n      add\n        /* \"#utility.yul\":6936:6955   */\n      swap1\n      pop\n        /* \"#utility.yul\":6595:6961   */\n      swap2\n      swap1\n      pop\n      jump\t// out\n        /* \"#utility.yul\":6967:7332   */\n    tag_242:\n        /* \"#utility.yul\":7109:7112   */\n      0x00\n        /* \"#utility.yul\":7130:7196   */\n      tag_244\n        /* \"#utility.yul\":7194:7195   */\n      0x05\n        /* \"#utility.yul\":7189:7192   */\n      dup4\n        /* \"#utility.yul\":7130:7196   */\n      tag_194\n      jump\t// in\n    tag_244:\n        /* \"#utility.yul\":7123:7196   */\n      swap2\n      pop\n        /* \"#utility.yul\":7205:7298   */\n      tag_245\n        /* \"#utility.yul\":7294:7297   */\n      dup3\n        /* \"#utility.yul\":7205:7298   */\n      tag_246\n      jump\t// in\n    tag_245:\n        /* \"#utility.yul\":7323:7325   */\n      0x20\n        /* \"#utility.yul\":7318:7321   */\n      dup3\n        /* \"#utility.yul\":7314:7326   */\n      add\n        /* \"#utility.yul\":7307:7326   */\n      swap1\n      pop\n        /* \"#utility.yul\":6967:7332   */\n      swap2\n      swap1\n      pop\n      jump\t// out\n        /* \"#utility.yul\":7338:7703   */\n    tag_247:\n        /* \"#utility.yul\":7480:7483   */\n      0x00\n        /* \"#utility.yul\":7501:7567   */\n      tag_249\n        /* \"#utility.yul\":7565:7566   */\n      0x09\n        /* \"#utility.yul\":7560:7563   */\n      dup4\n        /* \"#utility.yul\":7501:7567   */\n      tag_194\n      jump\t// in\n    tag_249:\n        /* \"#utility.yul\":7494:7567   */\n      swap2\n      pop\n        /* \"#utility.yul\":7576:7669   */\n      tag_250\n        /* \"#utility.yul\":7665:7668   */\n      dup3\n        /* \"#utility.yul\":7576:7669   */\n      tag_251\n      jump\t// in\n    tag_250:\n        /* \"#utility.yul\":7694:7696   */\n      0x20\n        /* \"#utility.yul\":7689:7692   */\n      dup3\n        /* \"#utility.yul\":7685:7697   */\n      add\n        /* \"#utility.yul\":7678:7697   */\n      swap1\n      pop\n        /* \"#utility.yul\":7338:7703   */\n      swap2\n      swap1\n      pop\n      jump\t// out\n        /* \"#utility.yul\":7709:7827   */\n    tag_252:\n        /* \"#utility.yul\":7796:7820   */\n      tag_254\n        /* \"#utility.yul\":7814:7819   */\n      dup2\n        /* \"#utility.yul\":7796:7820   */\n      tag_255\n      jump\t// in\n    tag_254:\n        /* \"#utility.yul\":7791:7794   */\n      dup3\n        /* \"#utility.yul\":7784:7821   */\n      mstore\n        /* \"#utility.yul\":7709:7827   */\n      pop\n      pop\n      jump\t// out\n        /* \"#utility.yul\":7833:7948   */\n    tag_256:\n        /* \"#utility.yul\":7918:7941   */\n      tag_258\n        /* \"#utility.yul\":7935:7940   */\n      dup2\n        /* \"#utility.yul\":7918:7941   */\n      tag_259\n      jump\t// in\n    tag_258:\n        /* \"#utility.yul\":7913:7916   */\n      dup3\n        /* \"#utility.yul\":7906:7942   */\n      mstore\n        /* \"#utility.yul\":7833:7948   */\n      pop\n      pop\n      jump\t// out\n        /* \"#utility.yul\":7954:8396   */\n    tag_131:\n        /* \"#utility.yul\":8103:8107   */\n      0x00\n        /* \"#utility.yul\":8141:8143   */\n      0x60\n        /* \"#utility.yul\":8130:8139   */\n      dup3\n        /* \"#utility.yul\":8126:8144   */\n      add\n        /* \"#utility.yul\":8118:8144   */\n      swap1\n      pop\n        /* \"#utility.yul\":8154:8225   */\n      tag_261\n        /* \"#utility.yul\":8222:8223   */\n      0x00\n        /* \"#utility.yul\":8211:8220   */\n      dup4\n        /* \"#utility.yul\":8207:8224   */\n      add\n        /* \"#utility.yul\":8198:8204   */\n      dup7\n        /* \"#utility.yul\":8154:8225   */\n      tag_179\n      jump\t// in\n    tag_261:\n        /* \"#utility.yul\":8235:8307   */\n      tag_262\n        /* \"#utility.yul\":8303:8305   */\n      0x20\n        /* \"#utility.yul\":8292:8301   */\n      dup4\n        /* \"#utility.yul\":8288:8306   */\n      add\n        /* \"#utility.yul\":8279:8285   */\n      dup6\n        /* \"#utility.yul\":8235:8307   */\n      tag_179\n      jump\t// in\n    tag_262:\n        /* \"#utility.yul\":8317:8389   */\n      tag_263\n        /* \"#utility.yul\":8385:8387   */\n      0x40\n        /* \"#utility.yul\":8374:8383   */\n      dup4\n        /* \"#utility.yul\":8370:8388   */\n      add\n        /* \"#utility.yul\":8361:8367   */\n      dup5\n        /* \"#utility.yul\":8317:8389   */\n      tag_252\n      jump\t// in\n    tag_263:\n        /* \"#utility.yul\":7954:8396   */\n      swap5\n      swap4\n      pop\n      pop\n      pop\n      pop\n      jump\t// out\n        /* \"#utility.yul\":8402:8734   */\n    tag_66:\n        /* \"#utility.yul\":8523:8527   */\n      0x00\n        /* \"#utility.yul\":8561:8563   */\n      0x40\n        /* \"#utility.yul\":8550:8559   */\n      dup3\n        /* \"#utility.yul\":8546:8564   */\n      add\n        /* \"#utility.yul\":8538:8564   */\n      swap1\n      pop\n        /* \"#utility.yul\":8574:8645   */\n      tag_265\n        /* \"#utility.yul\":8642:8643   */\n      0x00\n        /* \"#utility.yul\":8631:8640   */\n      dup4\n        /* \"#utility.yul\":8627:8644   */\n      add\n        /* \"#utility.yul\":8618:8624   */\n      dup6\n        /* \"#utility.yul\":8574:8645   */\n      tag_179\n      jump\t// in\n    tag_265:\n        /* \"#utility.yul\":8655:8727   */\n      tag_266\n        /* \"#utility.yul\":8723:8725   */\n      0x20\n        /* \"#utility.yul\":8712:8721   */\n      dup4\n        /* \"#utility.yul\":8708:8726   */\n      add\n        /* \"#utility.yul\":8699:8705   */\n      dup5\n        /* \"#utility.yul\":8655:8727   */\n      tag_252\n      jump\t// in\n    tag_266:\n        /* \"#utility.yul\":8402:8734   */\n      swap4\n      swap3\n      pop\n      pop\n      pop\n      jump\t// out\n        /* \"#utility.yul\":8740:9495   */\n    tag_26:\n        /* \"#utility.yul\":8963:8967   */\n      0x00\n        /* \"#utility.yul\":9001:9004   */\n      0xc0\n        /* \"#utility.yul\":8990:8999   */\n      dup3\n        /* \"#utility.yul\":8986:9005   */\n      add\n        /* \"#utility.yul\":8978:9005   */\n      swap1\n      pop\n        /* \"#utility.yul\":9015:9086   */\n      tag_268\n        /* \"#utility.yul\":9083:9084   */\n      0x00\n        /* \"#utility.yul\":9072:9081   */\n      dup4\n        /* \"#utility.yul\":9068:9085   */\n      add\n        /* \"#utility.yul\":9059:9065   */\n      dup10\n        /* \"#utility.yul\":9015:9086   */\n      tag_179\n      jump\t// in\n    tag_268:\n        /* \"#utility.yul\":9096:9168   */\n      tag_269\n        /* \"#utility.yul\":9164:9166   */\n      0x20\n        /* \"#utility.yul\":9153:9162   */\n      dup4\n        /* \"#utility.yul\":9149:9167   */\n      add\n        /* \"#utility.yul\":9140:9146   */\n      dup9\n        /* \"#utility.yul\":9096:9168   */\n      tag_252\n      jump\t// in\n    tag_269:\n        /* \"#utility.yul\":9178:9248   */\n      tag_270\n        /* \"#utility.yul\":9244:9246   */\n      0x40\n        /* \"#utility.yul\":9233:9242   */\n      dup4\n        /* \"#utility.yul\":9229:9247   */\n      add\n        /* \"#utility.yul\":9220:9226   */\n      dup8\n        /* \"#utility.yul\":9178:9248   */\n      tag_256\n      jump\t// in\n    tag_270:\n        /* \"#utility.yul\":9258:9328   */\n      tag_271\n        /* \"#utility.yul\":9324:9326   */\n      0x60\n        /* \"#utility.yul\":9313:9322   */\n      dup4\n        /* \"#utility.yul\":9309:9327   */\n      add\n        /* \"#utility.yul\":9300:9306   */\n      dup7\n        /* \"#utility.yul\":9258:9328   */\n      tag_256\n      jump\t// in\n    tag_271:\n        /* \"#utility.yul\":9338:9411   */\n      tag_272\n        /* \"#utility.yul\":9406:9409   */\n      0x80\n        /* \"#utility.yul\":9395:9404   */\n      dup4\n        /* \"#utility.yul\":9391:9410   */\n      add\n        /* \"#utility.yul\":9382:9388   */\n      dup6\n        /* \"#utility.yul\":9338:9411   */\n      tag_252\n      jump\t// in\n    tag_272:\n        /* \"#utility.yul\":9421:9488   */\n      tag_273\n        /* \"#utility.yul\":9483:9486   */\n      0xa0\n        /* \"#utility.yul\":9472:9481   */\n      dup4\n        /* \"#utility.yul\":9468:9487   */\n      add\n        /* \"#utility.yul\":9459:9465   */\n      dup5\n        /* \"#utility.yul\":9421:9488   */\n      tag_183\n      jump\t// in\n    tag_273:\n        /* \"#utility.yul\":8740:9495   */\n      swap8\n      swap7\n      pop\n      pop\n      pop\n      pop\n      pop\n      pop\n      pop\n      jump\t// out\n        /* \"#utility.yul\":9501:9749   */\n    tag_49:\n        /* \"#utility.yul\":9607:9611   */\n      0x00\n        /* \"#utility.yul\":9645:9647   */\n      0x20\n        /* \"#utility.yul\":9634:9643   */\n      dup3\n        /* \"#utility.yul\":9630:9648   */\n      add\n        /* \"#utility.yul\":9622:9648   */\n      swap1\n      pop\n        /* \"#utility.yul\":9658:9742   */\n      tag_275\n        /* \"#utility.yul\":9739:9740   */\n      0x00\n        /* \"#utility.yul\":9728:9737   */\n      dup4\n        /* \"#utility.yul\":9724:9741   */\n      add\n        /* \"#utility.yul\":9715:9721   */\n      dup5\n        /* \"#utility.yul\":9658:9742   */\n      tag_187\n      jump\t// in\n    tag_275:\n        /* \"#utility.yul\":9501:9749   */\n      swap3\n      swap2\n      pop\n      pop\n      jump\t// out\n        /* \"#utility.yul\":9755:10174   */\n    tag_59:\n        /* \"#utility.yul\":9921:9925   */\n      0x00\n        /* \"#utility.yul\":9959:9961   */\n      0x20\n        /* \"#utility.yul\":9948:9957   */\n      dup3\n        /* \"#utility.yul\":9944:9962   */\n      add\n        /* \"#utility.yul\":9936:9962   */\n      swap1\n      pop\n        /* \"#utility.yul\":10008:10017   */\n      dup2\n        /* \"#utility.yul\":10002:10006   */\n      dup2\n        /* \"#utility.yul\":9998:10018   */\n      sub\n        /* \"#utility.yul\":9994:9995   */\n      0x00\n        /* \"#utility.yul\":9983:9992   */\n      dup4\n        /* \"#utility.yul\":9979:9996   */\n      add\n        /* \"#utility.yul\":9972:10019   */\n      mstore\n        /* \"#utility.yul\":10036:10167   */\n      tag_277\n        /* \"#utility.yul\":10162:10166   */\n      dup2\n        /* \"#utility.yul\":10036:10167   */\n      tag_191\n      jump\t// in\n    tag_277:\n        /* \"#utility.yul\":10028:10167   */\n      swap1\n      pop\n        /* \"#utility.yul\":9755:10174   */\n      swap2\n      swap1\n      pop\n      jump\t// out\n        /* \"#utility.yul\":10180:10599   */\n    tag_102:\n        /* \"#utility.yul\":10346:10350   */\n      0x00\n        /* \"#utility.yul\":10384:10386   */\n      0x20\n        /* \"#utility.yul\":10373:10382   */\n      dup3\n        /* \"#utility.yul\":10369:10387   */\n      add\n        /* \"#utility.yul\":10361:10387   */\n      swap1\n      pop\n        /* \"#utility.yul\":10433:10442   */\n      dup2\n        /* \"#utility.yul\":10427:10431   */\n      dup2\n        /* \"#utility.yul\":10423:10443   */\n      sub\n        /* \"#utility.yul\":10419:10420   */\n      0x00\n        /* \"#utility.yul\":10408:10417   */\n      dup4\n        /* \"#utility.yul\":10404:10421   */\n      add\n        /* \"#utility.yul\":10397:10444   */\n      mstore\n        /* \"#utility.yul\":10461:10592   */\n      tag_279\n        /* \"#utility.yul\":10587:10591   */\n      dup2\n        /* \"#utility.yul\":10461:10592   */\n      tag_197\n      jump\t// in\n    tag_279:\n        /* \"#utility.yul\":10453:10592   */\n      swap1\n      pop\n        /* \"#utility.yul\":10180:10599   */\n      swap2\n      swap1\n      pop\n      jump\t// out\n        /* \"#utility.yul\":10605:11024   */\n    tag_93:\n        /* \"#utility.yul\":10771:10775   */\n      0x00\n        /* \"#utility.yul\":10809:10811   */\n      0x20\n        /* \"#utility.yul\":10798:10807   */\n      dup3\n        /* \"#utility.yul\":10794:10812   */\n      add\n        /* \"#utility.yul\":10786:10812   */\n      swap1\n      pop\n        /* \"#utility.yul\":10858:10867   */\n      dup2\n        /* \"#utility.yul\":10852:10856   */\n      dup2\n        /* \"#utility.yul\":10848:10868   */\n      sub\n        /* \"#utility.yul\":10844:10845   */\n      0x00\n        /* \"#utility.yul\":10833:10842   */\n      dup4\n        /* \"#utility.yul\":10829:10846   */\n      add\n        /* \"#utility.yul\":10822:10869   */\n      mstore\n        /* \"#utility.yul\":10886:11017   */\n      tag_281\n        /* \"#utility.yul\":11012:11016   */\n      dup2\n        /* \"#utility.yul\":10886:11017   */\n      tag_202\n      jump\t// in\n    tag_281:\n        /* \"#utility.yul\":10878:11017   */\n      swap1\n      pop\n        /* \"#utility.yul\":10605:11024   */\n      swap2\n      swap1\n      pop\n      jump\t// out\n        /* \"#utility.yul\":11030:11449   */\n    tag_64:\n        /* \"#utility.yul\":11196:11200   */\n      0x00\n        /* \"#utility.yul\":11234:11236   */\n      0x20\n        /* \"#utility.yul\":11223:11232   */\n      dup3\n        /* \"#utility.yul\":11219:11237   */\n      add\n        /* \"#utility.yul\":11211:11237   */\n      swap1\n      pop\n        /* \"#utility.yul\":11283:11292   */\n      dup2\n        /* \"#utility.yul\":11277:11281   */\n      dup2\n        /* \"#utility.yul\":11273:11293   */\n      sub\n        /* \"#utility.yul\":11269:11270   */\n      0x00\n        /* \"#utility.yul\":11258:11267   */\n      dup4\n        /* \"#utility.yul\":11254:11271   */\n      add\n        /* \"#utility.yul\":11247:11294   */\n      mstore\n        /* \"#utility.yul\":11311:11442   */\n      tag_283\n        /* \"#utility.yul\":11437:11441   */\n      dup2\n        /* \"#utility.yul\":11311:11442   */\n      tag_207\n      jump\t// in\n    tag_283:\n        /* \"#utility.yul\":11303:11442   */\n      swap1\n      pop\n        /* \"#utility.yul\":11030:11449   */\n      swap2\n      swap1\n      pop\n      jump\t// out\n        /* \"#utility.yul\":11455:11874   */\n    tag_77:\n        /* \"#utility.yul\":11621:11625   */\n      0x00\n        /* \"#utility.yul\":11659:11661   */\n      0x20\n        /* \"#utility.yul\":11648:11657   */\n      dup3\n        /* \"#utility.yul\":11644:11662   */\n      add\n        /* \"#utility.yul\":11636:11662   */\n      swap1\n      pop\n        /* \"#utility.yul\":11708:11717   */\n      dup2\n        /* \"#utility.yul\":11702:11706   */\n      dup2\n        /* \"#utility.yul\":11698:11718   */\n      sub\n        /* \"#utility.yul\":11694:11695   */\n      0x00\n        /* \"#utility.yul\":11683:11692   */\n      dup4\n        /* \"#utility.yul\":11679:11696   */\n      add\n        /* \"#utility.yul\":11672:11719   */\n      mstore\n        /* \"#utility.yul\":11736:11867   */\n      tag_285\n        /* \"#utility.yul\":11862:11866   */\n      dup2\n        /* \"#utility.yul\":11736:11867   */\n      tag_212\n      jump\t// in\n    tag_285:\n        /* \"#utility.yul\":11728:11867   */\n      swap1\n      pop\n        /* \"#utility.yul\":11455:11874   */\n      swap2\n      swap1\n      pop\n      jump\t// out\n        /* \"#utility.yul\":11880:12299   */\n    tag_56:\n        /* \"#utility.yul\":12046:12050   */\n      0x00\n        /* \"#utility.yul\":12084:12086   */\n      0x20\n        /* \"#utility.yul\":12073:12082   */\n      dup3\n        /* \"#utility.yul\":12069:12087   */\n      add\n        /* \"#utility.yul\":12061:12087   */\n      swap1\n      pop\n        /* \"#utility.yul\":12133:12142   */\n      dup2\n        /* \"#utility.yul\":12127:12131   */\n      dup2\n        /* \"#utility.yul\":12123:12143   */\n      sub\n        /* \"#utility.yul\":12119:12120   */\n      0x00\n        /* \"#utility.yul\":12108:12117   */\n      dup4\n        /* \"#utility.yul\":12104:12121   */\n      add\n        /* \"#utility.yul\":12097:12144   */\n      mstore\n        /* \"#utility.yul\":12161:12292   */\n      tag_287\n        /* \"#utility.yul\":12287:12291   */\n      dup2\n        /* \"#utility.yul\":12161:12292   */\n      tag_217\n      jump\t// in\n    tag_287:\n        /* \"#utility.yul\":12153:12292   */\n      swap1\n      pop\n        /* \"#utility.yul\":11880:12299   */\n      swap2\n      swap1\n      pop\n      jump\t// out\n        /* \"#utility.yul\":12305:12724   */\n    tag_80:\n        /* \"#utility.yul\":12471:12475   */\n      0x00\n        /* \"#utility.yul\":12509:12511   */\n      0x20\n        /* \"#utility.yul\":12498:12507   */\n      dup3\n        /* \"#utility.yul\":12494:12512   */\n      add\n        /* \"#utility.yul\":12486:12512   */\n      swap1\n      pop\n        /* \"#utility.yul\":12558:12567   */\n      dup2\n        /* \"#utility.yul\":12552:12556   */\n      dup2\n        /* \"#utility.yul\":12548:12568   */\n      sub\n        /* \"#utility.yul\":12544:12545   */\n      0x00\n        /* \"#utility.yul\":12533:12542   */\n      dup4\n        /* \"#utility.yul\":12529:12546   */\n      add\n        /* \"#utility.yul\":12522:12569   */\n      mstore\n        /* \"#utility.yul\":12586:12717   */\n      tag_289\n        /* \"#utility.yul\":12712:12716   */\n      dup2\n        /* \"#utility.yul\":12586:12717   */\n      tag_222\n      jump\t// in\n    tag_289:\n        /* \"#utility.yul\":12578:12717   */\n      swap1\n      pop\n        /* \"#utility.yul\":12305:12724   */\n      swap2\n      swap1\n      pop\n      jump\t// out\n        /* \"#utility.yul\":12730:13149   */\n    tag_85:\n        /* \"#utility.yul\":12896:12900   */\n      0x00\n        /* \"#utility.yul\":12934:12936   */\n      0x20\n        /* \"#utility.yul\":12923:12932   */\n      dup3\n        /* \"#utility.yul\":12919:12937   */\n      add\n        /* \"#utility.yul\":12911:12937   */\n      swap1\n      pop\n        /* \"#utility.yul\":12983:12992   */\n      dup2\n        /* \"#utility.yul\":12977:12981   */\n      dup2\n        /* \"#utility.yul\":12973:12993   */\n      sub\n        /* \"#utility.yul\":12969:12970   */\n      0x00\n        /* \"#utility.yul\":12958:12967   */\n      dup4\n        /* \"#utility.yul\":12954:12971   */\n      add\n        /* \"#utility.yul\":12947:12994   */\n      mstore\n        /* \"#utility.yul\":13011:13142   */\n      tag_291\n        /* \"#utility.yul\":13137:13141   */\n      dup2\n        /* \"#utility.yul\":13011:13142   */\n      tag_227\n      jump\t// in\n    tag_291:\n        /* \"#utility.yul\":13003:13142   */\n      swap1\n      pop\n        /* \"#utility.yul\":12730:13149   */\n      swap2\n      swap1\n      pop\n      jump\t// out\n        /* \"#utility.yul\":13155:13574   */\n    tag_99:\n        /* \"#utility.yul\":13321:13325   */\n      0x00\n        /* \"#utility.yul\":13359:13361   */\n      0x20\n        /* \"#utility.yul\":13348:13357   */\n      dup3\n        /* \"#utility.yul\":13344:13362   */\n      add\n        /* \"#utility.yul\":13336:13362   */\n      swap1\n      pop\n        /* \"#utility.yul\":13408:13417   */\n      dup2\n        /* \"#utility.yul\":13402:13406   */\n      dup2\n        /* \"#utility.yul\":13398:13418   */\n      sub\n        /* \"#utility.yul\":13394:13395   */\n      0x00\n        /* \"#utility.yul\":13383:13392   */\n      dup4\n        /* \"#utility.yul\":13379:13396   */\n      add\n        /* \"#utility.yul\":13372:13419   */\n      mstore\n        /* \"#utility.yul\":13436:13567   */\n      tag_293\n        /* \"#utility.yul\":13562:13566   */\n      dup2\n        /* \"#utility.yul\":13436:13567   */\n      tag_232\n      jump\t// in\n    tag_293:\n        /* \"#utility.yul\":13428:13567   */\n      swap1\n      pop\n        /* \"#utility.yul\":13155:13574   */\n      swap2\n      swap1\n      pop\n      jump\t// out\n        /* \"#utility.yul\":13580:13999   */\n    tag_125:\n        /* \"#utility.yul\":13746:13750   */\n      0x00\n        /* \"#utility.yul\":13784:13786   */\n      0x20\n        /* \"#utility.yul\":13773:13782   */\n      dup3\n        /* \"#utility.yul\":13769:13787   */\n      add\n        /* \"#utility.yul\":13761:13787   */\n      swap1\n      pop\n        /* \"#utility.yul\":13833:13842   */\n      dup2\n        /* \"#utility.yul\":13827:13831   */\n      dup2\n        /* \"#utility.yul\":13823:13843   */\n      sub\n        /* \"#utility.yul\":13819:13820   */\n      0x00\n        /* \"#utility.yul\":13808:13817   */\n      dup4\n        /* \"#utility.yul\":13804:13821   */\n      add\n        /* \"#utility.yul\":13797:13844   */\n      mstore\n        /* \"#utility.yul\":13861:13992   */\n      tag_295\n        /* \"#utility.yul\":13987:13991   */\n      dup2\n        /* \"#utility.yul\":13861:13992   */\n      tag_237\n      jump\t// in\n    tag_295:\n        /* \"#utility.yul\":13853:13992   */\n      swap1\n      pop\n        /* \"#utility.yul\":13580:13999   */\n      swap2\n      swap1\n      pop\n      jump\t// out\n        /* \"#utility.yul\":14005:14424   */\n    tag_112:\n        /* \"#utility.yul\":14171:14175   */\n      0x00\n        /* \"#utility.yul\":14209:14211   */\n      0x20\n        /* \"#utility.yul\":14198:14207   */\n      dup3\n        /* \"#utility.yul\":14194:14212   */\n      add\n        /* \"#utility.yul\":14186:14212   */\n      swap1\n      pop\n        /* \"#utility.yul\":14258:14267   */\n      dup2\n        /* \"#utility.yul\":14252:14256   */\n      dup2\n        /* \"#utility.yul\":14248:14268   */\n      sub\n        /* \"#utility.yul\":14244:14245   */\n      0x00\n        /* \"#utility.yul\":14233:14242   */\n      dup4\n        /* \"#utility.yul\":14229:14246   */\n      add\n        /* \"#utility.yul\":14222:14269   */\n      mstore\n        /* \"#utility.yul\":14286:14417   */\n      tag_297\n        /* \"#utility.yul\":14412:14416   */\n      dup2\n        /* \"#utility.yul\":14286:14417   */\n      tag_242\n      jump\t// in\n    tag_297:\n        /* \"#utility.yul\":14278:14417   */\n      swap1\n      pop\n        /* \"#utility.yul\":14005:14424   */\n      swap2\n      swap1\n      pop\n      jump\t// out\n        /* \"#utility.yul\":14430:14849   */\n    tag_96:\n        /* \"#utility.yul\":14596:14600   */\n      0x00\n        /* \"#utility.yul\":14634:14636   */\n      0x20\n        /* \"#utility.yul\":14623:14632   */\n      dup3\n        /* \"#utility.yul\":14619:14637   */\n      add\n        /* \"#utility.yul\":14611:14637   */\n      swap1\n      pop\n        /* \"#utility.yul\":14683:14692   */\n      dup2\n        /* \"#utility.yul\":14677:14681   */\n      dup2\n        /* \"#utility.yul\":14673:14693   */\n      sub\n        /* \"#utility.yul\":14669:14670   */\n      0x00\n        /* \"#utility.yul\":14658:14667   */\n      dup4\n        /* \"#utility.yul\":14654:14671   */\n      add\n        /* \"#utility.yul\":14647:14694   */\n      mstore\n        /* \"#utility.yul\":14711:14842   */\n      tag_299\n        /* \"#utility.yul\":14837:14841   */\n      dup2\n        /* \"#utility.yul\":14711:14842   */\n      tag_247\n      jump\t// in\n    tag_299:\n        /* \"#utility.yul\":14703:14842   */\n      swap1\n      pop\n        /* \"#utility.yul\":14430:14849   */\n      swap2\n      swap1\n      pop\n      jump\t// out\n        /* \"#utility.yul\":14855:15077   */\n    tag_17:\n        /* \"#utility.yul\":14948:14952   */\n      0x00\n        /* \"#utility.yul\":14986:14988   */\n      0x20\n        /* \"#utility.yul\":14975:14984   */\n      dup3\n        /* \"#utility.yul\":14971:14989   */\n      add\n        /* \"#utility.yul\":14963:14989   */\n      swap1\n      pop\n        /* \"#utility.yul\":14999:15070   */\n      tag_301\n        /* \"#utility.yul\":15067:15068   */\n      0x00\n        /* \"#utility.yul\":15056:15065   */\n      dup4\n        /* \"#utility.yul\":15052:15069   */\n      add\n        /* \"#utility.yul\":15043:15049   */\n      dup5\n        /* \"#utility.yul\":14999:15070   */\n      tag_252\n      jump\t// in\n    tag_301:\n        /* \"#utility.yul\":14855:15077   */\n      swap3\n      swap2\n      pop\n      pop\n      jump\t// out\n        /* \"#utility.yul\":15083:15415   */\n    tag_73:\n        /* \"#utility.yul\":15204:15208   */\n      0x00\n        /* \"#utility.yul\":15242:15244   */\n      0x40\n        /* \"#utility.yul\":15231:15240   */\n      dup3\n        /* \"#utility.yul\":15227:15245   */\n      add\n        /* \"#utility.yul\":15219:15245   */\n      swap1\n      pop\n        /* \"#utility.yul\":15255:15326   */\n      tag_303\n        /* \"#utility.yul\":15323:15324   */\n      0x00\n        /* \"#utility.yul\":15312:15321   */\n      dup4\n        /* \"#utility.yul\":15308:15325   */\n      add\n        /* \"#utility.yul\":15299:15305   */\n      dup6\n        /* \"#utility.yul\":15255:15326   */\n      tag_252\n      jump\t// in\n    tag_303:\n        /* \"#utility.yul\":15336:15408   */\n      tag_304\n        /* \"#utility.yul\":15404:15406   */\n      0x20\n        /* \"#utility.yul\":15393:15402   */\n      dup4\n        /* \"#utility.yul\":15389:15407   */\n      add\n        /* \"#utility.yul\":15380:15386   */\n      dup5\n        /* \"#utility.yul\":15336:15408   */\n      tag_252\n      jump\t// in\n    tag_304:\n        /* \"#utility.yul\":15083:15415   */\n      swap4\n      swap3\n      pop\n      pop\n      pop\n      jump\t// out\n        /* \"#utility.yul\":15421:15966   */\n    tag_87:\n        /* \"#utility.yul\":15594:15598   */\n      0x00\n        /* \"#utility.yul\":15632:15635   */\n      0x80\n        /* \"#utility.yul\":15621:15630   */\n      dup3\n        /* \"#utility.yul\":15617:15636   */\n      add\n        /* \"#utility.yul\":15609:15636   */\n      swap1\n      pop\n        /* \"#utility.yul\":15646:15717   */\n      tag_306\n        /* \"#utility.yul\":15714:15715   */\n      0x00\n        /* \"#utility.yul\":15703:15712   */\n      dup4\n        /* \"#utility.yul\":15699:15716   */\n      add\n        /* \"#utility.yul\":15690:15696   */\n      dup8\n        /* \"#utility.yul\":15646:15717   */\n      tag_252\n      jump\t// in\n    tag_306:\n        /* \"#utility.yul\":15727:15799   */\n      tag_307\n        /* \"#utility.yul\":15795:15797   */\n      0x20\n        /* \"#utility.yul\":15784:15793   */\n      dup4\n        /* \"#utility.yul\":15780:15798   */\n      add\n        /* \"#utility.yul\":15771:15777   */\n      dup7\n        /* \"#utility.yul\":15727:15799   */\n      tag_252\n      jump\t// in\n    tag_307:\n        /* \"#utility.yul\":15809:15879   */\n      tag_308\n        /* \"#utility.yul\":15875:15877   */\n      0x40\n        /* \"#utility.yul\":15864:15873   */\n      dup4\n        /* \"#utility.yul\":15860:15878   */\n      add\n        /* \"#utility.yul\":15851:15857   */\n      dup6\n        /* \"#utility.yul\":15809:15879   */\n      tag_256\n      jump\t// in\n    tag_308:\n        /* \"#utility.yul\":15889:15959   */\n      tag_309\n        /* \"#utility.yul\":15955:15957   */\n      0x60\n        /* \"#utility.yul\":15944:15953   */\n      dup4\n        /* \"#utility.yul\":15940:15958   */\n      add\n        /* \"#utility.yul\":15931:15937   */\n      dup5\n        /* \"#utility.yul\":15889:15959   */\n      tag_256\n      jump\t// in\n    tag_309:\n        /* \"#utility.yul\":15421:15966   */\n      swap6\n      swap5\n      pop\n      pop\n      pop\n      pop\n      pop\n      jump\t// out\n        /* \"#utility.yul\":16053:16222   */\n    tag_194:\n        /* \"#utility.yul\":16137:16148   */\n      0x00\n        /* \"#utility.yul\":16171:16177   */\n      dup3\n        /* \"#utility.yul\":16166:16169   */\n      dup3\n        /* \"#utility.yul\":16159:16178   */\n      mstore\n        /* \"#utility.yul\":16211:16215   */\n      0x20\n        /* \"#utility.yul\":16206:16209   */\n      dup3\n        /* \"#utility.yul\":16202:16216   */\n      add\n        /* \"#utility.yul\":16187:16216   */\n      swap1\n      pop\n        /* \"#utility.yul\":16053:16222   */\n      swap3\n      swap2\n      pop\n      pop\n      jump\t// out\n        /* \"#utility.yul\":16228:16533   */\n    tag_82:\n        /* \"#utility.yul\":16268:16271   */\n      0x00\n        /* \"#utility.yul\":16287:16307   */\n      tag_314\n        /* \"#utility.yul\":16305:16306   */\n      dup3\n        /* \"#utility.yul\":16287:16307   */\n      tag_255\n      jump\t// in\n    tag_314:\n        /* \"#utility.yul\":16282:16307   */\n      swap2\n      pop\n        /* \"#utility.yul\":16321:16341   */\n      tag_315\n        /* \"#utility.yul\":16339:16340   */\n      dup4\n        /* \"#utility.yul\":16321:16341   */\n      tag_255\n      jump\t// in\n    tag_315:\n        /* \"#utility.yul\":16316:16341   */\n      swap3\n      pop\n        /* \"#utility.yul\":16475:16476   */\n      dup3\n        /* \"#utility.yul\":16407:16473   */\n      0xffffffffffffffffffffffffffffffffffffffffffffffffffffffffffffffff\n        /* \"#utility.yul\":16403:16477   */\n      sub\n        /* \"#utility.yul\":16400:16401   */\n      dup3\n        /* \"#utility.yul\":16397:16478   */\n      gt\n        /* \"#utility.yul\":16394:16501   */\n      iszero\n      tag_316\n      jumpi\n        /* \"#utility.yul\":16481:16499   */\n      tag_317\n      tag_318\n      jump\t// in\n    tag_317:\n        /* \"#utility.yul\":16394:16501   */\n    tag_316:\n        /* \"#utility.yul\":16525:16526   */\n      dup3\n        /* \"#utility.yul\":16522:16523   */\n      dup3\n        /* \"#utility.yul\":16518:16527   */\n      add\n        /* \"#utility.yul\":16511:16527   */\n      swap1\n      pop\n        /* \"#utility.yul\":16228:16533   */\n      swap3\n      swap2\n      pop\n      pop\n      jump\t// out\n        /* \"#utility.yul\":16539:16730   */\n    tag_114:\n        /* \"#utility.yul\":16579:16583   */\n      0x00\n        /* \"#utility.yul\":16599:16619   */\n      tag_320\n        /* \"#utility.yul\":16617:16618   */\n      dup3\n        /* \"#utility.yul\":16599:16619   */\n      tag_255\n      jump\t// in\n    tag_320:\n        /* \"#utility.yul\":16594:16619   */\n      swap2\n      pop\n        /* \"#utility.yul\":16633:16653   */\n      tag_321\n        /* \"#utility.yul\":16651:16652   */\n      dup4\n        /* \"#utility.yul\":16633:16653   */\n      tag_255\n      jump\t// in\n    tag_321:\n        /* \"#utility.yul\":16628:16653   */\n      swap3\n      pop\n        /* \"#utility.yul\":16672:16673   */\n      dup3\n        /* \"#utility.yul\":16669:16670   */\n      dup3\n        /* \"#utility.yul\":16666:16674   */\n      lt\n        /* \"#utility.yul\":16663:16697   */\n      iszero\n      tag_322\n      jumpi\n        /* \"#utility.yul\":16677:16695   */\n      tag_323\n      tag_318\n      jump\t// in\n    tag_323:\n        /* \"#utility.yul\":16663:16697   */\n    tag_322:\n        /* \"#utility.yul\":16722:16723   */\n      dup3\n        /* \"#utility.yul\":16719:16720   */\n      dup3\n        /* \"#utility.yul\":16715:16724   */\n      sub\n        /* \"#utility.yul\":16707:16724   */\n      swap1\n      pop\n        /* \"#utility.yul\":16539:16730   */\n      swap3\n      swap2\n      pop\n      pop\n      jump\t// out\n        /* \"#utility.yul\":16736:16832   */\n    tag_182:\n        /* \"#utility.yul\":16773:16780   */\n      0x00\n        /* \"#utility.yul\":16802:16826   */\n      tag_325\n        /* \"#utility.yul\":16820:16825   */\n      dup3\n        /* \"#utility.yul\":16802:16826   */\n      tag_326\n      jump\t// in\n    tag_325:\n        /* \"#utility.yul\":16791:16826   */\n      swap1\n      pop\n        /* \"#utility.yul\":16736:16832   */\n      swap2\n      swap1\n      pop\n      jump\t// out\n        /* \"#utility.yul\":16838:16928   */\n    tag_186:\n        /* \"#utility.yul\":16872:16879   */\n      0x00\n        /* \"#utility.yul\":16915:16920   */\n      dup2\n        /* \"#utility.yul\":16908:16921   */\n      iszero\n        /* \"#utility.yul\":16901:16922   */\n      iszero\n        /* \"#utility.yul\":16890:16922   */\n      swap1\n      pop\n        /* \"#utility.yul\":16838:16928   */\n      swap2\n      swap1\n      pop\n      jump\t// out\n        /* \"#utility.yul\":16934:17060   */\n    tag_326:\n        /* \"#utility.yul\":16971:16978   */\n      0x00\n        /* \"#utility.yul\":17011:17053   */\n      0xffffffffffffffffffffffffffffffffffffffff\n        /* \"#utility.yul\":17004:17009   */\n      dup3\n        /* \"#utility.yul\":17000:17054   */\n      and\n        /* \"#utility.yul\":16989:17054   */\n      swap1\n      pop\n        /* \"#utility.yul\":16934:17060   */\n      swap2\n      swap1\n      pop\n      jump\t// out\n        /* \"#utility.yul\":17066:17143   */\n    tag_255:\n        /* \"#utility.yul\":17103:17110   */\n      0x00\n        /* \"#utility.yul\":17132:17137   */\n      dup2\n        /* \"#utility.yul\":17121:17137   */\n      swap1\n      pop\n        /* \"#utility.yul\":17066:17143   */\n      swap2\n      swap1\n      pop\n      jump\t// out\n        /* \"#utility.yul\":17149:17242   */\n    tag_259:\n        /* \"#utility.yul\":17185:17192   */\n      0x00\n        /* \"#utility.yul\":17225:17235   */\n      0xffffffff\n        /* \"#utility.yul\":17218:17223   */\n      dup3\n        /* \"#utility.yul\":17214:17236   */\n      and\n        /* \"#utility.yul\":17203:17236   */\n      swap1\n      pop\n        /* \"#utility.yul\":17149:17242   */\n      swap2\n      swap1\n      pop\n      jump\t// out\n        /* \"#utility.yul\":17248:17387   */\n    tag_190:\n        /* \"#utility.yul\":17311:17320   */\n      0x00\n        /* \"#utility.yul\":17344:17381   */\n      tag_332\n        /* \"#utility.yul\":17375:17380   */\n      dup3\n        /* \"#utility.yul\":17344:17381   */\n      tag_333\n      jump\t// in\n    tag_332:\n        /* \"#utility.yul\":17331:17381   */\n      swap1\n      pop\n        /* \"#utility.yul\":17248:17387   */\n      swap2\n      swap1\n      pop\n      jump\t// out\n        /* \"#utility.yul\":17393:17519   */\n    tag_333:\n        /* \"#utility.yul\":17443:17452   */\n      0x00\n        /* \"#utility.yul\":17476:17513   */\n      tag_335\n        /* \"#utility.yul\":17507:17512   */\n      dup3\n        /* \"#utility.yul\":17476:17513   */\n      tag_336\n      jump\t// in\n    tag_335:\n        /* \"#utility.yul\":17463:17513   */\n      swap1\n      pop\n        /* \"#utility.yul\":17393:17519   */\n      swap2\n      swap1\n      pop\n      jump\t// out\n        /* \"#utility.yul\":17525:17638   */\n    tag_336:\n        /* \"#utility.yul\":17575:17584   */\n      0x00\n        /* \"#utility.yul\":17608:17632   */\n      tag_338\n        /* \"#utility.yul\":17626:17631   */\n      dup3\n        /* \"#utility.yul\":17608:17632   */\n      tag_326\n      jump\t// in\n    tag_338:\n        /* \"#utility.yul\":17595:17632   */\n      swap1\n      pop\n        /* \"#utility.yul\":17525:17638   */\n      swap2\n      swap1\n      pop\n      jump\t// out\n        /* \"#utility.yul\":17644:17877   */\n    tag_89:\n        /* \"#utility.yul\":17683:17686   */\n      0x00\n        /* \"#utility.yul\":17706:17730   */\n      tag_340\n        /* \"#utility.yul\":17724:17729   */\n      dup3\n        /* \"#utility.yul\":17706:17730   */\n      tag_255\n      jump\t// in\n    tag_340:\n        /* \"#utility.yul\":17697:17730   */\n      swap2\n      pop\n        /* \"#utility.yul\":17752:17818   */\n      0xffffffffffffffffffffffffffffffffffffffffffffffffffffffffffffffff\n        /* \"#utility.yul\":17745:17750   */\n      dup3\n        /* \"#utility.yul\":17742:17819   */\n      eq\n        /* \"#utility.yul\":17739:17842   */\n      iszero\n      tag_341\n      jumpi\n        /* \"#utility.yul\":17822:17840   */\n      tag_342\n      tag_318\n      jump\t// in\n    tag_342:\n        /* \"#utility.yul\":17739:17842   */\n    tag_341:\n        /* \"#utility.yul\":17869:17870   */\n      0x01\n        /* \"#utility.yul\":17862:17867   */\n      dup3\n        /* \"#utility.yul\":17858:17871   */\n      add\n        /* \"#utility.yul\":17851:17871   */\n      swap1\n      pop\n        /* \"#utility.yul\":17644:17877   */\n      swap2\n      swap1\n      pop\n      jump\t// out\n        /* \"#utility.yul\":17883:18063   */\n    tag_318:\n        /* \"#utility.yul\":17931:18008   */\n      0x4e487b7100000000000000000000000000000000000000000000000000000000\n        /* \"#utility.yul\":17928:17929   */\n      0x00\n        /* \"#utility.yul\":17921:18009   */\n      mstore\n        /* \"#utility.yul\":18028:18032   */\n      0x11\n        /* \"#utility.yul\":18025:18026   */\n      0x04\n        /* \"#utility.yul\":18018:18033   */\n      mstore\n        /* \"#utility.yul\":18052:18056   */\n      0x24\n        /* \"#utility.yul\":18049:18050   */\n      0x00\n        /* \"#utility.yul\":18042:18057   */\n      revert\n        /* \"#utility.yul\":18192:18309   */\n    tag_157:\n        /* \"#utility.yul\":18301:18302   */\n      0x00\n        /* \"#utility.yul\":18298:18299   */\n      dup1\n        /* \"#utility.yul\":18291:18303   */\n      revert\n        /* \"#utility.yul\":18315:18473   */\n    tag_196:\n        /* \"#utility.yul\":18455:18465   */\n      0x42616c20213d2030000000000000000000000000000000000000000000000000\n        /* \"#utility.yul\":18451:18452   */\n      0x00\n        /* \"#utility.yul\":18443:18449   */\n      dup3\n        /* \"#utility.yul\":18439:18453   */\n      add\n        /* \"#utility.yul\":18432:18466   */\n      mstore\n        /* \"#utility.yul\":18315:18473   */\n      pop\n      jump\t// out\n        /* \"#utility.yul\":18479:18636   */\n    tag_201:\n        /* \"#utility.yul\":18619:18628   */\n      0x636c61696d656400000000000000000000000000000000000000000000000000\n        /* \"#utility.yul\":18615:18616   */\n      0x00\n        /* \"#utility.yul\":18607:18613   */\n      dup3\n        /* \"#utility.yul\":18603:18617   */\n      add\n        /* \"#utility.yul\":18596:18629   */\n      mstore\n        /* \"#utility.yul\":18479:18636   */\n      pop\n      jump\t// out\n        /* \"#utility.yul\":18642:18803   */\n    tag_206:\n        /* \"#utility.yul\":18782:18795   */\n      0x6e6f742063726561746f72000000000000000000000000000000000000000000\n        /* \"#utility.yul\":18778:18779   */\n      0x00\n        /* \"#utility.yul\":18770:18776   */\n      dup3\n        /* \"#utility.yul\":18766:18780   */\n      add\n        /* \"#utility.yul\":18759:18796   */\n      mstore\n        /* \"#utility.yul\":18642:18803   */\n      pop\n      jump\t// out\n        /* \"#utility.yul\":18809:18974   */\n    tag_211:\n        /* \"#utility.yul\":18949:18966   */\n      0x506c6564676564203e3d20476f616c0000000000000000000000000000000000\n        /* \"#utility.yul\":18945:18946   */\n      0x00\n        /* \"#utility.yul\":18937:18943   */\n      dup3\n        /* \"#utility.yul\":18933:18947   */\n      add\n        /* \"#utility.yul\":18926:18967   */\n      mstore\n        /* \"#utility.yul\":18809:18974   */\n      pop\n      jump\t// out\n        /* \"#utility.yul\":18980:19139   */\n    tag_216:\n        /* \"#utility.yul\":19120:19131   */\n      0x73746172743c6e6f770000000000000000000000000000000000000000000000\n        /* \"#utility.yul\":19116:19117   */\n      0x00\n        /* \"#utility.yul\":19108:19114   */\n      dup3\n        /* \"#utility.yul\":19104:19118   */\n      add\n        /* \"#utility.yul\":19097:19132   */\n      mstore\n        /* \"#utility.yul\":18980:19139   */\n      pop\n      jump\t// out\n        /* \"#utility.yul\":19145:19301   */\n    tag_221:\n        /* \"#utility.yul\":19285:19293   */\n      0x44656e6965640000000000000000000000000000000000000000000000000000\n        /* \"#utility.yul\":19281:19282   */\n      0x00\n        /* \"#utility.yul\":19273:19279   */\n      dup3\n        /* \"#utility.yul\":19269:19283   */\n      add\n        /* \"#utility.yul\":19262:19294   */\n      mstore\n        /* \"#utility.yul\":19145:19301   */\n      pop\n      jump\t// out\n        /* \"#utility.yul\":19307:19466   */\n    tag_226:\n        /* \"#utility.yul\":19447:19458   */\n      0x73746172743c656e640000000000000000000000000000000000000000000000\n        /* \"#utility.yul\":19443:19444   */\n      0x00\n        /* \"#utility.yul\":19435:19441   */\n      dup3\n        /* \"#utility.yul\":19431:19445   */\n      add\n        /* \"#utility.yul\":19424:19459   */\n      mstore\n        /* \"#utility.yul\":19307:19466   */\n      pop\n      jump\t// out\n        /* \"#utility.yul\":19472:19633   */\n    tag_231:\n        /* \"#utility.yul\":19612:19625   */\n      0x6475723c6d61785f647572000000000000000000000000000000000000000000\n        /* \"#utility.yul\":19608:19609   */\n      0x00\n        /* \"#utility.yul\":19600:19606   */\n      dup3\n        /* \"#utility.yul\":19596:19610   */\n      add\n        /* \"#utility.yul\":19589:19626   */\n      mstore\n        /* \"#utility.yul\":19472:19633   */\n      pop\n      jump\t// out\n        /* \"#utility.yul\":19639:19803   */\n    tag_236:\n        /* \"#utility.yul\":19779:19795   */\n      0x706c6564676564203c20676f616c000000000000000000000000000000000000\n        /* \"#utility.yul\":19775:19776   */\n      0x00\n        /* \"#utility.yul\":19767:19773   */\n      dup3\n        /* \"#utility.yul\":19763:19777   */\n      add\n        /* \"#utility.yul\":19756:19796   */\n      mstore\n        /* \"#utility.yul\":19639:19803   */\n      pop\n      jump\t// out\n        /* \"#utility.yul\":19809:19970   */\n    tag_241:\n        /* \"#utility.yul\":19949:19962   */\n      0x6e6f742073746172746564000000000000000000000000000000000000000000\n        /* \"#utility.yul\":19945:19946   */\n      0x00\n        /* \"#utility.yul\":19937:19943   */\n      dup3\n        /* \"#utility.yul\":19933:19947   */\n      add\n        /* \"#utility.yul\":19926:19963   */\n      mstore\n        /* \"#utility.yul\":19809:19970   */\n      pop\n      jump\t// out\n        /* \"#utility.yul\":19976:20131   */\n    tag_246:\n        /* \"#utility.yul\":20116:20123   */\n      0x656e646564000000000000000000000000000000000000000000000000000000\n        /* \"#utility.yul\":20112:20113   */\n      0x00\n        /* \"#utility.yul\":20104:20110   */\n      dup3\n        /* \"#utility.yul\":20100:20114   */\n      add\n        /* \"#utility.yul\":20093:20124   */\n      mstore\n        /* \"#utility.yul\":19976:20131   */\n      pop\n      jump\t// out\n        /* \"#utility.yul\":20137:20296   */\n    tag_251:\n        /* \"#utility.yul\":20277:20288   */\n      0x6e6f7420656e6465640000000000000000000000000000000000000000000000\n        /* \"#utility.yul\":20273:20274   */\n      0x00\n        /* \"#utility.yul\":20265:20271   */\n      dup3\n        /* \"#utility.yul\":20261:20275   */\n      add\n        /* \"#utility.yul\":20254:20289   */\n      mstore\n        /* \"#utility.yul\":20137:20296   */\n      pop\n      jump\t// out\n        /* \"#utility.yul\":20302:20424   */\n    tag_141:\n        /* \"#utility.yul\":20375:20399   */\n      tag_360\n        /* \"#utility.yul\":20393:20398   */\n      dup2\n        /* \"#utility.yul\":20375:20399   */\n      tag_182\n      jump\t// in\n    tag_360:\n        /* \"#utility.yul\":20368:20373   */\n      dup2\n        /* \"#utility.yul\":20365:20400   */\n      eq\n        /* \"#utility.yul\":20355:20418   */\n      tag_361\n      jumpi\n        /* \"#utility.yul\":20414:20415   */\n      0x00\n        /* \"#utility.yul\":20411:20412   */\n      dup1\n        /* \"#utility.yul\":20404:20416   */\n      revert\n        /* \"#utility.yul\":20355:20418   */\n    tag_361:\n        /* \"#utility.yul\":20302:20424   */\n      pop\n      jump\t// out\n        /* \"#utility.yul\":20430:20546   */\n    tag_145:\n        /* \"#utility.yul\":20500:20521   */\n      tag_363\n        /* \"#utility.yul\":20515:20520   */\n      dup2\n        /* \"#utility.yul\":20500:20521   */\n      tag_186\n      jump\t// in\n    tag_363:\n        /* \"#utility.yul\":20493:20498   */\n      dup2\n        /* \"#utility.yul\":20490:20522   */\n      eq\n        /* \"#utility.yul\":20480:20540   */\n      tag_364\n      jumpi\n        /* \"#utility.yul\":20536:20537   */\n      0x00\n        /* \"#utility.yul\":20533:20534   */\n      dup1\n        /* \"#utility.yul\":20526:20538   */\n      revert\n        /* \"#utility.yul\":20480:20540   */\n    tag_364:\n        /* \"#utility.yul\":20430:20546   */\n      pop\n      jump\t// out\n        /* \"#utility.yul\":20552:20674   */\n    tag_149:\n        /* \"#utility.yul\":20625:20649   */\n      tag_366\n        /* \"#utility.yul\":20643:20648   */\n      dup2\n        /* \"#utility.yul\":20625:20649   */\n      tag_255\n      jump\t// in\n    tag_366:\n        /* \"#utility.yul\":20618:20623   */\n      dup2\n        /* \"#utility.yul\":20615:20650   */\n      eq\n        /* \"#utility.yul\":20605:20668   */\n      tag_367\n      jumpi\n        /* \"#utility.yul\":20664:20665   */\n      0x00\n        /* \"#utility.yul\":20661:20662   */\n      dup1\n        /* \"#utility.yul\":20654:20666   */\n      revert\n        /* \"#utility.yul\":20605:20668   */\n    tag_367:\n        /* \"#utility.yul\":20552:20674   */\n      pop\n      jump\t// out\n        /* \"#utility.yul\":20680:20800   */\n    tag_153:\n        /* \"#utility.yul\":20752:20775   */\n      tag_369\n        /* \"#utility.yul\":20769:20774   */\n      dup2\n        /* \"#utility.yul\":20752:20775   */\n      tag_259\n      jump\t// in\n    tag_369:\n        /* \"#utility.yul\":20745:20750   */\n      dup2\n        /* \"#utility.yul\":20742:20776   */\n      eq\n        /* \"#utility.yul\":20732:20794   */\n      tag_370\n      jumpi\n        /* \"#utility.yul\":20790:20791   */\n      0x00\n        /* \"#utility.yul\":20787:20788   */\n      dup1\n        /* \"#utility.yul\":20780:20792   */\n      revert\n        /* \"#utility.yul\":20732:20794   */\n    tag_370:\n        /* \"#utility.yul\":20680:20800   */\n      pop\n      jump\t// out\n\n    auxdata: 0xa2646970667358221220678b481e1040c5874a76aa7ccf2465b7535de521bdaf41200ed0a94e1d54766864736f6c63430008070033\n}\n",
				"bytecode": {
					"linkReferences": {},
					"object": "60a0604052600080553480156200001557600080fd5b5060405162001d7638038062001d7683398181016040528101906200003b919062000090565b8073ffffffffffffffffffffffffffffffffffffffff1660808173ffffffffffffffffffffffffffffffffffffffff1660601b815250505062000115565b6000815190506200008a81620000fb565b92915050565b600060208284031215620000a957620000a8620000f6565b5b6000620000b98482850162000079565b91505092915050565b6000620000cf82620000d6565b9050919050565b600073ffffffffffffffffffffffffffffffffffffffff82169050919050565b600080fd5b6200010681620000c2565b81146200011257600080fd5b50565b60805160601c611c2662000150600039600081816106db01528181610c3001528181610e3701528181610f4901526110c00152611c266000f3fe608060405234801561001057600080fd5b506004361061009e5760003560e01c8063379607f511610066578063379607f51461014a578063711853ab14610166578063aa4fb63a14610182578063fc0c546a146101b2578063fde327be146101d05761009e565b806306661abd146100a35780630aebeb4e146100c1578063141961bc146100dd578063278ecde1146101125780632c63f1461461012e575b600080fd5b6100ab6101ec565b6040516100b89190611779565b60405180910390f35b6100db60048036038101906100d6919061122e565b6101f2565b005b6100f760048036038101906100f2919061122e565b610468565b6040516101099695949392919061157d565b60405180910390f35b61012c6004803603810190610127919061122e565b6104f1565b005b610148600480360381019061014391906112db565b6107dc565b005b610164600480360381019061015f919061122e565b610a6f565b005b610180600480360381019061017b919061129b565b610d3f565b005b61019c6004803603810190610197919061125b565b610f22565b6040516101a99190611779565b60405180910390f35b6101ba610f47565b6040516101c791906115de565b60405180910390f35b6101ea60048036038101906101e5919061129b565b610f6b565b005b60005481565b6000600160008381526020019081526020016000206040518060c00160405290816000820160009054906101000a900473ffffffffffffffffffffffffffffffffffffffff1673ffffffffffffffffffffffffffffffffffffffff1673ffffffffffffffffffffffffffffffffffffffff168152602001600182015481526020016002820160009054906101000a900463ffffffff1663ffffffff1663ffffffff1681526020016002820160049054906101000a900463ffffffff1663ffffffff1663ffffffff168152602001600382015481526020016004820160009054906101000a900460ff16151515158152505090503373ffffffffffffffffffffffffffffffffffffffff16816000015173ffffffffffffffffffffffffffffffffffffffff1614610357576040517f08c379a000000000000000000000000000000000000000000000000000000000815260040161034e90611699565b60405180910390fd5b600081608001511461039e576040517f08c379a0000000000000000000000000000000000000000000000000000000008152600401610395906115f9565b60405180910390fd5b60016000838152602001908152602001600020600080820160006101000a81549073ffffffffffffffffffffffffffffffffffffffff021916905560018201600090556002820160006101000a81549063ffffffff02191690556002820160046101000a81549063ffffffff021916905560038201600090556004820160006101000a81549060ff021916905550507f7d815d575a49d6d9a069482c25b0fdb39914ccf1bba8aaea4cfe20322f8f68778260405161045c9190611779565b60405180910390a15050565b60016020528060005260406000206000915090508060000160009054906101000a900473ffffffffffffffffffffffffffffffffffffffff16908060010154908060020160009054906101000a900463ffffffff16908060020160049054906101000a900463ffffffff16908060030154908060040160009054906101000a900460ff16905086565b6000600160008381526020019081526020016000206040518060c00160405290816000820160009054906101000a900473ffffffffffffffffffffffffffffffffffffffff1673ffffffffffffffffffffffffffffffffffffffff1673ffffffffffffffffffffffffffffffffffffffff168152602001600182015481526020016002820160009054906101000a900463ffffffff1663ffffffff1663ffffffff1681526020016002820160049054906101000a900463ffffffff1663ffffffff1663ffffffff168152602001600382015481526020016004820160009054906101000a900460ff1615151515815250509050806020015181608001511061062e576040517f08c379a000000000000000000000000000000000000000000000000000000000815260040161062590611659565b60405180910390fd5b60006002600084815260200190815260200160002060003373ffffffffffffffffffffffffffffffffffffffff1673ffffffffffffffffffffffffffffffffffffffff16815260200190815260200160002054905060006002600085815260200190815260200160002060003373ffffffffffffffffffffffffffffffffffffffff1673ffffffffffffffffffffffffffffffffffffffff168152602001908152602001600020819055507f000000000000000000000000000000000000000000000000000000000000000073ffffffffffffffffffffffffffffffffffffffff1663a9059cbb33836040518363ffffffff1660e01b8152600401610734929190611554565b602060405180830381600087803b15801561074e57600080fd5b505af1158015610762573d6000803e3d6000fd5b505050506040513d601f19601f820116820180604052508101906107869190611201565b503373ffffffffffffffffffffffffffffffffffffffff167f21e12a7cad0da5928167e1084ea4d5fdf8d9af66657a2543a9ac76a0ca08147784836040516107cf929190611794565b60405180910390a2505050565b428263ffffffff161015610825576040517f08c379a000000000000000000000000000000000000000000000000000000000815260040161081c90611679565b60405180910390fd5b8163ffffffff168163ffffffff1611610873576040517f08c379a000000000000000000000000000000000000000000000000000000000815260040161086a906116b9565b60405180910390fd5b6276a700426108829190611813565b8163ffffffff1611156108ca576040517f08c379a00000000000000000000000000000000000000000000000000000000081526004016108c1906116d9565b60405180910390fd5b6040518060c001604052803373ffffffffffffffffffffffffffffffffffffffff1681526020018481526020018363ffffffff1681526020018263ffffffff1681526020016000815260200160001515815250600160008054815260200190815260200160002060008201518160000160006101000a81548173ffffffffffffffffffffffffffffffffffffffff021916908373ffffffffffffffffffffffffffffffffffffffff1602179055506020820151816001015560408201518160020160006101000a81548163ffffffff021916908363ffffffff16021790555060608201518160020160046101000a81548163ffffffff021916908363ffffffff1602179055506080820151816003015560a08201518160040160006101000a81548160ff0219169083151502179055509050503373ffffffffffffffffffffffffffffffffffffffff167f0601cd0d650b473037e838a2696d41e654433d065b3f56b28d1d3302e44a304f600054858585604051610a4b94939291906117bd565b60405180910390a2600080815480929190610a659061192b565b9190505550505050565b60006001600083815260200190815260200160002090503373ffffffffffffffffffffffffffffffffffffffff168160000160009054906101000a900473ffffffffffffffffffffffffffffffffffffffff1673ffffffffffffffffffffffffffffffffffffffff1614610b18576040517f08c379a0000000000000000000000000000000000000000000000000000000008152600401610b0f90611639565b60405180910390fd5b8060020160049054906101000a900463ffffffff1663ffffffff164211610b74576040517f08c379a0000000000000000000000000000000000000000000000000000000008152600401610b6b90611759565b60405180910390fd5b806001015481600301541015610bbf576040517f08c379a0000000000000000000000000000000000000000000000000000000008152600401610bb6906116f9565b60405180910390fd5b8060040160009054906101000a900460ff1615610c11576040517f08c379a0000000000000000000000000000000000000000000000000000000008152600401610c0890611619565b60405180910390fd5b60018160040160006101000a81548160ff0219169083151502179055507f000000000000000000000000000000000000000000000000000000000000000073ffffffffffffffffffffffffffffffffffffffff1663a9059cbb8260000160009054906101000a900473ffffffffffffffffffffffffffffffffffffffff1683600301546040518363ffffffff1660e01b8152600401610cb1929190611554565b602060405180830381600087803b158015610ccb57600080fd5b505af1158015610cdf573d6000803e3d6000fd5b505050506040513d601f19601f82011682018060405250810190610d039190611201565b507f7bb2b3c10797baccb6f8c4791f1edd6ca2f0d028ee0eda64b01a9a57e3a653f782604051610d339190611779565b60405180910390a15050565b60006001600084815260200190815260200160002090508060020160049054906101000a900463ffffffff1663ffffffff16421115610db3576040517f08c379a0000000000000000000000000000000000000000000000000000000008152600401610daa90611739565b60405180910390fd5b81816003016000828254610dc79190611869565b92505081905550816002600085815260200190815260200160002060003373ffffffffffffffffffffffffffffffffffffffff1673ffffffffffffffffffffffffffffffffffffffff1681526020019081526020016000206000828254610e2e9190611869565b925050819055507f000000000000000000000000000000000000000000000000000000000000000073ffffffffffffffffffffffffffffffffffffffff1663a9059cbb33846040518363ffffffff1660e01b8152600401610e90929190611554565b602060405180830381600087803b158015610eaa57600080fd5b505af1158015610ebe573d6000803e3d6000fd5b505050506040513d601f19601f82011682018060405250810190610ee29190611201565b50827f2eeeab891b26a214d1b25749f88a406bdea852bd8c9bfda977e0ef8114c180ba3384604051610f15929190611554565b60405180910390a2505050565b6002602052816000526040600020602052806000526040600020600091509150505481565b7f000000000000000000000000000000000000000000000000000000000000000081565b60006001600084815260200190815260200160002090508060020160009054906101000a900463ffffffff1663ffffffff16421015610fdf576040517f08c379a0000000000000000000000000000000000000000000000000000000008152600401610fd690611719565b60405180910390fd5b8060020160049054906101000a900463ffffffff1663ffffffff1642111561103c576040517f08c379a000000000000000000000000000000000000000000000000000000000815260040161103390611739565b60405180910390fd5b818160030160008282546110509190611813565b92505081905550816002600085815260200190815260200160002060003373ffffffffffffffffffffffffffffffffffffffff1673ffffffffffffffffffffffffffffffffffffffff16815260200190815260200160002060008282546110b79190611813565b925050819055507f000000000000000000000000000000000000000000000000000000000000000073ffffffffffffffffffffffffffffffffffffffff166323b872dd3330856040518463ffffffff1660e01b815260040161111b9392919061151d565b602060405180830381600087803b15801561113557600080fd5b505af1158015611149573d6000803e3d6000fd5b505050506040513d601f19601f8201168201806040525081019061116d9190611201565b50827f06bdb975df800a73232998e71ed585d536222f1dfeaa622d7f62a23ada686c8233846040516111a0929190611554565b60405180910390a2505050565b6000813590506111bc81611b94565b92915050565b6000815190506111d181611bab565b92915050565b6000813590506111e681611bc2565b92915050565b6000813590506111fb81611bd9565b92915050565b600060208284031215611217576112166119a3565b5b6000611225848285016111c2565b91505092915050565b600060208284031215611244576112436119a3565b5b6000611252848285016111d7565b91505092915050565b60008060408385031215611272576112716119a3565b5b6000611280858286016111d7565b9250506020611291858286016111ad565b9150509250929050565b600080604083850312156112b2576112b16119a3565b5b60006112c0858286016111d7565b92505060206112d1858286016111d7565b9150509250929050565b6000806000606084860312156112f4576112f36119a3565b5b6000611302868287016111d7565b9350506020611313868287016111ec565b9250506040611324868287016111ec565b9150509250925092565b6113378161189d565b82525050565b611346816118af565b82525050565b611355816118f5565b82525050565b6000611368600883611802565b9150611373826119a8565b602082019050919050565b600061138b600783611802565b9150611396826119d1565b602082019050919050565b60006113ae600b83611802565b91506113b9826119fa565b602082019050919050565b60006113d1600f83611802565b91506113dc82611a23565b602082019050919050565b60006113f4600983611802565b91506113ff82611a4c565b602082019050919050565b6000611417600683611802565b915061142282611a75565b602082019050919050565b600061143a600983611802565b915061144582611a9e565b602082019050919050565b600061145d600b83611802565b915061146882611ac7565b602082019050919050565b6000611480600e83611802565b915061148b82611af0565b602082019050919050565b60006114a3600b83611802565b91506114ae82611b19565b602082019050919050565b60006114c6600583611802565b91506114d182611b42565b602082019050919050565b60006114e9600983611802565b91506114f482611b6b565b602082019050919050565b611508816118db565b82525050565b611517816118e5565b82525050565b6000606082019050611532600083018661132e565b61153f602083018561132e565b61154c60408301846114ff565b949350505050565b6000604082019050611569600083018561132e565b61157660208301846114ff565b9392505050565b600060c082019050611592600083018961132e565b61159f60208301886114ff565b6115ac604083018761150e565b6115b9606083018661150e565b6115c660808301856114ff565b6115d360a083018461133d565b979650505050505050565b60006020820190506115f3600083018461134c565b92915050565b600060208201905081810360008301526116128161135b565b9050919050565b600060208201905081810360008301526116328161137e565b9050919050565b60006020820190508181036000830152611652816113a1565b9050919050565b60006020820190508181036000830152611672816113c4565b9050919050565b60006020820190508181036000830152611692816113e7565b9050919050565b600060208201905081810360008301526116b28161140a565b9050919050565b600060208201905081810360008301526116d28161142d565b9050919050565b600060208201905081810360008301526116f281611450565b9050919050565b6000602082019050818103600083015261171281611473565b9050919050565b6000602082019050818103600083015261173281611496565b9050919050565b60006020820190508181036000830152611752816114b9565b9050919050565b60006020820190508181036000830152611772816114dc565b9050919050565b600060208201905061178e60008301846114ff565b92915050565b60006040820190506117a960008301856114ff565b6117b660208301846114ff565b9392505050565b60006080820190506117d260008301876114ff565b6117df60208301866114ff565b6117ec604083018561150e565b6117f9606083018461150e565b95945050505050565b600082825260208201905092915050565b600061181e826118db565b9150611829836118db565b9250827fffffffffffffffffffffffffffffffffffffffffffffffffffffffffffffffff0382111561185e5761185d611974565b5b828201905092915050565b6000611874826118db565b915061187f836118db565b92508282101561189257611891611974565b5b828203905092915050565b60006118a8826118bb565b9050919050565b60008115159050919050565b600073ffffffffffffffffffffffffffffffffffffffff82169050919050565b6000819050919050565b600063ffffffff82169050919050565b600061190082611907565b9050919050565b600061191282611919565b9050919050565b6000611924826118bb565b9050919050565b6000611936826118db565b91507fffffffffffffffffffffffffffffffffffffffffffffffffffffffffffffffff82141561196957611968611974565b5b600182019050919050565b7f4e487b7100000000000000000000000000000000000000000000000000000000600052601160045260246000fd5b600080fd5b7f42616c20213d2030000000000000000000000000000000000000000000000000600082015250565b7f636c61696d656400000000000000000000000000000000000000000000000000600082015250565b7f6e6f742063726561746f72000000000000000000000000000000000000000000600082015250565b7f506c6564676564203e3d20476f616c0000000000000000000000000000000000600082015250565b7f73746172743c6e6f770000000000000000000000000000000000000000000000600082015250565b7f44656e6965640000000000000000000000000000000000000000000000000000600082015250565b7f73746172743c656e640000000000000000000000000000000000000000000000600082015250565b7f6475723c6d61785f647572000000000000000000000000000000000000000000600082015250565b7f706c6564676564203c20676f616c000000000000000000000000000000000000600082015250565b7f6e6f742073746172746564000000000000000000000000000000000000000000600082015250565b7f656e646564000000000000000000000000000000000000000000000000000000600082015250565b7f6e6f7420656e6465640000000000000000000000000000000000000000000000600082015250565b611b9d8161189d565b8114611ba857600080fd5b50565b611bb4816118af565b8114611bbf57600080fd5b50565b611bcb816118db565b8114611bd657600080fd5b50565b611be2816118e5565b8114611bed57600080fd5b5056fea2646970667358221220678b481e1040c5874a76aa7ccf2465b7535de521bdaf41200ed0a94e1d54766864736f6c63430008070033",
					"opcodes": "PUSH1 0xA0 PUSH1 0x40 MSTORE PUSH1 0x0 DUP1 SSTORE CALLVALUE DUP1 ISZERO PUSH3 0x15 JUMPI PUSH1 0x0 DUP1 REVERT JUMPDEST POP PUSH1 0x40 MLOAD PUSH3 0x1D76 CODESIZE SUB DUP1 PUSH3 0x1D76 DUP4 CODECOPY DUP2 DUP2 ADD PUSH1 0x40 MSTORE DUP2 ADD SWAP1 PUSH3 0x3B SWAP2 SWAP1 PUSH3 0x90 JUMP JUMPDEST DUP1 PUSH20 0xFFFFFFFFFFFFFFFFFFFFFFFFFFFFFFFFFFFFFFFF AND PUSH1 0x80 DUP2 PUSH20 0xFFFFFFFFFFFFFFFFFFFFFFFFFFFFFFFFFFFFFFFF AND PUSH1 0x60 SHL DUP2 MSTORE POP POP POP PUSH3 0x115 JUMP JUMPDEST PUSH1 0x0 DUP2 MLOAD SWAP1 POP PUSH3 0x8A DUP2 PUSH3 0xFB JUMP JUMPDEST SWAP3 SWAP2 POP POP JUMP JUMPDEST PUSH1 0x0 PUSH1 0x20 DUP3 DUP5 SUB SLT ISZERO PUSH3 0xA9 JUMPI PUSH3 0xA8 PUSH3 0xF6 JUMP JUMPDEST JUMPDEST PUSH1 0x0 PUSH3 0xB9 DUP5 DUP3 DUP6 ADD PUSH3 0x79 JUMP JUMPDEST SWAP2 POP POP SWAP3 SWAP2 POP POP JUMP JUMPDEST PUSH1 0x0 PUSH3 0xCF DUP3 PUSH3 0xD6 JUMP JUMPDEST SWAP1 POP SWAP2 SWAP1 POP JUMP JUMPDEST PUSH1 0x0 PUSH20 0xFFFFFFFFFFFFFFFFFFFFFFFFFFFFFFFFFFFFFFFF DUP3 AND SWAP1 POP SWAP2 SWAP1 POP JUMP JUMPDEST PUSH1 0x0 DUP1 REVERT JUMPDEST PUSH3 0x106 DUP2 PUSH3 0xC2 JUMP JUMPDEST DUP2 EQ PUSH3 0x112 JUMPI PUSH1 0x0 DUP1 REVERT JUMPDEST POP JUMP JUMPDEST PUSH1 0x80 MLOAD PUSH1 0x60 SHR PUSH2 0x1C26 PUSH3 0x150 PUSH1 0x0 CODECOPY PUSH1 0x0 DUP2 DUP2 PUSH2 0x6DB ADD MSTORE DUP2 DUP2 PUSH2 0xC30 ADD MSTORE DUP2 DUP2 PUSH2 0xE37 ADD MSTORE DUP2 DUP2 PUSH2 0xF49 ADD MSTORE PUSH2 0x10C0 ADD MSTORE PUSH2 0x1C26 PUSH1 0x0 RETURN INVALID PUSH1 0x80 PUSH1 0x40 MSTORE CALLVALUE DUP1 ISZERO PUSH2 0x10 JUMPI PUSH1 0x0 DUP1 REVERT JUMPDEST POP PUSH1 0x4 CALLDATASIZE LT PUSH2 0x9E JUMPI PUSH1 0x0 CALLDATALOAD PUSH1 0xE0 SHR DUP1 PUSH4 0x379607F5 GT PUSH2 0x66 JUMPI DUP1 PUSH4 0x379607F5 EQ PUSH2 0x14A JUMPI DUP1 PUSH4 0x711853AB EQ PUSH2 0x166 JUMPI DUP1 PUSH4 0xAA4FB63A EQ PUSH2 0x182 JUMPI DUP1 PUSH4 0xFC0C546A EQ PUSH2 0x1B2 JUMPI DUP1 PUSH4 0xFDE327BE EQ PUSH2 0x1D0 JUMPI PUSH2 0x9E JUMP JUMPDEST DUP1 PUSH4 0x6661ABD EQ PUSH2 0xA3 JUMPI DUP1 PUSH4 0xAEBEB4E EQ PUSH2 0xC1 JUMPI DUP1 PUSH4 0x141961BC EQ PUSH2 0xDD JUMPI DUP1 PUSH4 0x278ECDE1 EQ PUSH2 0x112 JUMPI DUP1 PUSH4 0x2C63F146 EQ PUSH2 0x12E JUMPI JUMPDEST PUSH1 0x0 DUP1 REVERT JUMPDEST PUSH2 0xAB PUSH2 0x1EC JUMP JUMPDEST PUSH1 0x40 MLOAD PUSH2 0xB8 SWAP2 SWAP1 PUSH2 0x1779 JUMP JUMPDEST PUSH1 0x40 MLOAD DUP1 SWAP2 SUB SWAP1 RETURN JUMPDEST PUSH2 0xDB PUSH1 0x4 DUP1 CALLDATASIZE SUB DUP2 ADD SWAP1 PUSH2 0xD6 SWAP2 SWAP1 PUSH2 0x122E JUMP JUMPDEST PUSH2 0x1F2 JUMP JUMPDEST STOP JUMPDEST PUSH2 0xF7 PUSH1 0x4 DUP1 CALLDATASIZE SUB DUP2 ADD SWAP1 PUSH2 0xF2 SWAP2 SWAP1 PUSH2 0x122E JUMP JUMPDEST PUSH2 0x468 JUMP JUMPDEST PUSH1 0x40 MLOAD PUSH2 0x109 SWAP7 SWAP6 SWAP5 SWAP4 SWAP3 SWAP2 SWAP1 PUSH2 0x157D JUMP JUMPDEST PUSH1 0x40 MLOAD DUP1 SWAP2 SUB SWAP1 RETURN JUMPDEST PUSH2 0x12C PUSH1 0x4 DUP1 CALLDATASIZE SUB DUP2 ADD SWAP1 PUSH2 0x127 SWAP2 SWAP1 PUSH2 0x122E JUMP JUMPDEST PUSH2 0x4F1 JUMP JUMPDEST STOP JUMPDEST PUSH2 0x148 PUSH1 0x4 DUP1 CALLDATASIZE SUB DUP2 ADD SWAP1 PUSH2 0x143 SWAP2 SWAP1 PUSH2 0x12DB JUMP JUMPDEST PUSH2 0x7DC JUMP JUMPDEST STOP JUMPDEST PUSH2 0x164 PUSH1 0x4 DUP1 CALLDATASIZE SUB DUP2 ADD SWAP1 PUSH2 0x15F SWAP2 SWAP1 PUSH2 0x122E JUMP JUMPDEST PUSH2 0xA6F JUMP JUMPDEST STOP JUMPDEST PUSH2 0x180 PUSH1 0x4 DUP1 CALLDATASIZE SUB DUP2 ADD SWAP1 PUSH2 0x17B SWAP2 SWAP1 PUSH2 0x129B JUMP JUMPDEST PUSH2 0xD3F JUMP JUMPDEST STOP JUMPDEST PUSH2 0x19C PUSH1 0x4 DUP1 CALLDATASIZE SUB DUP2 ADD SWAP1 PUSH2 0x197 SWAP2 SWAP1 PUSH2 0x125B JUMP JUMPDEST PUSH2 0xF22 JUMP JUMPDEST PUSH1 0x40 MLOAD PUSH2 0x1A9 SWAP2 SWAP1 PUSH2 0x1779 JUMP JUMPDEST PUSH1 0x40 MLOAD DUP1 SWAP2 SUB SWAP1 RETURN JUMPDEST PUSH2 0x1BA PUSH2 0xF47 JUMP JUMPDEST PUSH1 0x40 MLOAD PUSH2 0x1C7 SWAP2 SWAP1 PUSH2 0x15DE JUMP JUMPDEST PUSH1 0x40 MLOAD DUP1 SWAP2 SUB SWAP1 RETURN JUMPDEST PUSH2 0x1EA PUSH1 0x4 DUP1 CALLDATASIZE SUB DUP2 ADD SWAP1 PUSH2 0x1E5 SWAP2 SWAP1 PUSH2 0x129B JUMP JUMPDEST PUSH2 0xF6B JUMP JUMPDEST STOP JUMPDEST PUSH1 0x0 SLOAD DUP2 JUMP JUMPDEST PUSH1 0x0 PUSH1 0x1 PUSH1 0x0 DUP4 DUP2 MSTORE PUSH1 0x20 ADD SWAP1 DUP2 MSTORE PUSH1 0x20 ADD PUSH1 0x0 KECCAK256 PUSH1 0x40 MLOAD DUP1 PUSH1 0xC0 ADD PUSH1 0x40 MSTORE SWAP1 DUP2 PUSH1 0x0 DUP3 ADD PUSH1 0x0 SWAP1 SLOAD SWAP1 PUSH2 0x100 EXP SWAP1 DIV PUSH20 0xFFFFFFFFFFFFFFFFFFFFFFFFFFFFFFFFFFFFFFFF AND PUSH20 0xFFFFFFFFFFFFFFFFFFFFFFFFFFFFFFFFFFFFFFFF AND PUSH20 0xFFFFFFFFFFFFFFFFFFFFFFFFFFFFFFFFFFFFFFFF AND DUP2 MSTORE PUSH1 0x20 ADD PUSH1 0x1 DUP3 ADD SLOAD DUP2 MSTORE PUSH1 0x20 ADD PUSH1 0x2 DUP3 ADD PUSH1 0x0 SWAP1 SLOAD SWAP1 PUSH2 0x100 EXP SWAP1 DIV PUSH4 0xFFFFFFFF AND PUSH4 0xFFFFFFFF AND PUSH4 0xFFFFFFFF AND DUP2 MSTORE PUSH1 0x20 ADD PUSH1 0x2 DUP3 ADD PUSH1 0x4 SWAP1 SLOAD SWAP1 PUSH2 0x100 EXP SWAP1 DIV PUSH4 0xFFFFFFFF AND PUSH4 0xFFFFFFFF AND PUSH4 0xFFFFFFFF AND DUP2 MSTORE PUSH1 0x20 ADD PUSH1 0x3 DUP3 ADD SLOAD DUP2 MSTORE PUSH1 0x20 ADD PUSH1 0x4 DUP3 ADD PUSH1 0x0 SWAP1 SLOAD SWAP1 PUSH2 0x100 EXP SWAP1 DIV PUSH1 0xFF AND ISZERO ISZERO ISZERO ISZERO DUP2 MSTORE POP POP SWAP1 POP CALLER PUSH20 0xFFFFFFFFFFFFFFFFFFFFFFFFFFFFFFFFFFFFFFFF AND DUP2 PUSH1 0x0 ADD MLOAD PUSH20 0xFFFFFFFFFFFFFFFFFFFFFFFFFFFFFFFFFFFFFFFF AND EQ PUSH2 0x357 JUMPI PUSH1 0x40 MLOAD PUSH32 0x8C379A000000000000000000000000000000000000000000000000000000000 DUP2 MSTORE PUSH1 0x4 ADD PUSH2 0x34E SWAP1 PUSH2 0x1699 JUMP JUMPDEST PUSH1 0x40 MLOAD DUP1 SWAP2 SUB SWAP1 REVERT JUMPDEST PUSH1 0x0 DUP2 PUSH1 0x80 ADD MLOAD EQ PUSH2 0x39E JUMPI PUSH1 0x40 MLOAD PUSH32 0x8C379A000000000000000000000000000000000000000000000000000000000 DUP2 MSTORE PUSH1 0x4 ADD PUSH2 0x395 SWAP1 PUSH2 0x15F9 JUMP JUMPDEST PUSH1 0x40 MLOAD DUP1 SWAP2 SUB SWAP1 REVERT JUMPDEST PUSH1 0x1 PUSH1 0x0 DUP4 DUP2 MSTORE PUSH1 0x20 ADD SWAP1 DUP2 MSTORE PUSH1 0x20 ADD PUSH1 0x0 KECCAK256 PUSH1 0x0 DUP1 DUP3 ADD PUSH1 0x0 PUSH2 0x100 EXP DUP2 SLOAD SWAP1 PUSH20 0xFFFFFFFFFFFFFFFFFFFFFFFFFFFFFFFFFFFFFFFF MUL NOT AND SWAP1 SSTORE PUSH1 0x1 DUP3 ADD PUSH1 0x0 SWAP1 SSTORE PUSH1 0x2 DUP3 ADD PUSH1 0x0 PUSH2 0x100 EXP DUP2 SLOAD SWAP1 PUSH4 0xFFFFFFFF MUL NOT AND SWAP1 SSTORE PUSH1 0x2 DUP3 ADD PUSH1 0x4 PUSH2 0x100 EXP DUP2 SLOAD SWAP1 PUSH4 0xFFFFFFFF MUL NOT AND SWAP1 SSTORE PUSH1 0x3 DUP3 ADD PUSH1 0x0 SWAP1 SSTORE PUSH1 0x4 DUP3 ADD PUSH1 0x0 PUSH2 0x100 EXP DUP2 SLOAD SWAP1 PUSH1 0xFF MUL NOT AND SWAP1 SSTORE POP POP PUSH32 0x7D815D575A49D6D9A069482C25B0FDB39914CCF1BBA8AAEA4CFE20322F8F6877 DUP3 PUSH1 0x40 MLOAD PUSH2 0x45C SWAP2 SWAP1 PUSH2 0x1779 JUMP JUMPDEST PUSH1 0x40 MLOAD DUP1 SWAP2 SUB SWAP1 LOG1 POP POP JUMP JUMPDEST PUSH1 0x1 PUSH1 0x20 MSTORE DUP1 PUSH1 0x0 MSTORE PUSH1 0x40 PUSH1 0x0 KECCAK256 PUSH1 0x0 SWAP2 POP SWAP1 POP DUP1 PUSH1 0x0 ADD PUSH1 0x0 SWAP1 SLOAD SWAP1 PUSH2 0x100 EXP SWAP1 DIV PUSH20 0xFFFFFFFFFFFFFFFFFFFFFFFFFFFFFFFFFFFFFFFF AND SWAP1 DUP1 PUSH1 0x1 ADD SLOAD SWAP1 DUP1 PUSH1 0x2 ADD PUSH1 0x0 SWAP1 SLOAD SWAP1 PUSH2 0x100 EXP SWAP1 DIV PUSH4 0xFFFFFFFF AND SWAP1 DUP1 PUSH1 0x2 ADD PUSH1 0x4 SWAP1 SLOAD SWAP1 PUSH2 0x100 EXP SWAP1 DIV PUSH4 0xFFFFFFFF AND SWAP1 DUP1 PUSH1 0x3 ADD SLOAD SWAP1 DUP1 PUSH1 0x4 ADD PUSH1 0x0 SWAP1 SLOAD SWAP1 PUSH2 0x100 EXP SWAP1 DIV PUSH1 0xFF AND SWAP1 POP DUP7 JUMP JUMPDEST PUSH1 0x0 PUSH1 0x1 PUSH1 0x0 DUP4 DUP2 MSTORE PUSH1 0x20 ADD SWAP1 DUP2 MSTORE PUSH1 0x20 ADD PUSH1 0x0 KECCAK256 PUSH1 0x40 MLOAD DUP1 PUSH1 0xC0 ADD PUSH1 0x40 MSTORE SWAP1 DUP2 PUSH1 0x0 DUP3 ADD PUSH1 0x0 SWAP1 SLOAD SWAP1 PUSH2 0x100 EXP SWAP1 DIV PUSH20 0xFFFFFFFFFFFFFFFFFFFFFFFFFFFFFFFFFFFFFFFF AND PUSH20 0xFFFFFFFFFFFFFFFFFFFFFFFFFFFFFFFFFFFFFFFF AND PUSH20 0xFFFFFFFFFFFFFFFFFFFFFFFFFFFFFFFFFFFFFFFF AND DUP2 MSTORE PUSH1 0x20 ADD PUSH1 0x1 DUP3 ADD SLOAD DUP2 MSTORE PUSH1 0x20 ADD PUSH1 0x2 DUP3 ADD PUSH1 0x0 SWAP1 SLOAD SWAP1 PUSH2 0x100 EXP SWAP1 DIV PUSH4 0xFFFFFFFF AND PUSH4 0xFFFFFFFF AND PUSH4 0xFFFFFFFF AND DUP2 MSTORE PUSH1 0x20 ADD PUSH1 0x2 DUP3 ADD PUSH1 0x4 SWAP1 SLOAD SWAP1 PUSH2 0x100 EXP SWAP1 DIV PUSH4 0xFFFFFFFF AND PUSH4 0xFFFFFFFF AND PUSH4 0xFFFFFFFF AND DUP2 MSTORE PUSH1 0x20 ADD PUSH1 0x3 DUP3 ADD SLOAD DUP2 MSTORE PUSH1 0x20 ADD PUSH1 0x4 DUP3 ADD PUSH1 0x0 SWAP1 SLOAD SWAP1 PUSH2 0x100 EXP SWAP1 DIV PUSH1 0xFF AND ISZERO ISZERO ISZERO ISZERO DUP2 MSTORE POP POP SWAP1 POP DUP1 PUSH1 0x20 ADD MLOAD DUP2 PUSH1 0x80 ADD MLOAD LT PUSH2 0x62E JUMPI PUSH1 0x40 MLOAD PUSH32 0x8C379A000000000000000000000000000000000000000000000000000000000 DUP2 MSTORE PUSH1 0x4 ADD PUSH2 0x625 SWAP1 PUSH2 0x1659 JUMP JUMPDEST PUSH1 0x40 MLOAD DUP1 SWAP2 SUB SWAP1 REVERT JUMPDEST PUSH1 0x0 PUSH1 0x2 PUSH1 0x0 DUP5 DUP2 MSTORE PUSH1 0x20 ADD SWAP1 DUP2 MSTORE PUSH1 0x20 ADD PUSH1 0x0 KECCAK256 PUSH1 0x0 CALLER PUSH20 0xFFFFFFFFFFFFFFFFFFFFFFFFFFFFFFFFFFFFFFFF AND PUSH20 0xFFFFFFFFFFFFFFFFFFFFFFFFFFFFFFFFFFFFFFFF AND DUP2 MSTORE PUSH1 0x20 ADD SWAP1 DUP2 MSTORE PUSH1 0x20 ADD PUSH1 0x0 KECCAK256 SLOAD SWAP1 POP PUSH1 0x0 PUSH1 0x2 PUSH1 0x0 DUP6 DUP2 MSTORE PUSH1 0x20 ADD SWAP1 DUP2 MSTORE PUSH1 0x20 ADD PUSH1 0x0 KECCAK256 PUSH1 0x0 CALLER PUSH20 0xFFFFFFFFFFFFFFFFFFFFFFFFFFFFFFFFFFFFFFFF AND PUSH20 0xFFFFFFFFFFFFFFFFFFFFFFFFFFFFFFFFFFFFFFFF AND DUP2 MSTORE PUSH1 0x20 ADD SWAP1 DUP2 MSTORE PUSH1 0x20 ADD PUSH1 0x0 KECCAK256 DUP2 SWAP1 SSTORE POP PUSH32 0x0 PUSH20 0xFFFFFFFFFFFFFFFFFFFFFFFFFFFFFFFFFFFFFFFF AND PUSH4 0xA9059CBB CALLER DUP4 PUSH1 0x40 MLOAD DUP4 PUSH4 0xFFFFFFFF AND PUSH1 0xE0 SHL DUP2 MSTORE PUSH1 0x4 ADD PUSH2 0x734 SWAP3 SWAP2 SWAP1 PUSH2 0x1554 JUMP JUMPDEST PUSH1 0x20 PUSH1 0x40 MLOAD DUP1 DUP4 SUB DUP2 PUSH1 0x0 DUP8 DUP1 EXTCODESIZE ISZERO DUP1 ISZERO PUSH2 0x74E JUMPI PUSH1 0x0 DUP1 REVERT JUMPDEST POP GAS CALL ISZERO DUP1 ISZERO PUSH2 0x762 JUMPI RETURNDATASIZE PUSH1 0x0 DUP1 RETURNDATACOPY RETURNDATASIZE PUSH1 0x0 REVERT JUMPDEST POP POP POP POP PUSH1 0x40 MLOAD RETURNDATASIZE PUSH1 0x1F NOT PUSH1 0x1F DUP3 ADD AND DUP3 ADD DUP1 PUSH1 0x40 MSTORE POP DUP2 ADD SWAP1 PUSH2 0x786 SWAP2 SWAP1 PUSH2 0x1201 JUMP JUMPDEST POP CALLER PUSH20 0xFFFFFFFFFFFFFFFFFFFFFFFFFFFFFFFFFFFFFFFF AND PUSH32 0x21E12A7CAD0DA5928167E1084EA4D5FDF8D9AF66657A2543A9AC76A0CA081477 DUP5 DUP4 PUSH1 0x40 MLOAD PUSH2 0x7CF SWAP3 SWAP2 SWAP1 PUSH2 0x1794 JUMP JUMPDEST PUSH1 0x40 MLOAD DUP1 SWAP2 SUB SWAP1 LOG2 POP POP POP JUMP JUMPDEST TIMESTAMP DUP3 PUSH4 0xFFFFFFFF AND LT ISZERO PUSH2 0x825 JUMPI PUSH1 0x40 MLOAD PUSH32 0x8C379A000000000000000000000000000000000000000000000000000000000 DUP2 MSTORE PUSH1 0x4 ADD PUSH2 0x81C SWAP1 PUSH2 0x1679 JUMP JUMPDEST PUSH1 0x40 MLOAD DUP1 SWAP2 SUB SWAP1 REVERT JUMPDEST DUP2 PUSH4 0xFFFFFFFF AND DUP2 PUSH4 0xFFFFFFFF AND GT PUSH2 0x873 JUMPI PUSH1 0x40 MLOAD PUSH32 0x8C379A000000000000000000000000000000000000000000000000000000000 DUP2 MSTORE PUSH1 0x4 ADD PUSH2 0x86A SWAP1 PUSH2 0x16B9 JUMP JUMPDEST PUSH1 0x40 MLOAD DUP1 SWAP2 SUB SWAP1 REVERT JUMPDEST PUSH3 0x76A700 TIMESTAMP PUSH2 0x882 SWAP2 SWAP1 PUSH2 0x1813 JUMP JUMPDEST DUP2 PUSH4 0xFFFFFFFF AND GT ISZERO PUSH2 0x8CA JUMPI PUSH1 0x40 MLOAD PUSH32 0x8C379A000000000000000000000000000000000000000000000000000000000 DUP2 MSTORE PUSH1 0x4 ADD PUSH2 0x8C1 SWAP1 PUSH2 0x16D9 JUMP JUMPDEST PUSH1 0x40 MLOAD DUP1 SWAP2 SUB SWAP1 REVERT JUMPDEST PUSH1 0x40 MLOAD DUP1 PUSH1 0xC0 ADD PUSH1 0x40 MSTORE DUP1 CALLER PUSH20 0xFFFFFFFFFFFFFFFFFFFFFFFFFFFFFFFFFFFFFFFF AND DUP2 MSTORE PUSH1 0x20 ADD DUP5 DUP2 MSTORE PUSH1 0x20 ADD DUP4 PUSH4 0xFFFFFFFF AND DUP2 MSTORE PUSH1 0x20 ADD DUP3 PUSH4 0xFFFFFFFF AND DUP2 MSTORE PUSH1 0x20 ADD PUSH1 0x0 DUP2 MSTORE PUSH1 0x20 ADD PUSH1 0x0 ISZERO ISZERO DUP2 MSTORE POP PUSH1 0x1 PUSH1 0x0 DUP1 SLOAD DUP2 MSTORE PUSH1 0x20 ADD SWAP1 DUP2 MSTORE PUSH1 0x20 ADD PUSH1 0x0 KECCAK256 PUSH1 0x0 DUP3 ADD MLOAD DUP2 PUSH1 0x0 ADD PUSH1 0x0 PUSH2 0x100 EXP DUP2 SLOAD DUP2 PUSH20 0xFFFFFFFFFFFFFFFFFFFFFFFFFFFFFFFFFFFFFFFF MUL NOT AND SWAP1 DUP4 PUSH20 0xFFFFFFFFFFFFFFFFFFFFFFFFFFFFFFFFFFFFFFFF AND MUL OR SWAP1 SSTORE POP PUSH1 0x20 DUP3 ADD MLOAD DUP2 PUSH1 0x1 ADD SSTORE PUSH1 0x40 DUP3 ADD MLOAD DUP2 PUSH1 0x2 ADD PUSH1 0x0 PUSH2 0x100 EXP DUP2 SLOAD DUP2 PUSH4 0xFFFFFFFF MUL NOT AND SWAP1 DUP4 PUSH4 0xFFFFFFFF AND MUL OR SWAP1 SSTORE POP PUSH1 0x60 DUP3 ADD MLOAD DUP2 PUSH1 0x2 ADD PUSH1 0x4 PUSH2 0x100 EXP DUP2 SLOAD DUP2 PUSH4 0xFFFFFFFF MUL NOT AND SWAP1 DUP4 PUSH4 0xFFFFFFFF AND MUL OR SWAP1 SSTORE POP PUSH1 0x80 DUP3 ADD MLOAD DUP2 PUSH1 0x3 ADD SSTORE PUSH1 0xA0 DUP3 ADD MLOAD DUP2 PUSH1 0x4 ADD PUSH1 0x0 PUSH2 0x100 EXP DUP2 SLOAD DUP2 PUSH1 0xFF MUL NOT AND SWAP1 DUP4 ISZERO ISZERO MUL OR SWAP1 SSTORE POP SWAP1 POP POP CALLER PUSH20 0xFFFFFFFFFFFFFFFFFFFFFFFFFFFFFFFFFFFFFFFF AND PUSH32 0x601CD0D650B473037E838A2696D41E654433D065B3F56B28D1D3302E44A304F PUSH1 0x0 SLOAD DUP6 DUP6 DUP6 PUSH1 0x40 MLOAD PUSH2 0xA4B SWAP5 SWAP4 SWAP3 SWAP2 SWAP1 PUSH2 0x17BD JUMP JUMPDEST PUSH1 0x40 MLOAD DUP1 SWAP2 SUB SWAP1 LOG2 PUSH1 0x0 DUP1 DUP2 SLOAD DUP1 SWAP3 SWAP2 SWAP1 PUSH2 0xA65 SWAP1 PUSH2 0x192B JUMP JUMPDEST SWAP2 SWAP1 POP SSTORE POP POP POP POP JUMP JUMPDEST PUSH1 0x0 PUSH1 0x1 PUSH1 0x0 DUP4 DUP2 MSTORE PUSH1 0x20 ADD SWAP1 DUP2 MSTORE PUSH1 0x20 ADD PUSH1 0x0 KECCAK256 SWAP1 POP CALLER PUSH20 0xFFFFFFFFFFFFFFFFFFFFFFFFFFFFFFFFFFFFFFFF AND DUP2 PUSH1 0x0 ADD PUSH1 0x0 SWAP1 SLOAD SWAP1 PUSH2 0x100 EXP SWAP1 DIV PUSH20 0xFFFFFFFFFFFFFFFFFFFFFFFFFFFFFFFFFFFFFFFF AND PUSH20 0xFFFFFFFFFFFFFFFFFFFFFFFFFFFFFFFFFFFFFFFF AND EQ PUSH2 0xB18 JUMPI PUSH1 0x40 MLOAD PUSH32 0x8C379A000000000000000000000000000000000000000000000000000000000 DUP2 MSTORE PUSH1 0x4 ADD PUSH2 0xB0F SWAP1 PUSH2 0x1639 JUMP JUMPDEST PUSH1 0x40 MLOAD DUP1 SWAP2 SUB SWAP1 REVERT JUMPDEST DUP1 PUSH1 0x2 ADD PUSH1 0x4 SWAP1 SLOAD SWAP1 PUSH2 0x100 EXP SWAP1 DIV PUSH4 0xFFFFFFFF AND PUSH4 0xFFFFFFFF AND TIMESTAMP GT PUSH2 0xB74 JUMPI PUSH1 0x40 MLOAD PUSH32 0x8C379A000000000000000000000000000000000000000000000000000000000 DUP2 MSTORE PUSH1 0x4 ADD PUSH2 0xB6B SWAP1 PUSH2 0x1759 JUMP JUMPDEST PUSH1 0x40 MLOAD DUP1 SWAP2 SUB SWAP1 REVERT JUMPDEST DUP1 PUSH1 0x1 ADD SLOAD DUP2 PUSH1 0x3 ADD SLOAD LT ISZERO PUSH2 0xBBF JUMPI PUSH1 0x40 MLOAD PUSH32 0x8C379A000000000000000000000000000000000000000000000000000000000 DUP2 MSTORE PUSH1 0x4 ADD PUSH2 0xBB6 SWAP1 PUSH2 0x16F9 JUMP JUMPDEST PUSH1 0x40 MLOAD DUP1 SWAP2 SUB SWAP1 REVERT JUMPDEST DUP1 PUSH1 0x4 ADD PUSH1 0x0 SWAP1 SLOAD SWAP1 PUSH2 0x100 EXP SWAP1 DIV PUSH1 0xFF AND ISZERO PUSH2 0xC11 JUMPI PUSH1 0x40 MLOAD PUSH32 0x8C379A000000000000000000000000000000000000000000000000000000000 DUP2 MSTORE PUSH1 0x4 ADD PUSH2 0xC08 SWAP1 PUSH2 0x1619 JUMP JUMPDEST PUSH1 0x40 MLOAD DUP1 SWAP2 SUB SWAP1 REVERT JUMPDEST PUSH1 0x1 DUP2 PUSH1 0x4 ADD PUSH1 0x0 PUSH2 0x100 EXP DUP2 SLOAD DUP2 PUSH1 0xFF MUL NOT AND SWAP1 DUP4 ISZERO ISZERO MUL OR SWAP1 SSTORE POP PUSH32 0x0 PUSH20 0xFFFFFFFFFFFFFFFFFFFFFFFFFFFFFFFFFFFFFFFF AND PUSH4 0xA9059CBB DUP3 PUSH1 0x0 ADD PUSH1 0x0 SWAP1 SLOAD SWAP1 PUSH2 0x100 EXP SWAP1 DIV PUSH20 0xFFFFFFFFFFFFFFFFFFFFFFFFFFFFFFFFFFFFFFFF AND DUP4 PUSH1 0x3 ADD SLOAD PUSH1 0x40 MLOAD DUP4 PUSH4 0xFFFFFFFF AND PUSH1 0xE0 SHL DUP2 MSTORE PUSH1 0x4 ADD PUSH2 0xCB1 SWAP3 SWAP2 SWAP1 PUSH2 0x1554 JUMP JUMPDEST PUSH1 0x20 PUSH1 0x40 MLOAD DUP1 DUP4 SUB DUP2 PUSH1 0x0 DUP8 DUP1 EXTCODESIZE ISZERO DUP1 ISZERO PUSH2 0xCCB JUMPI PUSH1 0x0 DUP1 REVERT JUMPDEST POP GAS CALL ISZERO DUP1 ISZERO PUSH2 0xCDF JUMPI RETURNDATASIZE PUSH1 0x0 DUP1 RETURNDATACOPY RETURNDATASIZE PUSH1 0x0 REVERT JUMPDEST POP POP POP POP PUSH1 0x40 MLOAD RETURNDATASIZE PUSH1 0x1F NOT PUSH1 0x1F DUP3 ADD AND DUP3 ADD DUP1 PUSH1 0x40 MSTORE POP DUP2 ADD SWAP1 PUSH2 0xD03 SWAP2 SWAP1 PUSH2 0x1201 JUMP JUMPDEST POP PUSH32 0x7BB2B3C10797BACCB6F8C4791F1EDD6CA2F0D028EE0EDA64B01A9A57E3A653F7 DUP3 PUSH1 0x40 MLOAD PUSH2 0xD33 SWAP2 SWAP1 PUSH2 0x1779 JUMP JUMPDEST PUSH1 0x40 MLOAD DUP1 SWAP2 SUB SWAP1 LOG1 POP POP JUMP JUMPDEST PUSH1 0x0 PUSH1 0x1 PUSH1 0x0 DUP5 DUP2 MSTORE PUSH1 0x20 ADD SWAP1 DUP2 MSTORE PUSH1 0x20 ADD PUSH1 0x0 KECCAK256 SWAP1 POP DUP1 PUSH1 0x2 ADD PUSH1 0x4 SWAP1 SLOAD SWAP1 PUSH2 0x100 EXP SWAP1 DIV PUSH4 0xFFFFFFFF AND PUSH4 0xFFFFFFFF AND TIMESTAMP GT ISZERO PUSH2 0xDB3 JUMPI PUSH1 0x40 MLOAD PUSH32 0x8C379A000000000000000000000000000000000000000000000000000000000 DUP2 MSTORE PUSH1 0x4 ADD PUSH2 0xDAA SWAP1 PUSH2 0x1739 JUMP JUMPDEST PUSH1 0x40 MLOAD DUP1 SWAP2 SUB SWAP1 REVERT JUMPDEST DUP2 DUP2 PUSH1 0x3 ADD PUSH1 0x0 DUP3 DUP3 SLOAD PUSH2 0xDC7 SWAP2 SWAP1 PUSH2 0x1869 JUMP JUMPDEST SWAP3 POP POP DUP2 SWAP1 SSTORE POP DUP2 PUSH1 0x2 PUSH1 0x0 DUP6 DUP2 MSTORE PUSH1 0x20 ADD SWAP1 DUP2 MSTORE PUSH1 0x20 ADD PUSH1 0x0 KECCAK256 PUSH1 0x0 CALLER PUSH20 0xFFFFFFFFFFFFFFFFFFFFFFFFFFFFFFFFFFFFFFFF AND PUSH20 0xFFFFFFFFFFFFFFFFFFFFFFFFFFFFFFFFFFFFFFFF AND DUP2 MSTORE PUSH1 0x20 ADD SWAP1 DUP2 MSTORE PUSH1 0x20 ADD PUSH1 0x0 KECCAK256 PUSH1 0x0 DUP3 DUP3 SLOAD PUSH2 0xE2E SWAP2 SWAP1 PUSH2 0x1869 JUMP JUMPDEST SWAP3 POP POP DUP2 SWAP1 SSTORE POP PUSH32 0x0 PUSH20 0xFFFFFFFFFFFFFFFFFFFFFFFFFFFFFFFFFFFFFFFF AND PUSH4 0xA9059CBB CALLER DUP5 PUSH1 0x40 MLOAD DUP4 PUSH4 0xFFFFFFFF AND PUSH1 0xE0 SHL DUP2 MSTORE PUSH1 0x4 ADD PUSH2 0xE90 SWAP3 SWAP2 SWAP1 PUSH2 0x1554 JUMP JUMPDEST PUSH1 0x20 PUSH1 0x40 MLOAD DUP1 DUP4 SUB DUP2 PUSH1 0x0 DUP8 DUP1 EXTCODESIZE ISZERO DUP1 ISZERO PUSH2 0xEAA JUMPI PUSH1 0x0 DUP1 REVERT JUMPDEST POP GAS CALL ISZERO DUP1 ISZERO PUSH2 0xEBE JUMPI RETURNDATASIZE PUSH1 0x0 DUP1 RETURNDATACOPY RETURNDATASIZE PUSH1 0x0 REVERT JUMPDEST POP POP POP POP PUSH1 0x40 MLOAD RETURNDATASIZE PUSH1 0x1F NOT PUSH1 0x1F DUP3 ADD AND DUP3 ADD DUP1 PUSH1 0x40 MSTORE POP DUP2 ADD SWAP1 PUSH2 0xEE2 SWAP2 SWAP1 PUSH2 0x1201 JUMP JUMPDEST POP DUP3 PUSH32 0x2EEEAB891B26A214D1B25749F88A406BDEA852BD8C9BFDA977E0EF8114C180BA CALLER DUP5 PUSH1 0x40 MLOAD PUSH2 0xF15 SWAP3 SWAP2 SWAP1 PUSH2 0x1554 JUMP JUMPDEST PUSH1 0x40 MLOAD DUP1 SWAP2 SUB SWAP1 LOG2 POP POP POP JUMP JUMPDEST PUSH1 0x2 PUSH1 0x20 MSTORE DUP2 PUSH1 0x0 MSTORE PUSH1 0x40 PUSH1 0x0 KECCAK256 PUSH1 0x20 MSTORE DUP1 PUSH1 0x0 MSTORE PUSH1 0x40 PUSH1 0x0 KECCAK256 PUSH1 0x0 SWAP2 POP SWAP2 POP POP SLOAD DUP2 JUMP JUMPDEST PUSH32 0x0 DUP2 JUMP JUMPDEST PUSH1 0x0 PUSH1 0x1 PUSH1 0x0 DUP5 DUP2 MSTORE PUSH1 0x20 ADD SWAP1 DUP2 MSTORE PUSH1 0x20 ADD PUSH1 0x0 KECCAK256 SWAP1 POP DUP1 PUSH1 0x2 ADD PUSH1 0x0 SWAP1 SLOAD SWAP1 PUSH2 0x100 EXP SWAP1 DIV PUSH4 0xFFFFFFFF AND PUSH4 0xFFFFFFFF AND TIMESTAMP LT ISZERO PUSH2 0xFDF JUMPI PUSH1 0x40 MLOAD PUSH32 0x8C379A000000000000000000000000000000000000000000000000000000000 DUP2 MSTORE PUSH1 0x4 ADD PUSH2 0xFD6 SWAP1 PUSH2 0x1719 JUMP JUMPDEST PUSH1 0x40 MLOAD DUP1 SWAP2 SUB SWAP1 REVERT JUMPDEST DUP1 PUSH1 0x2 ADD PUSH1 0x4 SWAP1 SLOAD SWAP1 PUSH2 0x100 EXP SWAP1 DIV PUSH4 0xFFFFFFFF AND PUSH4 0xFFFFFFFF AND TIMESTAMP GT ISZERO PUSH2 0x103C JUMPI PUSH1 0x40 MLOAD PUSH32 0x8C379A000000000000000000000000000000000000000000000000000000000 DUP2 MSTORE PUSH1 0x4 ADD PUSH2 0x1033 SWAP1 PUSH2 0x1739 JUMP JUMPDEST PUSH1 0x40 MLOAD DUP1 SWAP2 SUB SWAP1 REVERT JUMPDEST DUP2 DUP2 PUSH1 0x3 ADD PUSH1 0x0 DUP3 DUP3 SLOAD PUSH2 0x1050 SWAP2 SWAP1 PUSH2 0x1813 JUMP JUMPDEST SWAP3 POP POP DUP2 SWAP1 SSTORE POP DUP2 PUSH1 0x2 PUSH1 0x0 DUP6 DUP2 MSTORE PUSH1 0x20 ADD SWAP1 DUP2 MSTORE PUSH1 0x20 ADD PUSH1 0x0 KECCAK256 PUSH1 0x0 CALLER PUSH20 0xFFFFFFFFFFFFFFFFFFFFFFFFFFFFFFFFFFFFFFFF AND PUSH20 0xFFFFFFFFFFFFFFFFFFFFFFFFFFFFFFFFFFFFFFFF AND DUP2 MSTORE PUSH1 0x20 ADD SWAP1 DUP2 MSTORE PUSH1 0x20 ADD PUSH1 0x0 KECCAK256 PUSH1 0x0 DUP3 DUP3 SLOAD PUSH2 0x10B7 SWAP2 SWAP1 PUSH2 0x1813 JUMP JUMPDEST SWAP3 POP POP DUP2 SWAP1 SSTORE POP PUSH32 0x0 PUSH20 0xFFFFFFFFFFFFFFFFFFFFFFFFFFFFFFFFFFFFFFFF AND PUSH4 0x23B872DD CALLER ADDRESS DUP6 PUSH1 0x40 MLOAD DUP5 PUSH4 0xFFFFFFFF AND PUSH1 0xE0 SHL DUP2 MSTORE PUSH1 0x4 ADD PUSH2 0x111B SWAP4 SWAP3 SWAP2 SWAP1 PUSH2 0x151D JUMP JUMPDEST PUSH1 0x20 PUSH1 0x40 MLOAD DUP1 DUP4 SUB DUP2 PUSH1 0x0 DUP8 DUP1 EXTCODESIZE ISZERO DUP1 ISZERO PUSH2 0x1135 JUMPI PUSH1 0x0 DUP1 REVERT JUMPDEST POP GAS CALL ISZERO DUP1 ISZERO PUSH2 0x1149 JUMPI RETURNDATASIZE PUSH1 0x0 DUP1 RETURNDATACOPY RETURNDATASIZE PUSH1 0x0 REVERT JUMPDEST POP POP POP POP PUSH1 0x40 MLOAD RETURNDATASIZE PUSH1 0x1F NOT PUSH1 0x1F DUP3 ADD AND DUP3 ADD DUP1 PUSH1 0x40 MSTORE POP DUP2 ADD SWAP1 PUSH2 0x116D SWAP2 SWAP1 PUSH2 0x1201 JUMP JUMPDEST POP DUP3 PUSH32 0x6BDB975DF800A73232998E71ED585D536222F1DFEAA622D7F62A23ADA686C82 CALLER DUP5 PUSH1 0x40 MLOAD PUSH2 0x11A0 SWAP3 SWAP2 SWAP1 PUSH2 0x1554 JUMP JUMPDEST PUSH1 0x40 MLOAD DUP1 SWAP2 SUB SWAP1 LOG2 POP POP POP JUMP JUMPDEST PUSH1 0x0 DUP2 CALLDATALOAD SWAP1 POP PUSH2 0x11BC DUP2 PUSH2 0x1B94 JUMP JUMPDEST SWAP3 SWAP2 POP POP JUMP JUMPDEST PUSH1 0x0 DUP2 MLOAD SWAP1 POP PUSH2 0x11D1 DUP2 PUSH2 0x1BAB JUMP JUMPDEST SWAP3 SWAP2 POP POP JUMP JUMPDEST PUSH1 0x0 DUP2 CALLDATALOAD SWAP1 POP PUSH2 0x11E6 DUP2 PUSH2 0x1BC2 JUMP JUMPDEST SWAP3 SWAP2 POP POP JUMP JUMPDEST PUSH1 0x0 DUP2 CALLDATALOAD SWAP1 POP PUSH2 0x11FB DUP2 PUSH2 0x1BD9 JUMP JUMPDEST SWAP3 SWAP2 POP POP JUMP JUMPDEST PUSH1 0x0 PUSH1 0x20 DUP3 DUP5 SUB SLT ISZERO PUSH2 0x1217 JUMPI PUSH2 0x1216 PUSH2 0x19A3 JUMP JUMPDEST JUMPDEST PUSH1 0x0 PUSH2 0x1225 DUP5 DUP3 DUP6 ADD PUSH2 0x11C2 JUMP JUMPDEST SWAP2 POP POP SWAP3 SWAP2 POP POP JUMP JUMPDEST PUSH1 0x0 PUSH1 0x20 DUP3 DUP5 SUB SLT ISZERO PUSH2 0x1244 JUMPI PUSH2 0x1243 PUSH2 0x19A3 JUMP JUMPDEST JUMPDEST PUSH1 0x0 PUSH2 0x1252 DUP5 DUP3 DUP6 ADD PUSH2 0x11D7 JUMP JUMPDEST SWAP2 POP POP SWAP3 SWAP2 POP POP JUMP JUMPDEST PUSH1 0x0 DUP1 PUSH1 0x40 DUP4 DUP6 SUB SLT ISZERO PUSH2 0x1272 JUMPI PUSH2 0x1271 PUSH2 0x19A3 JUMP JUMPDEST JUMPDEST PUSH1 0x0 PUSH2 0x1280 DUP6 DUP3 DUP7 ADD PUSH2 0x11D7 JUMP JUMPDEST SWAP3 POP POP PUSH1 0x20 PUSH2 0x1291 DUP6 DUP3 DUP7 ADD PUSH2 0x11AD JUMP JUMPDEST SWAP2 POP POP SWAP3 POP SWAP3 SWAP1 POP JUMP JUMPDEST PUSH1 0x0 DUP1 PUSH1 0x40 DUP4 DUP6 SUB SLT ISZERO PUSH2 0x12B2 JUMPI PUSH2 0x12B1 PUSH2 0x19A3 JUMP JUMPDEST JUMPDEST PUSH1 0x0 PUSH2 0x12C0 DUP6 DUP3 DUP7 ADD PUSH2 0x11D7 JUMP JUMPDEST SWAP3 POP POP PUSH1 0x20 PUSH2 0x12D1 DUP6 DUP3 DUP7 ADD PUSH2 0x11D7 JUMP JUMPDEST SWAP2 POP POP SWAP3 POP SWAP3 SWAP1 POP JUMP JUMPDEST PUSH1 0x0 DUP1 PUSH1 0x0 PUSH1 0x60 DUP5 DUP7 SUB SLT ISZERO PUSH2 0x12F4 JUMPI PUSH2 0x12F3 PUSH2 0x19A3 JUMP JUMPDEST JUMPDEST PUSH1 0x0 PUSH2 0x1302 DUP7 DUP3 DUP8 ADD PUSH2 0x11D7 JUMP JUMPDEST SWAP4 POP POP PUSH1 0x20 PUSH2 0x1313 DUP7 DUP3 DUP8 ADD PUSH2 0x11EC JUMP JUMPDEST SWAP3 POP POP PUSH1 0x40 PUSH2 0x1324 DUP7 DUP3 DUP8 ADD PUSH2 0x11EC JUMP JUMPDEST SWAP2 POP POP SWAP3 POP SWAP3 POP SWAP3 JUMP JUMPDEST PUSH2 0x1337 DUP2 PUSH2 0x189D JUMP JUMPDEST DUP3 MSTORE POP POP JUMP JUMPDEST PUSH2 0x1346 DUP2 PUSH2 0x18AF JUMP JUMPDEST DUP3 MSTORE POP POP JUMP JUMPDEST PUSH2 0x1355 DUP2 PUSH2 0x18F5 JUMP JUMPDEST DUP3 MSTORE POP POP JUMP JUMPDEST PUSH1 0x0 PUSH2 0x1368 PUSH1 0x8 DUP4 PUSH2 0x1802 JUMP JUMPDEST SWAP2 POP PUSH2 0x1373 DUP3 PUSH2 0x19A8 JUMP JUMPDEST PUSH1 0x20 DUP3 ADD SWAP1 POP SWAP2 SWAP1 POP JUMP JUMPDEST PUSH1 0x0 PUSH2 0x138B PUSH1 0x7 DUP4 PUSH2 0x1802 JUMP JUMPDEST SWAP2 POP PUSH2 0x1396 DUP3 PUSH2 0x19D1 JUMP JUMPDEST PUSH1 0x20 DUP3 ADD SWAP1 POP SWAP2 SWAP1 POP JUMP JUMPDEST PUSH1 0x0 PUSH2 0x13AE PUSH1 0xB DUP4 PUSH2 0x1802 JUMP JUMPDEST SWAP2 POP PUSH2 0x13B9 DUP3 PUSH2 0x19FA JUMP JUMPDEST PUSH1 0x20 DUP3 ADD SWAP1 POP SWAP2 SWAP1 POP JUMP JUMPDEST PUSH1 0x0 PUSH2 0x13D1 PUSH1 0xF DUP4 PUSH2 0x1802 JUMP JUMPDEST SWAP2 POP PUSH2 0x13DC DUP3 PUSH2 0x1A23 JUMP JUMPDEST PUSH1 0x20 DUP3 ADD SWAP1 POP SWAP2 SWAP1 POP JUMP JUMPDEST PUSH1 0x0 PUSH2 0x13F4 PUSH1 0x9 DUP4 PUSH2 0x1802 JUMP JUMPDEST SWAP2 POP PUSH2 0x13FF DUP3 PUSH2 0x1A4C JUMP JUMPDEST PUSH1 0x20 DUP3 ADD SWAP1 POP SWAP2 SWAP1 POP JUMP JUMPDEST PUSH1 0x0 PUSH2 0x1417 PUSH1 0x6 DUP4 PUSH2 0x1802 JUMP JUMPDEST SWAP2 POP PUSH2 0x1422 DUP3 PUSH2 0x1A75 JUMP JUMPDEST PUSH1 0x20 DUP3 ADD SWAP1 POP SWAP2 SWAP1 POP JUMP JUMPDEST PUSH1 0x0 PUSH2 0x143A PUSH1 0x9 DUP4 PUSH2 0x1802 JUMP JUMPDEST SWAP2 POP PUSH2 0x1445 DUP3 PUSH2 0x1A9E JUMP JUMPDEST PUSH1 0x20 DUP3 ADD SWAP1 POP SWAP2 SWAP1 POP JUMP JUMPDEST PUSH1 0x0 PUSH2 0x145D PUSH1 0xB DUP4 PUSH2 0x1802 JUMP JUMPDEST SWAP2 POP PUSH2 0x1468 DUP3 PUSH2 0x1AC7 JUMP JUMPDEST PUSH1 0x20 DUP3 ADD SWAP1 POP SWAP2 SWAP1 POP JUMP JUMPDEST PUSH1 0x0 PUSH2 0x1480 PUSH1 0xE DUP4 PUSH2 0x1802 JUMP JUMPDEST SWAP2 POP PUSH2 0x148B DUP3 PUSH2 0x1AF0 JUMP JUMPDEST PUSH1 0x20 DUP3 ADD SWAP1 POP SWAP2 SWAP1 POP JUMP JUMPDEST PUSH1 0x0 PUSH2 0x14A3 PUSH1 0xB DUP4 PUSH2 0x1802 JUMP JUMPDEST SWAP2 POP PUSH2 0x14AE DUP3 PUSH2 0x1B19 JUMP JUMPDEST PUSH1 0x20 DUP3 ADD SWAP1 POP SWAP2 SWAP1 POP JUMP JUMPDEST PUSH1 0x0 PUSH2 0x14C6 PUSH1 0x5 DUP4 PUSH2 0x1802 JUMP JUMPDEST SWAP2 POP PUSH2 0x14D1 DUP3 PUSH2 0x1B42 JUMP JUMPDEST PUSH1 0x20 DUP3 ADD SWAP1 POP SWAP2 SWAP1 POP JUMP JUMPDEST PUSH1 0x0 PUSH2 0x14E9 PUSH1 0x9 DUP4 PUSH2 0x1802 JUMP JUMPDEST SWAP2 POP PUSH2 0x14F4 DUP3 PUSH2 0x1B6B JUMP JUMPDEST PUSH1 0x20 DUP3 ADD SWAP1 POP SWAP2 SWAP1 POP JUMP JUMPDEST PUSH2 0x1508 DUP2 PUSH2 0x18DB JUMP JUMPDEST DUP3 MSTORE POP POP JUMP JUMPDEST PUSH2 0x1517 DUP2 PUSH2 0x18E5 JUMP JUMPDEST DUP3 MSTORE POP POP JUMP JUMPDEST PUSH1 0x0 PUSH1 0x60 DUP3 ADD SWAP1 POP PUSH2 0x1532 PUSH1 0x0 DUP4 ADD DUP7 PUSH2 0x132E JUMP JUMPDEST PUSH2 0x153F PUSH1 0x20 DUP4 ADD DUP6 PUSH2 0x132E JUMP JUMPDEST PUSH2 0x154C PUSH1 0x40 DUP4 ADD DUP5 PUSH2 0x14FF JUMP JUMPDEST SWAP5 SWAP4 POP POP POP POP JUMP JUMPDEST PUSH1 0x0 PUSH1 0x40 DUP3 ADD SWAP1 POP PUSH2 0x1569 PUSH1 0x0 DUP4 ADD DUP6 PUSH2 0x132E JUMP JUMPDEST PUSH2 0x1576 PUSH1 0x20 DUP4 ADD DUP5 PUSH2 0x14FF JUMP JUMPDEST SWAP4 SWAP3 POP POP POP JUMP JUMPDEST PUSH1 0x0 PUSH1 0xC0 DUP3 ADD SWAP1 POP PUSH2 0x1592 PUSH1 0x0 DUP4 ADD DUP10 PUSH2 0x132E JUMP JUMPDEST PUSH2 0x159F PUSH1 0x20 DUP4 ADD DUP9 PUSH2 0x14FF JUMP JUMPDEST PUSH2 0x15AC PUSH1 0x40 DUP4 ADD DUP8 PUSH2 0x150E JUMP JUMPDEST PUSH2 0x15B9 PUSH1 0x60 DUP4 ADD DUP7 PUSH2 0x150E JUMP JUMPDEST PUSH2 0x15C6 PUSH1 0x80 DUP4 ADD DUP6 PUSH2 0x14FF JUMP JUMPDEST PUSH2 0x15D3 PUSH1 0xA0 DUP4 ADD DUP5 PUSH2 0x133D JUMP JUMPDEST SWAP8 SWAP7 POP POP POP POP POP POP POP JUMP JUMPDEST PUSH1 0x0 PUSH1 0x20 DUP3 ADD SWAP1 POP PUSH2 0x15F3 PUSH1 0x0 DUP4 ADD DUP5 PUSH2 0x134C JUMP JUMPDEST SWAP3 SWAP2 POP POP JUMP JUMPDEST PUSH1 0x0 PUSH1 0x20 DUP3 ADD SWAP1 POP DUP2 DUP2 SUB PUSH1 0x0 DUP4 ADD MSTORE PUSH2 0x1612 DUP2 PUSH2 0x135B JUMP JUMPDEST SWAP1 POP SWAP2 SWAP1 POP JUMP JUMPDEST PUSH1 0x0 PUSH1 0x20 DUP3 ADD SWAP1 POP DUP2 DUP2 SUB PUSH1 0x0 DUP4 ADD MSTORE PUSH2 0x1632 DUP2 PUSH2 0x137E JUMP JUMPDEST SWAP1 POP SWAP2 SWAP1 POP JUMP JUMPDEST PUSH1 0x0 PUSH1 0x20 DUP3 ADD SWAP1 POP DUP2 DUP2 SUB PUSH1 0x0 DUP4 ADD MSTORE PUSH2 0x1652 DUP2 PUSH2 0x13A1 JUMP JUMPDEST SWAP1 POP SWAP2 SWAP1 POP JUMP JUMPDEST PUSH1 0x0 PUSH1 0x20 DUP3 ADD SWAP1 POP DUP2 DUP2 SUB PUSH1 0x0 DUP4 ADD MSTORE PUSH2 0x1672 DUP2 PUSH2 0x13C4 JUMP JUMPDEST SWAP1 POP SWAP2 SWAP1 POP JUMP JUMPDEST PUSH1 0x0 PUSH1 0x20 DUP3 ADD SWAP1 POP DUP2 DUP2 SUB PUSH1 0x0 DUP4 ADD MSTORE PUSH2 0x1692 DUP2 PUSH2 0x13E7 JUMP JUMPDEST SWAP1 POP SWAP2 SWAP1 POP JUMP JUMPDEST PUSH1 0x0 PUSH1 0x20 DUP3 ADD SWAP1 POP DUP2 DUP2 SUB PUSH1 0x0 DUP4 ADD MSTORE PUSH2 0x16B2 DUP2 PUSH2 0x140A JUMP JUMPDEST SWAP1 POP SWAP2 SWAP1 POP JUMP JUMPDEST PUSH1 0x0 PUSH1 0x20 DUP3 ADD SWAP1 POP DUP2 DUP2 SUB PUSH1 0x0 DUP4 ADD MSTORE PUSH2 0x16D2 DUP2 PUSH2 0x142D JUMP JUMPDEST SWAP1 POP SWAP2 SWAP1 POP JUMP JUMPDEST PUSH1 0x0 PUSH1 0x20 DUP3 ADD SWAP1 POP DUP2 DUP2 SUB PUSH1 0x0 DUP4 ADD MSTORE PUSH2 0x16F2 DUP2 PUSH2 0x1450 JUMP JUMPDEST SWAP1 POP SWAP2 SWAP1 POP JUMP JUMPDEST PUSH1 0x0 PUSH1 0x20 DUP3 ADD SWAP1 POP DUP2 DUP2 SUB PUSH1 0x0 DUP4 ADD MSTORE PUSH2 0x1712 DUP2 PUSH2 0x1473 JUMP JUMPDEST SWAP1 POP SWAP2 SWAP1 POP JUMP JUMPDEST PUSH1 0x0 PUSH1 0x20 DUP3 ADD SWAP1 POP DUP2 DUP2 SUB PUSH1 0x0 DUP4 ADD MSTORE PUSH2 0x1732 DUP2 PUSH2 0x1496 JUMP JUMPDEST SWAP1 POP SWAP2 SWAP1 POP JUMP JUMPDEST PUSH1 0x0 PUSH1 0x20 DUP3 ADD SWAP1 POP DUP2 DUP2 SUB PUSH1 0x0 DUP4 ADD MSTORE PUSH2 0x1752 DUP2 PUSH2 0x14B9 JUMP JUMPDEST SWAP1 POP SWAP2 SWAP1 POP JUMP JUMPDEST PUSH1 0x0 PUSH1 0x20 DUP3 ADD SWAP1 POP DUP2 DUP2 SUB PUSH1 0x0 DUP4 ADD MSTORE PUSH2 0x1772 DUP2 PUSH2 0x14DC JUMP JUMPDEST SWAP1 POP SWAP2 SWAP1 POP JUMP JUMPDEST PUSH1 0x0 PUSH1 0x20 DUP3 ADD SWAP1 POP PUSH2 0x178E PUSH1 0x0 DUP4 ADD DUP5 PUSH2 0x14FF JUMP JUMPDEST SWAP3 SWAP2 POP POP JUMP JUMPDEST PUSH1 0x0 PUSH1 0x40 DUP3 ADD SWAP1 POP PUSH2 0x17A9 PUSH1 0x0 DUP4 ADD DUP6 PUSH2 0x14FF JUMP JUMPDEST PUSH2 0x17B6 PUSH1 0x20 DUP4 ADD DUP5 PUSH2 0x14FF JUMP JUMPDEST SWAP4 SWAP3 POP POP POP JUMP JUMPDEST PUSH1 0x0 PUSH1 0x80 DUP3 ADD SWAP1 POP PUSH2 0x17D2 PUSH1 0x0 DUP4 ADD DUP8 PUSH2 0x14FF JUMP JUMPDEST PUSH2 0x17DF PUSH1 0x20 DUP4 ADD DUP7 PUSH2 0x14FF JUMP JUMPDEST PUSH2 0x17EC PUSH1 0x40 DUP4 ADD DUP6 PUSH2 0x150E JUMP JUMPDEST PUSH2 0x17F9 PUSH1 0x60 DUP4 ADD DUP5 PUSH2 0x150E JUMP JUMPDEST SWAP6 SWAP5 POP POP POP POP POP JUMP JUMPDEST PUSH1 0x0 DUP3 DUP3 MSTORE PUSH1 0x20 DUP3 ADD SWAP1 POP SWAP3 SWAP2 POP POP JUMP JUMPDEST PUSH1 0x0 PUSH2 0x181E DUP3 PUSH2 0x18DB JUMP JUMPDEST SWAP2 POP PUSH2 0x1829 DUP4 PUSH2 0x18DB JUMP JUMPDEST SWAP3 POP DUP3 PUSH32 0xFFFFFFFFFFFFFFFFFFFFFFFFFFFFFFFFFFFFFFFFFFFFFFFFFFFFFFFFFFFFFFFF SUB DUP3 GT ISZERO PUSH2 0x185E JUMPI PUSH2 0x185D PUSH2 0x1974 JUMP JUMPDEST JUMPDEST DUP3 DUP3 ADD SWAP1 POP SWAP3 SWAP2 POP POP JUMP JUMPDEST PUSH1 0x0 PUSH2 0x1874 DUP3 PUSH2 0x18DB JUMP JUMPDEST SWAP2 POP PUSH2 0x187F DUP4 PUSH2 0x18DB JUMP JUMPDEST SWAP3 POP DUP3 DUP3 LT ISZERO PUSH2 0x1892 JUMPI PUSH2 0x1891 PUSH2 0x1974 JUMP JUMPDEST JUMPDEST DUP3 DUP3 SUB SWAP1 POP SWAP3 SWAP2 POP POP JUMP JUMPDEST PUSH1 0x0 PUSH2 0x18A8 DUP3 PUSH2 0x18BB JUMP JUMPDEST SWAP1 POP SWAP2 SWAP1 POP JUMP JUMPDEST PUSH1 0x0 DUP2 ISZERO ISZERO SWAP1 POP SWAP2 SWAP1 POP JUMP JUMPDEST PUSH1 0x0 PUSH20 0xFFFFFFFFFFFFFFFFFFFFFFFFFFFFFFFFFFFFFFFF DUP3 AND SWAP1 POP SWAP2 SWAP1 POP JUMP JUMPDEST PUSH1 0x0 DUP2 SWAP1 POP SWAP2 SWAP1 POP JUMP JUMPDEST PUSH1 0x0 PUSH4 0xFFFFFFFF DUP3 AND SWAP1 POP SWAP2 SWAP1 POP JUMP JUMPDEST PUSH1 0x0 PUSH2 0x1900 DUP3 PUSH2 0x1907 JUMP JUMPDEST SWAP1 POP SWAP2 SWAP1 POP JUMP JUMPDEST PUSH1 0x0 PUSH2 0x1912 DUP3 PUSH2 0x1919 JUMP JUMPDEST SWAP1 POP SWAP2 SWAP1 POP JUMP JUMPDEST PUSH1 0x0 PUSH2 0x1924 DUP3 PUSH2 0x18BB JUMP JUMPDEST SWAP1 POP SWAP2 SWAP1 POP JUMP JUMPDEST PUSH1 0x0 PUSH2 0x1936 DUP3 PUSH2 0x18DB JUMP JUMPDEST SWAP2 POP PUSH32 0xFFFFFFFFFFFFFFFFFFFFFFFFFFFFFFFFFFFFFFFFFFFFFFFFFFFFFFFFFFFFFFFF DUP3 EQ ISZERO PUSH2 0x1969 JUMPI PUSH2 0x1968 PUSH2 0x1974 JUMP JUMPDEST JUMPDEST PUSH1 0x1 DUP3 ADD SWAP1 POP SWAP2 SWAP1 POP JUMP JUMPDEST PUSH32 0x4E487B7100000000000000000000000000000000000000000000000000000000 PUSH1 0x0 MSTORE PUSH1 0x11 PUSH1 0x4 MSTORE PUSH1 0x24 PUSH1 0x0 REVERT JUMPDEST PUSH1 0x0 DUP1 REVERT JUMPDEST PUSH32 0x42616C20213D2030000000000000000000000000000000000000000000000000 PUSH1 0x0 DUP3 ADD MSTORE POP JUMP JUMPDEST PUSH32 0x636C61696D656400000000000000000000000000000000000000000000000000 PUSH1 0x0 DUP3 ADD MSTORE POP JUMP JUMPDEST PUSH32 0x6E6F742063726561746F72000000000000000000000000000000000000000000 PUSH1 0x0 DUP3 ADD MSTORE POP JUMP JUMPDEST PUSH32 0x506C6564676564203E3D20476F616C0000000000000000000000000000000000 PUSH1 0x0 DUP3 ADD MSTORE POP JUMP JUMPDEST PUSH32 0x73746172743C6E6F770000000000000000000000000000000000000000000000 PUSH1 0x0 DUP3 ADD MSTORE POP JUMP JUMPDEST PUSH32 0x44656E6965640000000000000000000000000000000000000000000000000000 PUSH1 0x0 DUP3 ADD MSTORE POP JUMP JUMPDEST PUSH32 0x73746172743C656E640000000000000000000000000000000000000000000000 PUSH1 0x0 DUP3 ADD MSTORE POP JUMP JUMPDEST PUSH32 0x6475723C6D61785F647572000000000000000000000000000000000000000000 PUSH1 0x0 DUP3 ADD MSTORE POP JUMP JUMPDEST PUSH32 0x706C6564676564203C20676F616C000000000000000000000000000000000000 PUSH1 0x0 DUP3 ADD MSTORE POP JUMP JUMPDEST PUSH32 0x6E6F742073746172746564000000000000000000000000000000000000000000 PUSH1 0x0 DUP3 ADD MSTORE POP JUMP JUMPDEST PUSH32 0x656E646564000000000000000000000000000000000000000000000000000000 PUSH1 0x0 DUP3 ADD MSTORE POP JUMP JUMPDEST PUSH32 0x6E6F7420656E6465640000000000000000000000000000000000000000000000 PUSH1 0x0 DUP3 ADD MSTORE POP JUMP JUMPDEST PUSH2 0x1B9D DUP2 PUSH2 0x189D JUMP JUMPDEST DUP2 EQ PUSH2 0x1BA8 JUMPI PUSH1 0x0 DUP1 REVERT JUMPDEST POP JUMP JUMPDEST PUSH2 0x1BB4 DUP2 PUSH2 0x18AF JUMP JUMPDEST DUP2 EQ PUSH2 0x1BBF JUMPI PUSH1 0x0 DUP1 REVERT JUMPDEST POP JUMP JUMPDEST PUSH2 0x1BCB DUP2 PUSH2 0x18DB JUMP JUMPDEST DUP2 EQ PUSH2 0x1BD6 JUMPI PUSH1 0x0 DUP1 REVERT JUMPDEST POP JUMP JUMPDEST PUSH2 0x1BE2 DUP2 PUSH2 0x18E5 JUMP JUMPDEST DUP2 EQ PUSH2 0x1BED JUMPI PUSH1 0x0 DUP1 REVERT JUMPDEST POP JUMP INVALID LOG2 PUSH5 0x6970667358 0x22 SLT KECCAK256 PUSH8 0x8B481E1040C5874A PUSH23 0xAA7CCF2465B7535DE521BDAF41200ED0A94E1D54766864 PUSH20 0x6F6C634300080700330000000000000000000000 "
				},
				"gasEstimates": {
					"creation": {
						"codeDepositCost": "1441200",
						"executionCost": "infinite",
						"totalCost": "infinite"
					},
					"external": {
						"campaigns(uint256)": "infinite",
						"claim(uint256)": "infinite",
						"close(uint256)": "infinite",
						"count()": "2430",
						"launch(uint256,uint32,uint32)": "infinite",
						"pledge(uint256,uint256)": "infinite",
						"pledgedAmount(uint256,address)": "infinite",
						"refund(uint256)": "infinite",
						"token()": "infinite",
						"unpledge(uint256,uint256)": "infinite"
					}
				},
				"methodIdentifiers": {
					"campaigns(uint256)": "141961bc",
					"claim(uint256)": "379607f5",
					"close(uint256)": "0aebeb4e",
					"count()": "06661abd",
					"launch(uint256,uint32,uint32)": "2c63f146",
					"pledge(uint256,uint256)": "fde327be",
					"pledgedAmount(uint256,address)": "aa4fb63a",
					"refund(uint256)": "278ecde1",
					"token()": "fc0c546a",
					"unpledge(uint256,uint256)": "711853ab"
				}
			},
			"storageLayout": {
				"storage": [
					{
						"astId": 82,
						"contract": "Homework3.sol:fund",
						"label": "count",
						"offset": 0,
						"slot": "0",
						"type": "t_uint256"
					},
					{
						"astId": 90,
						"contract": "Homework3.sol:fund",
						"label": "campaigns",
						"offset": 0,
						"slot": "1",
						"type": "t_mapping(t_uint256,t_struct(Campaign)79_storage)"
					},
					{
						"astId": 96,
						"contract": "Homework3.sol:fund",
						"label": "pledgedAmount",
						"offset": 0,
						"slot": "2",
						"type": "t_mapping(t_uint256,t_mapping(t_address,t_uint256))"
					}
				],
				"types": {
					"t_address": {
						"encoding": "inplace",
						"label": "address",
						"numberOfBytes": "20"
					},
					"t_bool": {
						"encoding": "inplace",
						"label": "bool",
						"numberOfBytes": "1"
					},
					"t_mapping(t_address,t_uint256)": {
						"encoding": "mapping",
						"key": "t_address",
						"label": "mapping(address => uint256)",
						"numberOfBytes": "32",
						"value": "t_uint256"
					},
					"t_mapping(t_uint256,t_mapping(t_address,t_uint256))": {
						"encoding": "mapping",
						"key": "t_uint256",
						"label": "mapping(uint256 => mapping(address => uint256))",
						"numberOfBytes": "32",
						"value": "t_mapping(t_address,t_uint256)"
					},
					"t_mapping(t_uint256,t_struct(Campaign)79_storage)": {
						"encoding": "mapping",
						"key": "t_uint256",
						"label": "mapping(uint256 => struct fund.Campaign)",
						"numberOfBytes": "32",
						"value": "t_struct(Campaign)79_storage"
					},
					"t_struct(Campaign)79_storage": {
						"encoding": "inplace",
						"label": "struct fund.Campaign",
						"members": [
							{
								"astId": 68,
								"contract": "Homework3.sol:fund",
								"label": "creator",
								"offset": 0,
								"slot": "0",
								"type": "t_address"
							},
							{
								"astId": 70,
								"contract": "Homework3.sol:fund",
								"label": "goal",
								"offset": 0,
								"slot": "1",
								"type": "t_uint256"
							},
							{
								"astId": 72,
								"contract": "Homework3.sol:fund",
								"label": "start",
								"offset": 0,
								"slot": "2",
								"type": "t_uint32"
							},
							{
								"astId": 74,
								"contract": "Homework3.sol:fund",
								"label": "end",
								"offset": 4,
								"slot": "2",
								"type": "t_uint32"
							},
							{
								"astId": 76,
								"contract": "Homework3.sol:fund",
								"label": "pledged",
								"offset": 0,
								"slot": "3",
								"type": "t_uint256"
							},
							{
								"astId": 78,
								"contract": "Homework3.sol:fund",
								"label": "claimed",
								"offset": 0,
								"slot": "4",
								"type": "t_bool"
							}
						],
						"numberOfBytes": "160"
					},
					"t_uint256": {
						"encoding": "inplace",
						"label": "uint256",
						"numberOfBytes": "32"
					},
					"t_uint32": {
						"encoding": "inplace",
						"label": "uint32",
						"numberOfBytes": "4"
					}
				}
			},
			"userdoc": {
				"kind": "user",
				"methods": {},
				"version": 1
			}
		}
	}
}